:10000000FDC000001BC1000019C1000017C10000A5
:1000100015C1000013C1000011C100000FC1000094
:100020000DC100000BC1000009C1000007C10000A4
:1000300005C1000003C100007AC50000FFC0000038
:10004000FDC00000FBC00000F9C00000F7C00000C8
:10005000F5C00000F3C00000F1C00000EFC00000D8
:10006000EDC00000EBC00000E9C00000E7C00000E8
:10007000E5C00000E3C00000E1C00000DFC00000F8
:10008000DDC00000DBC00000D9C00000D7C0000008
:10009000D5C00000D3C00000D1C00000CFC0000018
:1000A000CDC00000CBC00000C9C00000C7C0000028
:1000B000C5C00000C3C00000C1C000008DC4000066
:1000C000BDC00000BBC00000B9C00000B7C0000048
:1000D000B5C00000B3C00000B1C00000AFC0000058
:1000E000ADC00000ABC00000A9C00000A7C0000068
:1000F000A5C00000A3C00000A1C000009FC0000078
:100100009DC000009BC0000099C0000097C0000087
:1001100095C0000093C0000091C000008FC0000097
:100120008DC000008BC0000089C0000087C00000A7
:1001300085C0000009C4000081C000007FC000002D
:100140007DC000007BC0000079C0000077C00000C7
:1001500075C0000073C0000071C000006FC00000D7
:1001600087C200006BC0000043C2000067C00000EF
:1001700065C0000063C0000061C000005FC00000F7
:100180005DC000005BC0000059C0000057C0000007
:1001900055C0000053C0000051C000004FC0000017
:1001A0004DC000004BC0000049C0000047C0000027
:1001B0003FC4000043C0000041C000003FC0000039
:1001C0003DC000003BC0000039C0000037C0000047
:1001D00035C0000033C0000031C000002FC0000057
:1001E0002DC000002BC0000029C0000027C0000067
:1001F00025C0000023C0000021C0000011241FBE44
:10020000CFEFCDBFDFE5DEBF00E00CBF10E2A0E026
:10021000B0E2E6E1F0E200E00BBF02C007900D9211
:10022000AA3CB107D9F726E2AAECB0E201C01D92C0
:10023000A535B207E1F753D60C940910CAC12F9225
:100240003F924F925F926F927F928F929F92AF9266
:10025000BF92CF92DF92EF92FF920F931F93CF93B3
:10026000DF93CDB7DEB72C97CDBFDEBF8C01E0E0CA
:10027000F2E080A1816080A38FE68093210280A1BB
:10028000806880A3868180FFFDCFE12C6894FF24E5
:10029000F1F881E0F70183A36089718980E090E043
:1002A0000E94C00E20E030E040E85DE30E944E0F67
:1002B0002B013C0187E780932102F70180A1806830
:1002C00080A3868180FFFDCFE12C6894FF24F1F8A4
:1002D00081E0F70183A36089718980E090E00E944A
:1002E000C00E20E030E040E85DE30E944E0F4B017D
:1002F0005C018FE780932102F70180A1806880A3D1
:10030000868180FFFDCFE12C6894FF24F1F881E025
:10031000F70183A36089718980E090E00E94C00E9C
:1003200020E030E040E85DE30E944E0F69837A836D
:100330008B839C8388E380932102F70180A18068EE
:1003400080A3868180FFFDCFE12C6894FF24F1F823
:1003500081E0F70183A36089718980E090E00E94C9
:10036000C00E20E030E040E859E30E944E0F2DEC33
:100370003CEC4CE45DE30E94F30D2DEC3CEC44E2DC
:1003800051E40E944E0F6D837E838F8398878FE0A8
:1003900080932102F70180A1806880A3868180FF7D
:1003A000FDCFE12C6894FF24F1F881E0F70183A3ED
:1003B0006089718980E090E00E94C00E20E030E00A
:1003C00040E859E30E944E0F2DEC3CEC4CE45DE319
:1003D0000E94F30D2DEC3CEC44E251E40E944E0FE0
:1003E00069877A878B879C8787E480932102F7014E
:1003F00080A1806880A3868180FFFDCF212C689436
:10040000332431F881E0F10183A36089718980E0B0
:1004100090E00E94C00E20E030E040E859E30E94E6
:100420004E0F2DEC3CEC4CE45DE30E94F30D2DEC03
:100430003CEC44E251E40E944E0F6B017C01F1015F
:1004400010A280E181A380A1806880A3868180FFC3
:10045000FDCFE0E0F2E081E083A32088318820E056
:1004600030E048EC52E4C301B2010E944E0F20E09C
:1004700030E04FE753E40E94580EF801648375831F
:100480008683978320E030E048EC52E4C501B40154
:100490000E944E0F20E030E04FE753E40E94580ED8
:1004A000F801608771878287938720E030E048EC0D
:1004B00052E469817A818B819C810E944E0F20E0F9
:1004C00030E04FE753E40E94580EF80164877587C7
:1004D0008687978720E030E048EC52E46D817E818A
:1004E0008F8198850E944E0F20E030E04FE753E463
:1004F0000E94580EF801608B718B828B938B20E0E9
:1005000030E048EC52E469857A858B859C850E94B1
:100510004E0F20E030E04FE753E40E94580EF80100
:10052000648B758B868B978B20E030E048EC52E42F
:10053000C701B6010E944E0F20E030E04FE753E4C0
:100540000E94580EF801608F718F828F938FB101D6
:1005500080E090E00E94C00E20E030E040E859E3E7
:100560000E944E0F2DEC3CEC4CE45DE30E94F30D39
:100570002AE939E945E251E40E944E0F20E030E0DB
:1005800048EC52E40E944E0F20E030E04FE753E485
:100590000E94580EF801648F758F868F978F10A276
:1005A00011A212A213A22C96CDBFDEBFDF91CF9174
:1005B0001F910F91FF90EF90DF90CF90BF90AF9081
:1005C0009F908F907F906F905F904F903F902F9073
:1005D00008951F920F920FB60F9211248F9388E007
:1005E000809307068F910F900FBE0F901F90189564
:1005F0001F920F920FB60F9211240BB60F928F938A
:100600009F93EF93FF93E091AF25F091B025E95AC6
:10061000FC4D80818823F9F08332E9F091E09093DA
:10062000B125853221F48AE08093A00902C080932D
:10063000A0098091AF259091B0258739910530F4BC
:1006400001968093AF259093B02507C0FC01E95A2D
:10065000FC4D108202C01092B125FF91EF919F9145
:100660008F910F900BBE0F900FBE0F901F9018959B
:100670001F920F920FB60F9211240BB60F922F9369
:100680003F934F935F936F937F938F939F93AF931A
:10069000BF93EF93FF93CF93DF931F92CDB7DEB756
:1006A00080E1809305068091A00989838981843245
:1006B00021F481E08093DE2531C18981823581F486
:1006C0008091DE25882309F4E8C08FB7F894109252
:1006D000DE2598ED94BF91E0909379008FBF1EC105
:1006E00089818035F9F48091DE25882309F4DBC007
:1006F00032D51092CA201092CB201092CC201092AA
:10070000CD201092DE25EEECF0E281E08183808343
:100710002FEF87EA91E6215080409040E1F700C03A
:100720000000FCC08981813359F48091DE25882343
:1007300009F4BFC0ECEDF5E281E084831282EEC0E3
:100740008981823351F48091DE25882309F4B7C072
:10075000ECEDF5E214821282E1C08981833359F411
:100760008091DE25882309F4B0C0ECEDF5E281E04C
:1007700083831282D3C08981843351F48091DE2532
:10078000882309F4A8C0ECEDF5E213821282C6C0FA
:100790008981853351F48091DE25882309F4A1C035
:1007A000ECEDF5E213821282B9C08981863389F4B7
:1007B0008091DE25882309F49AC0ECEDF5E286E904
:1007C00090E0A0E0B0E081879287A387B48712828F
:1007D000A5C08981873389F48091DE25882309F4B7
:1007E0008CC0ECEDF5E288EC90E0A0E0B0E0818711
:1007F0009287A387B487128291C08981883389F454
:100800008091DE25882309F47EC0ECEDF5E28EE5CB
:1008100091E0A0E0B0E081879287A387B48712823D
:100820007DC08981893389F48091DE25882309F48C
:1008300070C0ECEDF5E28AE892E0A0E0B0E08187DC
:100840009287A387B487128269C08981813469F451
:100850008091DE25882309F45FC0ECEDF5E281E0AC
:10086000878316821582128259C08981803591F45E
:100870008091DE25882371F0ECEDF5E281E086833E
:1008800012821092F0251092F1251092F22510920A
:10089000F32544C01092DE2541C0898189818133CE
:1008A00009F04ECF06C089818981823309F055CF86
:1008B00006C089818981833309F05DCF06C08981B3
:1008C0008981843309F064CF06C0898189818533A9
:1008D00009F06BCF06C089818981863309F079CF11
:1008E00006C089818981873309F087CF06C0898155
:1008F0008981883309F095CF06C089818981893340
:1009000009F0A3CF06C089818981813409F0ADCF78
:1009100003C089818981BECF8981BCCF0F90DF91CF
:10092000CF91FF91EF91BF91AF919F918F917F9167
:100930006F915F914F913F912F910F900BBE0F9050
:100940000FBE0F901F9018951F920F920FB60F9227
:1009500011240BB60F928F939F93EF93FF93809187
:10096000CE20882349F18091CF20813079F028F082
:100970008230D1F08330E1F024C0EEECF0E210825E
:100980001382128280E48093A6061BC08091D1203E
:10099000873018F01092CF2014C090E49093A706EF
:1009A0008F5F8093D1200DC080E48093A70609C09B
:1009B00080E48093A50605C01092CF2080E4809348
:1009C000A606FF91EF919F918F910F900BBE0F9014
:1009D0000FBE0F901F9018951F920F920FB60F9297
:1009E00011240BB60F928F939F93AF93BF93EF9306
:1009F000FF9380E1809306061092DE25E0EFF5E29A
:100A000080819181A281B3810196A11DB11D808356
:100A10009183A283B383FF91EF91BF91AF919F9197
:100A20008F910F900BBE0F900FBE0F901F901895D7
:100A30001F920F920FB60F9211240BB60F922F93A5
:100A40003F934F935F936F937F938F939F93AF9356
:100A5000BF93EF93FF9380E2809307061092B22535
:100A60008091DF25882341F18091F4259091F5252F
:100A7000A091F625B091F7258F3926E8920721E05D
:100A8000A207B10560F40196A11DB11D8093F42564
:100A90009093F525A093F625B093F72508C0109202
:100AA000F4251092F5251092F6251092F725109254
:100AB0002A2310922B239CDDFF91EF91BF91AF91E0
:100AC0009F918F917F916F915F914F913F912F9166
:100AD0000F900BBE0F900FBE0F901F9018951092A5
:100AE000AF251092B025ACEDB5E21C9211961C9288
:100AF0001197ECEFF5E281E196E280839183A28386
:100B0000B38387E593E28483958382ED90E28683C5
:100B1000978380EF95E28087918788E096E28287CD
:100B200093870895FC018081918189CB08951F925C
:100B30000F920FB60F9211240BB60F922F933F9383
:100B40004F935F936F937F938F939F93AF93BF93D5
:100B5000EF93FF938CEF95E2E5DF8CEF95E232D5D2
:100B60008091E025882349F020EF35E242ED50E204
:100B700060E971E08AEC90E28ED38091B125811119
:100B80000AC085E892E0E2EDF0E2A7E5B3E2019069
:100B90000D920197E1F784E080930706E091042627
:100BA000F091052680819181A281B3810196A11DDA
:100BB000B11D80839183A283B383FF91EF91BF9195
:100BC000AF919F918F917F916F915F914F913F91E5
:100BD0002F910F900BBE0F900FBE0F901F90189586
:100BE00080E2AFD3B1D3B1D3D5D436D44BD488E2DD
:100BF00090E0ACD38AEF90E0C9D38AE090E0E6D3EE
:100C000088EE93E003D46BDF9ED4A9D480E05FD25A
:100C1000B9D26093CA207093CB208093CC2090935C
:100C2000CD2087E08093A2000895CF93DF93CDB7C6
:100C3000DEB76697CDBFDEBF86E1E0E0F0E2DE0121
:100C4000119601900D928A95E1F7E0E8F6E0808533
:100C500080FFFDCF808581FFFACFEEECF0E283E0EC
:100C6000818381E0808377D22FEF87EA91E621505C
:100C700080409040E1F700C000008981882371F036
:100C8000FE013296A0EAB9E08C938FE79EE30197CC
:100C9000F1F700C0000081918111F6CF1092CE20B3
:100CA0001092CA201092CB201092CC201092CD200E
:100CB0006696CDBFDEBFDF91CF9108954F925F92D0
:100CC0006F927F929F92AF92BF92CF92DF92EF92FC
:100CD000FF920F931F93CF93DF93CDB7DEB7C45B23
:100CE000D109CDBFDEBF1092E025EEECF0E283E04B
:100CF000818381E080832FEF87E893E1215080405A
:100D00009040E1F700C000001082E0E8F6E0808546
:100D100081FFFDCF80EAE6E1F0E2DE01119601906D
:100D20000D928A95E1F784E1E6EBF0E2DE01AF5542
:100D3000BF4F01900D928A95E1F78981882389F050
:100D4000FE013296A0EAB9E08C932FEF89EF90E094
:100D5000215080409040E1F700C000008191811156
:100D6000F3CFEFEFF7EA21E6E150F0402040E1F762
:100D700000C0000084E08093050681E05FD183E03D
:100D800040D180E03ED180E03CD180E03AD1912C4E
:100D9000C12CD12C76010F2EF0EAAF2EF9E0BF2E38
:100DA000F02D0F2EF4E64F2E512C612C712CF02DCE
:100DB00000E816E039D18F3F21F0F5018083912CB6
:100DC00001C09394FFEFCF1ADF0AEF0AFF0AC701B1
:100DD000B601A30192010E94C40F672B682B692BF7
:100DE00051F42FEF89EF90E0215080409040E1F7DF
:100DF00000C0000006C0EFE1F3E03197F1F700C05A
:100E00000000F801808580FF03C0F3E6F91590F635
:100E100080E014D1CF55DF4F8881C15AD04088235C
:100E200079F0FE01EE55FF4FA0EAB9E08C938FE315
:100E30009FE10197F1F700C0000081918111F6CF89
:100E4000CC54DF4FCDBFDEBFDF91CF911F910F910B
:100E5000FF90EF90DF90CF90BF90AF909F907F90EA
:100E60006F905F904F900895E0E0F6E088E0858312
:100E70002FEF37E893E1215030409040E1F700C078
:100E8000000086832FEF33EC99E0215030409040F2
:100E9000E1F700C0000085832FEF37E893E1215090
:100EA00030409040E1F700C0000086832FEF33EC24
:100EB00089E0215030408040E1F700C000000895F3
:100EC0008091880680FD06C08091880681FD02C061
:100ED000ACCE08958091880681FFF0CE0895ECEDA8
:100EE000F5E2148281E083831092B22579DE789452
:100EF000BBDFE6DFC12CD12C7601C0EFD5E28AE65C
:100F00008A95F1F700C08CED95E23DD68091E325FE
:100F1000882341F025D619D604D60BD60ED627D66F
:100F20002ED6EDCF8091E125882311F00AD6E7CFA8
:100F30008091E225882319F388819981AA81BB8158
:100F40008C159D05AE05BF0528F0ECEDF5E280851A
:100F50008F5F80878091E425833029F128F48130E8
:100F600049F08230A1F0CBCF843091F1853009F483
:100F70003AC0C5CFFCD503D6C880D980EA80FB80B3
:100F800088EEC80E83E0D81EE11CF11CB8CFF3D563
:100F9000BCD5C880D980EA80FB8088ECC80ED11C03
:100FA000E11CF11CACCFB5D5B8D5BFD5D2D5C0901A
:100FB000E525D090E625E090E725F090E8258881AA
:100FC0009981AA81BB81C80ED91EEA1EFB1E97CF4C
:100FD000B0D5C880D980EA80FB808AE0C80ED11CD9
:100FE000E11CF11C8CCF9DD5BBD5A7D5C880D9807D
:100FF000EA80FB8088EEC80E83E0D81EE11CF11C5D
:101000007ECFCF93DF931F92CDB7DEB78093C30817
:10101000E0ECF8E082818823ECF78091C3088983B3
:101020000F90DF91CF9108951092C308E0ECF8E0A3
:1010300082818823ECF78091C3080895882321F0EA
:1010400081E080936606089581E0809365060895A7
:101050001F93CF93DF93C0E6D6E011E01E8386E0B6
:10106000D0DF1D83DF91CF911F9108951F93CF9300
:10107000DF93C0E6D6E011E01E8384E0C2DF1D836B
:10108000DF91CF911F910895DF92EF92FF920F931E
:101090001F93CF93DF93F62EE72ED82E042FD8DFA1
:1010A000C0E6D6E011E01E8382E0ABDF8D2DA9DF24
:1010B0008E2DA7DF8F2DA5DF802FA3DF1D83DF916E
:1010C000CF911F910F91FF90EF90DF9008951F93A4
:1010D000CF93DF93882391F0C0E6D6E011E01E8322
:1010E00080E58FDF1D838AE08A95F1F700C01E83BB
:1010F00081E087DF8CE185DF1D8311C0C0E6D6E08B
:1011000011E01E8380E57DDF1D838AE08A95F1F77B
:1011100000C01E8381E075DF80E073DF1D83DF91F7
:10112000CF911F910895CF93DF931F92CDB7DEB774
:1011300081E08093660685E064DF76DF898374DF73
:101140008983898180FDFBCF81E0809365060F90C4
:10115000DF91CF9108951F93CF93DF9379DFC0E69E
:10116000D6E011E01E8380E64CDF1D838FE193E023
:101170000197F1F700C00000D6DF78DFDF91CF9153
:101180001F910895CF92DF92EF92FF9281E08093BA
:10119000660683E036DF80E034DF80E032DF80E027
:1011A00030DFC12CD12C76010DC08FEFC81AD80AC0
:1011B000E80AF80A80EAC8168FE8D8068EE3E8063F
:1011C000F10419F031DF8F3F81F781E080936506EC
:1011D000C701B601FF90EF90DF90CF9008958F92F6
:1011E0009F92AF92BF92CF92DF92EF92FF920F93B6
:1011F0001F93CF93DF934B01FA01DC014D915D9179
:101200006D917C91403D5E4F6F437105B8F524E0D0
:10121000209305064081442371F1A12CB12C811447
:101220009104A104B10439F18F01EC010F5F1F4F4C
:10123000C12CD12C7601EFEFCE1ADE0AEE0AFE0A9F
:10124000688179818A819B811FDF6DDF8881998127
:10125000AA81BB810196A11DB11D88839983AA83B0
:10126000BB83D8014D918D01442329F0C814D904C2
:10127000EA04FB0401F784E080930606DF91CF9136
:101280001F910F91FF90EF90DF90CF90BF90AF90A4
:101290009F908F900895CF93DF93E901A0DF888519
:1012A0009985AA85BB858F3322E492072FE0A20798
:1012B000B10540F40196A11DB11D88879987AA87C1
:1012C000BB8704C0188619861A861B86DF91CF91CA
:1012D0000895E0E5F0E0908191609083A8E6B0E0A9
:1012E00090E412969C9312979DE013969C939081A4
:1012F00094609083918192FFFDCFE0E5F0E09681CC
:10130000987F9683E8E6F0E0908191609083E0E535
:10131000F0E0918190FFFDCF98ED94BF10924000D6
:10132000E0E5F0E090819F7E9083858380E180837B
:10133000818184FFFDCF88ED84BF84E080934000ED
:1013400008958695C6CF08950895089527E02093BF
:1013500000081092010810922008109221089C01A8
:10136000A0E0BDE733D6DC01CB01072E7AE0B695CD
:10137000A795979587957A95D1F7702D8093260834
:101380009093270882E080930608089527E0209331
:1013900000091092010910922009109221099C0164
:1013A000A0E0BDE713D6DC01CB01072E7AE0B695AD
:1013B000A795979587957A95D1F7702D80932609F3
:1013C0009093270981E080930609089527E02093F0
:1013D000000A1092010A1092200A1092210A9C0120
:1013E000A0E0BDE7F3D5DC01CB01072E7AE0B6958E
:1013F000A795979587957A95D1F7702D8093260AB2
:101400009093270A82E08093060A089527E02093AC
:10141000000B1092010B1092200B1092210B813DBA
:1014200027E0920710F080ED97E09C01A0E0BDE777
:10143000CDD5DC01CB01072E7AE0B695A79597951F
:1014400087957A95D1F7702D8093260B9093270B73
:1014500082E08093060B0895E0E6F6E084E0868360
:1014600088E085838183E0EAF9E083E0858387E192
:10147000868384EA878383818C6183838481886106
:10148000848308950F931F93CF93DF93A0E2B6E078
:1014900080EF12968C93129788E154968C93549710
:1014A00055968C93559756968C93569757968C9342
:1014B0005797E0EAF6E08FE38183868380E48183B7
:1014C0008683E0E6F6E081E081838683C0E8D6E0AB
:1014D00087E089838E83C0EED7E083E089838E83A3
:1014E00020E036E090ECE90199839E8306E616E061
:1014F00094E0E801988361E676E048E0EB014883F8
:1015000050E25883E80158839093A6064093A506BD
:101510004093A10640E456E0EA01888380934406A4
:10152000E9018E838FE016968C9380E38183868316
:1015300082E081838683FA0191839683DF91CF9144
:101540001F910F910895E0E8F4E080E3818391E03A
:101550009283858381818860818394830895E0E408
:10156000F6E080E1818380EA818380E4828380EEFB
:101570008583E0E6F6E081E08183858381E58093E1
:10158000C0080895AAECB1E022E02C93FC018491FC
:101590001C9208951F93CF93DF93C0E0D2E011E037
:1015A000188380E290E0EEDF8C8781E290E0EADF52
:1015B0008D8719821A8283E08C8318A3DF91CF91E3
:1015C0001F9108958F929F92AF92BF92CF92DF9218
:1015D000EF92FF920F931F93CF93DF9300D000D031
:1015E000CDB7DEB7FC0119821A8226813781898145
:1015F0009A81AC014F5F5F4F49835A83D901A80F8D
:10160000B91F23E52C932681378189819A81AC010A
:101610004F5F5F4F49835A83820F931FA281B3812B
:1016200016962C91205DDC012C93268137818981CF
:101630009A81AC014F5F5F4F49835A83820F931F9A
:10164000A281B3811F962C91205DDC012C93268111
:10165000378189819A81AC014F5F5F4F49835A83FB
:10166000820F931FA281B3811D962C91205DDC0116
:101670002C932681378189819A81AC014F5F5F4F1E
:1016800049835A83820F931FA281B3811E962C91A6
:10169000205DDC012C932681378189819A81AC0100
:1016A0004F5F5F4F49835A83820F931FA281B3819B
:1016B00050962C91205DDC012C9326813781898105
:1016C0009A81AC014F5F5F4F49835A83D901A80FBC
:1016D000B91F1C922681378189819A81AC014F5FA5
:1016E0005F4F49835A83D901A80FB91F1C922681E5
:1016F000378189819A81AC014F5F5F4F49835A835B
:10170000820F931FA281B38151962C91205DDC0141
:101710002C932681378189819A81AC014F5F5F4F7D
:1017200049835A83820F931FA281B38152962C91D1
:10173000205DDC012C932681378189819A81AC015F
:101740004F5F5F4F49835A83820F931FA281B381FA
:1017500053962C91205DDC012C9326813781898161
:101760009A81AC014F5F5F4F49835A83D901A80F1B
:10177000B91F2CE22C932681378189819A81AC0193
:101780004F5F5F4F49835A83820F931FA281B381BA
:1017900019962C91205DDC012C938B819C819923DF
:1017A00024F08D819E819923ECF48B819C8191950D
:1017B000819591098B839C838D819E8191958195E3
:1017C00091098D839E832681378189819A81AC011D
:1017D0004F5F5F4F49835A83D901A80FB91F2DE28C
:1017E0002C930EC02681378189819A81AC014F5F8D
:1017F0005F4F49835A83D901A80FB91F2BE22C935D
:101800000681178129813A81C901019689839A83CA
:101810008B819C81020F131F0F2EF0E18F2EF7E2B8
:101820009F2EF02DB4019DD3CB012AE030E0B90109
:1018300098D3805DD8018C930681178149815A81A4
:10184000CA01019689839A838B819C81040F151F9D
:101850000F2EF8EEAF2EF3E0BF2EF02DB50181D3A1
:10186000CB01B9017ED3805DD8018C9306811781AD
:1018700049815A81CA01019689839A838B819C810F
:10188000040F151F0F2EF4E6CF2ED12CF02DB6012C
:1018900068D3CB01B90165D3805DD8018C930681F3
:1018A000178149815A81CA01019689839A838B8164
:1018B0009C81040F151FB90154D3CB01B90151D339
:1018C000805DD8018C930681178149815A81CA01B4
:1018D000019689839A838B819C81040F151FB9011E
:1018E00040D3805DD8018C934681578189819A814C
:1018F000BC016F5F7F4F69837A83DA01A80FB91F3C
:101900004EE24C930681178149815A81CA010196A2
:1019100089839A838D819E81040F151FB90121D37C
:10192000CB01B9011ED3805DD8018C93068117814C
:1019300049815A81CA01019689839A838D819E814A
:10194000040F151FB9010DD3805DD8018C9346811A
:10195000578189819A81BC016F5F7F4F69837A8348
:10196000DA01A80FB91F0F2EFCE2EF2EF02DEC923A
:101970004681578189819A81BC016F5F7F4F69835E
:101980007A83DA01A80FB91F0F2EFAE0FF2EF02D8F
:10199000FC92A085B18514968D919C9115978B83AF
:1019A0009C830681178149815A81CA0101968983E6
:1019B0009A838B819C81040F151FB401D2D2CB0175
:1019C000B901CFD2805DD8018C93068117814981FE
:1019D0005A81CA01019689839A838B819C81040F65
:1019E000151FB501BED2CB01B901BBD2805DD801B4
:1019F0008C930681178149815A81CA010196898396
:101A00009A838B819C81040F151FB601AAD2CB014A
:101A1000B901A7D2805DD8018C93068117814981D5
:101A20005A81CA01019689839A838B819C81040F14
:101A3000151FB90196D2CB01B90193D2805DD801AF
:101A40008C930681178149815A81CA010196898345
:101A50009A838B819C81040F151FB90182D2805D0E
:101A6000D8018C932681378189819A81AC014F5F9F
:101A70005F4F49835A83D901A80FB91FEC92268181
:101A8000378189819A81AC014F5F5F4F49835A83C7
:101A9000D901A80FB91F2DE02C93268137818981A8
:101AA0009A81AC014F5F5F4F49835A83D901A80FD8
:101AB000B91FFC922681378189819A81AC014F5FE1
:101AC0005F4F49835A83D901A80FB91F1C92268101
:101AD000378189819A81AC014F5F5F4F49835A8377
:101AE000F901E80FF91F28E520832696CDBFDEBF58
:101AF000DF91CF911F910F91FF90EF90DF90CF90EA
:101B0000BF90AF909F908F90089584E0809385065A
:101B1000089584E080938606089582E08093850688
:101B2000089582E080938606089581E0809385067B
:101B3000089581E080938606089581E08093E5070B
:101B4000089582E08093E507089582E08093E60798
:101B50000895E0E6F6E080E1858380E286830895DB
:101B6000E0E6F6E080E1868380E28583089582E006
:101B70008093E507089582E08093E607089580E862
:101B8000809306060895CF93DF93FC01A0E8B6E0AA
:101B900018968C9118978170868718968C91189753
:101BA000869581708587C0EED7E088858170808BAF
:101BB000888586958170878718968C9182FB882707
:101BC00080F9818BA0E6B6E018968C91189785FB7A
:101BD000882780F9828B18968C9182958170838BEF
:101BE000DF91CF9108955058BB27AA270ED01CC172
:101BF0000DD130F012D120F031F49F3F11F41EF4DA
:101C000002C10EF4E095E7FBF8C0E92F1ED180F386
:101C1000BA17620773078407950718F071F49EF5E9
:101C200036C10EF4E0950B2EBA2FA02D0B01B90191
:101C300090010C01CA01A0011124FF27591B99F042
:101C4000593F50F4503E68F11A16F040A22F232F4E
:101C5000342F4427585FF3CF469537952795A7959E
:101C6000F0405395C9F77EF41F16BA0B620B730B45
:101C7000840BBAF09150A1F0FF0FBB1F661F771FB6
:101C8000881FC2F70EC0BA0F621F731F841F48F46B
:101C9000879577956795B795F7959E3F08F0B3CFF1
:101CA0009395880F08F09927EE0F979587950895DB
:101CB0000CD0BAC0B2D040F0A9D030F021F45F3FD0
:101CC00019F09BC05111E4C09EC0BFD098F3992376
:101CD000C9F35523B1F3951B550BBB27AA276217F0
:101CE0007307840738F09F5F5F4F220F331F441F35
:101CF000AA1FA9F333D00E2E3AF0E0E830D091506D
:101D00005040E695001CCAF729D0FE2F27D0660F59
:101D1000771F881FBB1F261737074807AB07B0E898
:101D200009F0BB0B802DBF01FF2793585F4F2AF0AE
:101D30009E3F510568F061C0ABC05F3FECF3983E39
:101D4000DCF3869577956795B795F7959F5FC9F70B
:101D5000880F911D9695879597F90895E1E0660F94
:101D6000771F881FBB1F621773078407BA0720F00D
:101D7000621B730B840BBA0BEE1F88F7E095089576
:101D8000E89409C097FB3EF4909580957095619515
:101D90007F4F8F4F9F4F9923A9F0F92F96E9BB27CB
:101DA0009395F695879577956795B795F111F8CF47
:101DB000FAF4BB0F11F460FF1BC06F5F7F4F8F4FB2
:101DC0009F4F16C0882311F096E911C0772321F0A8
:101DD0009EE8872F762F05C0662371F096E8862F40
:101DE00070E060E02AF09A95660F771F881FDAF797
:101DF000880F9695879597F9089597F99F6780E8DA
:101E000070E060E008959FEF80EC089500240A944C
:101E10001616170618060906089500240A941216C5
:101E20001306140605060895092E0394000C11F4F8
:101E3000882352F0BB0F40F4BF2B11F460FF04C0A5
:101E40006F5F7F4F8F4F9F4F089557FD9058440FFE
:101E5000551F59F05F3F71F04795880F97FB991F09
:101E600061F09F3F79F087950895121613061406C6
:101E7000551FF2CF4695F1DF08C016161706180653
:101E8000991FF1CF86957105610508940895E8942E
:101E9000BB2766277727CB0197F908950BD0C4CFCE
:101EA000B5DF28F0BADF18F0952309F0A6CFABCF45
:101EB0001124EECFCADFA0F3959FD1F3950F50E028
:101EC000551F629FF001729FBB27F00DB11D639FEC
:101ED000AA27F00DB11DAA1F649F6627B00DA11D92
:101EE000661F829F2227B00DA11D621F739FB00D38
:101EF000A11D621F839FA00D611D221F749F3327A8
:101F0000A00D611D231F849F600D211D822F762F40
:101F10006A2F11249F5750408AF0E1F088234AF03D
:101F2000EE0FFF1FBB1F661F771F881F9150504089
:101F3000A9F79E3F510570F060CFAACF5F3FECF349
:101F4000983EDCF3869577956795B795F795E79575
:101F50009F5FC1F7FE2B880F911D9695879597F986
:101F6000089597FB072E16F4009406D077FD08D04D
:101F70003CD007FC05D03EF4909581959F4F089585
:101F8000709561957F4F0895A1E21A2EAA1BBB1B85
:101F9000FD010DC0AA1FBB1FEE1FFF1FA217B30735
:101FA000E407F50720F0A21BB30BE40BF50B661F4B
:101FB000771F881F991F1A9469F76095709580950F
:101FC00090959B01AC01BD01CF010895A29FB00186
:101FD000B39FC001A39F700D811D1124911DB29F5D
:101FE000700D811D1124911D0895AA1BBB1B51E189
:101FF00007C0AA1FBB1FA617B70710F0A61BB70B79
:10200000881F991F5A95A9F780959095BC01CD011D
:062010000895F894FFCFD3
:102016000A0D4D656D6F7279206572617365642175
:102026000A0D0A0D00000A0D5465616D2C54656C8D
:1020360065436E742C53746174652C536F667453C8
:10204600746174652C416C7469747564652C56658D
:102056006C6F636974792C416363656C2C47797284
:102066006F2C4C61742C4C6F6E672C416C746947F5
:1020760050532C4669782C436865636B2C2C436E51
:10208600742C566F6C746167654261742C566F6C64
:10209600746167655643432C54656D702C507265A8
:1020A60073732C416363592C41636359322C47790E
:1020B600726F582C4779726F5A2C4779726F592C68
:1020C6000A0D0A0D00000A0D52656164696E6720EB
:0A20D600646F6E650A0D0A0D00002C
:00000001FF
