:1000000006C1000024C1000022C1000020C1000080
:100010001EC100001CC100001AC1000018C1000070
:1000200016C1000014C1000012C1000010C1000080
:100030000EC100000CC10000AAC3000008C10000EE
:1000400006C1000004C1000002C1000000C10000A0
:10005000FEC00000FCC00000FAC00000F8C00000B4
:10006000F6C00000F4C00000F2C00000F0C00000C4
:10007000EEC00000ECC00000EAC00000E8C00000D4
:10008000E6C00000E4C00000E2C00000E0C00000E4
:10009000DEC00000DCC00000DAC00000D8C00000F4
:1000A000D6C00000D4C00000D2C00000D0C0000004
:1000B000CEC00000CCC00000CAC00000DEC30000FB
:1000C000C6C00000C4C00000C2C00000C0C0000024
:1000D000BEC00000BCC00000BAC00000B8C0000034
:1000E000B6C00000B4C00000B2C00000B0C0000044
:1000F000AEC00000ACC00000AAC00000A8C0000054
:10010000A6C00000A4C00000A2C00000A0C0000063
:100110009EC000009CC000009AC0000098C0000073
:1001200096C0000094C0000092C0000090C0000083
:100130008EC000005AC300008AC0000088C00000C2
:1001400086C0000084C0000082C0000080C00000A3
:100150007EC000007CC000007AC0000078C00000B3
:1001600035C2000074C00000F1C1000070C0000082
:100170006EC000006CC000006AC0000068C00000D3
:1001800066C0000064C0000062C0000060C00000E3
:100190005EC000005CC000005AC0000058C00000F3
:1001A00056C0000054C0000052C0000050C0000003
:1001B00075C300004CC000004AC0000048C00000E9
:1001C00046C0000044C0000042C0000040C0000023
:1001D0003EC000003CC000003AC0000038C0000033
:1001E00036C0000034C0000032C0000030C0000043
:1001F0002EC000002CC000002AC00000EB04EE045A
:10020000F2040D057D0534054F057D0575051124A6
:100210001FBECFEFCDBFDFE5DEBF00E00CBF10E2B9
:10022000A0E0B0E2ECE9FCE300E00BBF02C0079005
:100230000D92A03DB107D9F726E2A0EDB0E201C0D2
:100240001D92A538B207E1F7DCD50C944C1E6FC1A6
:100250002F923F924F925F926F927F928F929F92D6
:10026000AF92BF92CF92DF92EF92FF920F931F93C4
:10027000CF93DF9300D01F92CDB7DEB71C01E0E033
:10028000F2E080A1816080A38FE68093210280A1AB
:10029000806880A3868180FFFDCF00E012E081E0CE
:1002A000F80183A36089718980E090E00E948C1C32
:1002B00020E030E040E85DE30E94421D2B013C015C
:1002C00087E780932102F80180A1806880A386815E
:1002D00080FFFDCF00E012E081E0F80183A3608998
:1002E000718980E090E00E948C1C20E030E040E8C2
:1002F0005DE30E94421D4B015C018FE78093210268
:10030000F80180A1806880A3868180FFFDCF00E096
:1003100012E081E0F80183A36089718980E090E0B8
:100320000E948C1C20E030E040E85DE30E94421D0A
:100330006B017C0188E380932102F80180A1806831
:1003400080A3868180FFFDCF00E012E081E0F8010C
:1003500083A36089718980E090E00E948C1C20E07A
:1003600030E040E859E30E94421D2DEC3CEC4CE4A7
:100370005DE30E948E1B2DEC3CEC44E251E40E94B4
:10038000421D69837A838B839C838FE08093210253
:10039000F80180A1806880A3868180FFFDCFE0E026
:1003A000F2E081E083A38089918987E48093210230
:1003B00080A1806880A3868180FFFDCFE0E0F2E02D
:1003C00081E083A38089918910A280E181A380A12B
:1003D000806880A3868180FFFDCFE0E0F2E081E0CD
:1003E00083A30089118920E030E048EC52E4C30186
:1003F000B2010E94421D20E030E04FE753E40E942A
:10040000F31BF101608B718B828B938B20E030E0CA
:1004100048EC52E4C501B4010E94421D20E030E0E6
:100420004FE753E40E94F31BF101648B758B868BBD
:10043000978B20E030E048EC52E4C701B6010E94FF
:10044000421D20E030E04FE753E40E94F31BF1012E
:10045000608F718F828F938F23E333E343E75FE3F2
:1004600064817581868197810E94421D6B017C01A8
:100470002DEC3CEC4CE45DE369817A818B819C81BD
:100480000E94421D9B01AC01C701B6010E948F1B57
:10049000F101648375838683978323E333E343E722
:1004A0005FE3648D758D868D978D0E94421D6B0173
:1004B0007C01B80180E090E00E948C1C20E030E0DC
:1004C00040E859E30E94421D2DEC3CEC4CE45DE316
:1004D0000E948E1B2AE939E945E251E40E94421D3F
:1004E0002DEC3CEC4CE45DE30E94421D9B01AC0111
:1004F000C701B6010E948F1BF101648F758F868F33
:10050000978F2496CDBFDEBFDF91CF911F910F91C2
:10051000FF90EF90DF90CF90BF90AF909F908F9023
:100520007F906F905F904F903F902F9008951F9213
:100530000F920FB60F9211248F9388E080930706D5
:100540008F910F900FBE0F901F9018951F920F92D2
:100550000FB60F9211240BB60F928F939F93EF93C8
:10056000FF93E091B925F091BA25EF59FC4D8081B8
:100570008823F9F08332E9F091E09093BB2585322E
:1005800021F48AE08093A00902C08093A0098091A1
:10059000B9259091BA258739910530F40196809359
:1005A000B9259093BA2507C0FC01EF59FC4D108284
:1005B00002C01092BB25FF91EF919F918F910F90F8
:1005C0000BBE0F900FBE0F901F9018951F920F92A9
:1005D0000FB60F9211240BB60F922F933F934F93A8
:1005E0005F936F937F938F939F93AF93BF93EF939B
:1005F000FF93CF93DF931F92CDB7DEB780E1809357
:1006000005068091A00989838981843221F481E0E3
:100610008093E825A6C08981823581F48091E82500
:10062000882309F47EC08FB7F8941092E82598EDDE
:1006300094BF91E0909379008FBF93C089818035FA
:10064000F9F48091E825882309F471C0CDD4109283
:10065000D4201092D5201092D6201092D72010923C
:10066000E825E8EDF0E281E0818380832FEF87EADF
:1006700091E6215080409040E1F700C0000071C039
:100680008981883559F48091E825882309F455C07B
:10069000E6EEF5E281E08583128263C089818B34C6
:1006A00051F48091E825882309F44CC0E6EEF5E288
:1006B0001582128256C08981833559F48091E825CC
:1006C000882309F444C0E6EEF5E281E084831282D7
:1006D00048C08981863449F48091E8258823E1F176
:1006E000E6EEF5E2148212823CC08981813451F435
:1006F0008091E825882399F1E6EEF5E281E0868392
:1007000012822FC08981843449F48091E82588239E
:1007100029F0E6EEF5E21682128223C01092E82557
:1007200020C089818981883509F0B8CF06C08981C8
:1007300089818B3409F0BFCF05C0898189818335D8
:1007400041F605C089818981863479F605C08981A1
:1007500089818134B9F603C089818981DFCF89819C
:10076000DDCF0F90DF91CF91FF91EF91BF91AF91CE
:100770009F918F917F916F915F914F913F912F91B9
:100780000F900BBE0F900FBE0F901F9018951F92E9
:100790000F920FB60F9211240BB60F928F939F9367
:1007A000AF93BF93EF93FF93EBEFF5E2A285B38591
:1007B00081E08C930688F789E02D80819181A28168
:1007C000B3810196A11DB11D80839183A283B38360
:1007D000FF91EF91BF91AF919F918F910F900BBEC1
:1007E0000F900FBE0F901F9018951F920F920FB68B
:1007F0000F9211240BB60F928F939F93EF93FF9359
:100800008091D820882349F18091D920813079F0D6
:1008100028F08230D1F08330E1F024C0E8EDF0E23E
:1008200010821382128280E48093A6061BC08091FE
:10083000DB20873018F01092D92014C090E49093F8
:10084000A7068F5F8093DB200DC080E48093A7060E
:1008500009C080E48093A50605C01092D92080E4E9
:100860008093A606FF91EF919F918F910F900BBE01
:100870000F900FBE0F901F9018951F920F920FB6FA
:100880000F9211248F9380E1809306061092E82541
:100890008F910F900FBE0F901F9018951F920F927F
:1008A0000FB60F9211240BB60F922F933F934F93D5
:1008B0005F936F937F938F939F93AF93BF93EF93C8
:1008C000FF9380E2809307061092BC258091EA2571
:1008D000882341F18091F3259091F425A091F5258D
:1008E000B091F6258F3926E8920721E0A207B105DD
:1008F00060F40196A11DB11D8093F3259093F4251A
:10090000A093F525B093F62508C01092F325109218
:10091000F4251092F5251092F625109234231092AA
:10092000352314DEFF91EF91BF91AF919F918F918D
:100930007F916F915F914F913F912F910F900BBEDF
:100940000F900FBE0F901F9018951092B92510921E
:10095000BA25A6EEB5E21C9211961C921197EBEF08
:10096000F5E285E696E280879187A287B38783E1E7
:1009700096E28687978781E693E2808B918B8CED58
:1009800090E2828B938B8FEE95E2868B978B089506
:10099000FC01808591855CCC0895CF92DF92EF9227
:1009A000FF928091EC25811108C01092ED251092E4
:1009B000D92082E080936606A0C08091ED2590E06A
:1009C0008930910508F099C0FC018827E250FF4F5B
:1009D0008F4F0C94211E1092D9208FC081E08093FC
:1009E000EB258BC0E8EDF0E281E0818380836091AC
:1009F000EF257091F0258091F1259091F2250E94CC
:100A00008C1C6093D0207093D1208093D22090933F
:100A1000D32083E08093ED2570C06091EF25709125
:100A2000F0258091F1259091F2250E948C1C6B019C
:100A30007C0120E030E040EA50E46091D0207091E9
:100A4000D1208091D2209091D3200E948F1B9B01B6
:100A5000AC01C701B6010E943E1D18160CF04DC036
:100A600084E08093ED2549C0E8EDF0E281E08183E8
:100A700080836091EF257091F0258091F125909110
:100A8000F2250E948C1C6093D0207093D12080931B
:100A9000D2209093D32086E08093ED252EC06091E4
:100AA000EF257091F0258091F1259091F2250E941B
:100AB0008C1C6B017C0120E030E040E251E460914D
:100AC000D0207091D1208091D2209091D3200E948B
:100AD0008F1B9B01AC01C701B6010E943E1D181679
:100AE00064F487E08093ED2508C0E8EDF0E282E051
:100AF000818381E080831092EB25FF90EF90DF905F
:100B0000CF90089580E266D368D368D387D4F1D3B9
:100B100006D488E290E063D38AEF90E081D382E349
:100B200090E09FD388EE93E0BDD30FDF50D45BD429
:100B300080E016D270D26093D4207093D520809339
:100B4000D6209093D72087E08093A2000895CF937A
:100B5000DF93CDB7DEB76697CDBFDEBF86E1E0E0BD
:100B6000F0E2DE01119601900D928A95E1F7E0E83E
:100B7000F6E0808580FFFDCF808581FFFACFE8ED2C
:100B8000F0E283E0818381E080832ED22FEF87EA39
:100B900091E6215080409040E1F700C0000089813B
:100BA000882371F0FE013296A0EAB9E08C938FE7BA
:100BB0009EE30197F1F700C0000081918111F6CF0B
:100BC0001092D8201092D4201092D5201092D620C6
:100BD0001092D7206696CDBFDEBFDF91CF910895EA
:100BE0004F925F926F927F929F92AF92BF92CF92FD
:100BF000DF92EF92FF920F931F93CF93DF93CDB7C6
:100C0000DEB7CA5BD109CDBFDEBF1092EB25E8EDA0
:100C1000F0E283E0818381E080832FEF87E893E136
:100C2000215080409040E1F700C000001082E0E8D1
:100C3000F6E0808581FFFDCF86EAE6E1F0E2DE01A5
:100C4000119601900D928A95E1F784E1ECEBF0E2C8
:100C5000DE01A955BF4F01900D928A95E1F7898178
:100C6000882389F0FE013296A0EAB9E08C932FEF39
:100C700089EF90E0215080409040E1F700C00000F3
:100C800081918111F3CFEFEFF7EA21E6E150F040D7
:100C90002040E1F700C0000084E08093050681E079
:100CA00016D183E0F7D080E0F5D080E0F3D080E08B
:100CB000F1D0912CC12CD12C76010F2EF0EAAF2E61
:100CC000F9E0BF2EF02D0F2EF4E64F2E512C612CA3
:100CD000712CF02D00E816E0F0D08F3F21F0F501E7
:100CE0008083912C01C09394FFEFCF1ADF0AEF0AA3
:100CF000FF0AC701B601A30192010E94FF1D672BE5
:100D0000682B692B51F42FEF89EF90E02150804040
:100D10009040E1F700C0000006C0EFE1F3E031973A
:100D2000F1F700C00000F801808580FF03C0F3E602
:100D3000F91590F680E0CBD0C955DF4F8881C75AAE
:100D4000D040882379F0FE01E855FF4FA0EAB9E0D2
:100D50008C938FE39FE10197F1F700C00000819130
:100D60008111F6CFC654DF4FCDBFDEBFDF91CF91EB
:100D70001F910F91FF90EF90DF90CF90BF90AF90B9
:100D80009F907F906F905F904F900895E0E0F6E025
:100D900088E085832FEF37E893E121503040904081
:100DA000E1F700C0000086832FEF33EC99E021507B
:100DB00030409040E1F700C0000085832FEF37E816
:100DC00093E1215030409040E1F700C0000086835D
:100DD0002FEF33EC89E0215030408040E1F700C034
:100DE000000008958091880680FD06C080918806E5
:100DF00081FD02C0ACCE08958091880681FFF0CEBF
:100E00000895E6EEF5E2158281E084831092BC2518
:100E100079DE7894BBDFE6DFC6EED5E20F2EFBEB82
:100E2000EF2EF5E2FF2EF02D0F2EF5E8CF2EF2E09B
:100E3000DF2EF02D00E016E06894BB24B2F88AE0C3
:100E40008A95F1F700C088818823C9F318828BEF57
:100E500095E29EDDA2DD8BEF95E2F8D28D818823AD
:100E600049F02FEE35E24CED50E260E971E084ED9F
:100E700090E25AD1F7018081811109C0ECEDF0E2D6
:100E8000A1E6B3E2C60101900D920197E1F7F801E6
:100E9000B782D5CFCF93DF931F92CDB7DEB78093C4
:100EA000C308E0ECF8E082818823ECF78091C30866
:100EB00089830F90DF91CF9108951092C308E0ECE1
:100EC000F8E082818823ECF78091C3080895882395
:100ED00021F081E080936606089581E080936506A5
:100EE00008951F93CF93DF93C0E6D6E011E01E83F1
:100EF00086E0D0DF1D83DF91CF911F9108951F936E
:100F0000CF93DF93C0E6D6E011E01E8384E0C2DF1A
:100F10001D83DF91CF911F910895DF92EF92FF9291
:100F20000F931F93CF93DF93F62EE72ED82E042F27
:100F3000D8DFC0E6D6E011E01E8382E0ABDF8D2D66
:100F4000A9DF8E2DA7DF8F2DA5DF802FA3DF1D83C7
:100F5000DF91CF911F910F91FF90EF90DF90089557
:100F60001F93CF93DF93882391F0C0E6D6E011E082
:100F70001E8380E58FDF1D838AE08A95F1F700C02C
:100F80001E8381E087DF8CE185DF1D8311C0C0E611
:100F9000D6E011E01E8380E57DDF1D838AE08A951F
:100FA000F1F700C01E8381E075DF80E073DF1D83F1
:100FB000DF91CF911F910895CF93DF931F92CDB70B
:100FC000DEB781E08093660685E064DF76DF8983A3
:100FD00074DF8983898180FDFBCF81E08093650682
:100FE0000F90DF91CF9108951F93CF93DF9379DF17
:100FF000C0E6D6E011E01E8380E64CDF1D838FE162
:1010000093E00197F1F700C00000D6DF78DFDF91B1
:10101000CF911F910895CF92DF92EF92FF9281E0DE
:101020008093660683E036DF80E034DF80E032DFE5
:1010300080E030DFC12CD12C76010DC08FEFC81AB3
:10104000D80AE80AF80A80EAC8168FE8D8068EE3BC
:10105000E806F10419F031DF8F3F81F781E08093DA
:101060006506C701B601FF90EF90DF90CF9008951D
:101070008F929F92AF92BF92CF92DF92EF92FF92A8
:101080000F931F93CF93DF934B01FA01DC014D9136
:101090005D916D917C91403D5E4F6F437105B8F558
:1010A00024E0209305064081442371F1A12CB12C4A
:1010B00081149104A104B10439F18F01EC010F5F97
:1010C0001F4FC12CD12C7601EFEFCE1ADE0AEE0AAB
:1010D000FE0A688179818A819B811FDF6DDF8881AB
:1010E0009981AA81BB810196A11DB11D8883998335
:1010F000AA83BB83D8014D918D01442329F0C814E4
:10110000D904EA04FB0401F784E080930606DF912A
:10111000CF911F910F91FF90EF90DF90CF90BF90F4
:10112000AF909F908F900895CF93DF93E901A0DF58
:1011300088859985AA85BB858F3322E492072FE0A5
:10114000A207B10540F40196A11DB11D88879987BA
:10115000AA87BB8704C0188619861A861B86DF916A
:10116000CF910895E0E5F0E0908191609083A8E64A
:10117000B0E090E412969C9312979DE013969C9396
:10118000908194609083918192FFFDCFE0E5F0E043
:101190009681987F9683E8E6F0E090819160908355
:1011A000E0E5F0E0918190FFFDCF98ED94BF1092C3
:1011B0004000E0E5F0E090819F7E9083858380E1B0
:1011C0008083818184FFFDCF88ED84BF84E080939C
:1011D000400008958695C6CF08950895089527E0A4
:1011E0002093000810920108109220081092210804
:1011F0009C01A0E0BDE70E94291EDC01CB01072E67
:101200007AE0B695A795979587957A95D1F7702D41
:10121000809326089093270882E08093060808951B
:1012200027E02093000910920109109220091092E2
:1012300021099C01A0E0BDE70E94291EDC01CB0131
:10124000072E7AE0B695A795979587957A95D1F769
:10125000702D809326099093270981E080930609D9
:10126000089527E02093000A1092010A1092200AA4
:101270001092210A9C01A0E0BDE70E94291EDC011A
:10128000CB01072E7AE0B695A795979587957A9525
:10129000D1F7702D8093260A9093270A82E08093DD
:1012A000060A089527E02093000B1092010B10927C
:1012B000200B1092210B813D27E0920710F080ED6A
:1012C00097E09C01A0E0BDE70E94291EDC01CB0154
:1012D000072E7AE0B695A795979587957A95D1F7D9
:1012E000702D8093260B9093270B82E08093060B42
:1012F0000895E0E6F6E084E0868388E085838183D4
:10130000E0EAF9E083E0858387E1868384EA8783E6
:1013100083818C6183838481886184830895CF93E2
:10132000DF9388E18093900680939106A0E0B6E079
:101330008C9181608C93E6E0F6E021E020838C9133
:101340008C678C938CE78083A0EAB6E08C918064F4
:101350008C9366EA76E050E4DB015C9334E03093F2
:10136000410630934606C1E6D6E082E08883A6E6D1
:10137000B6E08C933C9348E0488390E298839C933A
:10138000DB013C934093A5064093A10633E03093E4
:10139000400630934406A2EEB7E02C938C93A2E86B
:1013A000B6E030E13C939C93A2EAB6E02C938C9398
:1013B0003C9330936206808380E88083E6E2F6E027
:1013C0002083908350838083DF91CF910895E0E85C
:1013D000F4E080E3818391E092838583818188605A
:1013E000818394830895E0E4F6E080E1818380EADC
:1013F000818380E4828380EE8583E0E6F6E081E00D
:101400008183858381E58093C0080895AAECB1E0CB
:1014100022E02C93FC0184911C9208951F93CF939A
:10142000DF93C0E0D2E011E0188380E290E0EEDFCD
:101430008C8781E290E0EADF8D8719821A8283E04F
:101440008C8318A3DF91CF911F9108952F923F9223
:101450004F925F926F927F928F929F92AF92BF92C4
:10146000CF92DF92EF92FF920F931F93CF93DF9370
:10147000CDB7DEB72A97CDBFDEBF8C0119821A82A5
:10148000DC0152962D913C91539789819A81AC0150
:101490004F5F5F4F49835A83F901E80FF91F23E338
:1014A000208352962D913C91539789819A81AC016A
:1014B0004F5F5F4F49835A83F901E80FF91F22E319
:1014C000208352962D913C91539789819A81AC014A
:1014D0004F5F5F4F49835A83F901E80FF91F29E3F2
:1014E000208352962D913C91539789819A81AC012A
:1014F0004F5F5F4F49835A83F901E80FF91F26E3D5
:10150000208352962D913C91539789819A81AC0109
:101510004F5F5F4F49835A83F901E80FF91F0F2E80
:10152000FCE2DF2EF02DD0825696ED91FC9157977C
:10153000848195818B839C8352964D915C915397C6
:1015400029813A81C901019689839A838B819C8183
:10155000FA01E20FF31F60E177E20E94EC1DCB017C
:101560000F2EFAE0EF2EF12CF02DB7010E94EC1DAA
:10157000805D8083F8014289538929813A81C901BC
:10158000019689839A838B819C81FA01E20FF31F74
:101590000F2EF8EE8F2EF3E09F2EF02DB4010E9457
:1015A000EC1DCB01B7010E94EC1D805D8083D8014A
:1015B00052964D915C91539729813A81C9010196C8
:1015C00089839A838B819C81FA01E20FF31F0F2E8E
:1015D000F4E6AF2EB12CF02DB5010E94EC1DCB012D
:1015E000B7010E94EC1D805D8083F8014289538918
:1015F00029813A81C901019689839A838B819C81D3
:10160000FA01E20FF31FB7010E94EC1DCB01B701F5
:101610000E94EC1D805D8083D80152964D915C91B3
:10162000539729813A81C901019689839A838B81D5
:101630009C81FA01E20FF31FB7010E94EC1D805D4F
:101640008083F8012289338989819A81AC014F5FB7
:101650005F4F49835A83F901E80FF91FD082D801FF
:101660001896ED91FC91199720E030E04AE754E498
:1016700064817581868197810E94421D0E945B1C56
:101680006B837C83F8014289538929813A81C9019E
:10169000019689839A838B819C81FA01E20FF31F63
:1016A000B4010E94EC1DCB01B7010E94EC1D805DCE
:1016B0008083D80152962D913C91539789819A81CC
:1016C000AC014F5F5F4F49835A83F901E80FF91F5F
:1016D0002EE2208352964D915C91539729813A8155
:1016E000C901019689839A838B819C81FA01E20F5B
:1016F000F31FB5010E94EC1DCB01B7010E94EC1D48
:10170000805D8083F8014289538929813A81C9012A
:10171000019689839A838B819C81FA01E20FF31FE2
:10172000B7010E94EC1DCB01B7010E94EC1D805D4A
:101730008083D80152964D915C91539729813A81CB
:10174000C901019689839A838B819C81FA01E20FFA
:10175000F31FB7010E94EC1D805D8083F801228990
:10176000338989819A81AC014F5F5F4F49835A83E6
:10177000F901E80FF91FD082D8011A96ED91FC917A
:101780001B97878190E08B839C8352964D915C914F
:10179000539789819A819C012F5F3F4F29833A8318
:1017A0002B813C81FA01E80FF91F205D20835296BE
:1017B0002D913C91539789819A81AC014F5F5F4F86
:1017C00049835A83F901E80FF91FD08252962D916F
:1017D0003C91539789819A81AC014F5F5F4F498358
:1017E0005A83F901E80FF91F23E5208352962D91C2
:1017F0003C91539789819A81AC014F5F5F4F498338
:101800005A83D901A80FB91FF80182859385FC017D
:101810002681205D2C93D80152962D913C915397AF
:1018200089819A81AC014F5F5F4F49835A83D90107
:10183000A80FB91FF80182859385FC012481205DE2
:101840002C93D80152962D913C91539789819A817E
:10185000AC014F5F5F4F49835A83D901A80FB91F6D
:10186000F80182859385FC012581205D2C93D801A8
:1018700052962D913C91539789819A81AC014F5F8B
:101880005F4F49835A83D901A80FB91FF801828598
:101890009385FC012381205D2C93D80152962D91D4
:1018A0003C91539789819A81AC014F5F5F4F498387
:1018B0005A83F901E80FF91FD0821E96ED91FC9131
:1018C0001F97C488D588E688F788C701B6010E94AB
:1018D0005B1C6B837C83C701B6010E94A51D9B0125
:1018E000AC01C701B6010E948E1B20E030E048EC3D
:1018F00052E40E94421D0E945B1C6D837E838B819B
:101900009C81992324F08D819E819923F4F48B810D
:101910009C819195819591098B839C838D819E817A
:101920009195819591098D839E83F8012289338950
:1019300089819A81AC014F5F5F4F49835A83F901D6
:10194000E80FF91F2DE2208311C0D80152962D9186
:101950003C91539789819A81AC014F5F5F4F4983D6
:101960005A83F901E80FF91F2BE22083D801529620
:10197000ED91FC91539729813A81C90101968983A0
:101980009A838B819C81E20FF31F60E177E20E94D2
:10199000EC1DCB012AE030E0B9010E94EC1D805D16
:1019A0008083D8015296ED91FC91539749815A81D9
:1019B000CA01019689839A838B819C81E40FF51F6C
:1019C00068EE73E00E94EC1DCB01B9010E94EC1D92
:1019D000805D8083D8015296ED91FC9153974981A7
:1019E0005A81CA01019689839A838B819C81E40F75
:1019F000F51F64E670E00E94EC1DCB01B9010E9466
:101A0000EC1D805D8083D8015296ED91FC91539737
:101A100049815A81CA01019689839A838B819C816D
:101A2000E40FF51FB9010E94EC1DCB01B9010E9422
:101A3000EC1D805D8083D8015296ED91FC91539707
:101A400049815A81CA01019689839A838B819C813D
:101A5000E40FF51FB9010E94EC1D805D8083F80141
:101A60004289538989819A81BC016F5F7F4F698365
:101A70007A83FA01E80FF91F4EE24083D8015296AB
:101A8000ED91FC91539749815A81CA01019689834E
:101A90009A838D819E81E40FF51FB9010E94EC1D90
:101AA000CB01B9010E94EC1D805D8083D801529664
:101AB000ED91FC91539749815A81CA01019689831E
:101AC0009A838D819E81E40FF51FB9010E94EC1D60
:101AD000805D8083F8012289338989819A81AC01F4
:101AE0004F5F5F4F49835A83F901E80FF91F2CE2DA
:101AF0002083D8011E96ED91FC911F9720E030E0E5
:101B000040E251E460897189828993890E94421D73
:101B10000E945B1C6B837C838B819C819923BCF42A
:101B20008B819C819195819591098B839C83F80190
:101B30002289338989819A81AC014F5F5F4F498344
:101B40005A83F901E80FF91F2DE2208311C0D80153
:101B500052962D913C91539789819A81AC014F5FA8
:101B60005F4F49835A83F901E80FF91F2BE2208365
:101B7000D8015296ED91FC91539729813A81C90180
:101B8000019689839A838B819C81E20FF31F60E128
:101B900077E20E94EC1DCB012AE030E0B9010E94FF
:101BA000EC1D805D8083D8015296ED91FC91539796
:101BB00049815A81CA01019689839A838B819C81CC
:101BC000E40FF51F68EE73E00E94EC1DCB01B90134
:101BD0000E94EC1D805D8083D8015296ED91FC91AE
:101BE000539749815A81CA01019689839A838B81CF
:101BF0009C81E40FF51F64E670E00E94EC1DCB01B0
:101C0000B9010E94EC1D805D8083D8015296ED9150
:101C1000FC91539749815A81CA01019689839A831D
:101C20008B819C81E40FF51FB9010E94EC1DCB0153
:101C3000B9010E94EC1D805D8083F80142895389BF
:101C400089819A81BC016F5F7F4F69837A83FA0132
:101C5000E80FF91F4EE24083D8015296ED91FC91B6
:101C6000539749815A81CA01019689839A838B814E
:101C70009C81E40FF51FB9010E94EC1D805D8083FB
:101C8000F8012289338989819A81AC014F5F5F4FC6
:101C900049835A83F901E80FF91F2CE22083D80108
:101CA0001E96ED91FC911F9720E030E04AE754E446
:101CB00060817181828193810E94421D0E945B1C20
:101CC0006B837C838B819C819923BCF48B819C8169
:101CD0009195819591098B839C83F80122893389A1
:101CE00089819A81AC014F5F5F4F49835A83F90123
:101CF000E80FF91F2DE2208311C0D80152962D91D3
:101D00003C91539789819A81AC014F5F5F4F498322
:101D10005A83F901E80FF91F2BE22083D80152966C
:101D2000ED91FC91539729813A81C90101968983EC
:101D30009A838B819C81E20FF31F60E177E20E941E
:101D4000EC1DCB012AE030E0B9010E94EC1D805D62
:101D50008083D8015296ED91FC91539749815A8125
:101D6000CA01019689839A838B819C81E40FF51FB8
:101D700068EE73E00E94EC1DCB01B9010E94EC1DDE
:101D8000805D8083F8014289538989819A81BC01F1
:101D90006F5F7F4F69837A83FA01E80FF91F4EE284
:101DA0004083D8015296ED91FC91539749815A8115
:101DB000CA01019689839A838B819C81E40FF51F68
:101DC00064E670E00E94EC1DCB01B9010E94EC1D9D
:101DD000805D8083D8015296ED91FC9153974981A3
:101DE0005A81CA01019689839A838B819C81E40F71
:101DF000F51FB9010E94EC1DCB01B9010E94EC1D39
:101E0000805D8083D8015296ED91FC915397498172
:101E10005A81CA01019689839A838B819C81E40F40
:101E2000F51FB9010E94EC1D805D8083F8012289B5
:101E3000338989819A81AC014F5F5F4F49835A830F
:101E4000F901E80FF91F2CE22083D8011E96ED91CD
:101E5000FC911F9720E030E040E251E4608D718DED
:101E6000828D938D0E94421D0E945B1C6B837C833C
:101E70008B819C819923BCF48B819C819195819568
:101E800091098B839C83F8012289338989819A8106
:101E9000AC014F5F5F4F49835A83F901E80FF91F87
:101EA0002DE2208311C0D80152962D913C91539779
:101EB00089819A81AC014F5F5F4F49835A83F90151
:101EC000E80FF91F2BE22083F80142895389298109
:101ED0003A81C901019689839A838B819C81FA0199
:101EE000E20FF31F60E177E20E94EC1DCB010F2EA1
:101EF000FAE02F2E312CF02DB1010E94EC1D805DF7
:101F00008083D80152964D915C91539729813A81F3
:101F1000C901019689839A838B819C81FA01E20F22
:101F2000F31F68EE73E00E94EC1DCB01B1010E942B
:101F3000EC1D805D8083F8014289538929813A81B3
:101F4000C901019689839A838B819C81FA01E20FF2
:101F5000F31F64E670E00E94EC1DCB01B1010E940A
:101F6000EC1D805D8083D80152964D915C91539712
:101F700029813A81C901019689839A838B819C8149
:101F8000FA01E20FF31FB1010E94EC1DCB01B10178
:101F90000E94EC1D805D8083F8012289338989814C
:101FA0009A81AC014F5F5F4F49835A83F901E80F73
:101FB000F91F0F2EFEE28F2EF02D8082D80152964F
:101FC0004D915C91539729813A81C901019689838A
:101FD0009A838B819C81FA01E20FF31FB1010E9469
:101FE000EC1D805D8083F8012289338989819A8183
:101FF000AC014F5F5F4F49835A83F901E80FF91F26
:102000000F2EFCE29F2EF02D9082D80152964D911A
:102010005C91539789819A819C012F5F3F4F29835F
:102020003A831696ED91FC9117972481FA01E80FF7
:10203000F91F208352964D915C91539789819A8123
:102040009C012F5F3F4F29833A831696ED91FC91B7
:1020500017972581FA01E80FF91F208352964D91B9
:102060005C91539789819A819C012F5F3F4F29830F
:102070003A831696ED91FC9117972681FA01E80FA5
:10208000F91F208352964D915C91539789819A81D3
:102090009C012F5F3F4F29833A831696ED91FC9167
:1020A00017972781FA01E80FF91F208352964D9167
:1020B0005C91539789819A819C012F5F3F4F2983BF
:1020C0003A831696ED91FC9117972085FA01E80F57
:1020D000F91F208352964D915C91539789819A8183
:1020E0009C012F5F3F4F29833A831696ED91FC9117
:1020F00017972185FA01E80FF91F208352964D9119
:102100005C91539789819A819C012F5F3F4F29836E
:102110003A831696ED91FC9117972285FA01E80F04
:10212000F91F208352964D915C91539789819A8132
:102130009C012F5F3F4F29833A831696ED91FC91C6
:1021400017972385FA01E80FF91F208352964D91C6
:102150005C91539789819A819C012F5F3F4F29831E
:102160003A831696ED91FC9117972485FA01E80FB2
:10217000F91F208352964D915C91539789819A81E2
:102180009C012F5F3F4F29833A831696ED91FC9176
:1021900017972585FA01E80FF91F2083F801428976
:1021A000538989819A819C012F5F3F4F29833A830C
:1021B0000680F781E02D2685FA01E80FF91F2083BC
:1021C00052962D913C91539789819A81AC014F5F32
:1021D0005F4F49835A83F901E80FF91F90825296A5
:1021E0004D915C91539789819A819C012F5F3F4F5C
:1021F00029833A831696ED91FC9117972289FA016B
:10220000E80FF91F208352964D915C915397898175
:102210009A819C012F5F3F4F29833A831696ED9157
:10222000FC9117972389FA01E80FF91F2083529632
:102230004D915C91539789819A819C012F5F3F4F0B
:1022400029833A831696ED91FC9117972489FA0118
:10225000E80FF91F208352964D915C915397898125
:102260009A819C012F5F3F4F29833A831696ED9107
:10227000FC9117972589FA01E80FF91F20835296E0
:102280004D915C91539789819A819C012F5F3F4FBB
:1022900029833A831696ED91FC9117972689FA01C6
:1022A000E80FF91F208352964D915C9153978981D5
:1022B0009A819C012F5F3F4F29833A831696ED91B7
:1022C000FC9117972789FA01E80FF91F208352968E
:1022D0004D915C91539789819A819C012F5F3F4F6B
:1022E00029833A831696ED91FC911797208DFA0178
:1022F000E80FF91F208352964D915C915397898185
:102300009A819C012F5F3F4F29833A831696ED9166
:10231000FC911797218DFA01E80FF91F208352963F
:102320004D915C91539789819A819C012F5F3F4F1A
:1023300029833A831696ED91FC911797228DFA0125
:10234000E80FF91F208352964D915C915397898134
:102350009A819C012F5F3F4F29833A831696ED9116
:10236000FC911797238DFA01E80FF91F20835296ED
:102370004D915C91539789819A819C012F5F3F4FCA
:1023800029833A831696ED91FC911797248DFA01D3
:10239000E80FF91F208352962D913C915397898124
:1023A0009A81AC014F5F5F4F49835A83F901E80F6F
:1023B000F91F908252964D915C91539789819A8131
:1023C0009C012F5F3F4F29833A831696ED91FC9134
:1023D000179720A1FA01E80FF91F208352964D911B
:1023E0005C91539789819A819C012F5F3F4F29838C
:1023F0003A831696ED91FC91179721A1FA01E80F07
:10240000F91F208352964D915C91539789819A814F
:102410009C012F5F3F4F29833A831696ED91FC91E3
:10242000179722A1FA01E80FF91F208352964D91C8
:102430005C91539789819A819C012F5F3F4F29833B
:102440003A831696ED91FC91179723A1FA01E80FB4
:10245000F91F208352964D915C91539789819A81FF
:102460009C012F5F3F4F29833A831696ED91FC9193
:10247000179724A1FA01E80FF91F208352964D9176
:102480005C91539789819A819C012F5F3F4F2983EB
:102490003A831696ED91FC91179725A1FA01E80F62
:1024A000F91F208352964D915C91539789819A81AF
:1024B0009C012F5F3F4F29833A831696ED91FC9143
:1024C000179726A1FA01E80FF91F208352964D9124
:1024D0005C91539789819A819C012F5F3F4F29839B
:1024E0003A831696ED91FC91179727A1FA01E80F10
:1024F000F91F2083F8014289538989819A819C01BF
:102500002F5F3F4F29833A830680F781E02D20A576
:10251000FA01E80FF91F208352962D913C915397B1
:1025200089819A81AC014F5F5F4F49835A83F901DA
:10253000E80FF91F908252962D913C915397898113
:102540009A81AC014F5F5F4F49835A83D901A80F2D
:10255000B91FF80186819781FC0124A5205D2C9389
:10256000D80152962D913C91539789819A81AC0163
:102570004F5F5F4F49835A83F901E80FF91F90823B
:1025800052962D913C91539789819A81AC014F5F6E
:102590005F4F49835A83F901E80FF91F21E3208334
:1025A00052962D913C91539789819A81AC014F5F4E
:1025B0005F4F49835A83F901E80FF91F23E3208312
:1025C00052962D913C91539789819A81AC014F5F2E
:1025D0005F4F49835A83F901E80FF91F90825296A1
:1025E0002D913C91539789819A81AC014F5F5F4F48
:1025F00049835A83F901E80FF91F25E22083529697
:102600002D913C91539789819A81AC014F5F5F4F27
:1026100049835A83F901E80FF91F23E22083529678
:102620002D913C91539789819A81AC014F5F5F4F07
:1026300049835A83F901E80FF91F90825696ED916C
:10264000FC91579780819181A281B3818F83988774
:10265000A987BA87F801A288B38849815A819A016B
:102660002F5F3F4F29833A836F81788589859A85CB
:10267000A40EB51E20E432E44FE050E00E94FF1D9E
:102680000F2EFAE0CF2ED12CE12CF12CF02DCA0127
:10269000B901A70196010E94FF1D605DD5016C93F1
:1026A000F801A288B38849815A819A012F5F3F4F70
:1026B00029833A836F81788589859A85A40EB51E12
:1026C00020EA36E841E050E00E94FF1DCA01B9014E
:1026D000A70196010E94FF1D605DD5016C93F80172
:1026E000A288B38849815A819A012F5F3F4F29837D
:1026F0003A836F81788589859A85A40EB51E20E17D
:1027000037E240E050E00E94FF1DCA01B901A70175
:1027100096010E94FF1D605DD5016C93F801A288AF
:10272000B38849815A819A012F5F3F4F29833A83A9
:102730006F81788589859A85A40EB51E28EE33E0D1
:1027400040E050E00E94FF1DCA01B901A7019601B7
:102750000E94FF1D605DD5016C93F801A288B388CB
:1027600049815A819A012F5F3F4F29833A836F81B4
:10277000788589859A85A40EB51E0F2EF4E64F2E16
:10278000512C612C712CF02DA30192010E94FF1D90
:10279000CA01B901A70196010E94FF1D605DD50124
:1027A0006C93F801A288B38849815A819A012F5FFE
:1027B0003F4F29833A836F81788589859A85A40E56
:1027C000B51EA70196010E94FF1DCA01B901A7010C
:1027D00096010E94FF1D605DD5016C93F801A288EF
:1027E000B38849815A819A012F5F3F4F29833A83E9
:1027F0006F81788589859A85A40EB51EA7019601FB
:102800000E94FF1D605DD5016C93F8012289338918
:1028100089819A81AC014F5F5F4F49835A83F901E7
:10282000E80FF91F9082D8015696ED91FC915797C9
:1028300080859185A285B3858F839887A987BA877C
:10284000F801A288B38849815A819A012F5F3F4FCE
:1028500029833A836F81788589859A85A40EB51E70
:1028600020E432E44FE050E00E94FF1DCA01B901AC
:10287000A70196010E94FF1D605DD5016C93F801D0
:10288000A288B38849815A819A012F5F3F4F2983DB
:102890003A836F81788589859A85A40EB51E20EAD2
:1028A00036E841E050E00E94FF1DCA01B901A701CE
:1028B00096010E94FF1D605DD5016C93F801A2880E
:1028C000B38849815A819A012F5F3F4F29833A8308
:1028D0006F81788589859A85A40EB51E20E137E23F
:1028E00040E050E00E94FF1DCA01B901A701960116
:1028F0000E94FF1D605DD5016C93F801A288B3882A
:1029000049815A819A012F5F3F4F29833A836F8112
:10291000788589859A85A40EB51E28EE33E040E0BF
:1029200050E00E94FF1DCA01B901A70196010E9453
:10293000FF1D605DD5016C93F801A288B3884981C1
:102940005A819A012F5F3F4F29833A836F8178859F
:1029500089859A85A40EB51EA30192010E94FF1DD0
:10296000CA01B901A70196010E94FF1D605DD50152
:102970006C93F801A288B38849815A819A012F5F2C
:102980003F4F29833A836F81788589859A85A40E84
:10299000B51EA70196010E94FF1DCA01B901A7013A
:1029A00096010E94FF1D605DD5016C93F801A2881D
:1029B000B38849815A819A012F5F3F4F29833A8317
:1029C0006F81788589859A85A40EB51EA701960129
:1029D0000E94FF1D605DD5016C93F8012289338947
:1029E00089819A81AC014F5F5F4F49835A83F90116
:1029F000E80FF91F9082D8011896ED91FC91199774
:102A000020E030E04AE754E4648D758D868D978D23
:102A10000E94421D50D76B837C83D8015296ED9162
:102A2000FC91539729813A81C901019689839A8340
:102A30008B819C81E20FF31F68EE73E00E94EC1D16
:102A4000CB01B1010E94EC1D805D8083F8012289D9
:102A5000338989819A81AC014F5F5F4F49835A83E3
:102A6000F901E80FF91F8082D80152964D915C91CF
:102A7000539729813A81C901019689839A838B8171
:102A80009C81FA01E20FF31F64E670E00E94EC1DE6
:102A9000CB01B1010E94EC1D805D8083F801428969
:102AA000538929813A81C901019689839A838B814F
:102AB0009C81FA01E20FF31FB1010E94EC1DCB01D2
:102AC000B1010E94EC1D805D8083D80152964D912A
:102AD0005C91539729813A81C901019689839A8330
:102AE0008B819C81FA01E20FF31FB1010E94EC1D62
:102AF000805D8083F8012289338989819A81AC01C4
:102B00004F5F5F4F49835A83F901E80FF91F9082A5
:102B1000D801ED91FC91119720A931A944E6429F7B
:102B2000C001439F900D11248B839C838B819C81DA
:102B30009923C4F48B819C819195819591098B8314
:102B40009C8352962D913C91539789819A81AC0137
:102B50004F5F5F4F49835A83F901E80FF91F2DE258
:102B600020830FC0F8012289338989819A81AC01C1
:102B70004F5F5F4F49835A83F901E80FF91F2BE23A
:102B80002083D8015296ED91FC91539729813A8187
:102B9000C901019689839A838B819C81E20FF31F7F
:102BA00068EE73E00E94EC1DCB012AE030E0B90131
:102BB0000E94EC1D805D8083D8015296ED91FC91BE
:102BC000539749815A81CA01019689839A838B81DF
:102BD0009C81E40FF51F64E670E0FED7CB01B901DC
:102BE000FBD7805D8083F8014289538989819A816E
:102BF000BC016F5F7F4F69837A83FA01E80FF91F89
:102C00004EE24083D8015296ED91FC915397498151
:102C10005A81CA01019689839A838B819C81E40F32
:102C2000F51FB901D9D7CB01B901D6D7805D808313
:102C3000D8015296ED91FC91539749815A81CA016E
:102C4000019689839A838B819C81E40FF51FB901DA
:102C5000C3D7805D8083F8012289338989819A8175
:102C6000AC014F5F5F4F49835A83F901E80FF91FA9
:102C70002CE22083D8011496ED91FC911597C48025
:102C8000D580E680F780C701B60115D66B837C83BB
:102C9000C701B6015AD79B01AC01C701B6013ED5A9
:102CA00020E030E04AE754E4EDD605D66D837E831C
:102CB0008B819C819923F4F48B819C8191958195E2
:102CC00091098B839C838D819E819195819591093A
:102CD0008D839E83F8012289338989819A81AC0191
:102CE0004F5F5F4F49835A83F901E80FF91F2DE2C7
:102CF000208311C0D80152962D913C915397898120
:102D00009A81AC014F5F5F4F49835A83F901E80F05
:102D1000F91F2BE22083D8015296ED91FC91539735
:102D200029813A81C901019689839A838B819C818B
:102D3000E20FF31F68EE73E04FD7CB012AE030E0DB
:102D4000B9014AD7805D8083D8015296ED91FC91FC
:102D5000539749815A81CA01019689839A838B814D
:102D60009C81E40FF51F0F2EF4E6EF2EF12CF02DD1
:102D7000B70132D7CB01B9012FD7805D8083D8014D
:102D80005296ED91FC91539749815A81CA0101965F
:102D900089839A838B819C81E40FF51FB9011CD72D
:102DA000CB01B90119D7805D8083D8015296ED918E
:102DB000FC91539749815A81CA01019689839A836C
:102DC0008B819C81E40FF51FB90106D7805D80835C
:102DD000F8014289538989819A81BC016F5F7F4FD5
:102DE00069837A83FA01E80FF91F4EE24083D80124
:102DF0005296ED91FC91539749815A81CA010196EF
:102E000089839A838D819E81E40FF51FB701E4D6F3
:102E1000CB01B901E1D6805D8083D8015296ED9156
:102E2000FC91539749815A81CA01019689839A83FB
:102E30008D819E81E40FF51FB901CED6CB01B9017A
:102E4000CBD6805D8083D8015296ED91FC9153974B
:102E500049815A81CA01019689839A838D819E8115
:102E6000E40FF51FB901B8D6805D8083F80122898F
:102E7000338989819A81AC014F5F5F4F49835A83BF
:102E8000F901E80FF91F2CE22083D8011C96ED917F
:102E9000FC911D9720E030E04AE754E46285738599
:102EA00084859585EFD507D56B837C838B819C8149
:102EB0009923BCF48B819C819195819591098B8399
:102EC0009C83F8012289338989819A81AC014F5F03
:102ED0005F4F49835A83F901E80FF91F2DE22083E0
:102EE00011C0D80152962D913C91539789819A81B6
:102EF000AC014F5F5F4F49835A83F901E80FF91F17
:102F00002BE22083D8015296ED91FC9153972981B1
:102F10003A81C901019689839A838B819C81E20F52
:102F2000F31F60E177E258D6CB012AE030E0B90127
:102F300053D6805D8083D8015296ED91FC915397D2
:102F400049815A81CA01019689839A838B819C8128
:102F5000E40FF51F68EE73E03FD6CB01B9013CD614
:102F6000805D8083F8014289538989819A81BC01FF
:102F70006F5F7F4F69837A83FA01E80FF91F4EE292
:102F80004083D8015296ED91FC91539749815A8123
:102F9000CA01019689839A838B819C81E40FF51F76
:102FA00064E670E019D6CB01B90116D6805D808346
:102FB000D8015296ED91FC91539749815A81CA01EB
:102FC000019689839A838B819C81E40FF51FB90157
:102FD00003D6CB01B90100D6805D8083D80152961B
:102FE000ED91FC91539749815A81CA0101968983D9
:102FF0009A838B819C81E40FF51FB901EDD5805D2B
:103000008083F8012289338989819A81AC014F5FDD
:103010005F4F49835A83F901E80FF91F2CE220839F
:10302000D8011296ED91FC91139720E030E04AE729
:1030300054E4608D718D828D938D24D53CD46B8347
:103040007C838B819C819923BCF48B819C8191959D
:10305000819591098B839C83F80122893389898129
:103060009A81AC014F5F5F4F49835A83F901E80FA2
:10307000F91F2DE2208311C0D80152962D913C9169
:10308000539789819A81AC014F5F5F4F49835A837F
:10309000F901E80FF91F2BE22083D8015296ED9138
:1030A000FC91539729813A81C901019689839A83BA
:1030B0008B819C81E20FF31F60E177E28DD5CB011C
:1030C0002AE030E0B90188D5805D8083D80152962E
:1030D000ED91FC91539749815A81CA0101968983E8
:1030E0009A838B819C81E40FF51F68EE73E074D5A1
:1030F000CB01B90171D5805D8083F8014289538984
:1031000089819A81BC016F5F7F4F69837A83FA015D
:10311000E80FF91F4EE24083D8015296ED91FC91E1
:10312000539749815A81CA01019689839A838B8179
:103130009C81E40FF51F64E670E04ED5CB01B90128
:103140004BD5805D8083D8015296ED91FC915397C9
:1031500049815A81CA01019689839A838B819C8116
:10316000E40FF51FB90138D5CB01B90135D5805D24
:103170008083D8015296ED91FC91539749815A81F1
:10318000CA01019689839A838B819C81E40FF51F84
:10319000B90122D5805D8083F80122893389898134
:1031A0009A81AC014F5F5F4F49835A83F901E80F61
:1031B000F91F2CE22083D801ED91FC9120E030E052
:1031C00040E251E464A175A186A197A15BD473D3B9
:1031D0006B837C838B819C819923BCF48B819C8144
:1031E0009195819591098B839C83F801228933897C
:1031F00089819A81AC014F5F5F4F49835A83F901FE
:10320000E80FF91F2DE2208311C0D80152962D91AD
:103210003C91539789819A81AC014F5F5F4F4983FD
:103220005A83F901E80FF91F2BE22083D801529647
:10323000ED91FC91539729813A81C90101968983C7
:103240009A838B819C81E20FF31F60E177E2C4D403
:10325000CB012AE030E0B901BFD4805D8083D80182
:103260005296ED91FC91539749815A81CA0101967A
:1032700089839A838B819C81E40FF51F68EE73E04C
:10328000ABD4CB01B901A8D4805D8083D80152961C
:10329000ED91FC91539749815A81CA010196898326
:1032A0009A838B819C81E40FF51F64E670E094D4CF
:1032B000CB01B90191D4805D8083D8015296ED9104
:1032C000FC91539749815A81CA01019689839A8357
:1032D0008B819C81E40FF51FB9017ED4CB01B9012C
:1032E0007BD4805D8083F8014289538989819A81EA
:1032F000BC016F5F7F4F69837A83FA01E80FF91F82
:103300004EE24083D8015296ED91FC91539749814A
:103310005A81CA01019689839A838B819C81E40F2B
:10332000F51FB90159D4805D8083F8012289338962
:1033300089819A81AC014F5F5F4F49835A83F901BC
:10334000E80FF91F2CE22083D801ED91FC9120E0D9
:1033500030E040E251E464A575A586A597A592D317
:10336000AAD26B837C838B819C819923BCF48B8153
:103370009C819195819591098B839C83F801228989
:10338000338989819A81AC014F5F5F4F49835A83AA
:10339000F901E80FF91F2DE2208311C0D8015296E0
:1033A0002D913C91539789819A81AC014F5F5F4F7A
:1033B00049835A83F901E80FF91F2BE22083D801D2
:1033C0005296ED91FC91539729813A81C90101965A
:1033D00089839A838B819C81E20FF31F60E177E2FE
:1033E000FBD3CB012AE030E0B901F6D3805D8083C6
:1033F000D8015296ED91FC91539749815A81CA01A7
:10340000019689839A838B819C81E40FF51F68EE76
:1034100073E0E2D3CB01B901DFD3805D8083D801B3
:103420005296ED91FC91539749815A81CA010196B8
:1034300089839A838B819C81E40FF51F64E670E099
:10344000CBD3CB01B901C8D3805D8083D80152961C
:10345000ED91FC91539749815A81CA010196898364
:103460009A838B819C81E40FF51FB901B5D3CB0101
:10347000B901B2D3805D8083F80142895389898183
:103480009A81BC016F5F7F4F69837A83FA01E80FED
:10349000F91F4EE24083D8015296ED91FC9153976B
:1034A00049815A81CA01019689839A838B819C81C3
:1034B000E40FF51FB90190D3805D8083F801228964
:1034C000338989819A81AC014F5F5F4F49835A8369
:1034D000F901E80FF91F2CE22083D8011296ED9133
:1034E000FC91139720E030E040E251E460A571A523
:1034F00082A593A5C7D2DFD16B837C838B819C810E
:103500009923BCF48B819C819195819591098B8342
:103510009C83F8012289338989819A81AC014F5FAC
:103520005F4F49835A83F901E80FF91F2DE2208389
:1035300011C0D80152962D913C91539789819A815F
:10354000AC014F5F5F4F49835A83F901E80FF91FC0
:103550002BE22083D8015296ED91FC91539729815B
:103560003A81C901019689839A838B819C81E20FFC
:10357000F31F60E177E230D3CB012AE030E0B901FC
:103580002BD3805D8083D8015296ED91FC915397A7
:1035900049815A81CA01019689839A838B819C81D2
:1035A000E40FF51F68EE73E017D3CB01B90114D314
:1035B000805D8083D8015296ED91FC9153974981AB
:1035C0005A81CA01019689839A838B819C81E40F79
:1035D000F51F64E670E000D3CB01B901FDD2805D38
:1035E0008083D8015296ED91FC91539749815A817D
:1035F000CA01019689839A838B819C81E40FF51F10
:10360000B901EAD2CB01B901E7D2805D8083F8012C
:103610004289538989819A81BC016F5F7F4F698399
:103620007A83FA01E80FF91F4EE24083D8015296DF
:10363000ED91FC91539749815A81CA010196898382
:103640009A838B819C81E40FF51FB901C5D2805DFF
:103650008083F8012289338989819A81AC014F5F87
:103660005F4F49835A83F901E80FF91F2CE2208349
:10367000D80152962D913C91539789819A81AC0142
:103680004F5F5F4F49835A83F901E80FF91F2DE01F
:10369000208352962D913C91539789819A81AC0158
:1036A0004F5F5F4F49835A83F901E80FF91F2AE002
:1036B000208352962D913C91539789819A81AC0138
:1036C0004F5F5F4F49835A83F901E80FF91F10825A
:1036D00052962D913C91539789819A81AC014F5F0D
:1036E0005F4F49835A83F901E80FF91F28E52083CA
:1036F0002A96CDBFDEBFDF91CF911F910F91FF9032
:10370000EF90DF90CF90BF90AF909F908F907F9081
:103710006F905F904F903F902F9008955058BB2727
:10372000AA270ED071C162D130F067D120F031F4F8
:103730009F3F11F41EF457C10EF4E095E7FB4DC115
:10374000E92F73D180F3BA176207730784079507CF
:1037500018F071F49EF58BC10EF4E0950B2EBA2F84
:10376000A02D0B01B90190010C01CA01A001112487
:10377000FF27591B99F0593F50F4503E68F11A1633
:10378000F040A22F232F342F4427585FF3CF4695C4
:1037900037952795A795F0405395C9F77EF41F16E6
:1037A000BA0B620B730B840BBAF09150A1F0FF0FB0
:1037B000BB1F661F771F881FC2F70EC0BA0F621F9C
:1037C000731F841F48F4879577956795B795F7958C
:1037D0009E3F08F0B3CF9395880F08F09927EE0F1E
:1037E0009795879508950CD00FC107D140F0FED072
:1037F00030F021F45F3F19F0F0C0511139C1F3C02E
:1038000014D198F39923C9F35523B1F3951B550BA4
:10381000BB27AA2762177307840738F09F5F5F4FA3
:10382000220F331F441FAA1FA9F333D00E2E3AF0E4
:10383000E0E830D091505040E695001CCAF729D0FE
:10384000FE2F27D0660F771F881FBB1F261737074D
:103850004807AB07B0E809F0BB0B802DBF01FF277D
:1038600093585F4F2AF09E3F510568F0B6C000C1E3
:103870005F3FECF3983EDCF3869577956795B795B7
:10388000F7959F5FC9F7880F911D9695879597F9D2
:103890000895E1E0660F771F881FBB1F621773074B
:1038A0008407BA0720F0621B730B840BBA0BEE1F60
:1038B00088F7E095089504D06894B111D9C00895AF
:1038C000BCD088F09F5790F0B92F9927B751A0F03E
:1038D000D1F0660F771F881F991F1AF0BA95C9F7A4
:1038E00012C0B13081F0C3D0B1E00895C0C0672FDD
:1038F000782F8827B85F39F0B93FCCF38695779554
:103900006795B395D9F73EF490958095709561953C
:103910007F4F8F4F9F4F0895E89409C097FB3EF467
:1039200090958095709561957F4F8F4F9F4F99230C
:10393000A9F0F92F96E9BB279395F695879577958A
:103940006795B795F111F8CFFAF4BB0F11F460FF4A
:103950001BC06F5F7F4F8F4F9F4F16C0882311F0A2
:1039600096E911C0772321F09EE8872F762F05C0B6
:10397000662371F096E8862F70E060E02AF09A9551
:10398000660F771F881FDAF7880F9695879597F946
:103990000895990F0008550FAA0BE0E8FEEF1616E0
:1039A0001706E807F907C0F012161306E407F50733
:1039B00098F0621B730B840B950B39F40A2661F0A7
:1039C000232B242B252B21F408950A2609F4A1404A
:1039D000A6958FEF811D811D089597F99F6780E857
:1039E00070E060E008959FEF80EC089500240A9451
:1039F0001616170618060906089500240A941216CA
:103A00001306140605060895092E0394000C11F4FC
:103A1000882352F0BB0F40F4BF2B11F460FF04C0A9
:103A20006F5F7F4F8F4F9F4F089557FD9058440F02
:103A3000551F59F05F3F71F04795880F97FB991F0D
:103A400061F09F3F79F087950895121613061406CA
:103A5000551FF2CF4695F1DF08C016161706180657
:103A6000991FF1CF86957105610508940895E89432
:103A7000BB2766277727CB0197F908958ADF08F4DB
:103A80008FEF08950BD0C0CFB1DF28F0B6DF18F06C
:103A9000952309F0A2CFA7CF1124EACFC6DFA0F368
:103AA000959FD1F3950F50E0551F629FF001729FD3
:103AB000BB27F00DB11D639FAA27F00DB11DAA1FF2
:103AC000649F6627B00DA11D661F829F2227B00D3F
:103AD000A11D621F739FB00DA11D621F839FA00DCA
:103AE000611D221F749F3327A00D611D231F849F1A
:103AF000600D211D822F762F6A2F11249F57504071
:103B00008AF0E1F088234AF0EE0FFF1FBB1F661F0B
:103B1000771F881F91505040A9F79E3F510570F0C4
:103B20005CCFA6CF5F3FECF3983EDCF386957795AC
:103B30006795B795F795E7959F5FC1F7FE2B880FBF
:103B4000911D9695879597F908952FD020F09F376E
:103B500008F48ECF01C01BC0882371F4772321F0B5
:103B60009850872B762F07C0662311F499270DC034
:103B70009051862B70E060E02AF09A95660F771FCF
:103B8000881FDAF7880F9695879597F908959F3FD4
:103B900031F0915020F4879577956795B795880F08
:103BA000911D9695879597F9089547DFA0F0BEE798
:103BB000B91788F4BB279F3860F41616B11D672F1C
:103BC000782F8827985FF7CF869577956795B11DF1
:103BD00093959639C8F3089597FB072E16F4009431
:103BE00006D077FD08D044D007FC05D03EF4909570
:103BF00081959F4F0895709561957F4F0895A1E23B
:103C00001A2EAA1BBB1BFD010DC0AA1FBB1FEE1F56
:103C1000FF1FA217B307E407F50720F0A21BB30BA1
:103C2000E40BF50B661F771F881F991F1A9469F71D
:103C300060957095809590959B01AC01BD01CF0179
:103C40000895EE0FFF1F881F8BBF0790F691E02DA0
:103C50001994A29FB001B39FC001A39F700D811D55
:103C60001124911DB29F700D811D1124911D089585
:103C7000AA1BBB1B51E107C0AA1FBB1FA617B70792
:103C800010F0A61BB70B881F991F5A95A9F78095AE
:0C3C90009095BC01CD010895F894FFCF81
:103C9C000A0D4D656D6F72792065726173656421D3
:103CAC000A0D0A0D00000A0D5465616D2C54656CEB
:103CBC0065436E742C466C696768745374617465E3
:103CCC002C536F667453746174652C416C746974F5
:103CDC007564652C56656C6F636974792C416363EC
:103CEC00656C2C4779726F2C4C61742C4C6F6E6721
:103CFC002C416C74694750532C4669782C43686589
:103D0C00636B2C2C436E742C566F6C74616765421C
:103D1C0061742C566F6C746167655643432C546503
:103D2C006D702C50726573732C416363592C416315
:103D3C006359322C4779726F582C4779726F5A2C11
:103D4C004779726F592C0A0D0A0D00000A0D526545
:103D5C006164696E6720646F6E650A0D0A0D000060
:00000001FF
