S018000043616E5361745F5633202D20316B487A2E737265631F
S1130000FDC000000EC100000CC100000AC10000C8
S113001008C1000006C1000004C1000002C10000C4
S113002000C10000FEC00000FCC00000FAC00000D7
S1130030F8C00000F6C00000DAC40000F2C00000FE
S1130040F0C00000EEC00000ECC00000EAC00000F8
S1130050E8C00000E6C00000E4C00000E2C0000008
S1130060E0C00000DEC00000DCC00000DAC0000018
S1130070D8C00000D6C00000D4C00000D2C0000028
S1130080D0C00000CEC00000CCC00000CAC0000038
S1130090C8C00000C6C00000C4C00000C2C0000048
S11300A0C0C00000BEC00000E6C20000BAC000002C
S11300B0B8C00000B6C00000B4C00000EAC400002C
S11300C0B0C00000AEC00000ACC00000AAC0000078
S11300D0A8C00000A6C00000A4C00000A2C0000088
S11300E0A0C000009EC000009CC000009AC0000098
S11300F098C0000096C0000094C0000092C00000A8
S113010090C000008EC000008CC000008AC00000B7
S113011088C0000086C0000084C0000082C00000C7
S113012080C000007EC000007CC000007AC00000D7
S113013078C0000066C4000074C0000072C00000F3
S113014070C000006EC000006CC000006AC00000F7
S113015068C0000066C0000064C0000062C0000007
S113016000C300005EC00000BCC200005AC0000012
S113017058C0000056C0000054C0000052C0000027
S113018050C000004EC000004CC000004AC0000037
S113019048C0000046C0000044C0000042C0000047
S11301A040C000003EC000003CC000003AC0000057
S11301B099C4000036C0000034C0000032C0000002
S11301C030C000002EC000002CC000002AC0000077
S11301D028C0000026C0000024C0000022C0000087
S11301E020C000001EC000001CC000001AC0000097
S11301F018C0000016C0000014C0000011241FBE67
S1130200CFEFCDBFDFE3DEBF00E00CBF25E2A0E00F
S1130210B0E201C01D92A93BB207E1F735D50C94B9
S11302200C131AC2811106C0611110C088E08093BA
S113023045060895813069F4611104C080E180931A
S11302404506089580E180934606089588E08093EA
S113025046060895CF93C82F61E0E4DF80E103D61A
S113026080E001D680EFFFD58FE1FDD561E08C2FD2
S1130270D9DF2FEF89EF90E0215080409040E1F7E3
S113028000C0000061E08C2FCDDF88E0ECD584E174
S1130290EAD580E0E8D581E0E6D561E08C2FC2DFC5
S11302A0CF910895CF93DF93C82F61E0BBDF80E641
S11302B0DAD5ECD5D82F61E08C2FB4DF8D2FDF9108
S11302C0CF910895E0E6F6E082E086832FEF33ECE9
S11302D099E0215030409040E1F700C00000858350
S11302E00895CF92DF92EF92FF920F931F93CF93D3
S11302F0DF936C018B017A01E90161E080E092DF18
S113030088E5B1D5C3D590E0A0E0B0E0DC01992741
S11303108827F70180839183A283B383B7D5F7013C
S11303204081518162817381582B40835183628360
S11303307383ACD5F7014081518162817381482B6D
S11303404083518362837383A1D58F70F6018083C8
S113035060E080E067DF61E081E064DF88E583D509
S113036095D590E0A0E0B0E0DC0199278827888348
S11303709983AA83BB838AD5488159816A817B8109
S1130380582B488359836A837B8380D5488159815C
S11303906A817B81482B488359836A837B8376D522
S11303A08F70F801808360E081E03CDFDF91CF91C2
S11303B01F910F91FF90EF90DF90CF900895CF930E
S11303C0DF93C82F61E02EDF80E44DD55FD5D82FB1
S11303D061E08C2F27DF8D2F881F8827881FDF91EE
S11303E0CF9108950F931F93CF93DF93CDB7DEB7CB
S11303F02A97CDBFDEBF8C019E01295F3F4FAE011E
S11304004D5F5F4FBE016E5F7F4FCE01019669DF86
S113041099819530B9F018F4943031F03CC096309D
S1130420F9F0973059F137C0D8011C96ED91FC9141
S11304301D978B819C81AD81BE8180A391A3A2A3D2
S1130440B3A329C0D8011C96ED91FC911D978B8113
S11304509C81AD81BE8184A395A3A6A3B7A31BC031
S1130460D8011C96ED91FC911D978B819C81AD81E7
S1130470BE8180A791A7A2A7B3A70DC0D8011C96DF
S1130480ED91FC911D978B819C81AD81BE8184A7E8
S113049095A7A6A7B7A79A819530B9F018F4943018
S11304A031F03CC09630F9F0973059F137C0D8019B
S11304B01C96ED91FC911D978F819885A985BA852D
S11304C080AB91ABA2ABB3AB29C0D8011C96ED9124
S11304D0FC911D978F819885A985BA8584AB95ABCE
S11304E0A6ABB7AB1BC0D8011C96ED91FC911D9730
S11304F08F819885A985BA8580AF91AFA2AFB3AF3C
S11305000DC0D8011C96ED91FC911D978F819885A3
S1130510A985BA8584AF95AFA6AFB7AF2A96CDBFEC
S1130520DEBFDF91CF911F910F910895CF93DF9399
S1130530EC0128A139A14AA15BA1ABE7B0E00E947C
S1130540EE126F557D40810991090E9494116883D0
S113055079838A839B832CA13DA14EA15FA1ABE744
S1130560B0E00E94EE126F557D40810991090E940E
S113057094116C837D838E839F8328A539A54AA516
S11305805BA5ABE7B0E00E94EE126F557D40810998
S113059091090E949411688779878A879B872CA583
S11305A03DA54EA55FA5ABE7B0E00E94EE126F55E6
S11305B07D40810991090E9494116C877D878E8703
S11305C09F8728A939A94AA95BA9ABE7B0E00E9493
S11305D0EE126F557D40810991090E949411688B38
S11305E0798B8A8B9B8B2CA93DA94EA95FA9ABE77C
S11305F0B0E00E94EE126F557D40810991090E947E
S113060094116C8B7D8B8E8B9F8B28AD39AD4AAD4D
S11306105BADABE7B0E00E94EE126F557D408109FF
S113062091090E949411688F798F8A8F9B8F2CADCA
S11306303DAD4EAD5FADABE7B0E00E94EE126F553D
S11306407D40810991090E9494116C8F7D8F8E8F5A
S11306509F8FDF91CF9108951F920F920FB60F9243
S113066011248F9381E08093A7068F910F900FBE82
S11306700F901F9018951F920F920FB60F9211248E
S11306800BB60F928F939F93AF93BF93EF93FF9308
S1130690A0E4B2E050968D919C915197E5E8F5E283
S11306A08483958352968D919C91539786839783E7
S11306B054968D919C9155978087918756968D91EC
S11306C09C91579782879387FF91EF91BF91AF9148
S11306D09F918F910F900BBE0F900FBE0F901F90A4
S11306E018951F920F920FB60F9211240BB60F920A
S11306F08F939F93EF93FF93E091E124F091E22491
S1130700E757FD4D80818823F9F08332E9F091E0C9
S11307109093E324853221F48AE08093A00902C0F7
S11307208093A0098091E1249091E2248739910576
S113073030F401968093E1249093E22407C0FC01F5
S1130740E757FD4D108202C01092E324FF91EF9110
S11307509F918F910F900BBE0F900FBE0F901F9023
S113076018951F920F920FB60F9211240BB60F9289
S11307708F939F93AF93BF93EF93FF93CF93DF93A5
S11307801F92CDB7DEB78091A00989838981843215
S113079021F481E0809310251AC18981823581F486
S11307A080911025882309F4D7C08FB7F89410924C
S11307B0102598ED94BF91E0909379008FBF07C105
S11307C08981813359F480911025882309F4CAC0A2
S11307D0EEE0F5E281E084831282F9C089818233FC
S11307E051F480911025882309F4C2C0EEE0F5E2AB
S11307F014821282ECC08981833359F480911025CC
S1130800882309F4BBC0EEE0F5E281E08383128221
S1130810DEC08981843351F480911025882309F442
S1130820B3C0EEE0F5E213821282D1C08981853330
S113083051F480911025882309F4ACC0EEE0F5E270
S113084013821282C4C08981863389F48091102571
S1130850882309F4A5C0EEE0F5E286E990E0A0E083
S1130860B0E081879287A387B4871282B0C0898160
S1130870873389F480911025882309F497C0EEE02A
S1130880F5E288EC90E0A0E0B0E081879287A3874E
S1130890B48712829CC08981883389F480911025A1
S11308A0882309F489C0EEE0F5E28EE591E0A0E04A
S11308B0B0E081879287A387B487128288C0898138
S11308C0893389F480911025882309F47BC0EEE0F4
S11308D0F5E28AE892E0A0E0B0E081879287A387FE
S11308E0B487128274C08981813469F4809110259F
S11308F0882309F46AC0EEE0F5E281E0878316827A
S11309001582128264C08981803551F4809110254A
S1130910882331F0EEE0F5E281E08583128257C04E
S113092089818335B1F48091172590911825A09180
S11309301925B0911A25892B8A2B8B2B51F0809184
S11309401025882331F0EEE0F5E281E086831282FF
S11309503EC0109210253BC089818981823309F001
S11309604ACF06C089818981833309F052CF06C0FA
S113097089818981843309F059CF06C089818981AD
S1130980853309F060CF06C089818981863309F0F7
S11309906ECF06C089818981873309F07CCF06C078
S11309A089818981883309F08ACF06C08981898148
S11309B0893309F098CF06C089818981813409F08F
S11309C0A2CF03C089818981ABCF8981A9CF0F9040
S11309D0DF91CF91FF91EF91BF91AF919F918F9153
S11309E00F900BBE0F900FBE0F901F9018951F9283
S11309F00F920FB60F9211240F900FBE0F901F90FD
S1130A0018951F920F920FB60F9211240BB60F92E6
S1130A108F939F93EF93FF9380910020882349F154
S1130A2080910120813079F028F08230D1F0833038
S1130A30E1F024C0E0E0F0E210821382128280E44C
S1130A408093A6061BC080910320873018F0109273
S1130A50012014C090E49093A7068F5F8093032035
S1130A600DC080E48093A70609C080E48093A506A6
S1130A7005C01092012080E48093A606FF91EF91B7
S1130A809F918F910F900BBE0F900FBE0F901F90F0
S1130A9018951F920F920FB60F9211240BB60F9256
S1130AA08F939F93AF93BF93EF93FF93109210256F
S1130AB0E2E2F5E280819181A281B3810196A11DD8
S1130AC0B11D80839183A283B383FF91EF91BF9182
S1130AD0AF919F918F910F900BBE0F900FBE0F900F
S1130AE01F9018951F920F920FB60F9211240BB6F8
S1130AF00F922F933F934F935F936F937F938F93B3
S1130B009F93AF93BF93EF93FF931092E42480914C
S1130B101125882341F18091262590912725A091C4
S1130B202825B09129258F3926E8920721E0A207CC
S1130B30B10560F40196A11DB11D80932625909303
S1130B402725A0932825B093292508C0109226258F
S1130B5010922725109228251092292510925C22A4
S1130B6010925D22BEDDFF91EF91BF91AF919F91F5
S1130B708F917F916F915F914F913F912F910F9042
S1130B800BBE0F900FBE0F901F9018951092E1248A
S1130B901092E224AEE0B5E21C9211961C921197D9
S1130BA0EEE6F5E285E895E280839183A283B38340
S1130BB089E892E28483958384E090E28683978334
S1130BC08CE795E2828793878EE295E28487958706
S1130BD00895CF93DF931F921F92CDB7DEB780E2C3
S1130BE097D199D199D123D240D255D288E290E0BD
S1130BF094D18AEF90E0B2D18AE090E0D0D188EE2F
S1130C0093E0EED1C3DFA2D2ADD280E023DB80E05B
S1130C1049DB898381E01EDB81E044DB8A8352DB8C
S1130C2087E08093A2000F900F90DF91CF910895F9
S1130C30E0EAF6E084E085832FEF37E893E1215082
S1130C4030409040E1F700C0000086832FEF33EC82
S1130C5099E0215030409040E1F700C000008583C6
S1130C602FEF37E893E1215030409040E1F700C086
S1130C70000086832FEF33EC89E021503040804020
S1130C80E1F700C000000895EEE0F5E2148281E08F
S1130C9083831092E4249DDF7894CADF0E94C610F7
S1130CA0C0E0812C912C540100EA16E06894DD2404
S1130CB0D4F80F2EF2E2EF2EF5E2FF2EF02DD1E064
S1130CC08AE68A95F1F700C080E079DB811110C0D3
S1130CD0F801D7828EE695E285DBC33040F08EE6DC
S1130CE095E24ED28EE295E221DCC0E001C0CF5FF6
S1130CF08EE095E20E94CE1080911525882389F01C
S1130D000E94B7100E94AC100E9494100E949C1084
S1130D100E94A0100E94BE100E94CA10F801D58340
S1130D20CFCF80911325882359F280911425811106
S1130D3003C00E94A810C4CF809117259091182554
S1130D40A0911925B0911A25892B8A2B8B2B09F494
S1130D50B7CFF70180819181A281B381881599056C
S1130D60AA05BB0508F4ACCFEEE0F5E280858F5F01
S1130D708087823009F128F4882359F0813061F0AA
S1130D8065C0843009F441C030F1853009F44AC0AB
S1130D905DC0D093162594CF0E94BE100E94CA1045
S1130DA0F70180809180A280B380F8EE8F0EF3E08B
S1130DB09F1EA11CB11C84CF0E94C2100E948810E7
S1130DC0F70180809180A280B380F8EC8F0E911C93
S1130DD0A11CB11C75CF0E948C100E9490100E941F
S1130DE098100E94B0108090172590901825A0901C
S1130DF01925B0901A25F70180819181A281B381D0
S1130E00880E991EAA1EBB1E5BCF0E949C10F70180
S1130E1080809180A280B380FAE08F0E911CA11C87
S1130E20B11C4ECF0E9494100E94AC100E94B710C7
S1130E300E94A010F70180809180A280B380F8EE18
S1130E408F0EF3E09F1EA11CB11C3ACF0E94A41088
S1130E500E94C610EEE0F5E2168215821186128613
S1130E60138614862DCFCF93DF931F92CDB7DEB7B1
S1130E708093C308E0ECF8E082818823ECF780914A
S1130E80C30889830F90DF91CF9108951092C3080E
S1130E90E0ECF8E082818823ECF78091C3080895A0
S1130EA0E0E5F0E0908191609083A8E6B0E090E402
S1130EB012969C9312979DE013969C939081946054
S1130EC09083918192FFFDCFE0E5F0E09681987FD9
S1130ED09683E8E6F0E0908191609083E0E5F0E0AD
S1130EE0918190FFFDCF98ED94BF10924000E0E512
S1130EF0F0E090819F7E9083858380E1808381816F
S1130F0084FFFDCF88ED84BF84E080934000089582
S1130F108695C6CF08950895089527E02093000884
S1130F201092010810922008109221089C01A0E060
S1130F30BDE70E94DF12DC01CB01072E7AE0B695F3
S1130F40A795979587957A95D1F7702D8093260864
S1130F509093270882E080930608089527E0209361
S1130F6000091092010910922009109221099C0194
S1130F70A0E0BDE70E94DF12DC01CB01072E7AE07E
S1130F80B695A795979587957A95D1F7702D809307
S1130F9026099093270981E080930609089527E0A4
S1130FA02093000A1092010A1092200A1092210A3A
S1130FB09C01A0E0BDE70E94DF12DC01CB01072EFB
S1130FC07AE0B695A795979587957A95D1F7702D80
S1130FD08093260A9093270A82E08093060A089554
S1130FE027E02093000B1092010B1092200B10921B
S1130FF0210B813D27E0920710F080ED97E09C01E2
S1131000A0E0BDE70E94DF12DC01CB01072E7AE0ED
S1131010B695A795979587957A95D1F7702D809376
S1131020260B9093270B82E08093060B0895E0E44F
S1131030F2E091E0908311828181886081838181D3
S11310408061818380EC838380E4828327E024832E
S11310508FE180A321A380A72FE021A780AB27E104
S113106021AB80AF81AF92AF0895E0E6F6E084E073
S1131070868388E085838183E0EAF9E083E08583E1
S113108087E1868384EA878383818C618383848177
S11310908861848308950F931F93CF93DF93A0E215
S11310A0B6E080EF12968C93129788E154968C9355
S11310B0549755968C93559756968C935697579666
S11310C08C935797E0EAF6E08FE38183868380E48C
S11310D081838683E0E6F6E081E081838683C0E84D
S11310E0D6E087E089838E83C0EED7E083E08983EE
S11310F08E8320E036E090ECE90199839E8306E636
S113110016E094E0E801988361E676E048E0EB01BC
S1131110488340E24883E801488340E456E0EA011A
S1131120888380934406E9018E838FE016968C931E
S113113080E38183868382E081838683FA019183BD
S11311409683DF91CF911F910F910895E0E8F4E029
S113115080E3818391E092838583818188608183A8
S113116094830895E0E4F6E080E1818380EA81835A
S113117080E4828380EE858381E58093C0080895AE
S11311808F929F92AF92BF92CF92DF92EF92FF9293
S11311900F931F93CF93DF9300D000D0CDB7DEB76A
S11311A08C0119821A82DC0116962D913C911797B5
S11311B089819A81AC014F5F5F4F49835A83F9015A
S11311C0E80FF91F23E5208316962D913C9117977C
S11311D089819A81AC014F5F5F4F49835A83D9015A
S11311E0A80FB91FF80182819381FC012681205D3B
S11311F02C93D80116962D913C91179789819A8149
S1131200AC014F5F5F4F49835A83D901A80FB91FBF
S1131210F80182819381FC012785205D2C93D801FC
S113122016962D913C91179789819A81AC014F5F55
S11312305F4F49835A83D901A80FB91FF8018281EE
S11312409381FC012585205D2C93D80116962D9160
S11312503C91179789819A81AC014F5F5F4F498315
S11312605A83D901A80FB91FF80182819381FC0127
S11312702685205D2C93D80116962D913C911797C5
S113128089819A81AC014F5F5F4F49835A83D901A9
S1131290A80FB91FF80182819381FC012089205D88
S11312A02C93D80116962D913C91179789819A8198
S11312B0AC014F5F5F4F49835A83F901E80FF91F6F
S11312C0108216962D913C91179789819A81AC01D1
S11312D04F5F5F4F49835A83F901E80FF91F10826A
S11312E016962D913C91179789819A81AC014F5F95
S11312F05F4F49835A83D901A80FB91FF80182812E
S11313009381FC012189205D2C93D80116962D919F
S11313103C91179789819A81AC014F5F5F4F498354
S11313205A83D901A80FB91FF80182819381FC0166
S11313302289205D2C93D80116962D913C91179704
S113134089819A81AC014F5F5F4F49835A83D901E8
S1131350A80FB91FF80182819381FC012389205DC4
S11313602C93D80116962D913C91179789819A81D7
S1131370AC014F5F5F4F49835A83F901E80FF91FAE
S11313803CE2308316964D915C91179789819A813E
S1131390BC016F5F7F4F69837A83DA01A80FB91F9D
S11313A0F80182819381FC012185205D2C93D80171
S11313B016964D915C91179789819A81BC016F5F54
S11313C07F4F69837A83FA01E80FF91F30831C96F3
S11313D0ED91FC911D97C080D180E280F38020E0E4
S11313E030E04AE754E4C701B6010E9422126BD7E9
S11313F06B837C83C701B6010E9485129B01AC01FB
S1131400C701B601FBD620E030E543EC57E40E9467
S1131410221259D76D837E838B819C81992324F07A
S11314208D819E81992374F48B819C819195819502
S113143091098B839C838D819E81919581959109DE
S11314408D839E83D8011696ED91FC91179729817F
S11314503A81C901019689839A838B819C81E20F29
S1131460F31F60E177E20E94CC12CB012AE030E066
S1131470B9010E94CC12805D8083D8011696ED914B
S1131480FC91179749815A81CA01019689839A83ED
S11314908B819C81E40FF51F68EE73E00E94CC12EF
S11314A0CB01B9010E94CC12805D8083F801468192
S11314B0578189819A81BC016F5F7F4F69837A83E9
S11314C0FA01E80FF91F4EE24083D8011696ED9118
S11314D0FC91179749815A81CA01019689839A839D
S11314E08B819C81E40FF51F64E670E00E94CC12AE
S11314F0CB01B9010E94CC12805D8083D80116967D
S1131500ED91FC91179749815A81CA01019689830B
S11315109A838B819C81E40FF51FB9010E94CC1240
S1131520CB01B9010E94CC12805D8083D80116964C
S1131530ED91FC91179749815A81CA0101968983DB
S11315409A838B819C81E40FF51FB9010E94CC1210
S1131550805D8083D8011696ED91FC91179749819F
S11315605A81CA01019689839A838D819E81E40FF1
S1131570F51FB9010E94CC12CB01B9010E94CC1213
S1131580805D8083D8011696ED91FC91179749816F
S11315905A81CA01019689839A838D819E81E40FC1
S11315A0F51FB901F9D7805D8083F8012681378161
S11315B089819A81AC014F5F5F4F49835A83F90156
S11315C0E80FF91F2CE22083D8011C96ED91FC91C1
S11315D01D97C480D580E680F78020E030E04AE79C
S11315E054E4C701B6012ED76ED66B837C83C70142
S11315F0B6018BD79B01AC01C701B601FFD520E032
S113160030E543EC57E41ED75ED66D837E838B8131
S11316109C81992324F08D819E81992374F48B817C
S11316209C819195819591098B839C838D819E8169
S11316309195819591098D839E83D8011696ED919C
S1131640FC91179729813A81C901019689839A836C
S11316508B819C81E20FF31F60E177E29DD7CB0180
S11316602AE030E0B90198D7805D8083D8011696CE
S1131670ED91FC91179749815A81CA01019689839A
S11316809A838B819C81E40FF51F68EE73E084D705
S1131690CB01B90181D7805D8083F80146815781F0
S11316A089819A81BC016F5F7F4F69837A83FA01D4
S11316B0E80FF91F4EE24083D8011696ED91FC9194
S11316C0179749815A81CA01019689839A838B812C
S11316D09C81E40FF51F64E670E05ED7CB01B9018D
S11316E05BD7805D8083D8011696ED91FC911797A6
S11316F049815A81CA01019689839A838B819C818D
S1131700E40FF51FB90148D7CB01B90145D7805D76
S11317108083D8011696ED91FC91179749815A81DF
S1131720CA01019689839A838B819C81E40FF51FFA
S1131730B90132D7805D8083D8011696ED91FC9172
S1131740179749815A81CA01019689839A838D81A9
S11317509E81E40FF51FB9011FD7CB01B9011CD736
S1131760805D8083D8011696ED91FC91179749818D
S11317705A81CA01019689839A838D819E81E40FDF
S1131780F51FB90109D7805D8083F801268137816F
S113179089819A81AC014F5F5F4F49835A83F90174
S11317A0E80FF91F2CE22083D8011C96ED91FC91DF
S11317B01D97C084D184E284F38420E030E04AE7BA
S11317C054E4C701B6013ED67ED56B837C83C70142
S11317D0B6019BD69B01AC01C701B6010FD520E031
S11317E030E543EC57E42ED66ED56D837E838B8132
S11317F09C81992324F08D819E81992374F48B819B
S11318009C819195819591098B839C838D819E8187
S11318109195819591098D839E83D8011696ED91BA
S1131820FC91179729813A81C901019689839A838A
S11318308B819C81E20FF31F60E177E2ADD6CB018F
S11318402AE030E0B901A8D6805D8083D8011696DD
S1131850ED91FC91179749815A81CA0101968983B8
S11318609A838B819C81E40FF51F68EE73E094D614
S1131870CB01B90191D6805D8083F80146815781FF
S113188089819A81BC016F5F7F4F69837A83FA01F2
S1131890E80FF91F4EE24083D8011696ED91FC91B2
S11318A0179749815A81CA01019689839A838B814A
S11318B09C81E40FF51F64E670E06ED6CB01B9019C
S11318C06BD6805D8083D8011696ED91FC911797B5
S11318D049815A81CA01019689839A838B819C81AB
S11318E0E40FF51FB90158D6CB01B90155D6805D77
S11318F08083D8011696ED91FC91179749815A81FE
S1131900CA01019689839A838B819C81E40FF51F18
S1131910B90142D6805D8083D8011696ED91FC9181
S1131920179749815A81CA01019689839A838D81C7
S11319309E81E40FF51FB9012FD6CB01B9012CD636
S1131940805D8083D8011696ED91FC9117974981AB
S11319505A81CA01019689839A838D819E81E40FFD
S1131960F51FB90119D6805D8083F801268137817E
S113197089819A81AC014F5F5F4F49835A83F90192
S1131980E80FF91F2CE22083D8011C96ED91FC91FD
S11319901D97C484D584E684F78420E030E04AE7C8
S11319A054E4C701B6014ED58ED46B837C83C70142
S11319B0B601ABD59B01AC01C701B6011FD420E031
S11319C030E543EC57E43ED57ED46D837E838B8132
S11319D09C81992324F08D819E81992374F48B81B9
S11319E09C819195819591098B839C838D819E81A6
S11319F09195819591098D839E83D8011696ED91D9
S1131A00FC91179729813A81C901019689839A83A8
S1131A108B819C81E20FF31F60E177E2BDD5CB019E
S1131A202AE030E0B901B8D5805D8083D8011696EC
S1131A30ED91FC91179749815A81CA0101968983D6
S1131A409A838B819C81E40FF51F68EE73E0A4D523
S1131A50CB01B901A1D5805D8083F801468157810E
S1131A6089819A81BC016F5F7F4F69837A83FA0110
S1131A70E80FF91F4EE24083D8011696ED91FC91D0
S1131A80179749815A81CA01019689839A838B8168
S1131A909C81E40FF51F64E670E07ED5CB01B901AB
S1131AA07BD5805D8083D8011696ED91FC911797C4
S1131AB049815A81CA01019689839A838B819C81C9
S1131AC0E40FF51FB90168D5CB01B90165D5805D77
S1131AD08083D8011696ED91FC91179749815A811C
S1131AE0CA01019689839A838B819C81E40FF51F37
S1131AF0B90152D5805D8083D8011696ED91FC9191
S1131B00179749815A81CA01019689839A838D81E5
S1131B109E81E40FF51FB9013FD5CB01B9013CD536
S1131B20805D8083D8011696ED91FC9117974981C9
S1131B305A81CA01019689839A838D819E81E40F1B
S1131B40F51FB90129D5805D8083F801268137818D
S1131B5089819A81AC014F5F5F4F49835A83F901B0
S1131B60E80FF91F2CE22083D8011C96ED91FC911B
S1131B701D97C088D188E288F38820E030E04AE7E6
S1131B8054E4C701B6015ED49ED36B837C83C70142
S1131B90B601BBD49B01AC01C701B6012FD320E031
S1131BA030E543EC57E44ED48ED36D837E838B8132
S1131BB09C81992324F08D819E81992374F48B81D7
S1131BC09C819195819591098B839C838D819E81C4
S1131BD09195819591098D839E83D8011696ED91F7
S1131BE0FC91179729813A81C901019689839A83C7
S1131BF08B819C81E20FF31F60E177E2CDD4CB01AE
S1131C002AE030E0B901C8D4805D8083D8011696FB
S1131C10ED91FC91179749815A81CA0101968983F4
S1131C209A838B819C81E40FF51F68EE73E0B4D432
S1131C30CB01B901B1D4805D8083F801468157811D
S1131C4089819A81BC016F5F7F4F69837A83FA012E
S1131C50E80FF91F4EE24083D8011696ED91FC91EE
S1131C60179749815A81CA01019689839A838B8186
S1131C709C81E40FF51F64E670E08ED4CB01B901BA
S1131C808BD4805D8083D8011696ED91FC911797D3
S1131C9049815A81CA01019689839A838B819C81E7
S1131CA0E40FF51FB90178D4CB01B90175D4805D77
S1131CB08083D8011696ED91FC91179749815A813A
S1131CC0CA01019689839A838B819C81E40FF51F55
S1131CD0B90162D4805D8083D8011696ED91FC91A0
S1131CE0179749815A81CA01019689839A838D8104
S1131CF09E81E40FF51FB9014FD4CB01B9014CD437
S1131D00805D8083D8011696ED91FC9117974981E7
S1131D105A81CA01019689839A838D819E81E40F39
S1131D20F51FB90139D4805D8083F801268137819C
S1131D3089819A81AC014F5F5F4F49835A83F901CE
S1131D40E80FF91F2CE22083D8011C96ED91FC9139
S1131D501D97C488D588E688F78820E030E04AE7F4
S1131D6054E4C701B6016ED3AED26B837C83C70142
S1131D70B601CBD39B01AC01C701B6013FD220E031
S1131D8030E543EC57E45ED39ED26D837E838B8132
S1131D909C81992324F08D819E81992374F48B81F5
S1131DA09C819195819591098B839C838D819E81E2
S1131DB09195819591098D839E83D8011696ED9115
S1131DC0FC91179729813A81C901019689839A83E5
S1131DD08B819C81E20FF31F0F2EF0E18F2EF7E22F
S1131DE09F2EF02DB401D8D3CB012AE030E0B90105
S1131DF0D3D3805D8083D8011696ED91FC9117971B
S1131E0049815A81CA01019689839A838B819C8175
S1131E10E40FF51F0F2EF8EEAF2EF3E0BF2EF02DDA
S1131E20B501BAD3CB01B901B7D3805D8083F80182
S1131E304681578189819A81BC016F5F7F4F698395
S1131E407A83FA01E80FF91F4EE24083D80116960F
S1131E50ED91FC91179749815A81CA0101968983B2
S1131E609A838B819C81E40FF51F0F2EF4E6CF2E0D
S1131E70D12CF02DB60190D3CB01B9018DD3805D67
S1131E808083D8011696ED91FC91179749815A8168
S1131E90CA01019689839A838B819C81E40FF51F83
S1131EA0B9017AD3CB01B90177D3805D8083D8019E
S1131EB01696ED91FC91179749815A81CA010196B2
S1131EC089839A838B819C81E40FF51FB90164D3C4
S1131ED0805D8083D8011696ED91FC911797498116
S1131EE05A81CA01019689839A838D819E81E40F68
S1131EF0F51FB90151D3CB01B9014ED3805D808365
S1131F00D8011696ED91FC91179749815A81CA011F
S1131F10019689839A838D819E81E40FF51FB9010F
S1131F203BD3805D8083F8014681578189819A8102
S1131F30BC016F5F7F4F69837A83FA01E80FF91F51
S1131F400F2EFCE2EF2EF02DE082D80116964D9173
S1131F505C91179789819A81BC016F5F7F4F698378
S1131F607A83FA01E80FF91F0F2EFAE0FF2EF02D05
S1131F70F0821896ED91FC911997848195818B8359
S1131F809C831696ED91FC91179749815A81CA0159
S1131F90019689839A838B819C81E40FF51FB40198
S1131FA0FBD2CB01B901F8D2805D8083D8011696AB
S1131FB0ED91FC91179749815A81CA010196898351
S1131FC09A838B819C81E40FF51FB501E5D2CB0187
S1131FD0B901E2D2805D8083D8011696ED91FC911F
S1131FE0179749815A81CA01019689839A838B8103
S1131FF09C81E40FF51FB601CFD2CB01B901CCD23D
S1132000805D8083D8011696ED91FC9117974981E4
S11320105A81CA01019689839A838B819C81E40F3A
S1132020F51FB901B9D2CB01B901B6D2805D808365
S1132030D8011696ED91FC91179749815A81CA01EE
S1132040019689839A838B819C81E40FF51FB901E2
S1132050A3D2805D8083F8012681378189819A81AA
S1132060AC014F5F5F4F49835A83F901E80FF91FB1
S1132070E082D80116962D913C91179789819A8117
S1132080AC014F5F5F4F49835A83F901E80FF91F91
S11320902DE0208316962D913C91179789819A8182
S11320A0AC014F5F5F4F49835A83F901E80FF91F71
S11320B0F08216962D913C91179789819A81AC01F3
S11320C04F5F5F4F49835A83F901E80FF91F10826C
S11320D016962D913C91179789819A81AC014F5F97
S11320E05F4F49835A83F901E80FF91F28E52083DC
S11320F02696CDBFDEBFDF91CF911F910F91FF9048
S1132100EF90DF90CF90BF90AF909F908F90089505
S113211084E080938506089584E08093860608957C
S113212082E080938506089582E080938606089570
S113213081E080938506089581E080938606089562
S113214081E08093E507089581E08093E607089590
S113215082E08093E507089582E08093E60708957E
S1132160E0E6F6E080E1858380E286830895E0E698
S1132170F6E080E1868380E28583089581E08093A0
S11321806506089581E080936606089580E880934B
S11321900506089580E8809306060895CF93DF939B
S11321A0FC01A0E8B6E018968C9118978170868798
S11321B018968C911897869581708587C0EED7E024
S11321C088858170808B888586958170878718962D
S11321D08C9182FB882780F9818BA0E6B6E0189663
S11321E08C91189785FB882780F9828B18968C919F
S11321F082958170838BDF91CF9108955058BB27CE
S1132200AA270ED0E5C0D6D030F0DBD020F031F4D0
S11322109F3F11F41EF4CBC00EF4E095E7FBC1C060
S1132220E92FE7D080F3BA1762077307840795078D
S113223018F071F49EF5FFC00EF4E0950B2EBA2F42
S1132240A02D0B01B90190010C01CA01A0011124B8
S1132250FF27591B99F0593F50F4503E68F11A1664
S1132260F040A22F232F342F4427585FF3CF4695F5
S113227037952795A795F0405395C9F77EF41F1617
S1132280BA0B620B730B840BBAF09150A1F0FF0FE1
S1132290BB1F661F771F881FC2F70EC0BA0F621FCD
S11322A0731F841F48F4879577956795B795F795BD
S11322B09E3F08F0B3CF9395880F08F09927EE0F4F
S11322C097958795089504D06894B111B5C0089581
S11322D098D088F09F5790F0B92F9927B751A0F064
S11322E0D1F0660F771F881F991F1AF0BA95C9F7A6
S11322F012C0B13081F09FD0B1E008959CC0672F27
S1132300782F8827B85F39F0B93FCCF38695779555
S11323106795B395D9F73EF490958095709561953E
S11323207F4F8F4F9F4F0895E89409C097FB3EF469
S113233090958095709561957F4F8F4F9F4F99230E
S1132340A9F0F92F96E9BB279395F695879577958C
S11323506795B795F111F8CFFAF4BB0F11F460FF4C
S11323601BC06F5F7F4F8F4F9F4F16C0882311F0A4
S113237096E911C0772321F09EE8872F762F05C0B8
S1132380662371F096E8862F70E060E02AF09A9553
S1132390660F771F881FDAF7880F9695879597F948
S11323A0089597F99F6780E870E060E008959FEFD3
S11323B080EC089500240A941616170618060906D8
S11323C0089500240A9412161306140605060895A7
S11323D0092E0394000C11F4882352F0BB0F40F42F
S11323E0BF2B11F460FF04C06F5F7F4F8F4F9F4F6F
S11323F0089557FD9058440F551F59F05F3F71F0F1
S11324004795880F97FB991F61F09F3F79F0879557
S11324100895121613061406551FF2CF4695F1DFE0
S113242008C0161617061806991FF1CF8695710570
S1132430610508940895E894BB2766277727CB01A4
S113244097F908950BD0C4CFB5DF28F0BADF18F0A0
S1132450952309F0A6CFABCF1124EECFCADFA0F3AA
S1132460959FD1F3950F50E0551F629FF001729F25
S1132470BB27F00DB11D639FAA27F00DB11DAA1F44
S1132480649F6627B00DA11D661F829F2227B00D91
S1132490A11D621F739FB00DA11D621F839FA00D1C
S11324A0611D221F749F3327A00D611D231F849F6C
S11324B0600D211D822F762F6A2F11249F575040C3
S11324C08AF0E1F088234AF0EE0FFF1FBB1F661F5E
S11324D0771F881F91505040A9F79E3F510570F017
S11324E060CFAACF5F3FECF3983EDCF386957795F7
S11324F06795B795F795E7959F5FC1F7FE2B880F12
S1132500911D9695879597F908952FD020F09F37C0
S113251008F492CF01C01BC0882371F4772321F003
S11325209850872B762F07C0662311F499270DC086
S11325309051862B70E060E02AF09A95660F771F21
S1132540881FDAF7880F9695879597F908959F3F26
S113255031F0915020F4879577956795B795880F5A
S1132560911D9695879597F908954BDFA0F0BEE7E6
S1132570B91788F4BB279F3860F41616B11D672F6E
S1132580782F8827985FF7CF869577956795B11D43
S113259093959639C8F3089597FB072E16F4009483
S11325A006D077FD08D024D007FC05D03EF49095E2
S11325B081959F4F0895709561957F4F0895A29FCF
S11325C0B001B39FC001A39F700D811D1124911D03
S11325D0B29F700D811D1124911D0895F0DFA59FF8
S11325E0900DB49F900DA49F800D911D112408950A
S11325F0AA1BBB1B51E107C0AA1FBB1FA617B70725
S113260010F0A61BB70B881F991F5A95A9F7809540
S10F26109095BC01CD010895F894FFCF13
S9030000FC
