S018000043616E5361745F5633202D20316B487A2E737265631F
S1130000FDC000001BC1000019C1000017C10000A1
S113001015C1000013C1000011C100000FC1000090
S11300200DC100000BC1000009C1000007C10000A0
S113003005C1000003C1000035C50000FFC0000079
S1130040FDC00000FBC00000F9C00000F7C00000C4
S1130050F5C00000F3C00000F1C00000EFC00000D4
S1130060EDC00000EBC00000E9C00000E7C00000E4
S1130070E5C00000E3C00000E1C00000DFC00000F4
S1130080DDC00000DBC00000D9C00000D7C0000004
S1130090D5C00000D3C00000D1C00000CFC0000014
S11300A0CDC00000CBC0000002C30000C7C00000E8
S11300B0C5C00000C3C00000C1C0000045C50000A9
S11300C0BDC00000BBC00000B9C00000B7C0000044
S11300D0B5C00000B3C00000B1C00000AFC0000054
S11300E0ADC00000ABC00000A9C00000A7C0000064
S11300F0A5C00000A3C00000A1C000009FC0000074
S11301009DC000009BC0000099C0000097C0000083
S113011095C0000093C0000091C000008FC0000093
S11301208DC000008BC0000089C0000087C00000A3
S113013085C00000C1C4000081C000007FC0000071
S11301407DC000007BC0000079C0000077C00000C3
S113015075C0000073C0000071C000006FC00000D3
S11301601CC300006BC00000D8C2000067C00000C0
S113017065C0000063C0000061C000005FC00000F3
S11301805DC000005BC0000059C0000057C0000003
S113019055C0000053C0000051C000004FC0000013
S11301A04DC000004BC0000049C0000047C0000023
S11301B0F4C4000043C0000041C000003FC0000080
S11301C03DC000003BC0000039C0000037C0000043
S11301D035C0000033C0000031C000002FC0000053
S11301E02DC000002BC0000029C0000027C0000063
S11301F025C0000023C0000021C0000011241FBE40
S1130200CFEFCDBFDFE3DEBF00E00CBF10E2A0E024
S1130210B0E2E2E2FEE600E00BBF02C007900D92FE
S1130220AC3FB107D9F728E2ACEFB0E201C01D92B0
S1130230AC3FB207E1F78ED50C940F3729C2811178
S113024006C0611110C088E080934506089581308E
S113025069F4611104C080E180934506089580E14A
S113026080934606089588E0809346060895CF93C8
S1130270C82F61E0E4DF80E10E94431D80E00E941A
S1130280431D80EF0E94431D8EE10E94431D60E0E8
S11302908C2FD5DF2FEF89EF90E0215080409040E4
S11302A0E1F700C0000061E08C2FC9DF88E00E9404
S11302B0431D84E10E94431D80E00E94431D8FEF93
S11302C00E94431D60E08C2FBADFCF910895E0E6D1
S11302D0F6E082E086832FEF33EC99E02150304042
S11302E09040E1F700C0000085830895CF93C82FA4
S11302F061E0A5DF81E00E94431D8FEF0E94431D52
S11303008FEF0E94431D8FEF0E94431D8FEF0E94C9
S1130310431D8FEF0E94431D8FEF0E94431D8FEFFB
S11303200E94431D60E08C2F8ADFCF910895CF9205
S1130330DF92EF92FF920F931F93CF93DF936C01A1
S11303408B017A01E90161E080E079DF88E50E94B0
S1130350431D0E94561D90E0A0E0B0E0DC01992707
S11303608827F70180839183A283B3830E94561D5B
S1130370F7014081518162817381582B40835183FD
S1130380628373830E94561DF7014081518162810B
S11303907381482B40835183628373830E94561D6B
S11303A08F70F601808360E080E049DF61E081E0E6
S11303B046DF88E50E94431D0E94561D90E0A0E0A0
S11303C0B0E0DC019927882788839983AA83BB83BB
S11303D00E94561D488159816A817B81582B48832C
S11303E059836A837B830E94561D488159816A819F
S11303F07B81482B488359836A837B830E94561DE3
S11304008F70F801808360E081E019DFDF91CF9184
S11304101F910F91FF90EF90DF90CF900895CF93AD
S1130420DF93C82F61E00BDF80E40E94431D0E942C
S1130430561DD82F60E08C2F02DF8D2F881F882750
S1130440881FDF91CF9108950F931F93CF93DF936C
S1130450CDB7DEB72A97CDBFDEBF8C019E01295FE1
S11304603F4FAE014D5F5F4FBE016E5F7F4FCE01C8
S113047001965DDF99819530B9F018F4943031F02C
S11304803CC09630F9F0973059F137C0D8011C962A
S1130490ED91FC911D978B819C81AD81BE8180A3E0
S11304A091A3A2A3B3A329C0D8011C96ED91FC91FA
S11304B01D978B819C81AD81BE8184A395A3A6A346
S11304C0B7A31BC0D8011C96ED91FC911D978B819D
S11304D09C81AD81BE8180A791A7A2A7B3A70DC0BF
S11304E0D8011C96ED91FC911D978B819C81AD8167
S11304F0BE8184A795A7A6A7B7A79A819530B9F01E
S113050018F4943031F03CC09630F9F0973059F13A
S113051037C0D8011C96ED91FC911D978F81988569
S1130520A985BA8580AB91ABA2ABB3AB29C0D80186
S11305301C96ED91FC911D978F819885A985BA85AC
S113054084AB95ABA6ABB7AB1BC0D8011C96ED91A1
S1130550FC911D978F819885A985BA8580AF91AF4D
S1130560A2AFB3AF0DC0D8011C96ED91FC911D97BD
S11305708F819885A985BA8584AF95AFA6AFB7AFAB
S11305802A96CDBFDEBFDF91CF911F910F910895C1
S1130590CF93DF93EC01188219821A821B821C828A
S11305A01D821E821F82188619861A861B866CA5D8
S11305B07DA58EA59FA50E94823220EC3AE042E000
S11305C05BE40E94B53120E035E94BEA57E40E9430
S11305D01A326C877D878E879F8768A979A98AA933
S11305E09BA90E94823220EC3AE042E05BE40E9444
S11305F0B53120E035E94BEA57E40E941A32688BA2
S1130600798B8A8B9B8B6CA97DA98EA99FA90E944B
S1130610823228E839EE43E05BE40E94B53120E001
S11306203BE348E058E40E941A326C8B7D8B8E8B3E
S11306309F8B68AD79AD8AAD9BAD0E94823220EC70
S11306403AE042E05BE40E94B53120E035E94BEA50
S113065057E40E941A32688F798F8A8F9B8F6CAD12
S11306607DAD8EAD9FAD0E94823228E839EE43E025
S11306705BE40E94B53120E03BE348E058E40E948B
S11306801A326C8F7D8F8E8F9F8FDF91CF9108955B
S11306901F920F920FB60F9211248F9381E08093D3
S11306A0A7068F910F900FBE0F901F9018951F9261
S11306B00F920FB60F9211240BB60F928F939F9344
S11306C0AF93BF93EF93FF93A0E4B2E050968D9164
S11306D09C915197E0E8F6E28483958352968D913C
S11306E09C9153978683978354968D919C915597AB
S11306F08087918756968D919C915797828793878F
S1130700FF91EF91BF91AF919F918F910F900BBE8D
S11307100F900FBE0F901F9018951F920F920FB657
S11307200F9211240BB60F928F939F93EF93FF9325
S1130730E091DE23F091DF23E658FC4D808188238D
S1130740F9F08332E9F091E09093E023853221F4CB
S11307508AE08093A00902C08093A0098091DE23DF
S11307609091DF238739910530F401968093DE233D
S11307709093DF2307C0FC01E658FC4D108202C0B1
S11307801092E023FF91EF919F918F910F900BBEF8
S11307900F900FBE0F901F9018951F920F920FB6D7
S11307A00F9211240BB60F922F933F934F935F93A5
S11307B06F937F938F939F93AF93BF93EF93FF9325
S11307C0CF93DF93CDB7DEB72997CDBFDEBF80913E
S11307D0A00989838981843221F481E08093E42310
S11307E049C18981823581F48091E423882309F405
S11307F00CC18FB7F8941092E42398ED94BF91E064
S1130800909379008FBF36C189818133A9F4809197
S1130810E423882309F4FFC00E945A2F2FEF87EAAC
S113082091E6215080409040E1F700C000000E9412
S11308305E2F1092E4231EC189818233A9F4809132
S1130840E423882309F4EDC00E94522F2FEF87EA96
S113085091E6215080409040E1F700C000000E94E2
S1130860562F1092E42306C189818333A9F4809121
S1130870E423882309F4DBC00E94622F2FEF87EA68
S113088091E6215080409040E1F700C000000E94B2
S1130890662F1092E423EEC089818433A9F48091F9
S11308A0E423882309F4C9C00E946A2F2FEF87EA42
S11308B091E6215080409040E1F700C000000E9482
S11308C06E2F1092E423D6C08981863389F48091F7
S11308D0E423882309F4B7C0E2EEF3E286E990E06A
S11308E0A0E0B0E081879287A387B4871282C2C058
S11308F08981873389F48091E423882309F4A9C08A
S1130900E2EEF3E288EC90E0A0E0B0E08187928729
S1130910A387B4871282AEC08981883389F4809119
S1130920E423882309F49BC0E2EEF3E28EE591E030
S1130930A0E0B0E081879287A387B48712829AC02F
S11309408981893389F48091E423882309F48DC053
S1130950E2EEF3E28AE892E0A0E0B0E081879287D9
S1130960A387B487128286C08981813469F4809117
S1130970E423882309F47CC0E2EEF3E281E0878378
S113098016821582128276C08981803511F5809194
S1130990E4238823F1F0E2EEF3E281E0858312821E
S11309A0CE0102960E9450314AE0BE016E5F7F4F35
S11309B08EE594E20E94131681115CC02EE736E2A4
S11309C045E650E060E070E28EE594E20E94341760
S11309D051C089818335B1F48091EB239091EC234C
S11309E0A091ED23B091EE23892B8A2B8B2B51F010
S11309F08091E423882331F0E2EEF3E281E0868300
S1130A00128238C01092E42335C0898189818233EF
S1130A1009F02ACF06C089818981833309F03CCF4C
S1130A2006C089818981843309F04ECF06C089814B
S1130A308981863309F05CCF06C089818981873337
S1130A4009F06ACF06C089818981883309F078CF9B
S1130A5006C089818981893309F086CF06C08981DE
S1130A608981813409F090CF03C089818981B1CF14
S1130A708981AFCF2996CDBFDEBFDF91CF91FF91A2
S1130A80EF91BF91AF919F918F917F916F915F9102
S1130A904F913F912F910F900BBE0F900FBE0F906F
S1130AA01F9018951F920F920FB60F9211240F905A
S1130AB00FBE0F901F9018951F920F920FB60F92B2
S1130AC011240BB60F928F939F93EF93FF93809112
S1130AD0FC20882349F18091FD20813079F028F0B1
S1130AE08230D1F08330E1F024C0ECEFF0E21082E8
S1130AF01382128280E48093A6061BC08091FF209B
S1130B00873018F01092FD2014C090E49093A7064B
S1130B108F5F8093FF200DC080E48093A70609C0F7
S1130B2080E48093A50605C01092FD2080E48093A4
S1130B30A606FF91EF919F918F910F900BBE0F909E
S1130B400FBE0F901F9018951F920F920FB60F9221
S1130B5011240BB60F928F939F93AF93BF93EF9390
S1130B60FF931092E423E6EFF3E280819181A28166
S1130B70B3810196A11DB11D80839183A283B383A8
S1130B80FF91EF91BF91AF919F918F910F900BBE09
S1130B900F900FBE0F901F9018951F920F920FB6D3
S1130BA00F9211240BB60F922F933F934F935F93A1
S1130BB06F937F938F939F93AF93BF93EF93FF9321
S1130BC088E08093A7061092E1238091E52388238F
S1130BD041F18091FA239091FB23A091FC23B091E1
S1130BE0FD238F3926E8920721E0A207B10560F4BE
S1130BF00196A11DB11D8093FA239093FB23A0932A
S1130C00FC23B093FD2308C01092FA231092FB2317
S1130C101092FC231092FD231092762310927723D6
S1130C207CDDFF91EF91BF91AF919F918F917F9167
S1130C306F915F914F913F912F910F900BBE0F9049
S1130C400FBE0F901F9018951092DE231092DF2391
S1130C50A2EEB3E21C9211961C921197E2E4F4E224
S1130C6080E896E280839183A283B3838AE793E248
S1130C708483958382E193E28683978386EF93E26C
S1130C808087918780E594E28287938782E094E26B
S1130C9084879587089580E20E94981D0E949B1D79
S1130CA00E949C1D0E94271E0E94451E0E945B1EDE
S1130CB088E290E00E949D1D8AEF90E00E94BE1D94
S1130CC08AE090E00E94DF1D8AEF90E00E94001EFF
S1130CD0BBDF0E94B61E0E94C21E80E007DB80E0DC
S1130CE0C6DA81E003DB81E0C2DAF1DA0E94E119BD
S1130CF00E94F51A87E08093A2000895E0EAF6E0E6
S1130D0084E085832FEF37E893E121503040904011
S1130D10E1F700C0000086832FEF33EC99E0215007
S1130D2030409040E1F700C0000085832FEF37E8A2
S1130D3093E1215030409040E1F700C000008683E9
S1130D402FEF33EC89E0215030408040E1F700C0C0
S1130D5000000895E2EEF3E2148281E083831092AE
S1130D60E12399DF7894CADF64EC76E280E00E94A4
S1130D70FD150E94882FF12C412C512C320100EAE0
S1130D8016E06894CC24C4F80F2EF0EE8F2EF3E214
S1130D909F2EF02D6894332435F8C2EED3E20F2E43
S1130DA0F6EFAF2EF3E2BF2EF02D0F2EF8E62F2E26
S1130DB0F02D6894EE24E2F8DD24D3942AE02A95F9
S1130DC0F1F700C080E02BDB81115AC0F801C78223
S1130DD080E896E20E94143082E494E235DBF2E08B
S1130DE0FF1508F04CC082E094E2D2DB82E494E286
S1130DF00E94D01EF4018081811109C0E2E1F3E276
S1130E00AAE7B3E2822D01900D928A95E1F7F801E9
S1130E1035828D81882359F1F50180859185A285DC
S1130E20B3850196A11DB11D80879187A287B387E1
S1130E3060E071E282E193E20E94C02F823C914023
S1130E40D0F022E0F801258380E091E20E94A131F4
S1130E502EE736E2AC0160E071E28EE594E20E9496
S1130E6034171092002122E0F801268304C08EE595
S1130E7094E20E948319F8013682F12C01C0F394A4
S1130E80CE010E94902F8F818823B1F00E94792F88
S1130E900E946E2F0E94562F0E945E2F0E94622F86
S1130EA00E94802F0E948C2F19861A861B861C860E
S1130EB0F801D582E68282CF8D81882309F47ECF22
S1130EC08E81811103C00E946A2F78CF89859A850B
S1130ED0AB85BC85892B8A2B8B2B09F46FCFF5014D
S1130EE080819181A281B38184159505A605B705FA
S1130EF008F464CF88858F5F8887823021F128F4D5
S1130F00882359F0813069F064C0843009F440C00A
S1130F1048F1853009F449C05CC0F801E582D886FF
S1130F204DCF0E94802F0E94792F0E948C2FF501B3
S1130F304080518062807380F8EE4F0EF3E05F1EB4
S1130F40611C711C3BCF0E94842F0E944A2FF50123
S1130F504080518062807380F8EC4F0E511C611CFC
S1130F60711C2CCF0E944E2F0E94522F0E945A2F88
S1130F700E94722F49845A846B847C84F501808199
S1130F809181A281B381480E591E6A1E7B1E16CF21
S1130F900E945E2FF5014080518062807380FAE0E8
S1130FA04F0E511C611C711C09CF0E94562F0E94C8
S1130FB06E2F0E94792F0E94622FF501408051808C
S1130FC062807380F8EE4F0EF3E05F1E611C711CAB
S1130FD0F5CE0E94662F0E94882F1E821D821986DC
S1130FE01A861B861C861886F801E682E7CE411510
S1130FF0510551F0A62FB72FFC01480F591F9D91A1
S11310009193E417F507D9F708950F931F93DC0123
S1131010FB01938D692F70E0762F6627828D682BF4
S113102080E090E02C91233079F4058910E0102FB2
S113103000272489022B20E030E0980111270027A3
S1131040602B712B822B932B1F910F910895CF92BC
S1131050DF92EF92FF920F931F93CF93DF938B0155
S1131060FB013996DC011E964D915D916D917C9149
S11310705197452B462B472B09F475C052960D907A
S1131080BC91A02D8C918032C1F09D012F5F3F4F08
S1131090A8014F5E5F4F95EE05C0E90189919E015D
S11310A0803269F0853009F4892F3196EF01219758
S11310B08883E417F50789F703C0AF0101C0AF01C6
S11310C018968C911897803281F08EE2FA01808311
S11310D018968C911897803209F047C0319606C053
S11310E0FA013496EA018B8301C0FA011B968C91B4
S11310F01B97E80188875F968C915F975E964C9169
S11311005E9750E060E070E0BA0155274427782BE1
S11311105C968C915C97482B5D96CC905D97D12C16
S1131120DC2CCC24E12CF12C4C295D296E297F295F
S1131130488359836A837B8359968C91599790E0AD
S1131140982F882758962C915897822B8C839D83AF
S113115057968C91579790E0982F882756962C9104
S1131160822B8E839F83108213C0FA013296EA0188
S1131170898319968C911997803209F4B7CF3196E7
S11311808A831A968C911A97803209F0A9CFAECF30
S1131190DF91CF911F910F91FF90EF90DF90CF904F
S11311A008950F93CF93DF93EC019A01AB01BC0137
S11311B06A5C7F4F01E089810E94241C811151C027
S11311C0FE01EB5CFD4F808190E0982F88273197DA
S11311D02081822B85359A4A09F045C0E55CF140AF
S11311E020813197808190E0A0E0B0E0DC01992774
S11311F08827B22B32972081822B3196408150E090
S1131200542F442760E070E0842B952BA62BB72B3A
S1131210BB2786349144A445B10539F17E9680817B
S11312203197408150E060E070E0BA0155274427CF
S1131230782B32978081482BC757DF4F888190E005
S1131240982F8827A0E0B0E0482B592B6A2B7B2BE2
S1131250772781E0463451446445710539F480E0D0
S113126005C083E003C082E001C080E0DF91CF913C
S11312700F9108958F929F92AF92BF92CF92DF9277
S1131280EF92FF920F93CF93DF93FC0124812223EB
S113129009F447C0EC01C2A8D3A8E4A8F5A84C01FE
S11312A0F6E38F0E911C01E0A7019601B401898138
S11312B00E94311C811137C01C828EA19FA1A8A558
S11312C0B9A5C816D906EA06FB0678F14E8D5F8DDE
S11312D068A179A1840F951FA61FB71FC816D90648
S11312E0EA06FB0620F5AB80B12C82E0A816B10417
S11312F000F18E8D9F8DA8A1B9A1C80ED91EEA1E3A
S1131300FB1E01E0A7019601B40189810E94311CF2
S1131310E1E0AE1AB108F1E0AF16B10451F780E094
S113132009C080E007C081E005C080E003C080E020
S113133001C080E0DF91CF910F91FF90EF90DF909B
S1131340CF90BF90AF909F908F900895CF92DF92EF
S1131350EF92FF920F931F93CF93DF93FC01C2A8E8
S1131360D3A8E4A8F5A8C416D506E606F706B9F08E
S11313706A017B01EC017EDF182F811112C001E0AC
S1131380A7019601BE016A5C7F4F89810E94241CDB
S1131390811109C0CAAADBAAECAAFDAA05C010E003
S11313A003C011E001C011E0812FDF91CF911F91A3
S11313B00F91FF90EF90DF90CF9008950097C9F0C0
S11313C0DC01ED91FC9111973097A9F02081222343
S11313D0A1F02681378112968D919C91139728173D
S11313E0390769F481810E941D1C80FD0AC080E0D8
S11313F0089589E0089589E0089589E0089589E0D1
S1131400089583E008952F923F924F925F926F92D6
S11314107F928F929F92AF92BF92CF92DF92EF9280
S1131420FF920F931F93CF93DF93CDB7DEB72E9721
S1131430CDBFDEBFDC01ED91FC911197208130E03E
S1131440205331092A30310538F451815A3321F4BB
S11314503296ED93FC9303C02091592430E0FB01B4
S113146010821182232B09F02EC320915C24309129
S11314705D242D873E872115310509F426C3142FD9
S113148020833183D9018C91882369F011968C9142
S11314900E941D1C80FD07C0112309F418C382FF9C
S11314A018C38AE0B7C3ED85FE851082118280E0FF
S11314B00E94151C80FD0FC3112311F082FD0DC382
S11314C040E050E0BA018D859E856BDE8130B9F530
S11314D0ED85FE85E850FE4F8081882309F4FFC224
S11314E0ED85FE85E150FE4F8081ED85FE85E2505D
S11314F0FE4FC080D12CE12CF12C7601DD24CC24CC
S1131500F82AED85FE85E450FE4F8081A7019601FF
S1131510282BDA01C901ED85FE85E350FE4FC0801A
S1131520D12CDC2CCC24E12CF12CC82AD92AEA2A8F
S1131530FB2AB701A6018D859E8533DE03C0C12C2D
S1131540D12C7601833009F4CCC28111CCC2ED8553
S1131550FE85EE5BFF4F808190E0982F8827ED8514
S1131560FE85EF5BFF4F2081822B8115924009F0AD
S1131570BCC2ED85FE85E35BFF4F4080512C542CAB
S11315804424ED85FE85E45BFF4F8081482A612C6D
S1131590712C411451046104710449F5ED85FE85F3
S11315A0E35AFF4F8081ED85FE85E45AFF4F40806A
S11315B0512C612C712C320155244424782AED8558
S11315C0FE85E65AFF4F8081A3019201282BDA01A0
S11315D0C901ED85FE85E55AFF4F4080512C542CFE
S11315E04424612C712C482A592A6A2A7B2AAD8505
S11315F0BE855E964D925D926D927C929197FD01AF
S1131600EA5BFF4FA081ED85FE85A3838FEF8A0FF0
S1131610823008F06CC2ED5BFF4F1081ED85FE85D2
S11316201283112309F465C2812F90E09C0121509B
S1131630310982239323892B09F05DC2E85BFF4FB4
S11316402080312C322C2224ED85FE85E95BFF4F6E
S11316508081282AED85FE8520863186C1018F7020
S11316609927892B09F049C2E65BFF4F8080912CB2
S1131670982C8824ED85FE85E75BFF4F8081882ABE
S1131680A12CB12C81149104A104B10431F5ED8590
S1131690FE85E75AFF4F8081ED85FE85E85AFF4FAE
S11316A08080912CA12CB12C540199248824B82A2F
S11316B0ED85FE85EA5AFF4F8081882AED85FE85F7
S11316C0E95AFF4F808190E0982F8827AC0160E0B1
S11316D070E0842A952AA62AB72AED85FE85EB5B5D
S11316E0FF4FE081F0E03E2F22278D859E858C5BA5
S11316F09F4FFC018081F901E82B309709F4FFC169
S1131700B0E0A30192010E94C03369877A878B8776
S11317109C87AF019A0140E050E02D833E834F83C4
S11317205887C101929582958F7089279F70892768
S1131730BA01A901480F591F611D711D89859A8538
S1131740AB85BC85840F951FA61FB71F89839A8319
S1131750AB83BC8388169906AA06BB0608F4D1C1DC
S1131760C501B40129813A814B815C81621B730BF1
S1131770840B950B212F30E040E050E00E9473333E
S1131780DA01C901211531054105510509F4BBC12F
S1131790263F6FE036074105510510F012E001C005
S11317A011E0863F9F4FA105B10508F0B6C149017C
S11317B05A01F2E08F0E911CA11CB11CAD85BE85AF
S11317C05A968D929D92AD92BC925D97FD01C2A2F4
S11317D0D3A2E4A2F5A28D819E81AF81B8858C0D40
S11317E09D1DAE1DBF1D86A397A3A0A7B1A74981C8
S11317F05A816B817C814C0D5D1D6E1D7F1D46A73A
S113180057A760AB71AB133009F04FC0232809F020
S11318107CC1ED85FE85EB59FF4F8081ED85FE850A
S1131820EC59FF4F408150E060E070E0BA01552769
S11318304427782BED85FE85EE59FF4F8081482B98
S1131840ED85FE85ED59FF4F8081282F30E0922FE2
S11318508827A0E0B0E0482B592B6A2B7B2BAD8561
S1131860BE859A964D935D936D937C939D97880C5A
S1131870991CAA1CBB1C880C991CAA1CBB1CBFEF7E
S11318808B0EB1E09B1EA11CB11C072E79E0B6940F
S1131890A794979487947A95D1F7702D4814590496
S11318A06A047B0408F433C186C1232809F431C1D6
S11318B029853A854B855C85820F931FA41FB51F2C
S11318C0ED85FE8582A793A7A4A7B5A7123029F4B6
S11318D0880C991CAA1CBB1C58C1A3E0B0E0A5014C
S11318E094010E94C033DC01CB01B695A79597956E
S11318F08795F1E08F229924AA24BB24880E991E8F
S1131900AA1EBB1E42C1ED85FE85EB5CFD4F8081A6
S113191090E0982F8827ED85FE85EC5CFD4F2081B3
S1131920822B85359A4A09F0ABC0AD85BE85D99620
S11319302C91D997D8968C9190E0A0E0B0E0DC018E
S113194099278827B22BED85FE8526A9AC01BD0118
S1131950422B27A930E0922F8827A0E0B0E0842B07
S1131960952BA62BB72B82359245A146B14409F09D
S113197089C0ED85FE85E35EFD4F2081ED85FE8502
S1131980E45EFD4F808190E0A0E0B0E0DC019927A7
S11319908827B22BED85FE85E65EFD4F2081AC01E4
S11319A0BD01422BED85FE85E55EFD4F208130E0D3
S11319B0922F8827A0E0B0E0842B952BA62BB72B81
S11319C082379247A144B14609F05EC0ED85FE8599
S11319D0EB5DFD4F2081ED85FE85EC5DFD4F808143
S11319E090E0A0E0B0E0DC0199278827B22BED85D8
S11319F0FE85EE5DFD4F2081AC01BD01422BED85DE
S1131A00FE85ED5DFD4F208130E0922F8827A0E018
S1131A10B0E0842B952BA62BB72BED85FE85828712
S1131A209387A487B587EF5DFD4F2081ED85FE8503
S1131A30E05EFD4F808190E0A0E0B0E0DC019927FA
S1131A408827B22BED85FE85E25EFD4F2081AC0137
S1131A50BD01422BED85FE85E15EFD4F208130E026
S1131A60922F8827A0E0B0E0842B952BA62BB72BD0
S1131A70ED85FE8586879787A08BB18B13E005C023
S1131A8013E003C013E001C013E0AD85BE851C93D1
S1131A9080915A2490915B24019680935A249093C8
S1131AA05B2416968D939C931797FD0112AA13AA93
S1131AB014AA15AA148256961D921D921D921C9268
S1131AC0599780E0A7C08BE0A5C08CE0A3C080E05C
S1131AD0A1C080E09FC083E09DC08AE09BC08DE0F0
S1131AE099C081E097C08DE095C08DE093C08DE0F2
S1131AF091C08DE08FC08DE08DC08DE08BC08DE0F6
S1131B0089C08DE087C08DE085C08DE083C08DE005
S1131B1081C08DE07FC08DE07DC049015A01B2E0F3
S1131B208B0E911CA11CB11CED85FE85828E938EBB
S1131B30A48EB58EC2A2D3A2E4A2F5A28D819E8109
S1131B40AF81B8858C0D9D1DAE1DBF1D86A397A3C7
S1131B50A0A7B1A749815A816B817C814C0D5D1D81
S1131B606E1D7F1D46A757A760AB71AB4FCE8FEF9D
S1131B709FEFDC01ED85FE8586879787A08BB18B6F
S1131B80128613861486158680CFBFEF8B0EB1E0C4
S1131B909B1EA11CB11C072E79E0B694A7949794C0
S1131BA087947A95D1F7702D481459046A047B04FC
S1131BB008F4B1CFDCCF8FEF9FEFDC01ED85FE851C
S1131BC086879787A08BB18BDF01128613861486D4
S1131BD015861582E959FF4F808190E0982F882758
S1131BE031972081822BA7019601280F391F411DAF
S1131BF0511DFD01228B338B448B558B01E0BD01BC
S1131C006A5C7F4F81810E94241C882309F47BCE67
S1131C1013E03BCF2E96CDBFDEBFDF91CF911F9156
S1131C200F91FF90EF90DF90CF90BF90AF909F9077
S1131C308F907F906F905F904F903F902F9008957A
S1131C400F93CF93DF93EC0115DB982F81115AC0CA
S1131C508881833009F04CC08D81882309F448C001
S1131C601AAA1BAA1CAA1DAABE016A5C7F4FFB010B
S1131C70CE018A5C9D4F1192E817F907E1F785E5DB
S1131C80FE01EC5CFD4F80838AEA3196808382E515
S1131C908EAB8FAB81E688AF91E499AF22E77B9757
S1131CA020833196208331969083319680833E85BC
S1131CB02F8598898989319630833196208331968E
S1131CC09083319680833A852B859C858D853196CA
S1131CD030833196208331969083319680832A898C
S1131CE03B894C895D8901E089810E94311C1D82F8
S1131CF040E050E060E089810E94671C91E081111E
S1131D0001C090E0892FDF91CF910F910895CF9278
S1131D10DF92EF92FF92FC019A01AB01225031094C
S1131D2041095109C28CD38CE48CF58C82E0C81A29
S1131D30D108E108F1082C153D054E055F0568F44E
S1131D40A281B0E00E94C033C6A4D7A4E0A8F1A841
S1131D506C0D7D1D8E1D9F1D03C060E070E0CB01E6
S1131D60FF90EF90DF90CF900895AF92BF92CF9203
S1131D70DF92EF92FF921F93CF93DF93EC016A01FE
S1131D807B01423051056105710508F4C2C08A8D9A
S1131D909B8DAC8DBD8D481759076A077B0708F0EA
S1131DA0BDC08881823009F44AC0833009F46BC015
S1131DB0813009F0B8C05A01B694A794A40EB51E98
S1131DC0C501892F992786954EA15FA168A579A59C
S1131DD0480F591F611D711DCE01B8DA8111A7C0CA
S1131DE0F501F170EC0FFD1F16A98FEFA81AB80AC0
S1131DF0C501892F992786954EA15FA168A579A56C
S1131E00480F591F611D711DCE01A0DA811193C0C5
S1131E1081E0B822CA0DDB1D8EA9612F70E0782BFA
S1131E20C0FE09C0729562956F7067277F7067273F
S1131E3080E090E08BC07F7080E090E087C0452F09
S1131E40562F672F77278EA19FA1A8A5B9A5480F64
S1131E50591F6A1F7B1FCE0179DA811170C0CC0C27
S1131E60DD1CEE1CFF1CE894C0F881E0D822EE24AF
S1131E70FF24FE01EC0DFD1D66A987A970E0782BF7
S1131E8080E090E063C08EA19FA1A8A5B9A5689445
S1131E9016F876956795579547951694D1F7480F98
S1131EA0591F6A1F7B1FCE0151DA81114CC0CC0C23
S1131EB0DD1CEE1CFF1CCC0CDD1CEE1CFF1C8CEF8F
S1131EC0C82281E0D822EE24FF24F601F696EC0F16
S1131ED0FD1F22816381862F90E0A0E0B0E0B82F3F
S1131EE0AA2799278827AC01BD01622B818190E044
S1131EF0982F8827A0E0B0E0842B952BA62BB72B36
S1131F00FE01EC0DFD1D26A9822BBC01CD019F70A5
S1131F101DC061E070E080E090E018C061E070E016
S1131F2080E090E013C06FEF7FEFCB010FC06FEF45
S1131F307FEFCB010BC06FEF7FEFCB0107C06FEFDB
S1131F407FEFCB0103C06FEF7FEFCB01DF91CF9128
S1131F501F91FF90EF90DF90CF90BF90AF900895C6
S1131F60EF92FF920F931F93CF93DF93EC018B01BA
S1131F706C837D834E815F8168857985413051050D
S1131F806105710509F491C0E881F981828D938D11
S1131F90A48DB58D481759076A077B0708F087C0D9
S1131FA0411551056105710551F58081833049F46E
S1131FB042A553A564A575A5411551056105710593
S1131FC0F1F41A861B861C861D8680859185081768
S1131FD0190708F06EC082A593A5A4A5B5A598011C
S1131FE0329522952F7023273F702327820F931F4A
S1131FF0A11DB11D8E879F87A88BB98B42C0E2803B
S113200080E1E89E700111240E151F0510F18881EE
S11320109981ABDEAB01BC014F3F8FEF58076807D6
S1132020780709F448C0423051056105710508F488
S113203044C0E881F981828D938DA48DB58D4817B4
S113204059076A077B07D8F50E191F090E151F05D6
S1132050F0F64A875B876C877D878881998157DE94
S11320609801329522952F7023273F702327DC0196
S1132070CB01820F931FA11DB11D8E879F87A88B53
S1132080B98B0F701127000F111F02951295107F45
S11320901027007F10270A5C1F4F88819981080F41
S11320A0191F0A8B1B8B80E00BC082E009C082E001
S11320B007C082E005C081E003C082E001C082E085
S11320C0DF91CF911F910F91FF90EF9008954F9260
S11320D05F926F927F92AF92BF92CF92DF92EF9214
S11320E0FF920F931F93CF93DF93EC016A017B015F
S11320F028013901423051056105710508F4DAC03F
S11321008A8D9B8DAC8DBD8D481759076A077B0757
S113211008F0D2C08881823009F460C0833009F4A9
S113212081C0813009F0BEC05A01B694A794A40EB0
S1132130B51EC501892F992786954EA15FA168A573
S113214079A5480F591F611D711DCE01FFD8182FA5
S11321508111ADC0C5019170C0FE22C0FE01E80F1F
S1132160F91F86A9282F2F70A0E14A9EC0011124CF
S1132170822B86ABBFEFAB1ABB0A81E08C83C5010F
S1132180892F992786954EA15FA168A579A5480F47
S1132190591F611D711DCE01D9D8811185C08EC012
S11321A0FE01E80FF91F46AA3FEFA31AB30A81E024
S11321B08C83C501892F992786954EA15FA168A5B7
S11321C079A5480F591F611D711DCE01BFD881111A
S11321D06DC07FC0EC0FFD1F46AA69C0452F562F66
S11321E0672F77278EA19FA1A8A5B9A5480F591FCE
S11321F06A1F7B1FCE01AAD8182F811158C0CC0C9E
S1132200DD1CEE1CFF1CE894C0F881E0D822EE240B
S1132210FF24FE01EC0DFD1D46AAFE01EC0DFD1D83
S113222057AA45C08EA19FA1A8A5B9A5689416F880
S113223076956795579547951694D1F7480F591F8A
S11322406A1F7B1FCE0182D8182F811130C0CC0C9D
S1132250DD1CEE1CFF1CCC0CDD1CEE1CFF1CACEFCB
S1132260CA22A1E0DA22EE24FF24F601F696EC0F4E
S1132270FD1F838190E0A0E0B0E0B82FAA27992742
S11322808827CC0EDD1E88279927AA27B07F482AE5
S1132290592A6A2A7B2AD601D6964C9251826282A6
S11322A0738205C012E003C0182F01C0182F81E00B
S11322B08C831CC012E01AC012E018C0F501F17042
S11322C0689413F876946794579447941694D1F7C6
S11322D081CFF501F170DE01AE0FBF1FD6969C9140
S11322E0907F852D8F70492E482A74CF812FDF91DE
S11322F0CF911F910F91FF90EF90DF90CF90BF90FF
S1132300AF907F906F905F904F9008954F925F923F
S11323106F927F928F929F92AF92BF92CF92DF92F1
S1132320EF92FF920F931F93CF93DF93EC012A0157
S11323303B014115510561057105B9F48A849B84FB
S1132340AC84BD8481149104A104B10421F18A8D6B
S11323509B8DAC8DBD8D88169906AA06BB06F8F038
S1132360812C912C540183941AC0FFDC6B017C01F5
S1132370623071058105910508F489C08A8D9B8DB1
S1132380AC8DBD8DC816D906EA06FB0608F484C0D8
S11323905301420104C0812C912C54018394750192
S11323A064018FEFC81AD80AE80AF80A8A8D9B8D4F
S11323B0AC8DBD8DC816D906EA06FB0660F022E096
S11323C082169104A104B10408F46BC0C12CD12C71
S11323D076016894C1F8B701A601CE01C6DC611587
S11323E071058105910599F06F3F2FEF7207820700
S11323F0920709F45BC0613071058105910509F408
S11324005AC0C814D904EA04FB0459F659C08C2CE8
S11324109D2CAE2CBF2C0FEF1FEF2FEF3FE0B70129
S1132420A601CE0154DE81112BC041145104610474
S1132430710451F00C2D1D2D2E2D3F2DB301A20141
S1132440CE0145DE81111CC08A869B86AC86BD8682
S11324508E859F85A889B9898F3F2FEF9207A207A0
S1132460B20799F10197A109B1098E879F87A88BBB
S1132470B98B81E08D836C2D7D2D8E2D9F2D2EC0EB
S1132480813041F161E070E080E090E027C061E0DC
S113249070E080E090E022C06C2D7D2D8E2D9F2D6C
S11324A01DC060E070E080E090E018C06FEF7FEF47
S11324B08FEF9FEF13C061E070E080E090E00EC00A
S11324C060E070E080E090E009C06C2D7D2D8E2DE1
S11324D09F2D04C06FEF7FEF8FEF9FEFDF91CF91C0
S11324E01F910F91FF90EF90DF90CF90BF90AF902E
S11324F09F908F907F906F905F904F9008958F92F0
S11325009F92AF92BF92CF92DF92EF92FF920F937E
S11325101F93CF93DF93DC011496CD91DC91159733
S1132520219609F4FEC01E968D909D90AD90BC90AE
S1132530519781149104A104B10409F4F4C07B01FE
S11325408C016E01BFE0CB22DD24C114D10409F05B
S1132550CCC0EFEF8E1A9E0AAE0ABE0ADC011E96AC
S11325608D929D92AD92BC9251971A964D915D9128
S11325706D917C911D97411551056105710549F4D3
S1132580ED91FC9180859185C817D90708F0CDC0DD
S1132590ACC0DC01ED91FC91228130E02150310985
S11325A0CE01929582958F7089279F708927282361
S11325B03923232B09F099C0CF01D7DB4B015C01F0
S11325C0623071058105910508F4B1C06F3F7F4FFA
S11325D08F4F9F4F09F4ADC0D801ED91FC91828DCE
S11325E0938DA48DB58D88169906AA06BB0608F4AA
S11325F06BC0EF2809F49FC0D8011A964D915D91E4
S11326006D917C911D97CF0181DE4B015C016115B9
S113261071058105910509F490C06130710581054A
S1132620910509F48CC06F3F7F4F8F4F9F4F09F482
S113263088C0D8018D919C910E943A09811183C070
S1132640F80180819181FC01F6968A5C9D4F11927C
S1132650E817F907E1F7D801ED90FC90B501A40162
S1132660C70155DBF70162AB73AB84AB95ABF12CBF
S1132670EE24E39417C0E482D8018D919C910E94CA
S11326803A09811162C0D801ED91FC9182A993A904
S1132690A4A9B5A90196A11DB11D82AB93ABA4ABAE
S11326A0B5ABF394D801ED91FC918281F81618F33F
S11326B082A993A9A4A9B5A98F199109A109B1095E
S11326C082AB93ABA4ABB5ABF80182869386A486A8
S11326D0B586B501A4018081918119DBD8011E96CC
S11326E06D937D938D939C935197F801C483D58307
S11326F0CC0CDD1CCC0CDD1CCC0CDD1CCC0CDD1C92
S1132700CC0CDD1CF6E3CF0ED11CD8018D919C912D
S11327101197C80ED91E5296CD92DC92539780E041
S113272015C084E013C084E011C084E00FC082E0CF
S11327300DC081E00BC084E009C087E007C082E0DF
S113274005C081E003C081E001C081E0DF91CF9149
S11327501F910F91FF90EF90DF90CF90BF90AF90BB
S11327609F908F9008953F924F925F926F927F92C5
S11327708F929F92AF92BF92CF92DF92EF92FF928D
S11327800F931F93CF93DF93EC014B01DB018C91EB
S11327908F3211F08C3541F4BFEF8B1A9B0A1E82E5
S11327A01F82188619860AC0E881F981868997896B
S11327B0A08DB18D8E839F83A887B987F401808112
S11327C0803238F460E070E0CE01CADB1A8A1B8ADA
S11327D041C110E20F2EFEE27F2EF02D0F2EF5E008
S11327E06F2EF02D0F2EF5E64F2EF0E25F2EF02D1A
S11327F0D401FD018D918F32E1F38C35D1F3EC8856
S1132800FD88D701C7010B961D93A817B907E1F7F7
S113281080818E3259F0BF01C12CD12C20E030E0F0
S11328206894AA24A3F8B12C312C1DC0D7017C9242
S113283081818E3249F411967C9282818E3209F420
S113284079C023E030E002C022E030E08F3209F4A6
S1132850C4C08C3509F4C1C0813208F0E1C0B8C0ED
S1132860F7018387DFC02F5F3F4FDB010D91BD016F
S1132870013208F4CBC00F3209F4CDC00C3509F491
S1132880CAC00E3209F4AEC0CA14DB0408F0C8C0D2
S11328900CC0330C330C6894CC24C3F8D12C0F2E09
S11328A0FBE0AF2EB12CF02DDECF00230CF0A0C046
S11328B0B32DB3603B2EA02FB0E0AD50B04E0C91C1
S11328C097C08D91882309F49BC090E0481759075D
S11328D0C1F730C0832D8260382E08C08FE9800F85
S11328E08A3120F4932D9160392E0052D701AC0D1A
S11328F0BD1D0C93D60111966D01B5CFCD2809F4F9
S11329008FC0F7019081953E09F46082F8E0AF161C
S1132910B10411F4330C330C932D9370913009F4FA
S11329208061932D9C70943009F48860D7011B96C4
S11329308C9378C086E08EC04E855F8568897989DE
S1132940888199810E94A609811179C06A897B894D
S1132950FB019081992309F479C0938593FD0FC0FD
S11329604C895D89DA019B01255F3F4F04C0E21762
S1132970F30709F45FC0F1909D91F916C1F360E08B
S113298070E0CE01BCDD8823B9F259C095FF0AC0BE
S11329901E821F82188619861A8A1B8A92FF28CFE4
S11329A080E058C092FD10C085E054C0DB011B9646
S11329B08C9184FF0BC0888199810E9405086E83E5
S11329C07F838887998714CF84E044C085E042C020
S11329D04F01820E931E84E243CF4F01820E931E59
S11329E0812F3ECFB8E0AB16B10409F452CFA2CF89
S11329F0402F50E04232510509F49CCFD20161CFFF
S1132A008FEB800F8A3108F465CF68CF4F01820EB7
S1132A10931E84E073CF4F01820E931E80E06ECF2D
S1132A2086E018C060E070E0CE019ADA882309F4E9
S1132A3083CF05C0FA01938592FFB8CF0BC0EC8910
S1132A40FD899385843009F4A1CF04C0EC89FD8904
S1132A5093859CCFDF91CF911F910F91FF90EF90C1
S1132A60DF90CF90BF90AF909F908F907F906F90AA
S1132A705F904F903F9008951F93CF93DF93EC01A5
S1132A8060E070E06DDA182F81113AC04E855F85E1
S1132A9068897989888199810E94A609182F8111F2
S1132AA02FC0EA89FB898081853EF9F08823E9F00B
S1132AB061E070E0CE0123DD182F882339F320C0B4
S1132AC0EA89FB89CF0180961192E817F907E1F7AB
S1132AD06C897D894BE050E08A899B890E94F707C5
S1132AE0E881F98181E084830BC04E855F85688924
S1132AF07989888199810E94A609182F882301F376
S1132B00812FDF91CF911F9108957F928F929F9291
S1132B10AF92BF92CF92DF92EF92FF920F931F93E7
S1132B20CF93DF93EC016A017B01423051056105CB
S1132B30710508F44BC08A8D9B8DAC8DBD8D4817F3
S1132B4059076A077B0708F043C07724739433C09E
S1132B50B701A601CE0109D94B015C01672B682B93
S1132B60692BC1F181E088169104A104B104A1F19B
S1132B702FEF82169206A206B20681F100E010E061
S1132B809801B701A601CE01A2DA811128C08E8571
S1132B909F85A889B9898F3F2FEF9207A207B207B3
S1132BA041F00196A11DB11D8E879F87A88BB98B1B
S1132BB07D82750164018A8D9B8DAC8DBD8DC81697
S1132BC0D906EA06FB0620F280E009C082E007C0CD
S1132BD082E005C080E003C082E001C081E0DF91B3
S1132BE0CF911F910F91FF90EF90DF90CF90BF9006
S1132BF0AF909F908F907F900895811112C0E091C3
S1132C005C24F0915D24309709F010826115710500
S1132C1011F0FB01108260935C2470935D2480E0CA
S1132C2008958BE008953F924F925F926F927F9246
S1132C308F929F92AF92BF92CF92DF92EF92FF92C8
S1132C400F931F93CF93DF93CDB7DEB7A497CDBF78
S1132C50DEBF6BA37CA3009709F4C7C0D42E8C01FC
S1132C60FC01108211824E71BE016F5F7F4FCE0155
S1132C7083960E94030A8111E2C0FD2DFF713F2E4D
S1132C80CE0147968D8B9E8B6BA17CA146976BDD05
S1132C90EB88FC888111ABC0E114F10409F0B1C0E8
S1132CA0ABC0843009F0BDC0CE010196E5DE232D12
S1132CB02860322EEB88FC88882341F0AAC0F701F3
S1132CC08385817109F0B8C0D2FCB8C033FEA5C0B9
S1132CD0D6D6F70166877787808B918B1386148EFF
S1132CE0158E168E178EC980DA80B701C6010E9430
S1132CF005082B013C01F701128E138E148A158AE4
S1132D0081E0F6018483411451046104710409F4DF
S1132D1084C082A893A8A4A8B5A8B301A201C6013F
S1132D20F4DE811176C089819A81F1E04F1A51084D
S1132D3061087108FC014286538664867586B50174
S1132D40A4010E94A609882331F079C0D1FE65C090
S1132D5080FD5CC062C0F32DF0623F2EE981FA81F0
S1132D6082A993A9A4A9B5A9F801828F938FA48FEE
S1132D70B58FE68EF78EF8013482C980DA80B70108
S1132D80C6010E940508F80166877787808B918BBE
S1132D90F701278D868D90E0A0E0B0E0DC01992753
S1132DA08827B22B248D822B458D50E0542F442745
S1132DB060E070E0842B952BA62BB72BF80182875B
S1132DC09387A487B5871682178210861186168A80
S1132DD0178A108E118EC082D182F6018681978166
S1132DE0F8018283938380E02AC089E028C04D2DB6
S1132DF04C7109F056CF0DC04D2D4C7189F486E00D
S1132E0008C08D2D8C7109F05ACF11C087E001C024
S1132E1084E0882309F4AFCF12C033FC9CCF9ECF4B
S1132E2086E0F32DF8603F2EEB88FC88F2CFF701A3
S1132E30838584FDEDCF8ACF87E001C088E0A49626
S1132E40CDBFDEBFDF91CF911F910F91FF90EF9027
S1132E50DF90CF90BF90AF909F908F907F906F90B6
S1132E605F904F903F9008952F923F924F925F92C0
S1132E706F927F928F929F92AF92BF92CF92DF9286
S1132E80EF92FF920F931F93CF93DF9300D01F9283
S1132E90CDB7DEB78B839C834B016A015901D901FD
S1132EA01D921C920E94DE098111B9C1EB81FC8143
S1132EB0848188230CF4B0C181FFB0C182859385DD
S1132EC0A485B585AC01BD014C0D5D1D611D711D51
S1132ED0481759076A077B0708F481C1C114D10454
S1132EE009F47DC1B096E983FA83EB81FC81868184
S1132EF09781A085B185AC01BD0151706627772704
S1132F00452B462B472B09F029C120813181F9013A
S1132F1012811150AC01BD01032E39E076956795FD
S1132F20579547953A95D1F7302D142309F04FC0A2
S1132F30892B8A2B8B2BC9F4AB81BC811E966D9196
S1132F407D918D919C915197611571058105910534
S1132F50E1F440E050E0BA01C901D8D9EB81FC8129
S1132F6066877787808B918B0AC0AB81BC81529630
S1132F704D915D916D917C915597C901C7D96115AA
S1132F8071058105910509F42AC161307105810536
S1132F90910539F4EB81FC8184818068848382E02B
S1132FA03EC16F3FFFEF7F078F079F0751F4AB814F
S1132FB0BC8114968C911497806814968C9381E04C
S1132FC02EC1EB81FC81628B738B848B958BAB81DF
S1132FD0BC8114968C91149786FF1EC056962D9131
S1132FE03D914D915C915997ED91FC9101E069817E
S1132FF07A81818136D4882339F0EB81FC81848104
S11330008068848381E00BC1AB81BC8114968C9170
S113301014978F7B14968C93EB81FC8120803180F4
S11330204289538964897589C1010E94870E61159B
S113303071058105910551F4AB81BC8114968C9185
S11330401497806814968C9382E0E9C02B013C01AC
S1133050410E511C611C711C7601EF2CFF24E69477
S1133060E114F10409F448C0F1014281242F30E055
S1133070C701810F911D2817390718F47901E11A46
S1133080F1080E2DA3019201B401D10111968C9186
S1133090E8D3882339F0EB81FC81848180688483C0
S11330A081E0BDC0EB81FC8186899789A08DB18DBB
S11330B084199509A609B709A70160E070E084178F
S11330C09507A607B707A0F4982F8827990FB4018E
S11330D0680F791F40E052E089819A810E94F707C6
S11330E0AB81BC8114968C9114978F7B14968C932E
S11330F0FE2CEE24FF0C57C0EB81FC818689978956
S1133100A08DB18D84159505A605B705F9F0468106
S113311057816085718582859385A485B585481717
S113312059076A077B0790F401E0A30192016981C2
S11331307A81D10111968C9187D3882339F0EB8160
S1133140FC8184818068848381E069C0AB81BC8117
S113315056964D925D926D927C925997EB81FC81CB
S113316086819781A085B185AC01517020E032E061
S1133170241B350B76012C153D0508F4790191705B
S1133180AA27BB278096A701B4012B813C81820F1B
S1133190931F0E94F707AB81BC8114968C911497FE
S11331A0806414968C938E0C9F1CEB81FC81868129
S11331B09781A085B1858E0D9F1DA11DB11D8683AC
S11331C09783A087B187D5018D919C9111978E0D1E
S11331D09F1D8D939C93CE18DF0809F086CEEB815A
S11331E0FC8186819781A085B1854285538564855C
S11331F07585481759076A077B0720F482879387E8
S1133200A487B587AB81BC8114968C911497806296
S113321014968C9380E003C082E001C087E024967A
S1133220CDBFDEBFDF91CF911F910F91FF90EF9043
S1133230DF90CF90BF90AF909F908F907F906F90D2
S11332405F904F903F902F9008950F931F93CF93CB
S1133250DF93EC010E94DE09811150C08C8185FF4F
S11332604AC086FF11C02E893F89488D598DE88157
S1133270F98101E0BE01605E7F4F8181F2D281114C
S11332803CC08C818F7B8C834A8D5B8D6C8D7D8D56
S1133290888199810E94A609811130C00E8D1F8DED
S11332A0F8018385806283878A85848F8B85858FE7
S11332B08C85868F8D85878F8E859F85A889B98912
S11332C0828F938FCD01AA27BB27848B958BD7D36D
S11332D0F801668B778B808F918F128A138A8C8189
S11332E08F7D8C83E881F98181E084838881998151
S11332F00E94200E03C080E001C081E0DF91CF91E5
S11333001F910F910895CF93DF93EC019EDF8111FC
S113331002C018821982DF91CF910895EF92FF9233
S11333201F93CF93DF93CDB7DEB7A497CDBFDEBF96
S11333308BA39CA37B0140E0BE016F5F7F4FCE0156
S113334083960E94030A182F811116C0CE01479656
S11333508D8B9E8B6BA17CA1469705DA182F81116A
S11333600BC08B899C89892B31F0B701CE01019662
S11333700E94270801C016E0812FA496CDBFDEBFAE
S1133380DF91CF911F91FF90EF900895E0ECFAE068
S113339080818C7F826080830895E0ECFAE08081F4
S11333A08C778068808308958093C30AE0ECFAE008
S11333B082818823ECF7E0ECFAE080E88283838161
S11333C0089588EB8093810682E58093C00A81E0AA
S11333D08093FA280895FC0128E039E09081990F40
S11333E0862F892714F0908302C093279083660F59
S11333F02150A1F70895CF92DF92EF92FF92CF93DD
S1133400C4E060E070E0CB01CC24D62EE72EF82E89
S11334108FEFCADFA7019601282BCA01B901C15059
S113342099F7CF91FF90EF90DF90CF900895CF93CD
S1133430DF938FEFB9DFC8E8D3E18FEFB5DF8F3FBC
S113344041F08FE193E00197F1F700C0000021976C
S1133450A1F781E0CD2B09F480E0DF91CF910895AD
S1133460882329F088E080938606E1CF089588E0D8
S1133470809385068FEF98CF08958F929F92AF9295
S1133480BF92CF92DF92EF92FF921F93CF93DF937D
S11334901F92CDB7DEB7182F6A017B0119828823EA
S11334A044F440E050E0BA0187E3E7DF823048F5B6
S11334B01F7780E0D5DF81E0D3DF1064812F74DFD4
S11334C0612FCE01019687DF14E08F2C9924AA2462
S11334D0BB24882D69DF682DCE0101967CDFFE2C8C
S11334E0ED2CDC2CCC24115081F78981880F81606C
S11334F089835ADF1AE08FEF57DF882314F41150C1
S1133500D1F70F90DF91CF911F91FF90EF90DF9053
S1133510CF90BF90AF909F908F900895CF93C0E0CD
S113352040E050E0BA0189EAA8DF882371F02FEF68
S113353089EF90E0215080409040E1F700C0000006
S1133540CF5FCF3F69F780E011C0CF3F71F053DF09
S113355040E052E060E070E080E18FDF1092FA28F2
S113356082E08093FB2881E001C080E0CF91089540
S1133570CF9341DF6A3A71408105910579F5C0E046
S113358040E050E060E070E489EA77DF882371F07E
S11335908FEF97EE23E0815090402040E1F700C088
S11335A00000CF5FCF3F61F780E01DC0CF3FC1F087
S11335B040E050E0BA018AE360DF811113C0109249
S11335C0FA2819DF96FF05C084E08093FB2881E088
S11335D00AC082E08093FB2881E005C080E003C03C
S11335E080E001C081E0CF910895CF93CFDE80E0E9
S11335F037DFCAE08FEFD8DEC150E1F7CAE040E020
S113360050E0BA0180E039DF813019F0C150B9F7D8
S113361002C0C11105C082E08093FA2880E01CC07A
S1133620CAE04AEA51E060E070E088E026DF982FC3
S1133630907C11F0C150A9F7853019F46FDFC82FC1
S113364002C096DFC82FC11103C082E08093FA281C
S113365080EB98E0A2DE8C2FCF910895EF92FF9239
S11336600F931F93CF937C018B01C9EC8FE99FE0EB
S11336700197F1F700C000008FEF96DE8F3F21F431
S1133680C150A1F780E011C08E3F71F48FEF8CDE42
S1133690F70181937F0101501109C1F78FEF84DE97
S11336A08FEF82DE81E001C080E0CF911F910F9106
S11336B0FF90EF9008950F931F93CF93DF938C01A6
S11336C0D62FB5DEC82F8823B1F08D2F6DDEDD3FF8
S11336D091F0E8011E5F899167DEC017D107D9F721
S11336E08FEF62DE8FEF60DE8FEF5EDE8F71C1E001
S11336F0853009F0C0E08C2FDF91CF911F910F919D
S113370008950F931F93CF938C01C22F8091FA28B1
S1133710811132C08091FB28823049F4032E39E0B4
S1133720440F551F661F771F3A95D1F7302DC130CE
S113373051F481E1A2DE811118C060E072E0C80199
S11337408DDFC82712C082E198DE81110EC060E0CF
S113375072E0C80183DF882319F01E5FC150B9F7F6
S113376040E050E0BA018CE088DE80E079DE81E060
S1133770C11103C080E001C083E0CF911F910F917C
S11337800895CF92DF92EF92FF920F931F93CF93FE
S11337908C016A017B01C22F8091FA2881113CC0FF
S11337A08091FB28823049F40B2EB9E0CC0CDD1C4F
S11337B0EE1CFF1CBA95D1F7B02DC13059F4B701F6
S11337C0A60188E15ADE811120C06EEFC80173DFC3
S11337D0C8271BC04C2F50E060E070E087E94DDE45
S11337E0B701A60189E149DE81110FC06CEFC80160
S11337F062DF882319F01E5FC150C1F76DEF80E0CE
S113380090E059DF811101C0C1E080E029DE81E050
S1133810C11103C080E001C083E0CF911F910F91DB
S1133820FF90EF90DF90CF900895811104C0DDDE0A
S11338308091FA28089581E00895811103C0809150
S1133840FA28089581E008950F93FB01811106C0C1
S1133850BA01A901CF01202F54DF01C081E00F91EB
S113386008950F93FB01811106C0BA01A901CF018C
S1133870202F87DF01C081E00F910895EF92FF921E
S11338801F93CF93DF937C01162FCAE08FEF8CDD5B
S11338908E3F21F0C150D1F780E013C0CC2371F0EA
S11338A0112371F0C12FD0E02197CE0DDF1D8FEFD2
S11338B07BDD88831150B1F781E003C080E001C053
S11338C081E0DF91CF911F91FF90EF9008958F9247
S11338D09F92AF92BF92CF92DF92EF92FF920F939B
S11338E01F93CF93DF93CDB7DEB76897CDBFDEBF0D
S11338F08091FA288111B0C0623079F030F46623E7
S113390009F4ACC06130A1F006C0633009F499C079
S1133910643009F4A3C084E0A2C080E092E0A0E097
S1133920B0E0FA0180839183A283B38380E097C0DF
S11339304A0140E050E0BA0189E09FDD81117FC077
S113394060E1CE0101969ADF8889807C09F05AC033
S11339508E81982F991F9927991F8F818370880FC3
S1133960892B8E5F41E050E060E070E08A019B01AA
S113397004C0000F111F221F331F8A95D2F740E0A5
S113398050E0BA01098B1A8B2B8B3C8B4D8B5E8BD1
S11339906F8B788F98859295969596959370898577
S11339A0282F220F220FE22FE92B982F929596951C
S11339B0969593708A858370880F880FF82FF92B5A
S11339C031969F2F990F990B0B850F702E2F3F2F38
S11339D0492F592F692F792F892F0E941B34A22E2A
S11339E0B32EC42ED52EE62EF72E082F192F298993
S11339F03A894B895C8960E070E080E090E00E9445
S1133A00CA3313C08F8198852985A22FAF7301967D
S1133A10A11DAF73282F392F4A2F50E060E070E0CA
S1133A2080E090E003E10E941B3409E00E943634F8
S1133A30F401208331834283538380E010C083E008
S1133A400EC081E090E0A0E0B0E0FA0180839183B1
S1133A50A283B38380E003C083E001C080E0689662
S1133A60CDBFDEBFDF91CF911F910F91FF90EF90FB
S1133A70DF90CF90BF90AF909F908F90089560E0BB
S1133A8070E0CB010895CF93DF931F92CDB7DEB7DB
S1133A908093C308E0ECF8E082818823ECF78091FE
S1133AA0C30889830F90DF91CF9108951092C308C2
S1133AB0E0ECF8E082818823ECF78091C308089554
S1133AC0E0E5F0E0908191609083A8E6B0E090E4B6
S1133AD012969C9312979DE013969C939081946008
S1133AE09083918192FFFDCFE0E5F0E09681987F8D
S1133AF09683E8E6F0E0908191609083E0E5F0E061
S1133B00918190FFFDCF98ED94BF10924000E0E5C5
S1133B10F0E090819F7E9083858380E18083818122
S1133B2084FFFDCF88ED84BF84E080934000089536
S1133B308695C6CF08950895089527E02093000838
S1133B401092010810922008109221089C01A0E014
S1133B50BDE70E94B133DC01CB01072E7AE0B695B4
S1133B60A795979587957A95D1F7702D8093260818
S1133B709093270882E080930608089527E0209315
S1133B8000091092010910922009109221099C0148
S1133B90A0E0BDE70E94B133DC01CB01072E7AE03F
S1133BA0B695A795979587957A95D1F7702D8093BB
S1133BB026099093270981E080930609089527E058
S1133BC02093000A1092010A1092200A1092210AEE
S1133BD09C01A0E0BDE70E94B133DC01CB01072EBC
S1133BE07AE0B695A795979587957A95D1F7702D34
S1133BF08093260A9093270A82E08093060A089508
S1133C0027E02093000B1092010B1092200B1092CE
S1133C10210B813D27E0920710F080ED97E09C0195
S1133C20A0E0BDE70E94B133DC01CB01072E7AE0AE
S1133C30B695A795979587957A95D1F7702D80932A
S1133C40260B9093270B82E08093060B0895E0E403
S1133C50F2E091E090831182818188608183818187
S1133C608061818380EC838380E4828327E02483E2
S1133C708FE180A321A380A72FE021A780AB27E1B8
S1133C8021AB80AF81AF92AF0895E0E6F6E084E027
S1133C90868388E085838183E0EAF9E083E0858395
S1133CA087E1868384EA878383818C61838384812B
S1133CB08861848308950F931F93CF93DF93A0E2C9
S1133CC0B6E080EF12968C93129788E154968C9309
S1133CD0549755968C93559756968C93569757961A
S1133CE08C935797E0EAF6E08FE38183868380E440
S1133CF081838683E0E6F6E081E081838683C0E801
S1133D00D6E087E089838E83C0EED7E083E08983A1
S1133D108E8320E036E090ECE90199839E8306E6E9
S1133D2016E094E0E801988361E676E048E0EB0170
S1133D30488340E24883E801488340E456E0EA01CE
S1133D40888380934406E9018E838FE016968C93D2
S1133D5080E38183868382E081838683FA01918371
S1133D609683DF91CF911F910F910895E0E8F4E0DD
S1133D7080E3818391E0928385838181886081835C
S1133D8094830895E0E4F6E080E1818380EA81830E
S1133D9080E4828380EE858381E58093C008089562
S1133DA04F925F926F927F92AF92BF92CF92DF92C7
S1133DB0EF92FF920F931F93CF93DF93CDB7DEB7AC
S1133DC02C97CDBFDEBF8C0119821A821B821C8204
S1133DD0DC011C96ED91FC911D9780A191A1A2A1FB
S1133DE0B3A18D839E83AF83B8878D819E81AF817C
S1133DF0B885BB237CF48D819E81AF81B885B09555
S1133E00A095909581959F4FAF4FBF4F8D839E8313
S1133E10AF83B887F801A680B780C980DA80EB80C9
S1133E20FC80B701A6014F5F5F4F6F4F7F4F4983FF
S1133E305A836B837C836D817E818F819885AC0CE2
S1133E40BD1C20E836E948E950E00E9495330F2E66
S1133E50FAE0CF2ED12CE12CF12CF02DCA01B901BE
S1133E60A70196010E949533605DD5016C93F8011A
S1133E70A680B78049805A806B807C80B301A20100
S1133E804F5F5F4F6F4F7F4F49835A836B837C83B0
S1133E906D817E818F819885A40CB51C20E432E469
S1133EA04FE050E00E949533CA01B901A701960181
S1133EB00E949533605DD5016C93F801A680B780AC
S1133EC049805A806B807C80B301A2014F5F5F4FB1
S1133ED06F4F7F4F49835A836B837C836D817E81CF
S1133EE08F819885A40CB51C20EA36E841E050E0A7
S1133EF00E949533CA01B901A70196010E94953326
S1133F00605DD5016C93F801A680B78049805A8022
S1133F106B807C80B301A2014F5F5F4F6F4F7F4F77
S1133F2049835A836B837C836D817E818F819885DD
S1133F30A40CB51C20E137E240E050E00E94953328
S1133F40CA01B901A70196010E949533605DD501AC
S1133F506C93F801A680B78049805A806B807C807E
S1133F60B301A2014F5F5F4F6F4F7F4F49835A8365
S1133F706B837C836D817E818F819885A40CB51CB5
S1133F8028EE33E040E050E00E949533CA01B901C5
S1133F90A70196010E949533605DD5016C93F801E9
S1133FA0A680B78049805A806B807C80B301A201CF
S1133FB04F5F5F4F6F4F7F4F49835A836B837C837F
S1133FC06D817E818F819885A40CB51C24E630E038
S1133FD040E050E00E949533CA01B901A70196015F
S1133FE00E949533605DD5016C93F801A680B7807B
S1133FF049805A806B807C80B301A2014F5F5F4F80
S11340006F4F7F4F49835A836B837C836D817E819D
S11340108F819885A40CB51CA70196010E94953345
S1134020CA01B901A70196010E949533605DD501CB
S11340306C93F801A680B78049805A806B807C809D
S1134040B301A2014F5F5F4F6F4F7F4F49835A8384
S11340506B837C836D817E818F819885A40CB51CD4
S1134060A70196010E949533605DD5016C93F80118
S11340702681378189819A81AB81BC81AC01BD01E4
S11340804F5F5F4F6F4F7F4F49835A836B837C83AE
S1134090F901E80FF91F29E02083D8011C96ED915E
S11340A0FC911D9784A195A1A6A1B7A18D839E83A0
S11340B0AF83B8878D819E81AF81B885BB237CF4A3
S11340C08D819E81AF81B885B095A095909581959D
S11340D09F4FAF4FBF4F8D839E83AF83B887F80147
S11340E0A680B780C980DA80EB80FC80B701A60186
S11340F04F5F5F4F6F4F7F4F49835A836B837C833E
S11341006D817E818F819885AC0CBD1C20E836E9D9
S113411048E950E00E9495330F2EFAE0CF2ED12CBF
S1134120E12CF12CF02DCA01B901A70196010E94DE
S11341309533605DD5016C93F801A680B780498002
S11341405A806B807C80B301A2014F5F5F4F6F4F39
S11341507F4F49835A836B837C836D817E818F81FA
S11341609885A40CB51C20E432E44FE050E00E9492
S11341709533CA01B901A70196010E949533605D88
S1134180D5016C93F801A680B78049805A806B8072
S11341907C80B301A2014F5F5F4F6F4F7F4F498314
S11341A05A836B837C836D817E818F819885A40C77
S11341B0B51C20EA36E841E050E00E949533CA017C
S11341C0B901A70196010E949533605DD5016C93F6
S11341D0F801A680B78049805A806B807C80B30147
S11341E0A2014F5F5F4F6F4F7F4F49835A836B83A9
S11341F07C836D817E818F819885A40CB51C20E120
S113420037E240E050E00E949533CA01B901A701AA
S113421096010E949533605DD5016C93F801A680E8
S1134220B78049805A806B807C80B301A2014F5FC4
S11342305F4F6F4F7F4F49835A836B837C836D81BC
S11342407E818F819885A40CB51C28EE33E040E074
S113425050E00E949533CA01B901A70196010E945A
S11342609533605DD5016C93F801A680B7804980D1
S11342705A806B807C80B301A2014F5F5F4F6F4F08
S11342807F4F49835A836B837C836D817E818F81C9
S11342909885A40CB51C24E630E040E050E00E9470
S11342A09533CA01B901A70196010E949533605D57
S11342B0D5016C93F801A680B78049805A806B8041
S11342C07C80B301A2014F5F5F4F6F4F7F4F4983E3
S11342D05A836B837C836D817E818F819885A40C46
S11342E0B51CA70196010E949533CA01B901A70123
S11342F096010E949533605DD5016C93F801A68008
S1134300B78049805A806B807C80B301A2014F5FE3
S11343105F4F6F4F7F4F49835A836B837C836D81DB
S11343207E818F819885A40CB51CA70196010E94FB
S11343309533605DD5016C93F801268137818981BD
S11343409A81AB81BC81AC01BD014F5F5F4F6F4F60
S11343507F4F49835A836B837C83F901E80FF91FEC
S113436029E02083D8011C96ED91FC911D9780A52E
S113437091A5A2A5B3A58D839E83AF83B8878D81B4
S11343809E81AF81B885BB2334F089859A85AB853E
S1134390BC85BB237CF48D819E81AF81B885B095AB
S11343A0A095909581959F4FAF4FBF4F8D839E836E
S11343B0AF83B887F801A680B780C980DA80EB8024
S11343C0FC80B701A6014F5F5F4F6F4F7F4F49835A
S11343D05A836B837C836D817E818F819885AC0C3D
S11343E0BD1C20E836E948E950E00E9495330F2EC1
S11343F0FAE0CF2ED12CE12CF12CF02DCA01B90119
S1134400A70196010E949533605DD5016C93F80174
S1134410A680B78049805A806B807C80B301A2015A
S11344204F5F5F4F6F4F7F4F49835A836B837C830A
S11344306D817E818F819885A40CB51C20E432E4C3
S11344404FE050E00E949533CA01B901A7019601DB
S11344500E949533605DD5016C93F801A680B78006
S113446049805A806B807C80B301A2014F5F5F4F0B
S11344706F4F7F4F49835A836B837C836D817E8129
S11344808F819885A40CB51C20EA36E841E050E001
S11344900E949533CA01B901A70196010E94953380
S11344A0605DD5016C93F801A680B78049805A807D
S11344B06B807C80B301A2014F5F5F4F6F4F7F4FD2
S11344C049835A836B837C836D817E818F81988538
S11344D0A40CB51C20E137E240E050E00E94953383
S11344E0CA01B901A70196010E949533605DD50107
S11344F06C93F801A680B78049805A806B807C80D9
S1134500B301A2014F5F5F4F6F4F7F4F49835A83BF
S11345106B837C836D817E818F819885A40CB51C0F
S113452028EE33E040E050E00E949533CA01B9011F
S1134530A70196010E949533605DD5016C93F80143
S1134540A680B78049805A806B807C80B301A20129
S11345504F5F5F4F6F4F7F4F49835A836B837C83D9
S11345606D817E818F819885A40CB51C24E630E092
S113457040E050E00E949533CA01B901A7019601B9
S11345800E949533605DD5016C93F801A680B780D5
S113459049805A806B807C80B301A2014F5F5F4FDA
S11345A06F4F7F4F49835A836B837C836D817E81F8
S11345B08F819885A40CB51CA70196010E949533A0
S11345C0CA01B901A70196010E949533605DD50126
S11345D06C93F801A680B78049805A806B807C80F8
S11345E0B301A2014F5F5F4F6F4F7F4F49835A83DF
S11345F06B837C836D817E818F819885A40CB51C2F
S1134600A70196010E949533605DD5016C93F80172
S11346102681378189819A81AB81BC81AC01BD013E
S11346204F5F5F4F6F4F7F4F49835A836B837C8308
S1134630F901E80FF91F29E02083D8011C96ED91B8
S1134640FC911D9784A595A5A6A5B7A58D839E83EA
S1134650AF83B8878D819E81AF81B885BB237CF4FD
S11346608D819E81AF81B885B095A09590958195F7
S11346709F4FAF4FBF4F8D839E83AF83B887F801A1
S1134680A680B780C980DA80EB80FC80B701A601E0
S11346904F5F5F4F6F4F7F4F49835A836B837C8398
S11346A06D817E818F819885AC0CBD1C20E836E934
S11346B048E950E00E9495330F2EFAE0CF2ED12C1A
S11346C0E12CF12CF02DCA01B901A70196010E9439
S11346D09533605DD5016C93F801A680B78049805D
S11346E05A806B807C80B301A2014F5F5F4F6F4F94
S11346F07F4F49835A836B837C836D817E818F8155
S11347009885A40CB51C20E432E44FE050E00E94EC
S11347109533CA01B901A70196010E949533605DE2
S1134720D5016C93F801A680B78049805A806B80CC
S11347307C80B301A2014F5F5F4F6F4F7F4F49836E
S11347405A836B837C836D817E818F819885A40CD1
S1134750B51C20EA36E841E050E00E949533CA01D6
S1134760B901A70196010E949533605DD5016C9350
S1134770F801A680B78049805A806B807C80B301A1
S1134780A2014F5F5F4F6F4F7F4F49835A836B8303
S11347907C836D817E818F819885A40CB51C20E17A
S11347A037E240E050E00E949533CA01B901A70105
S11347B096010E949533605DD5016C93F801A68043
S11347C0B78049805A806B807C80B301A2014F5F1F
S11347D05F4F6F4F7F4F49835A836B837C836D8117
S11347E07E818F819885A40CB51C28EE33E040E0CF
S11347F050E00E949533CA01B901A70196010E94B5
S11348009533605DD5016C93F801A680B78049802B
S11348105A806B807C80B301A2014F5F5F4F6F4F62
S11348207F4F49835A836B837C836D817E818F8123
S11348309885A40CB51C24E630E040E050E00E94CA
S11348409533CA01B901A70196010E949533605DB1
S1134850D5016C93F801A680B78049805A806B809B
S11348607C80B301A2014F5F5F4F6F4F7F4F49833D
S11348705A836B837C836D817E818F819885A40CA0
S1134880B51CA70196010E949533CA01B901A7017D
S113489096010E949533605DD5016C93F801A68062
S11348A0B78049805A806B807C80B301A2014F5F3E
S11348B05F4F6F4F7F4F49835A836B837C836D8136
S11348C07E818F819885A40CB51CA70196010E9456
S11348D09533605DD5016C93F80126813781898118
S11348E09A81AB81BC81AC01BD014F5F5F4F6F4FBB
S11348F07F4F49835A836B837C83F901E80FF91F47
S113490029E02083D8011C96ED91FC911D9780A984
S113491091A9A2A9B3A98D839E83AF83B8878D8102
S11349209E81AF81B885BB237CF48D819E81AF814C
S1134930B885B095A095909581959F4FAF4FBF4F87
S11349408D839E83AF83B887F801A680B780C98022
S1134950DA80EB80FC80B701A6014F5F5F4F6F4F99
S11349607F4F49835A836B837C836D817E818F81E2
S11349709885AC0CBD1C20E836E948E950E00E945B
S113498095330F2EFAE0CF2ED12CE12CF12CF02D03
S1134990CA01B901A70196010E949533605DD50152
S11349A06C93F801A680B78049805A806B807C8024
S11349B0B301A2014F5F5F4F6F4F7F4F49835A830B
S11349C06B837C836D817E818F819885A40CB51C5B
S11349D020E432E44FE050E00E949533CA01B9016B
S11349E0A70196010E949533605DD5016C93F8018F
S11349F0A680B78049805A806B807C80B301A20175
S1134A004F5F5F4F6F4F7F4F49835A836B837C8324
S1134A106D817E818F819885A40CB51C20EA36E8CF
S1134A2041E050E00E949533CA01B901A701960103
S1134A300E949533605DD5016C93F801A680B78020
S1134A4049805A806B807C80B301A2014F5F5F4F25
S1134A506F4F7F4F49835A836B837C836D817E8143
S1134A608F819885A40CB51C20E137E240E050E02A
S1134A700E949533CA01B901A70196010E9495339A
S1134A80605DD5016C93F801A680B78049805A8097
S1134A906B807C80B301A2014F5F5F4F6F4F7F4FEC
S1134AA049835A836B837C836D817E818F81988552
S1134AB0A40CB51C28EE33E040E050E00E9495338E
S1134AC0CA01B901A70196010E949533605DD50121
S1134AD06C93F801A680B78049805A806B807C80F3
S1134AE0B301A2014F5F5F4F6F4F7F4F49835A83DA
S1134AF06B837C836D817E818F819885A40CB51C2A
S1134B0024E630E040E050E00E949533CA01B90148
S1134B10A70196010E949533605DD5016C93F8015D
S1134B20A680B78049805A806B807C80B301A20143
S1134B304F5F5F4F6F4F7F4F49835A836B837C83F3
S1134B406D817E818F819885A40CB51CA701960187
S1134B500E949533CA01B901A70196010E949533B9
S1134B60605DD5016C93F801A680B78049805A80B6
S1134B706B807C80B301A2014F5F5F4F6F4F7F4F0B
S1134B8049835A836B837C836D817E818F81988571
S1134B90A40CB51CA70196010E949533605DD50154
S1134BA06C93F8012681378189819A81AB81BC811C
S1134BB0AC01BD014F5F5F4F6F4F7F4F49835A83F5
S1134BC06B837C83F901E80FF91F29E02083D80166
S1134BD01C96ED91FC911D9784A995A9A6A9B7A946
S1134BE08D839E83AF83B8878D819E81AF81B88585
S1134BF0BB237CF48D819E81AF81B885B095A0954F
S1134C00909581959F4FAF4FBF4F8D839E83AF8308
S1134C10B887F801A680B780C980DA80EB80FC8071
S1134C20B701A6014F5F5F4F6F4F7F4F49835A8390
S1134C306B837C836D817E818F819885AC0CBD1CD8
S1134C4020E836E948E950E00E9495330F2EFAE057
S1134C50CF2ED12CE12CF12CF02DCA01B901A701E2
S1134C6096010E949533605DD5016C93F801A6808E
S1134C70B78049805A806B807C80B301A2014F5F6A
S1134C805F4F6F4F7F4F49835A836B837C836D8162
S1134C907E818F819885A40CB51C20E432E44FE01A
S1134CA050E00E949533CA01B901A70196010E9400
S1134CB09533605DD5016C93F801A680B780498077
S1134CC05A806B807C80B301A2014F5F5F4F6F4FAE
S1134CD07F4F49835A836B837C836D817E818F816F
S1134CE09885A40CB51C20EA36E841E050E00E9407
S1134CF09533CA01B901A70196010E949533605DFD
S1134D00D5016C93F801A680B78049805A806B80E6
S1134D107C80B301A2014F5F5F4F6F4F7F4F498388
S1134D205A836B837C836D817E818F819885A40CEB
S1134D30B51C20E137E240E050E00E949533CA01FF
S1134D40B901A70196010E949533605DD5016C936A
S1134D50F801A680B78049805A806B807C80B301BB
S1134D60A2014F5F5F4F6F4F7F4F49835A836B831D
S1134D707C836D817E818F819885A40CB51C28EE7F
S1134D8033E040E050E00E949533CA01B901A70125
S1134D9096010E949533605DD5016C93F801A6805D
S1134DA0B78049805A806B807C80B301A2014F5F39
S1134DB05F4F6F4F7F4F49835A836B837C836D8131
S1134DC07E818F819885A40CB51C24E630E040E0F8
S1134DD050E00E949533CA01B901A70196010E94CF
S1134DE09533605DD5016C93F801A680B780498046
S1134DF05A806B807C80B301A2014F5F5F4F6F4F7D
S1134E007F4F49835A836B837C836D817E818F813D
S1134E109885A40CB51CA70196010E949533CA017C
S1134E20B901A70196010E949533605DD5016C9389
S1134E30F801A680B78049805A806B807C80B301DA
S1134E40A2014F5F5F4F6F4F7F4F49835A836B833C
S1134E507C836D817E818F819885A40CB51CA7010C
S1134E6096010E949533605DD5016C93F80126810B
S1134E70378189819A81AB81BC81AC01BD014F5FCF
S1134E805F4F6F4F7F4F49835A836B837C83F90154
S1134E90E80FF91F29E02083D8011C96ED91FC91BD
S1134EA01D9780AD91ADA2ADB3AD8D839E83AF83CD
S1134EB0B8878D819E81AF81B885BB237CF48D81B9
S1134EC09E81AF81B885B095A095909581959F4FAF
S1134ED0AF4FBF4F8D839E83AF83B887F801A68001
S1134EE0B780C980DA80EB80FC80B701A6014F5FF0
S1134EF05F4F6F4F7F4F49835A836B837C836D81F0
S1134F007E818F819885AC0CBD1C20E836E948E988
S1134F1050E00E9495330F2EFAE0CF2ED12CE12CD5
S1134F20F12CF02DCA01B901A70196010E94953315
S1134F30605DD5016C93F801A680B78049805A80E2
S1134F406B807C80B301A2014F5F5F4F6F4F7F4F37
S1134F5049835A836B837C836D817E818F8198859D
S1134F60A40CB51C20E432E44FE050E00E949533D9
S1134F70CA01B901A70196010E949533605DD5016C
S1134F806C93F801A680B78049805A806B807C803E
S1134F90B301A2014F5F5F4F6F4F7F4F49835A8325
S1134FA06B837C836D817E818F819885A40CB51C75
S1134FB020EA36E841E050E00E949533CA01B90185
S1134FC0A70196010E949533605DD5016C93F801A9
S1134FD0A680B78049805A806B807C80B301A2018F
S1134FE04F5F5F4F6F4F7F4F49835A836B837C833F
S1134FF06D817E818F819885A40CB51C20E137E2F8
S113500040E050E00E949533CA01B901A70196011E
S11350100E949533605DD5016C93F801A680B7803A
S113502049805A806B807C80B301A2014F5F5F4F3F
S11350306F4F7F4F49835A836B837C836D817E815D
S11350408F819885A40CB51C28EE33E040E050E035
S11350500E949533CA01B901A70196010E949533B4
S1135060605DD5016C93F801A680B78049805A80B1
S11350706B807C80B301A2014F5F5F4F6F4F7F4F06
S113508049835A836B837C836D817E818F8198856C
S1135090A40CB51C24E630E040E050E00E949533B7
S11350A0CA01B901A70196010E949533605DD5013B
S11350B06C93F801A680B78049805A806B807C800D
S11350C0B301A2014F5F5F4F6F4F7F4F49835A83F4
S11350D06B837C836D817E818F819885A40CB51C44
S11350E0A70196010E949533CA01B901A70196014F
S11350F00E949533605DD5016C93F801A680B7805A
S113510049805A806B807C80B301A2014F5F5F4F5E
S11351106F4F7F4F49835A836B837C836D817E817C
S11351208F819885A40CB51CA70196010E94953324
S1135130605DD5016C93F8012681378189819A815C
S1135140AB81BC81AC01BD014F5F5F4F6F4F7F4F9F
S113515049835A836B837C83F901E80FF91F29E0A3
S11351602083D8011C96ED91FC911D9784AD95ADDB
S1135170A6ADB7AD8D839E83AF83B8878D819E81A5
S1135180AF81B885BB237CF48D819E81AF81B885C6
S1135190B095A095909581959F4FAF4FBF4F8D834C
S11351A09E83AF83B887F801A680B780C980DA8070
S11351B0EB80FC80B701A6014F5F5F4F6F4F7F4FBD
S11351C049835A836B837C836D817E818F8198852B
S11351D0AC0CBD1C20E836E948E950E00E94953348
S11351E00F2EFAE0CF2ED12CE12CF12CF02DCA0198
S11351F0B901A70196010E949533605DD5016C93B6
S1135200F801A680B78049805A806B807C80B30106
S1135210A2014F5F5F4F6F4F7F4F49835A836B8368
S11352207C836D817E818F819885A40CB51C20E4DC
S113523032E44FE050E00E949533CA01B901A7015E
S113524096010E949533605DD5016C93F801A680A8
S1135250B78049805A806B807C80B301A2014F5F84
S11352605F4F6F4F7F4F49835A836B837C836D817C
S11352707E818F819885A40CB51C20EA36E841E034
S113528050E00E949533CA01B901A70196010E941A
S11352909533605DD5016C93F801A680B780498091
S11352A05A806B807C80B301A2014F5F5F4F6F4FC8
S11352B07F4F49835A836B837C836D817E818F8189
S11352C09885A40CB51C20E137E240E050E00E9430
S11352D09533CA01B901A70196010E949533605D17
S11352E0D5016C93F801A680B78049805A806B8001
S11352F07C80B301A2014F5F5F4F6F4F7F4F4983A3
S11353005A836B837C836D817E818F819885A40C05
S1135310B51C28EE33E040E050E00E949533CA010A
S1135320B901A70196010E949533605DD5016C9384
S1135330F801A680B78049805A806B807C80B301D5
S1135340A2014F5F5F4F6F4F7F4F49835A836B8337
S11353507C836D817E818F819885A40CB51C24E6A5
S113536030E040E050E00E949533CA01B901A70142
S113537096010E949533605DD5016C93F801A68077
S1135380B78049805A806B807C80B301A2014F5F53
S11353905F4F6F4F7F4F49835A836B837C836D814B
S11353A07E818F819885A40CB51CA70196010E946B
S11353B09533CA01B901A70196010E949533605D36
S11353C0D5016C93F801A680B78049805A806B8020
S11353D07C80B301A2014F5F5F4F6F4F7F4F4983C2
S11353E05A836B837C836D817E818F819885A40C25
S11353F0B51CA70196010E949533605DD5016C939D
S1135400F8012681378189819A81AB81BC81AC0105
S1135410BD014F5F5F4F6F4F7F4F49835A836B834B
S11354207C83F901E80FF91F29E02083D801ED916D
S1135430FC9184819581092E000CAA0BBB0B8D83F2
S11354409E83AF83B8878D819E81AF81B885BB234E
S11354502CF58D819E81AF81B885B095A0959095EE
S113546081959F4FAF4FBF4F8D839E83AF83B88786
S1135470F8012681378189819A81AB81BC81AC0195
S1135480BD014F5F5F4F6F4F7F4F49835A836B83DB
S11354907C83F901E80FF91F2DE22083D8011696C9
S11354A0AD90BC901797C980DA80EB80FC80B7017F
S11354B0A6014F5F5F4F6F4F7F4F49835A836B83C2
S11354C07C836D817E818F819885AC0CBD1C28EE18
S11354D033E040E050E00E9495330F2EFAE0CF2EE7
S11354E0D12CE12CF12CF02DCA01B901A7019601B0
S11354F00E949533605DF5016083D8011696AD90E6
S1135500BC90179749805A806B807C80B301A201BC
S11355104F5F5F4F6F4F7F4F49835A836B837C8309
S11355206D817E818F819885A40CB51C24E630E0C2
S113553040E050E00E949533CA01B901A7019601E9
S11355400E949533605DF5016083D8011696AD9095
S1135550BC90179749805A806B807C80B301A2016C
S11355604F5F5F4F6F4F7F4F49835A836B837C83B9
S11355706D817E818F819885A40CB51CA70196014D
S11355800E949533CA01B901A70196010E9495337F
S1135590605DF5016083D8011696AD90BC901797B5
S11355A049805A806B807C80B301A2014F5F5F4FBA
S11355B06F4F7F4F49835A836B837C836D817E81D8
S11355C08F819885A40CB51CA70196010E94953380
S11355D0605DF5016083D80116962D913C91179773
S11355E089819A81AB81BC81AC01BD014F5F5F4F62
S11355F06F4F7F4F49835A836B837C83F901E80F94
S1135600F91F29E02083D801ED91FC9186819781CF
S1135610092E000CAA0BBB0B8D839E83AF83B88726
S11356208D819E81AF81B885BB232CF58D819E81B0
S1135630AF81B885B095A095909581959F4FAF4F58
S1135640BF4F8D839E83AF83B887F801268137814E
S113565089819A81AB81BC81AC01BD014F5F5F4FF1
S11356606F4F7F4F49835A836B837C83F901E80F23
S1135670F91F2DE22083D8011696AD90BC901797A0
S1135680C980DA80EB80FC80B701A6014F5F5F4FD1
S11356906F4F7F4F49835A836B837C836D817E81F7
S11356A08F819885AC0CBD1C28EE33E040E050E0BF
S11356B00E9495330F2EFAE0CF2ED12CE12CF12C41
S11356C0F02DCA01B901A70196010E949533605DCE
S11356D0F5016083D8011696AD90BC901797498068
S11356E05A806B807C80B301A2014F5F5F4F6F4F84
S11356F07F4F49835A836B837C836D817E818F8145
S11357009885A40CB51C24E630E040E050E00E94EB
S11357109533CA01B901A70196010E949533605DD2
S1135720F5016083D8011696AD90BC901797498017
S11357305A806B807C80B301A2014F5F5F4F6F4F33
S11357407F4F49835A836B837C836D817E818F81F4
S11357509885A40CB51CA7019601E7D7CA01B90125
S1135760A7019601E2D7605DF5016083D801169622
S1135770AD90BC90179749805A806B807C80B301B0
S1135780A2014F5F5F4F6F4F7F4F49835A836B83F3
S11357907C836D817E818F819885A40CB51CA701C3
S11357A09601C3D7605DF5016083D80116962D91EB
S11357B03C91179789819A81AB81BC81AC01BD0171
S11357C04F5F5F4F6F4F7F4F49835A836B837C8357
S11357D0F901E80FF91F29E02083D801ED91FC912C
S11357E080859185092E000CAA0BBB0B8D839E83AB
S11357F0AF83B8878D819E81AF81B885BB232CF59B
S11358008D819E81AF81B885B095A0959095819545
S11358109F4FAF4FBF4F8D839E83AF83B887F801EF
S11358202681378189819A81AB81BC81AC01BD011C
S11358304F5F5F4F6F4F7F4F49835A836B837C83E6
S1135840F901E80FF91F2DE22083D8011696AD90D7
S1135850BC901797C980DA80EB80FC80B701A60161
S11358604F5F5F4F6F4F7F4F49835A836B837C83B6
S11358706D817E818F819885AC0CBD1C28EE33E050
S113588040E050E052D70F2EFAE0CF2ED12CE12C7D
S1135890F12CF02DCA01B901A701960146D7605D2C
S11358A0F5016083D8011696AD90BC901797498096
S11358B05A806B807C80B301A2014F5F5F4F6F4FB2
S11358C07F4F49835A836B837C836D817E818F8173
S11358D09885A40CB51C24E630E040E050E025D7C0
S11358E0CA01B901A701960120D7605DF501608363
S11358F0D8011696AD90BC90179749805A806B805A
S11359007C80B301A2014F5F5F4F6F4F7F4F49838C
S11359105A836B837C836D817E818F819885A40CEF
S1135920B51CA701960101D7CA01B901A7019601C7
S1135930FCD6605DF5016083D8011696AD90BC90ED
S1135940179749805A806B807C80B301A2014F5F16
S11359505F4F6F4F7F4F49835A836B837C836D8185
S11359607E818F819885A40CB51CA7019601DDD694
S1135970605DF5016083D80116962D913C911797CF
S113598089819A81AB81BC81AC01BD014F5F5F4FBE
S11359906F4F7F4F49835A836B837C83F901E80FF0
S11359A0F91F29E02083D801ED91FC91828593852C
S11359B0092E000CAA0BBB0B8D839E83AF83B88783
S11359C08D819E81AF81B885BB232CF58D819E810D
S11359D0AF81B885B095A095909581959F4FAF4FB5
S11359E0BF4F8D839E83AF83B887F80126813781AB
S11359F089819A81AB81BC81AC01BD014F5F5F4F4E
S1135A006F4F7F4F49835A836B837C83F901E80F7F
S1135A10F91F2DE22083D8011696AD90BC901797FC
S1135A20C980DA80EB80FC80B701A6014F5F5F4F2D
S1135A306F4F7F4F49835A836B837C836D817E8153
S1135A408F819885AC0CBD1C28EE33E040E050E01B
S1135A506CD60F2EFAE0CF2ED12CE12CF12CF02DA8
S1135A60CA01B901A701960160D6605DF5016083A2
S1135A70D8011696AD90BC90179749805A806B80D8
S1135A807C80B301A2014F5F5F4F6F4F7F4F49830B
S1135A905A836B837C836D817E818F819885A40C6E
S1135AA0B51C24E630E040E050E03FD6CA01B9011D
S1135AB0A70196013AD6605DF5016083D801169678
S1135AC0AD90BC90179749805A806B807C80B3015D
S1135AD0A2014F5F5F4F6F4F7F4F49835A836B83A0
S1135AE07C836D817E818F819885A40CB51CA70170
S1135AF096011BD6CA01B901A701960116D6605DAD
S1135B00F5016083D8011696AD90BC901797498033
S1135B105A806B807C80B301A2014F5F5F4F6F4F4F
S1135B207F4F49835A836B837C836D817E818F8110
S1135B309885A40CB51CA7019601F7D5605DF50105
S1135B406083D80116962D913C91179789819A818B
S1135B50AB81BC81AC01BD014F5F5F4F6F4F7F4F85
S1135B6049835A836B837C83F901E80FF91F29E089
S1135B702083D8011896ED91FC9119978085918521
S1135B80A285B3858D839E83AF83B887F801A680F1
S1135B90B78049805A806B807C80B301A2014F5F3B
S1135BA05F4F6F4F7F4F49835A836B837C836D8133
S1135BB07E818F819885A40CB51C20E836E948E9DC
S1135BC050E0B3D5CA01B901A7019601AED5605D15
S1135BD0D5016C93F801A680B78049805A806B8008
S1135BE07C80B301A2014F5F5F4F6F4F7F4F4983AA
S1135BF05A836B837C836D817E818F819885A40C0D
S1135C00B51C20E432E44FE050E08FD5CA01B9015D
S1135C10A70196018AD5605DD5016C93F801A68031
S1135C20B78049805A806B807C80B301A2014F5FAA
S1135C305F4F6F4F7F4F49835A836B837C836D81A2
S1135C407E818F819885A40CB51C20EA36E841E05A
S1135C5050E06BD5CA01B901A701960166D5605D14
S1135C60D5016C93F801A680B78049805A806B8077
S1135C707C80B301A2014F5F5F4F6F4F7F4F498319
S1135C805A836B837C836D817E818F819885A40C7C
S1135C90B51C20E137E240E050E047D5CA01B90124
S1135CA0A701960142D5605DD5016C93F801A680E9
S1135CB0B78049805A806B807C80B301A2014F5F1A
S1135CC05F4F6F4F7F4F49835A836B837C836D8112
S1135CD07E818F819885A40CB51C28EE33E040E0CA
S1135CE050E023D5CA01B901A70196011ED5605D14
