S018000043616E5361745F5633202D20316B487A2E737265631F
S113000006C1000024C1000022C1000020C100007C
S11300101EC100001CC100001AC1000018C100006C
S113002016C1000014C1000012C1000010C100007C
S11300300EC100000CC1000005C4000008C100008E
S113004006C1000004C1000002C1000000C100009C
S1130050FEC00000FCC00000FAC00000F8C00000B0
S1130060F6C00000F4C00000F2C00000F0C00000C0
S1130070EEC00000ECC00000EAC00000E8C00000D0
S1130080E6C00000E4C00000E2C00000E0C00000E0
S1130090DEC00000DCC00000DAC00000D8C00000F0
S11300A0D6C00000D4C00000D2C00000D0C0000000
S11300B0CEC00000CCC00000CAC0000039C400009B
S11300C0C6C00000C4C00000C2C00000C0C0000020
S11300D0BEC00000BCC00000BAC00000B8C0000030
S11300E0B6C00000B4C00000B2C00000B0C0000040
S11300F0AEC00000ACC00000AAC00000A8C0000050
S1130100A6C00000A4C00000A2C00000A0C000005F
S11301109EC000009CC000009AC0000098C000006F
S113012096C0000094C0000092C0000090C000007F
S11301308EC00000B5C300008AC0000088C0000063
S113014086C0000084C0000082C0000080C000009F
S11301507EC000007CC000007AC0000078C00000AF
S113016090C2000074C000004CC2000070C00000C7
S11301706EC000006CC000006AC0000068C00000CF
S113018066C0000064C0000062C0000060C00000DF
S11301905EC000005CC000005AC0000058C00000EF
S11301A056C0000054C0000052C0000050C00000FF
S11301B0D0C300004CC000004AC0000048C000008A
S11301C046C0000044C0000042C0000040C000001F
S11301D03EC000003CC000003AC0000038C000002F
S11301E036C0000034C0000032C0000030C000003F
S11301F02EC000002CC000002AC00000460549059E
S11302004D056705D2058C05A605D205CA0511243E
S11302101FBECFEFCDBFDFE5DEBF00E00CBF10E2B5
S1130220A0E0B0E2EEE5FDE100E00BBF02C0079004
S11302300D92A03DB107D9F726E2A0EDB0E201C0CE
S11302401D92A335B207E1F730D60C94AD0ECAC1A6
S11302502F923F924F925F926F927F928F929F92D2
S1130260AF92BF92CF92DF92EF92FF920F931F93C0
S1130270CF93DF93CDB7DEB72C97CDBFDEBF8C0114
S1130280E0E0F2E080A1816080A38FE68093210208
S113029080A1806880A3868180FFFDCFE12C6894D3
S11302A0FF24F1F881E0F70183A36089718980E07C
S11302B090E00E94340D20E030E040E85DE30E94CD
S11302C0EA0D2B013C0187E780932102F70180A10D
S11302D0806880A3868180FFFDCFE12C6894FF2491
S11302E0F1F881E0F70183A36089718980E090E0EF
S11302F00E94340D20E030E040E85DE30E94EA0D06
S11303004B015C018FE780932102F70180A1806893
S113031080A3868180FFFDCFE12C6894FF24F1F84F
S113032081E0F70183A36089718980E090E00E94F5
S1130330340D20E030E040E85DE30E94EA0D69837B
S11303407A838B839C8388E380932102F70180A1C5
S1130350806880A3868180FFFDCFE12C6894FF2410
S1130360F1F881E0F70183A36089718980E090E06E
S11303700E94340D20E030E040E859E30E94EA0D89
S11303802DEC3CEC4CE45DE30E94670C2DEC3CEC62
S113039044E251E40E94EA0D6D837E838F83988743
S11303A08FE080932102F70180A1806880A3868179
S11303B080FFFDCFE12C6894FF24F1F881E0F70180
S11303C083A36089718980E090E00E94340D20E06D
S11303D030E040E859E30E94EA0D2DEC3CEC4CE49B
S11303E05DE30E94670C2DEC3CEC44E251E40E9476
S11303F0EA0D69877A878B879C8787E4809321023B
S1130400F70180A1806880A3868180FFFDCF212C25
S11304106894332431F881E0F10183A36089718900
S113042080E090E00E94340D20E030E040E859E3A1
S11304300E94EA0D2DEC3CEC4CE45DE30E94670C59
S11304402DEC3CEC44E251E40E94EA0D6B017C018A
S1130450F10110A280E181A380A1806880A386813C
S113046080FFFDCFE0E0F2E081E083A320883188C3
S113047020E030E048EC52E4C301B2010E94EA0DEE
S113048020E030E04FE753E40E94CC0CF801648391
S113049075838683978320E030E048EC52E4C501FD
S11304A0B4010E94EA0D20E030E04FE753E40E94DB
S11304B0CC0CF801608771878287938720E030E055
S11304C048EC52E469817A818B819C810E94EA0D17
S11304D020E030E04FE753E40E94CC0CF80164873D
S11304E075878687978720E030E048EC52E46D8179
S11304F07E818F8198850E94EA0D20E030E04FE7ED
S113050053E40E94CC0CF801608B718B828B938B2B
S113051020E030E048EC52E469857A858B859C853F
S11305200E94EA0D20E030E04FE753E40E94CC0C37
S1130530F801648B758B868B978B20E030E048EC58
S113054052E4C701B6010E94EA0D20E030E04FE713
S113055053E40E94CC0CF801608F718F828F938FCB
S1130560B10180E090E00E94340D20E030E040E8EA
S113057059E30E94EA0D2DEC3CEC4CE45DE30E944F
S1130580670C2AE939E945E251E40E94EA0D20E0CA
S113059030E048EC52E40E94EA0D20E030E04FE7FE
S11305A053E40E94CC0CF801648F758F868F978F6B
S11305B010A211A212A213A22C96CDBFDEBFDF910E
S11305C0CF911F910F91FF90EF90DF90CF90BF904C
S11305D0AF909F908F907F906F905F904F903F90DF
S11305E02F9008951F920F920FB60F9211248F939C
S11305F088E0809307068F910F900FBE0F901F9095
S113060018951F920F920FB60F9211240BB60F92EA
S11306108F939F93EF93FF93E091B925F091BA25BF
S1130620EF59FC4D80818823F9F08332E9F091E0A1
S11306309093BB25853221F48AE08093A00902C0FF
S11306408093A0098091B9259091BA2587399105A5
S113065030F401968093B9259093BA2507C0FC0124
S1130660EF59FC4D108202C01092BB25FF91EF910F
S11306709F918F910F900BBE0F900FBE0F901F9004
S113068018951F920F920FB60F9211240BB60F926A
S11306902F933F934F935F936F937F938F939F9386
S11306A0AF93BF93EF93FF93CF93DF931F92CDB795
S11306B0DEB780E1809305068091A0098983898152
S11306C0843221F481E08093E825A6C089818235B3
S11306D081F48091E825882309F47EC08FB7F894CB
S11306E01092E82598ED94BF91E0909379008FBF24
S11306F093C089818035F9F48091E825882309F431
S113070071C0C6D41092D4201092D5201092D62055
S11307101092D7201092E825E8EDF0E281E0818381
S113072080832FEF87EA91E6215080409040E1F7E3
S113073000C0000071C08981883559F48091E82592
S1130740882309F455C0E6EEF5E281E08483128241
S113075063C089818B3451F48091E825882309F49E
S11307604CC0E6EEF5E21482128256C089818335CC
S113077059F48091E825882309F444C0E6EEF5E2B3
S113078081E08383128248C08981863449F4809150
S1130790E8258823E1F1E6EEF5E2138212823CC0FB
S11307A08981813451F48091E825882399F1E6EE1A
S11307B0F5E281E0858312822FC08981843449F473
S11307C08091E825882329F0E6EEF5E2158212826D
S11307D023C01092E82520C089818981883509F0D9
S11307E0B8CF06C0898189818B3409F0BFCF05C099
S11307F089818981833541F605C08981898186345F
S113080079F605C0898189818134B9F603C089816B
S11308108981DFCF8981DDCF0F90DF91CF91FF9167
S1130820EF91BF91AF919F918F917F916F915F9164
S11308304F913F912F910F900BBE0F900FBE0F90D1
S11308401F9018951F920F920FB60F9211240BB69A
S11308500F928F939F93AF93BF93EF93FF93EAEF1E
S1130860F5E2A281B38181E08C930084F185E02DCF
S113087080819181A281B3810196A11DB11D8083E4
S11308809183A283B383FF91EF91BF91AF919F9125
S11308908F910F900BBE0F900FBE0F901F90189565
S11308A01F920F920FB60F9211240BB60F928F93D3
S11308B09F93EF93FF938091D820882349F18091EF
S11308C0D920813079F028F08230D1F08330E1F002
S11308D024C0E8EDF0E210821382128280E4809357
S11308E0A6061BC08091DB20873018F01092D92017
S11308F014C090E49093A7068F5F8093DB200DC013
S113090080E48093A70609C080E48093A50605C00F
S11309101092D92080E48093A606FF91EF919F91D5
S11309208F910F900BBE0F900FBE0F901F901895D4
S11309301F920F920FB60F9211248F9380E1809330
S113094006061092E8258F910F900FBE0F901F900E
S113095018951F920F920FB60F9211240BB60F9297
S11309602F933F934F935F936F937F938F939F93B3
S1130970AF93BF93EF93FF9380E2809307061092A7
S1130980BC258091E925882341F18091F22590913D
S1130990F325A091F425B091F5258F3926E8920727
S11309A021E0A207B10560F40196A11DB11D809359
S11309B0F2259093F325A093F425B093F52508C070
S11309C01092F2251092F3251092F4251092F52539
S11309D0109234231092352314DEFF91EF91BF91CE
S11309E0AF919F918F917F916F915F914F913F91C3
S11309F02F910F900BBE0F900FBE0F901F90189564
S1130A001092B9251092BA25A6EEB5E21C92119661
S1130A101C921197EAEFF5E28FE096E280839183CE
S1130A20A283B38381E693E2848395838CED90E281
S1130A30868397838EEE95E28087918786E096E29F
S1130A40828793870895FC018081918101CC089568
S1130A50CF92DF92EF92FF928091EB25811108C033
S1130A601092EC251092D92082E0809366069AC0F9
S1130A708091EC2590E08930910508F093C0FC0149
S1130A808827E250FF4F8F4F0C94820E1092D9208A
S1130A9089C081E08093EA2585C0E8EDF0E281E039
S1130AA0818380836091EE257091EF258091F025FC
S1130AB09091F125D9D76093D0207093D120809361
S1130AC0D2209093D32083E08093EC256BC0609177
S1130AD0EE257091EF258091F0259091F125C4D7F2
S1130AE06B017C0120E030E040EA50E46091D020CA
S1130AF07091D1208091D2209091D320E9D69B018E
S1130B00AC01C701B6010E94E60D18160CF04AC0EC
S1130B1084E08093EC2546C0E8EDF0E281E0818337
S1130B2080836091EE257091EF258091F02590915E
S1130B30F1259AD76093D0207093D1208093D2204E
S1130B409093D32086E08093EC252CC06091EE2511
S1130B507091EF258091F0259091F12585D76B0157
S1130B607C0120E030E040E251E46091D0207091BB
S1130B70D1208091D2209091D320AAD69B01AC01A0
S1130B80C701B6010E94E60D181664F487E080934D
S1130B90EC2508C0E8EDF0E282E0818381E0808307
S1130BA01092EA25FF90EF90DF90CF90089580E2B5
S1130BB065D367D367D382D4ECD301D488E290E0C1
S1130BC062D38AEF90E07FD382E390E09CD388EEF7
S1130BD093E0B9D315DF4BD456D480E015D26FD24D
S1130BE06093D4207093D5208093D6209093D720FF
S1130BF087E08093A2000895CF93DF93CDB7DEB74B
S1130C006697CDBFDEBF86E1E0E0F0E2DE0111963B
S1130C1001900D928A95E1F7E0E8F6E0808580FF87
S1130C20FDCF808581FFFACFE8EDF0E283E0818398
S1130C3081E080832DD22FEF87EA91E62150804016
S1130C409040E1F700C000008981882371F0FE0123
S1130C503296A0EAB9E08C938FE79EE30197F1F70F
S1130C6000C0000081918111F6CF1092D82010921B
S1130C70D4201092D5201092D6201092D7206696B8
S1130C80CDBFDEBFDF91CF9108954F925F926F92F7
S1130C907F929F92AF92BF92CF92DF92EF92FF9298
S1130CA00F931F93CF93DF93CDB7DEB7CA5BD10900
S1130CB0CDBFDEBF1092EA25E8EDF0E283E0818348
S1130CC081E080832FEF87E893E1215080409040BA
S1130CD0E1F700C000001082E0E8F6E0808581FFC3
S1130CE0FDCF86EAE6E1F0E2DE01119601900D9275
S1130CF08A95E1F784E1ECEBF0E2DE01A955BF4F00
S1130D0001900D928A95E1F78981882389F0FE018B
S1130D103296A0EAB9E08C932FEF89EF90E021504E
S1130D2080409040E1F700C0000081918111F3CF31
S1130D30EFEFF7EA21E6E150F0402040E1F700C090
S1130D40000084E08093050681E015D183E0F6D0AD
S1130D5080E0F4D080E0F2D080E0F0D0912CC12C7F
S1130D60D12C76010F2EF0EAAF2EF9E0BF2EF02D34
S1130D700F2EF4E64F2E512C612C712CF02D00E82F
S1130D8016E0EFD08F3F21F0F5018083912C01C054
S1130D909394FFEFCF1ADF0AEF0AFF0AC701B601E7
S1130DA0A30192018DD7672B682B692B51F42FEF88
S1130DB089EF90E0215080409040E1F700C00000AE
S1130DC006C0EFE1F3E03197F1F700C00000F8014D
S1130DD0808580FF03C0F3E6F91598F680E0CBD058
S1130DE0C955DF4F8881C75AD040882379F0FE0166
S1130DF0E855FF4FA0EAB9E08C938FE39FE1019798
S1130E00F1F700C0000081918111F6CFC654DF4F85
S1130E10CDBFDEBFDF91CF911F910F91FF90EF9077
S1130E20DF90CF90BF90AF909F907F906F905F9036
S1130E304F900895E0E0F6E088E085832FEF37E8EF
S1130E4093E1215030409040E1F700C000008683D8
S1130E502FEF33EC99E0215030409040E1F700C08F
S1130E60000085832FEF37E893E121503040904014
S1130E70E1F700C0000086832FEF33EC89E02150B6
S1130E8030408040E1F700C000000895809188065A
S1130E9080FD06C08091880681FD02C0ADCE089514
S1130EA08091880681FFF1CE0895E6EEF5E2148282
S1130EB081E083831092BC257ADE7894BBDFE6DF81
S1130EC0C6EED5E20F2EFBEBEF2EF5E2FF2EF02D52
S1130ED00F2EF5E8CF2EF2E0DF2EF02D00E016E025
S1130EE06894BB24B2F88AE08A95F1F700C088813F
S1130EF08823C9F318828AEF95E2A5DDA9DD8AEF7C
S1130F0095E2F4D28C81882349F02EEE35E24CED43
S1130F1050E260E971E084ED90E25AD1F7018081FA
S1130F20811109C0ECEDF0E2A1E6B3E2C601019043
S1130F300D920197E1F7F801B782D5CFCF93DF93F4
S1130F401F92CDB7DEB78093C308E0ECF8E082814E
S1130F508823ECF78091C30889830F90DF91CF91A8
S1130F6008951092C308E0ECF8E082818823ECF73E
S1130F708091C3080895882321F081E08093660658
S1130F80089581E08093650608951F93CF93DF93BE
S1130F90C0E6D6E011E01E8386E0D0DF1D83DF913A
S1130FA0CF911F9108951F93CF93DF93C0E6D6E0AE
S1130FB011E01E8384E0C2DF1D83DF91CF911F9176
S1130FC00895DF92EF92FF920F931F93CF93DF93D5
S1130FD0F62EE72ED82E042FD8DFC0E6D6E011E097
S1130FE01E8382E0ABDF8D2DA9DF8E2DA7DF8F2D31
S1130FF0A5DF802FA3DF1D83DF91CF911F910F9178
S1131000FF90EF90DF9008951F93CF93DF93882391
S113101091F0C0E6D6E011E01E8380E58FDF1D83EA
S11310208AE08A95F1F700C01E8381E087DF8CE1B6
S113103085DF1D8311C0C0E6D6E011E01E8380E584
S11310407DDF1D838AE08A95F1F700C01E8381E06D
S113105075DF80E073DF1D83DF91CF911F910895C9
S1131060CF93DF931F92CDB7DEB781E080936606FE
S113107085E064DF76DF898374DF8983898180FD7D
S1131080FBCF81E0809365060F90DF91CF910895A7
S11310901F93CF93DF9379DFC0E6D6E011E01E8380
S11310A080E64CDF1D838FE193E00197F1F700C0E8
S11310B00000D6DF78DFDF91CF911F910895CF92A2
S11310C0DF92EF92FF9281E08093660683E036DF41
S11310D080E034DF80E032DF80E030DFC12CD12CCF
S11310E076010DC08FEFC81AD80AE80AF80A80EA18
S11310F0C8168FE8D8068EE3E806F10419F031DF4C
S11311008F3F81F781E080936506C701B601FF90A8
S1131110EF90DF90CF9008958F929F92AF92BF92FD
S1131120CF92DF92EF92FF920F931F93CF93DF93AF
S11311304B01FA01DC014D915D916D917C91403D33
S11311405E4F6F437105B8F524E020930506408196
S1131150442371F1A12CB12C81149104A104B10494
S113116039F18F01EC010F5F1F4FC12CD12C760197
S1131170EFEFCE1ADE0AEE0AFE0A688179818A81CF
S11311809B811FDF6DDF88819981AA81BB810196D4
S1131190A11DB11D88839983AA83BB83D8014D9176
S11311A08D01442329F0C814D904EA04FB0401F78F
S11311B084E080930606DF91CF911F910F91FF90F9
S11311C0EF90DF90CF90BF90AF909F908F90089555
S11311D0CF93DF93E901A0DF88859985AA85BB8534
S11311E08F3322E492072FE0A207B10540F4019661
S11311F0A11DB11D88879987AA87BB8704C018865B
S113120019861A861B86DF91CF910895E0E5F0E0F8
S1131210908191609083A8E6B0E090E412969C934C
S113122012979DE013969C93908194609083918192
S113123092FFFDCFE0E5F0E09681987F9683E8E6A3
S1131240F0E0908191609083E0E5F0E0918190FF7F
S1131250FDCF98ED94BF10924000E0E5F0E090815E
S11312609F7E9083858380E18083818184FFFDCF8D
S113127088ED84BF84E08093400008958695C6CFAE
S113128008950895089527E0209300081092010816
S113129010922008109221089C01A0E0BDE73AD5E5
S11312A0DC01CB01072E7AE0B695A7959795879533
S11312B07A95D1F7702D809326089093270882E0C1
S11312C080930608089527E02093000910920109ED
S11312D010922009109221099C01A0E0BDE71AD5C3
S11312E0DC01CB01072E7AE0B695A79597958795F3
S11312F07A95D1F7702D809326099093270981E080
S113130080930609089527E02093000A1092010AA9
S11313101092200A1092210A9C01A0E0BDE7FAD4A1
S1131320DC01CB01072E7AE0B695A79597958795B2
S11313307A95D1F7702D8093260A9093270A82E03C
S11313408093060A089527E02093000B1092010B66
S11313501092200B1092210B813D27E0920710F090
S113136080ED97E09C01A0E0BDE7D4D4DC01CB0183
S1131370072E7AE0B695A795979587957A95D1F734
S1131380702D8093260B9093270B82E08093060B9D
S11313900895E0E6F6E084E0868388E0858381832F
S11313A0E0EAF9E083E0858387E1868384EA878342
S11313B083818C6183838481886184830895CF933E
S11313C0DF9388E18093900680939106A0E0B6E0D5
S11313D08C9181608C93E6E0F6E021E020838C918F
S11313E08C678C938CE78083A0EAB6E08C91806450
S11313F08C9366EA76E050E4DB015C9334E030934E
S1131400410630934606C1E6D6E082E08883A6E62C
S1131410B6E08C933C9348E0488390E298839C9395
S1131420DB013C934093A5064093A10633E030933F
S1131430400630934406A2EEB7E02C938C93A2E8C6
S1131440B6E030E13C939C93A2EAB6E02C938C93F3
S11314503C9330936206808380E88083E6E2F6E082
S11314602083908350838083DF91CF910895E0E8B7
S1131470F4E080E3818391E09283858381818860B5
S1131480818394830895E0E4F6E080E1818380EA37
S1131490818380E4828380EE8583E0E6F6E081E068
S11314A08183858381E58093C0080895AAECB1E027
S11314B022E02C93FC0184911C9208951F93CF93F6
S11314C0DF93C0E0D2E011E0188380E290E0EEDF29
S11314D08C8781E290E0EADF8D8719821A8283E0AB
S11314E08C8318A3DF91CF911F9108950F931F93BD
S11314F0CF93DF9300D000D0CDB7DEB7FC011982C3
S11315001A82A085B18514968D919C9115978B8331
S11315109C830681178129813A81C90101968983B7
S11315209A838B819C81020F131F60E177E2B5D30C
S1131530CB012AE030E0B901B0D3805DD8018C93AF
S11315400681178149815A81CA01019689839A8348
S11315508B819C81040F151F68EE73E09ED3CB0131
S1131560B9019BD3805DD8018C9306811781498191
S11315705A81CA01019689839A838B819C81040FC5
S1131580151F64E670E089D3CB01B90186D3805D71
S1131590D8018C930681178149815A81CA01019629
S11315A089839A838B819C81040F151FB90175D39C
S11315B0CB01B90172D3805DD8018C930681178168
S11315C049815A81CA01019689839A838B819C81BE
S11315D0040F151FB90161D3805DD8018C93268156
S11315E0378189819A81AC014F5F5F4F49835A8368
S11315F0D901A80FB91F3CE23C93468157818981E8
S11316009A81BC016F5F7F4F69837A83DA01A80FE7
S1131610B91F23E52C934681578189819A81BC01A6
S11316206F5F7F4F69837A83840F951FA281B38193
S113163015962C91205DDC012C934681578189817C
S11316409A81BC016F5F7F4F69837A83840F951FF2
S1131650A281B38113962C91205DDC012C934681E9
S1131660578189819A81BC016F5F7F4F69837A8337
S1131670840F951FA281B38114962C91205DDC0107
S11316802C934681578189819A81BC016F5F7F4F7A
S113169069837A83DA01A80FB91F3C938B819C81FB
S11316A0992324F08D819E819923ECF48B819C8174
S11316B09195819591098B839C838D819E819195D0
S11316C0819591098D839E832681378189819A81B1
S11316D0AC014F5F5F4F49835A83D901A80FB91FEB
S11316E02DE22C930EC02681378189819A81AC0129
S11316F04F5F5F4F49835A83D901A80FB91F2BE26B
S11317002C930681178129813A81C9010196898325
S11317109A838B819C81020F131F60E177E2BDD213
S1131720CB012AE030E0B901B8D2805DD8018C93B6
S11317300681178149815A81CA01019689839A8356
S11317408B819C81040F151F68EE73E0A6D2CB0138
S1131750B901A3D2805DD8018C9306811781498198
S11317605A81CA01019689839A838B819C81040FD3
S1131770151F64E670E091D2CB01B9018ED2805D71
S1131780D8018C930681178149815A81CA01019637
S113179089839A838B819C81040F151FB9017DD2A3
S11317A0CB01B9017AD2805DD8018C93068117816F
S11317B049815A81CA01019689839A838B819C81CC
S11317C0040F151FB90169D2805DD8018C9346813D
S11317D0578189819A81BC016F5F7F4F69837A83C6
S11317E0DA01A80FB91F4EE24C9306811781498193
S11317F05A81CA01019689839A838D819E81040F3F
S1131800151FB9014AD2CB01B90147D2805DD80175
S11318108C930681178149815A81CA010196898373
S11318209A838D819E81040F151FB90136D2805D84
S1131830D8018C932681378189819A81AC014F5FCD
S11318405F4F49835A83D901A80FB91F2CE22C9307
S11318502681378189819A81AC014F5F5F4F49832B
S11318605A83D901A80FB91F2DE02C932681378103
S113187089819A81AC014F5F5F4F49835A83D901B3
S1131880A80FB91F2AE02C932681378189819A8178
S1131890AC014F5F5F4F49835A83D901A80FB91F29
S11318A01C922681378189819A81AC014F5F5F4FF9
S11318B049835A83F901E80FF91F28E52083269606
S11318C0CDBFDEBFDF91CF911F910F910895505886
S11318D0BB27AA270ED040C131D130F036D120F039
S11318E031F49F3F11F41EF426C10EF4E095E7FB9A
S11318F01CC1E92F42D180F3BA176207730784072A
S1131900950718F071F49EF55AC10EF4E0950B2E6C
S1131910BA2FA02D0B01B90190010C01CA01A0013D
S11319201124FF27591B99F0593F50F4503E68F198
S11319301A16F040A22F232F342F4427585FF3CFD9
S1131940469537952795A795F0405395C9F77EF4AA
S11319501F16BA0B620B730B840BBAF09150A1F0F3
S1131960FF0FBB1F661F771F881FC2F70EC0BA0F79
S1131970621F731F841F48F4879577956795B79501
S1131980F7959E3F08F0B3CF9395880F08F09927F9
S1131990EE0F9795879508950CD0DEC0D6D040F011
S11319A0CDD030F021F45F3F19F0BFC0511108C110
S11319B0C2C0E3D098F39923C9F35523B1F3951B1F
S11319C0550BBB27AA2762177307840738F09F5F5C
S11319D05F4F220F331F441FAA1FA9F333D00E2ECB
S11319E03AF0E0E830D091505040E695001CCAF738
S11319F029D0FE2F27D0660F771F881FBB1F2617FD
S1131A0037074807AB07B0E809F0BB0B802DBF01CF
S1131A10FF2793585F4F2AF09E3F510568F085C019
S1131A20CFC05F3FECF3983EDCF3869577956795DE
S1131A30B795F7959F5FC9F7880F911D9695879580
S1131A4097F90895E1E0660F771F881FBB1F62179F
S1131A5073078407BA0720F0621B730B840BBA0B5D
S1131A60EE1F88F7E0950895E89409C097FB3EF4CB
S1131A7090958095709561957F4F8F4F9F4F9923D7
S1131A80A9F0F92F96E9BB279395F6958795779555
S1131A906795B795F111F8CFFAF4BB0F11F460FF15
S1131AA01BC06F5F7F4F8F4F9F4F16C0882311F06D
S1131AB096E911C0772321F09EE8872F762F05C081
S1131AC0662371F096E8862F70E060E02AF09A951C
S1131AD0660F771F881FDAF7880F9695879597F911
S1131AE00895990F0008550FAA0BE0E8FEEF1616AB
S1131AF01706E807F907C0F012161306E407F507FE
S1131B0098F0621B730B840B950B39F40A2661F071
S1131B10232B242B252B21F408950A2609F4A14014
S1131B20A6958FEF811D811D089597F99F6780E821
S1131B3070E060E008959FEF80EC089500240A941B
S1131B401616170618060906089500240A94121694
S1131B501306140605060895092E0394000C11F4C7
S1131B60882352F0BB0F40F4BF2B11F460FF04C074
S1131B706F5F7F4F8F4F9F4F089557FD9058440FCD
S1131B80551F59F05F3F71F04795880F97FB991FD8
S1131B9061F09F3F79F08795089512161306140695
S1131BA0551FF2CF4695F1DF08C016161706180622
S1131BB0991FF1CF86957105610508940895E894FD
S1131BC0BB2766277727CB0197F908958ADF08F4A6
S1131BD08FEF08950BD0C0CFB1DF28F0B6DF18F037
S1131BE0952309F0A2CFA7CF1124EACFC6DFA0F333
S1131BF0959FD1F3950F50E0551F629FF001729F9E
S1131C00BB27F00DB11D639FAA27F00DB11DAA1FBC
S1131C10649F6627B00DA11D661F829F2227B00D09
S1131C20A11D621F739FB00DA11D621F839FA00D94
S1131C30611D221F749F3327A00D611D231F849FE4
S1131C40600D211D822F762F6A2F11249F5750403B
S1131C508AF0E1F088234AF0EE0FFF1FBB1F661FD6
S1131C60771F881F91505040A9F79E3F510570F08F
S1131C705CCFA6CF5F3FECF3983EDCF38695779577
S1131C806795B795F795E7959F5FC1F7FE2B880F8A
S1131C90911D9695879597F9089597FB072E16F44D
S1131CA0009406D077FD08D044D007FC05D03EF45C
S1131CB0909581959F4F0895709561957F4F0895F4
S1131CC0A1E21A2EAA1BBB1BFD010DC0AA1FBB1F3C
S1131CD0EE1FFF1FA217B307E407F50720F0A21BAE
S1131CE0B30BE40BF50B661F771F881F991F1A941B
S1131CF069F760957095809590959B01AC01BD0145
S1131D00CF010895EE0FFF1F881F8BBF0790F69138
S1131D10E02D1994A29FB001B39FC001A39F700D41
S1131D20811D1124911DB29F700D811D1124911DDF
S1131D300895AA1BBB1B51E107C0AA1FBB1FA6170E
S1131D40B70710F0A61BB70B881F991F5A95A9F760
S1111D5080959095BC01CD010895F894FFCFC5
S1131D5E0A0D4D656D6F727920657261736564212C
S1131D6E0A0D0A0D00000A0D5465616D2C54656C44
S1131D7E65436E742C466C6967687453746174653C
S1131D8E2C536F667453746174652C416C7469744E
S1131D9E7564652C56656C6F636974792C41636345
S1131DAE656C2C4779726F2C4C61742C4C6F6E677A
S1131DBE2C416C74694750532C4669782C436865E2
S1131DCE636B2C2C436E742C566F6C746167654276
S1131DDE61742C566F6C746167655643432C54655D
S1131DEE6D702C50726573732C416363592C41636F
S1131DFE6359322C4779726F582C4779726F5A2C6B
S1131E0E4779726F592C0A0D0A0D00000A0D52659E
S1131E1E6164696E6720646F6E650A0D0A0D0000B9
S9030000FC
