S018000043616E5361745F5633202D20316B487A2E737265631F
S1130000FDC000001BC1000019C1000017C10000A1
S113001015C1000013C1000011C100000FC1000090
S11300200DC100000BC1000009C1000007C10000A0
S113003005C1000003C100003EC50000FFC0000070
S1130040FDC00000FBC00000F9C00000F7C00000C4
S1130050F5C00000F3C00000F1C00000EFC00000D4
S1130060EDC00000EBC00000E9C00000E7C00000E4
S1130070E5C00000E3C00000E1C00000DFC00000F4
S1130080DDC00000DBC00000D9C00000D7C0000004
S1130090D5C00000D3C00000D1C00000CFC0000014
S11300A0CDC00000CBC0000014C30000C7C00000D6
S11300B0C5C00000C3C00000C1C000004EC50000A0
S11300C0BDC00000BBC00000B9C00000B7C0000044
S11300D0B5C00000B3C00000B1C00000AFC0000054
S11300E0ADC00000ABC00000A9C00000A7C0000064
S11300F0A5C00000A3C00000A1C000009FC0000074
S11301009DC000009BC0000099C0000097C0000083
S113011095C0000093C0000091C000008FC0000093
S11301208DC000008BC0000089C0000087C00000A3
S113013085C00000CAC4000081C000007FC0000068
S11301407DC000007BC0000079C0000077C00000C3
S113015075C0000073C0000071C000006FC00000D3
S11301602EC300006BC00000EAC2000067C000009C
S113017065C0000063C0000061C000005FC00000F3
S11301805DC000005BC0000059C0000057C0000003
S113019055C0000053C0000051C000004FC0000013
S11301A04DC000004BC0000049C0000047C0000023
S11301B0FDC4000043C0000041C000003FC0000077
S11301C03DC000003BC0000039C0000037C0000043
S11301D035C0000033C0000031C000002FC0000053
S11301E02DC000002BC0000029C0000027C0000063
S11301F025C0000023C0000021C0000011241FBE40
S1130200CFEFCDBFDFE3DEBF00E00CBF11E2A0E023
S1130210B0E2E4E0FEE500E00BBF02C007900D92FF
S1130220A230B107D9F729E2A2E0B1E201C01D92E0
S1130230A230B207E1F7A1D50C94002F3BC2811183
S113024006C0611110C088E080934506089581308E
S113025069F4611104C080E180934506089580E14A
S113026080934606089588E0809346060895CF93C8
S1130270C82F61E0E4DF80E10E94711C80E00E94ED
S1130280711C80EF0E94711C8EE10E94711C60E061
S11302908C2FD5DF2FEF89EF90E0215080409040E4
S11302A0E1F700C0000061E08C2FC9DF88E00E9404
S11302B0711C84E10E94711C80E00E94711C8FEF0C
S11302C00E94711C60E08C2FBADFCF910895CF9308
S11302D0DF93C82F61E0B3DF80E60E94711C0E94A7
S11302E0841CD82F60E08C2FAADF8D2FDF91CF9153
S11302F00895E0E6F6E082E086832FEF33EC99E0A0
S1130300215030409040E1F700C0000085830895FB
S1130310CF93C82F61E093DF81E00E94711C8FEFBF
S11303200E94711C8FEF0E94711C8FEF0E94711C40
S11303308FEF0E94711C8FEF0E94711C8FEF0E943F
S1130340711C8FEF0E94711C60E08C2F78DFCF91BD
S11303500895CF92DF92EF92FF920F931F93CF9362
S1130360DF936C018B017A01E90161E080E067DFD2
S113037088E50E94711C0E94841C90E0A0E0B0E01B
S1130380DC0199278827F70180839183A283B383B3
S11303900E94841CF7014081518162817381582B32
S11303A040835183628373830E94841CF7014081DC
S11303B0518162817381482B4083518362837383AB
S11303C00E94841C8F70F601808360E080E037DF38
S11303D061E081E034DF88E50E94711C0E94841C86
S11303E090E0A0E0B0E0DC01992788278883998316
S11303F0AA83BB830E94841C488159816A817B81C2
S1130400582B488359836A837B830E94841C4881C8
S113041059816A817B81482B488359836A837B8312
S11304200E94841C8F70F801808360E081E007DF04
S1130430DF91CF911F910F91FF90EF90DF90CF90BC
S11304400895CF93DF93C82F61E0F9DE80E40E9422
S1130450711C0E94841CD82F60E08C2FF0DE8D2F3D
S1130460881F8827881FDF91CF9108950F931F93CA
S1130470CF93DF93CDB7DEB72A97CDBFDEBF8C0114
S11304809E01295F3F4FAE014D5F5F4FBE016E5F1E
S11304907F4FCE0101965DDF99819530B9F018F454
S11304A0943031F03CC09630F9F0973059F137C0B0
S11304B0D8011C96ED91FC911D978B819C81AD8197
S11304C0BE8180A391A3A2A3B3A329C0D8011C9683
S11304D0ED91FC911D978B819C81AD81BE8184A39C
S11304E095A3A6A3B7A31BC0D8011C96ED91FC91BC
S11304F01D978B819C81AD81BE8180A791A7A2A706
S1130500B3A70DC0D8011C96ED91FC911D978B816A
S11305109C81AD81BE8184A795A7A6A7B7A79A8120
S11305209530B9F018F4943031F03CC09630F9F0BD
S1130530973059F137C0D8011C96ED91FC911D9765
S11305408F819885A985BA8580AB91ABA2ABB3ABFB
S113055029C0D8011C96ED91FC911D978F81988537
S1130560A985BA8584AB95ABA6ABB7AB1BC0D80144
S11305701C96ED91FC911D978F819885A985BA856C
S113058080AF91AFA2AFB3AF0DC0D8011C96ED916F
S1130590FC911D978F819885A985BA8584AF95AF05
S11305A0A6AFB7AF2A96CDBFDEBFDF91CF911F9123
S11305B00F910895CF93DF93EC01188219821A8268
S11305C01B821C821D821E821F82188619861A862F
S11305D01B866CA57DA58EA59FA50E94302D20ECC1
S11305E03AE042E05BE40E94632C20E035E94BEA08
S11305F057E40E94C82C6C877D878E879F8768A9E3
S113060079A98AA99BA90E94302D20EC3AE042E006
S11306105BE40E94632C20E035E94BEA57E40E9436
S1130620C82C688B798B8A8B9B8B6CA97DA98EA92E
S11306309FA90E94302D28E839EE43E05BE40E9434
S1130640632C20E03BE348E058E40E94C82C6C8B08
S11306507D8B8E8B9F8B68AD79AD8AAD9BAD0E94EF
S1130660302D20EC3AE042E05BE40E94632C20E071
S113067035E94BEA57E40E94C82C688F798F8A8F3A
S11306809B8F6CAD7DAD8EAD9FAD0E94302D28E863
S113069039EE43E05BE40E94632C20E03BE348E056
S11306A058E40E94C82C6C8F7D8F8E8F9F8FDF91B2
S11306B0CF9108951F920F920FB60F9211248F932A
S11306C081E08093A7068F910F900FBE0F901F902B
S11306D018951F920F920FB60F9211240BB60F921A
S11306E08F939F93AF93BF93EF93FF93A0E4B2E0F4
S11306F050968D919C915197E6E8F6E28483958318
S113070052968D919C9153978683978354968D919D
S11307109C9155978087918756968D919C91579778
S113072082879387FF91EF91BF91AF919F918F91B2
S11307300F900BBE0F900FBE0F901F9018951F9235
S11307400F920FB60F9211240BB60F928F939F93B3
S1130750EF93FF93E091E423F091E523E058FC4DFF
S113076080818823F9F08332E9F091E09093E623C5
S1130770853221F48AE08093A00902C08093A00905
S11307808091E4239091E5238739910530F4019613
S11307908093E4239093E52307C0FC01E058FC4DCB
S11307A0108202C01092E623FF91EF919F918F91E6
S11307B00F900BBE0F900FBE0F901F9018951F92B5
S11307C00F920FB60F9211240BB60F922F933F93F3
S11307D04F935F936F937F938F939F93AF93BF9345
S11307E0EF93FF93CF93DF931F92CDB7DEB7809142
S11307F0A00989838981843221F481E08093EA23EA
S113080044C18981823581F48091EA23882309F4E3
S113081007C18FB7F8941092EA2398ED94BF91E042
S1130820909379008FBF31C189818133A9F480917C
S1130830EA23882309F4FAC00E946D2A2FEF87EA7D
S113084091E6215080409040E1F700C000000E94F2
S1130850712A1092EA2319C189818233A9F4809103
S1130860EA23882309F4E8C00E94652A2FEF87EA67
S113087091E6215080409040E1F700C000000E94C2
S1130880692A1092EA2301C189818333A9F48091F2
S1130890EA23882309F4D6C00E94752A2FEF87EA39
S11308A091E6215080409040E1F700C000000E9492
S11308B0792A1092EA23E9C089818433A9F48091CA
S11308C0EA23882309F4C4C00E947D2A2FEF87EA13
S11308D091E6215080409040E1F700C000000E9462
S11308E0812A1092EA23D1C08981863389F48091C8
S11308F0EA23882309F4B2C0E8EEF3E286E990E043
S1130900A0E0B0E081879287A387B4871282BDC03C
S11309108981873389F48091EA23882309F4A4C068
S1130920E8EEF3E288EC90E0A0E0B0E08187928703
S1130930A387B4871282A9C08981883389F48091FE
S1130940EA23882309F496C0E8EEF3E28EE591E009
S1130950A0E0B0E081879287A387B487128295C014
S11309608981893389F48091EA23882309F488C032
S1130970E8EEF3E28AE892E0A0E0B0E081879287B3
S1130980A387B487128281C08981813469F48091FC
S1130990EA23882309F477C0E8EEF3E281E0878351
S11309A016821582128271C089818035E9F48091A2
S11309B0EA238823C9F0E8EEF3E281E0858312821A
S11309C04AE060E070E284E694E20E9479158111C5
S11309D05CC024E836E245E650E06DE070E284E66F
S11309E094E20E949A1651C089818335B1F48091B2
S11309F0F1239091F223A091F323B091F423892B56
S1130A008A2B8B2B51F08091EA23882331F0E8EE76
S1130A10F3E281E08683128238C01092EA2335C063
S1130A2089818981823309F02FCF06C08981898128
S1130A30833309F041CF06C089818981843309F069
S1130A4053CF06C089818981863309F061CF06C0FE
S1130A5089818981873309F06FCF06C089818981B3
S1130A60883309F07DCF06C089818981893309F0F3
S1130A708BCF06C089818981813409F095CF03C069
S1130A8089818981B1CF8981AFCF0F90DF91CF91D7
S1130A90FF91EF91BF91AF919F918F917F916F9152
S1130AA05F914F913F912F910F900BBE0F900FBE0E
S1130AB00F901F9018951F920F920FB60F9211244A
S1130AC00F900FBE0F901F9018951F920F920FB6A4
S1130AD00F9211240BB60F928F939F93EF93FF9372
S1130AE080910221882349F180910321813079F09A
S1130AF028F08230D1F08330E1F024C0E2E0F1E26A
S1130B0010821382128280E48093A6061BC0809117
S1130B100521873018F01092032114C090E49093BB
S1130B20A7068F5F809305210DC080E48093A706FC
S1130B3009C080E48093A50605C01092032180E4D7
S1130B408093A606FF91EF919F918F910F900BBE1A
S1130B500F900FBE0F901F9018951F920F920FB613
S1130B600F9211240BB60F928F939F93AF93BF9361
S1130B70EF93FF931092EA23ECEFF3E280819181EB
S1130B80A281B3810196A11DB11D80839183A283AB
S1130B90B383FF91EF91BF91AF919F918F910F908C
S1130BA00BBE0F900FBE0F901F9018951F920F92BF
S1130BB00FB60F9211240BB60F922F933F934F93BE
S1130BC05F936F937F938F939F93AF93BF93EF93B1
S1130BD0FF931092E7238091EB23882341F18091C6
S1130BE0002490910124A0910224B09103248F3910
S1130BF026E8920721E0A207B10560F40196A11D41
S1130C00B11D8093002490930124A0930224B093F7
S1130C10032408C01092002410920124109202248C
S1130C201092032410927C2310927D2388DDFF917F
S1130C30EF91BF91AF919F918F917F916F915F9150
S1130C404F913F912F910F900BBE0F900FBE0F90BD
S1130C501F9018951092E4231092E523A8EEB3E2B6
S1130C601C9211961C921197E8E4F4E286E896E24D
S1130C7080839183A283B38380E893E28483958302
S1130C8088E193E28683978386E594E2828793875B
S1130C9088E094E2848795870895CF93DF9300D00A
S1130CA0CDB7DEB780E20E94C61C0E94C91C0E9418
S1130CB0CA1C0E94551D0E94731D0E94891D88E252
S1130CC090E00E94CB1C8AEF90E00E94EC1C8AE02A
S1130CD090E00E940D1D8AEF90E00E942E1DBADF65
S1130CE00E94E41D0E94F01D80E012DB80E0BFDA68
S1130CF080E0EDDA898381E00BDB81E0B8DA81E022
S1130D00E6DA8A83F6DA0E940F190E94231A8B838B
S1130D1087E08093A2002396CDBFDEBFDF91CF9101
S1130D200895E0EAF6E084E085832FEF37E893E165
S1130D30215030409040E1F700C0000086832FEF3F
S1130D4033EC99E0215030409040E1F700C00000BE
S1130D5085832FEF37E893E1215030409040E1F74D
S1130D6000C0000086832FEF33EC89E0215030402F
S1130D708040E1F700C000000895E8EEF3E2148239
S1130D8081E083831092E72388DF7894CADF6AECDA
S1130D9076E280E00E9463150E949B2AF12C412C8C
S1130DA0512C320100EA16E06894CC24C4F80F2ECA
S1130DB0F6EE8F2EF3E29F2EF02D6894332435F84F
S1130DC0C8EED3E20F2EFCEFAF2EF3E2BF2EF02DD0
S1130DD00F2EF8E62F2EF02D6894EE24E2F8DD2491
S1130DE0D3942AE02A95F1F700C080E02ADB811130
S1130DF057C0F801C78286E896E20E94272B88E450
S1130E0094E234DBF2E0FF1508F049C088E094E294
S1130E10D1DB88E494E20E94FE1DF40180818111FB
S1130E2009C0E8E1F3E2A0E8B3E2822D01900D925B
S1130E308A95E1F7F80135828D81882341F1F50126
S1130E4080859185A285B3850196A11DB11D8087FA
S1130E509187A287B38766E071E288E193E20E94FA
S1130E60D32A823C9140B8F022E0F801258324E89B
S1130E7036E24CEE51E066E071E284E694E20E94D0
S1130E809A161092062122E0F801268304C084E613
S1130E9094E20E94E918F8013682F12C01C0F3941F
S1130EA0CE010E94A32A8F818823B1F00E948C2A4C
S1130EB00E94812A0E94692A0E94712A0E94752A2E
S1130EC00E94932A0E949F2A19861A861B861C86D2
S1130ED0F801D582E68285CF8D81882309F481CFFC
S1130EE08E81811103C00E947D2A7BCF89859A85DA
S1130EF0AB85BC85892B8A2B8B2B09F472CFF5012A
S1130F0080819181A281B38184159505A605B705D9
S1130F1008F467CF88858F5F8887823021F128F4B1
S1130F20882359F0813069F064C0843009F440C0EA
S1130F3048F1853009F449C05CC0F801E582D886DF
S1130F4050CF0E94932A0E948C2A0E949F2AF50166
S1130F504080518062807380F8EE4F0EF3E05F1E94
S1130F60611C711C3ECF0E94972A0E945D2AF501E4
S1130F704080518062807380F8EC4F0E511C611CDC
S1130F80711C2FCF0E94612A0E94652A0E946D2A3B
S1130F900E94852A49845A846B847C84F50180816B
S1130FA09181A281B381480E591E6A1E7B1E19CFFE
S1130FB00E94712AF5014080518062807380FAE0BA
S1130FC04F0E511C611C711C0CCF0E94692A0E9497
S1130FD0812A0E948C2A0E94752AF5014080518042
S1130FE062807380F8EE4F0EF3E05F1E611C711C8B
S1130FF0F8CE0E94792A0E949B2A1E821D8219869D
S11310001A861B861C861886F801E682EACE4115EC
S1131010510551F0A62FB72FFC01480F591F9D9180
S11310209193E417F507D9F708950F931F93DC0103
S1131030FB01938D692F70E0762F6627828D682BD4
S113104080E090E02C91233079F4058910E0102F92
S113105000272489022B20E030E098011127002783
S1131060602B712B822B932B1F910F9108950F935B
S1131070CF93DF93EC019A01AB01BC016A5C7F4F13
S113108001E089810E94521B811151C0FE01EB5C79
S1131090FD4F808190E0982F882731972081822B03
S11310A085359A4A09F045C0E55CF14020813197C5
S11310B0808190E0A0E0B0E0DC0199278827B22B82
S11310C032972081822B3196408150E0542F44275F
S11310D060E070E0842B952BA62BB72BBB278634BE
S11310E09144A445B10539F17E96808131974081C0
S11310F050E060E070E0BA0155274427782B32971E
S11311008081482BC757DF4F888190E0982F88272C
S1131110A0E0B0E0482B592B6A2B7B2B772781E08A
S1131120463451446445710539F480E005C083E0D8
S113113003C082E001C080E0DF91CF910F91089558
S11311408F929F92AF92BF92CF92DF92EF92FF92D3
S11311500F93CF93DF93FC012481222309F447C02A
S1131160EC01C2A8D3A8E4A8F5A84C01F6E38F0EBD
S1131170911C01E0A7019601B40189810E945F1BC3
S1131180811137C01C828EA19FA1A8A5B9A5C8163C
S1131190D906EA06FB0678F14E8D5F8D68A179A128
S11311A0840F951FA61FB71FC816D906EA06FB06AB
S11311B020F5AB80B12C82E0A816B10400F18E8D2D
S11311C09F8DA8A1B9A1C80ED91EEA1EFB1E01E07D
S11311D0A7019601B40189810E945F1BE1E0AE1A68
S11311E0B108F1E0AF16B10451F780E009C080E026
S11311F007C081E005C080E003C080E001C080E05A
S1131200DF91CF910F91FF90EF90DF90CF90BF903F
S1131210AF909F908F900895CF92DF92EF92FF92BC
S11312200F931F93CF93DF93FC01C2A8D3A8E4A824
S1131230F5A8C416D506E606F706B9F06A017B01DF
S1131240EC017EDF182F811112C001E0A701960185
S1131250BE016A5C7F4F89810E94521B811109C0C3
S1131260CAAADBAAECAAFDAA05C010E003C011E0DB
S113127001C011E0812FDF91CF911F910F91FF9059
S1131280EF90DF90CF9008950097C9F0DC01ED91C5
S1131290FC9111973097A9F020812223A1F0268197
S11312A0378112968D919C9113972817390769F409
S11312B081810E944B1B80FD0AC080E0089589E073
S11312C0089589E0089589E0089589E0089583E008
S11312D008952F923F924F925F926F927F928F92D6
S11312E09F92AF92BF92CF92DF92EF92FF920F93B1
S11312F01F93CF93DF93CDB7DEB72E97CDBFDEBF5D
S1131300DC01ED91FC911197208130E020533109EB
S11313102A30310538F451815A3321F43296ED9351
S1131320FC9303C020915F2430E0FB011082118202
S1131330232B09F02EC320916224309163242D873E
S11313403E872115310509F426C3142F20833183E8
S1131350D9018C91882369F011968C910E944B1BC2
S113136080FD07C0112309F418C382FF18C38AE063
S1131370B7C3ED85FE851082118280E00E94431B75
S113138080FD0FC3112311F082FD0DC340E050E036
S1131390BA018D859E856BDE8130B9F5ED85FE85BC
S11313A0E850FE4F8081882309F4FFC2ED85FE8555
S11313B0E150FE4F8081ED85FE85E250FE4FC080F6
S11313C0D12CE12CF12C7601DD24CC24F82AED85F6
S11313D0FE85E450FE4F8081A7019601282BDA0197
S11313E0C901ED85FE85E350FE4FC080D12CDC2C75
S11313F0CC24E12CF12CC82AD92AEA2AFB2AB701E9
S1131400A6018D859E8533DE03C0C12CD12C7601C7
S1131410833009F4CCC28111CCC2ED85FE85EE5B2C
S1131420FF4F808190E0982F8827ED85FE85EF5B44
S1131430FF4F2081822B8115924009F0BCC2ED85BB
S1131440FE85E35BFF4F4080512C542C4424ED85F2
S1131450FE85E45BFF4F8081482A612C712C411486
S113146051046104710449F5ED85FE85E35AFF4F8B
S11314708081ED85FE85E45AFF4F4080512C612C1C
S1131480712C320155244424782AED85FE85E65AD0
S1131490FF4F8081A3019201282BDA01C901ED8558
S11314A0FE85E55AFF4F4080512C542C4424612C76
S11314B0712C482A592A6A2A7B2AAD85BE855E96F4
S11314C04D925D926D927C929197FD01EA5BFF4F84
S11314D0A081ED85FE85A3838FEF8A0F823008F00B
S11314E06CC2ED5BFF4F1081ED85FE8512831123E5
S11314F009F465C2812F90E09C01215031098223B7
S11315009323892B09F05DC2E85BFF4F2080312CC7
S1131510322C2224ED85FE85E95BFF4F8081282A49
S1131520ED85FE8520863186C1018F709927892B30
S113153009F049C2E65BFF4F8080912C982C8824E7
S1131540ED85FE85E75BFF4F8081882AA12CB12CB5
S113155081149104A104B10431F5ED85FE85E75AA7
S1131560FF4F8081ED85FE85E85AFF4F8080912CE6
S1131570A12CB12C540199248824B82AED85FE8528
S1131580EA5AFF4F8081882AED85FE85E95AFF4F8C
S1131590808190E0982F8827AC0160E070E0842A75
S11315A0952AA62AB72AED85FE85EB5BFF4FE081DD
S11315B0F0E03E2F22278D859E858C5B9F4FFC019A
S11315C08081F901E82B309709F4FFC1B0E0A30151
S11315D092010E946E2E69877A878B879C87AF0160
S11315E09A0140E050E02D833E834F835887C10128
S11315F0929582958F7089279F708927BA01A901D6
S1131600480F591F611D711D89859A85AB85BC855D
S1131610840F951FA61FB71F89839A83AB83BC834E
S113162088169906AA06BB0608F4D1C1C501B401FF
S113163029813A814B815C81621B730B840B950B6E
S1131640212F30E040E050E00E94212EDA01C90150
S1131650211531054105510509F4BBC1263F6FE051
S113166036074105510510F012E001C011E0863F34
S11316709F4FA105B10508F0B6C149015A01F2E036
S11316808F0E911CA11CB11CAD85BE855A968D92FE
S11316909D92AD92BC925D97FD01C2A2D3A2E4A239
S11316A0F5A28D819E81AF81B8858C0D9D1DAE1DE7
S11316B0BF1D86A397A3A0A7B1A749815A816B81B7
S11316C07C814C0D5D1D6E1D7F1D46A757A760AB29
S11316D071AB133009F04FC0232809F07CC1ED85AC
S11316E0FE85EB59FF4F8081ED85FE85EC59FF4F58
S11316F0408150E060E070E0BA0155274427782B20
S1131700ED85FE85EE59FF4F8081482BED85FE85E2
S1131710ED59FF4F8081282F30E0922F8827A0E0D9
S1131720B0E0482B592B6A2B7B2BAD85BE859A964E
S11317304D935D936D937C939D97880C991CAA1C83
S1131740BB1C880C991CAA1CBB1CBFEF8B0EB1E000
S11317509B1EA11CB11C072E79E0B694A794979404
S113176087947A95D1F7702D481459046A047B0440
S113177008F433C186C1232809F431C129853A8587
S11317804B855C85820F931FA41FB51FED85FE85D5
S113179082A793A7A4A7B5A7123029F4880C991C93
S11317A0AA1CBB1C58C1A3E0B0E0A50194010E948F
S11317B06E2EDC01CB01B695A79597958795F1E040
S11317C08F229924AA24BB24880E991EAA1EBB1E0C
S11317D042C1ED85FE85EB5CFD4F808190E0982F42
S11317E08827ED85FE85EC5CFD4F2081822B8535B5
S11317F09A4A09F0ABC0AD85BE85D9962C91D9978C
S1131800D8968C9190E0A0E0B0E0DC01992788277D
S1131810B22BED85FE8526A9AC01BD01422B27A97B
S113182030E0922F8827A0E0B0E0842B952BA62BE4
S1131830B72B82359245A146B14409F089C0ED85A4
S1131840FE85E35EFD4F2081ED85FE85E45EFD4F60
S1131850808190E0A0E0B0E0DC0199278827B22BDA
S1131860ED85FE85E65EFD4F2081AC01BD01422B76
S1131870ED85FE85E55EFD4F208130E0922F8827BF
S1131880A0E0B0E0842B952BA62BB72B8237924790
S1131890A144B14609F05EC0ED85FE85EB5DFD4FC8
S11318A02081ED85FE85EC5DFD4F808190E0A0E018
S11318B0B0E0DC0199278827B22BED85FE85EE5D2B
S11318C0FD4F2081AC01BD01422BED85FE85ED5D10
S11318D0FD4F208130E0922F8827A0E0B0E0842BD8
S11318E0952BA62BB72BED85FE8582879387A4873E
S11318F0B587EF5DFD4F2081ED85FE85E05EFD4FF0
S1131900808190E0A0E0B0E0DC0199278827B22B29
S1131910ED85FE85E25EFD4F2081AC01BD01422BC9
S1131920ED85FE85E15EFD4F208130E0922F882712
S1131930A0E0B0E0842B952BA62BB72BED85FE857C
S113194086879787A08BB18B13E005C013E003C093
S113195013E001C013E0AD85BE851C938091602423
S1131960909161240196809360249093612416964B
S11319708D939C931797FD0112AA13AA14AA15AA72
S1131980148256961D921D921D921C92599780E0C6
S1131990A7C08BE0A5C08CE0A3C080E0A1C080E01C
S11319A09FC083E09DC08AE09BC08DE099C081E028
S11319B097C08DE095C08DE093C08DE091C08DE01F
S11319C08FC08DE08DC08DE08BC08DE089C08DE02F
S11319D087C08DE085C08DE083C08DE081C08DE03F
S11319E07FC08DE07DC049015A01B2E08B0E911C8D
S11319F0A11CB11CED85FE85828E938EA48EB58EBE
S1131A00C2A2D3A2E4A2F5A28D819E81AF81B88542
S1131A108C0D9D1DAE1DBF1D86A397A3A0A7B1A7C6
S1131A2049815A816B817C814C0D5D1D6E1D7F1D2A
S1131A3046A757A760AB71AB4FCE8FEF9FEFDC018A
S1131A40ED85FE8586879787A08BB18B12861386DA
S1131A501486158680CFBFEF8B0EB1E09B1EA11CB0
S1131A60B11C072E79E0B694A794979487947A953D
S1131A70D1F7702D481459046A047B0408F4B1CFDB
S1131A80DCCF8FEF9FEFDC01ED85FE85868797879E
S1131A90A08BB18BDF0112861386148615861582FE
S1131AA0E959FF4F808190E0982F88273197208152
S1131AB0822BA7019601280F391F411D511DFD01DD
S1131AC0228B338B448B558B01E0BD016A5C7F4FC5
S1131AD081810E94521B882309F47BCE13E03BCF03
S1131AE02E96CDBFDEBFDF91CF911F910F91FF9056
S1131AF0EF90DF90CF90BF90AF909F908F907F90AA
S1131B006F905F904F903F902F9008950F93CF93D5
S1131B10DF93EC0115DB982F81115AC08881833043
S1131B2009F04CC08D81882309F448C01AAA1BAA65
S1131B301CAA1DAABE016A5C7F4FFB01CE018A5C10
S1131B409D4F1192E817F907E1F785E5FE01EC5C7A
S1131B50FD4F80838AEA3196808382E58EAB8FAB1A
S1131B6081E688AF91E499AF22E77B972083319691
S1131B70208331969083319680833E852F85988982
S1131B8089893196308331962083319690833196BA
S1131B9080833A852B859C858D853196308331965B
S1131BA0208331969083319680832A893B894C899E
S1131BB05D8901E089810E945F1B1D8240E050E045
S1131BC060E089810E94951B91E0811101C090E041
S1131BD0892FDF91CF910F910895CF92DF92EF92E9
S1131BE0FF92FC019A01AB012250310941095109CC
S1131BF0C28CD38CE48CF58C82E0C81AD108E1083D
S1131C00F1082C153D054E055F0568F4A281B0E08E
S1131C100E946E2EC6A4D7A4E0A8F1A86C0D7D1D69
S1131C208E1D9F1D03C060E070E0CB01FF90EF901C
S1131C30DF90CF900895AF92BF92CF92DF92EF9250
S1131C40FF921F93CF93DF93EC016A017B01423033
S1131C5051056105710508F4C2C08A8D9B8DAC8D58
S1131C60BD8D481759076A077B0708F0BDC08881F6
S1131C70823009F44AC0833009F46BC0813009F022
S1131C80B8C05A01B694A794A40EB51EC501892FF5
S1131C90992786954EA15FA168A579A5480F591F7C
S1131CA0611D711DCE01B8DA8111A7C0F501F17073
S1131CB0EC0FFD1F16A98FEFA81AB80AC501892FCA
S1131CC0992786954EA15FA168A579A5480F591F4C
S1131CD0611D711DCE01A0DA811193C081E0B8228B
S1131CE0CA0DDB1D8EA9612F70E0782BC0FE09C0E0
S1131CF0729562956F7067277F70672780E090E028
S1131D008BC07F7080E090E087C0452F562F672FEF
S1131D1077278EA19FA1A8A5B9A5480F591F6A1FAF
S1131D207B1FCE0179DA811170C0CC0CDD1CEE1C56
S1131D30FF1CE894C0F881E0D822EE24FF24FE01C1
S1131D40EC0DFD1D66A987A970E0782B80E090E07A
S1131D5063C08EA19FA1A8A5B9A5689416F876952D
S1131D606795579547951694D1F7480F591F6A1FE1
S1131D707B1FCE0151DA81114CC0CC0CDD1CEE1C52
S1131D80FF1CCC0CDD1CEE1CFF1C8CEFC82281E078
S1131D90D822EE24FF24F601F696EC0FFD1F2281D3
S1131DA06381862F90E0A0E0B0E0B82FAA2799279E
S1131DB08827AC01BD01622B818190E0982F882790
S1131DC0A0E0B0E0842B952BA62BB72BFE01EC0DE5
S1131DD0FD1D26A9822BBC01CD019F701DC061E0B1
S1131DE070E080E090E018C061E070E080E090E096
S1131DF013C06FEF7FEFCB010FC06FEF7FEFCB010D
S1131E000BC06FEF7FEFCB0107C06FEF7FEFCB010C
S1131E1003C06FEF7FEFCB01DF91CF911F91FF9054
S1131E20EF90DF90CF90BF90AF900895EF92FF9224
S1131E300F931F93CF93DF93EC018B016C837D830E
S1131E404E815F8168857985413051056105710551
S1131E5009F491C0E881F981828D938DA48DB58DAB
S1131E60481759076A077B0708F087C041155105D1
S1131E706105710551F58081833049F442A553A56C
S1131E8064A575A54115510561057105F1F41A861E
S1131E901B861C861D86808591850817190708F006
S1131EA06EC082A593A5A4A5B5A5980132952295E7
S1131EB02F7023273F702327820F931FA11DB11D6D
S1131EC08E879F87A88BB98B42C0E28080E1E89E11
S1131ED0700111240E151F0510F188819981ABDE64
S1131EE0AB01BC014F3F8FEF58076807780709F42F
S1131EF048C0423051056105710508F444C0E881C9
S1131F00F981828D938DA48DB58D481759076A0781
S1131F107B07D8F50E191F090E151F05F0F64A8721
S1131F205B876C877D878881998157DE980132951C
S1131F3022952F7023273F702327DC01CB01820FCA
S1131F40931FA11DB11D8E879F87A88BB98B0F701E
S1131F501127000F111F02951295107F1027007F83
S1131F6010270A5C1F4F88819981080F191F0A8B5B
S1131F701B8B80E00BC082E009C082E007C082E0D6
S1131F8005C081E003C082E001C082E0DF91CF910F
S1131F901F910F91FF90EF9008954F925F926F926F
S1131FA07F92AF92BF92CF92DF92EF92FF920F9304
S1131FB01F93CF93DF93EC016A017B012801390160
S1131FC0423051056105710508F4DAC08A8D9B8D94
S1131FD0AC8DBD8D481759076A077B0708F0D2C03E
S1131FE08881823009F460C0833009F481C0813073
S1131FF009F0BEC05A01B694A794A40EB51EC5013B
S1132000892F992786954EA15FA168A579A5480FC8
S1132010591F611D711DCE01FFD8182F8111ADC04C
S1132020C5019170C0FE22C0FE01E80FF91F86A908
S1132030282F2F70A0E14A9EC0011124822B86AB69
S1132040BFEFAB1ABB0A81E08C83C501892F9927A6
S113205086954EA15FA168A579A5480F591F611DFA
S1132060711DCE01D9D8811185C08EC0FE01E80F43
S1132070F91F46AA3FEFA31AB30A81E08C83C50176
S1132080892F992786954EA15FA168A579A5480F48
S1132090591F611D711DCE01BFD881116DC07FC054
S11320A0EC0FFD1F46AA69C0452F562F672F7727CF
S11320B08EA19FA1A8A5B9A5480F591F6A1F7B1F10
S11320C0CE01AAD8182F811158C0CC0CDD1CEE1CEF
S11320D0FF1CE894C0F881E0D822EE24FF24FE011E
S11320E0EC0DFD1D46AAFE01EC0DFD1D57AA45C0D1
S11320F08EA19FA1A8A5B9A5689416F876956795B1
S1132100579547951694D1F7480F591F6A1F7B1F9F
S1132110CE0182D8182F811130C0CC0CDD1CEE1CEE
S1132120FF1CCC0CDD1CEE1CFF1CACEFCA22A1E092
S1132130DA22EE24FF24F601F696EC0FFD1F8381CC
S113214090E0A0E0B0E0B82FAA2799278827CC0E0A
S1132150DD1E88279927AA27B07F482A592A6A2A88
S11321607B2AD601D6964C9251826282738205C034
S113217012E003C0182F01C0182F81E08C831CC00B
S113218012E01AC012E018C0F501F170689413F857
S113219076946794579447941694D1F781CFF501B8
S11321A0F170DE01AE0FBF1FD6969C91907F852DF6
S11321B08F70492E482A74CF812FDF91CF911F91C0
S11321C00F91FF90EF90DF90CF90BF90AF907F90F2
S11321D06F905F904F9008954F925F926F927F92AD
S11321E08F929F92AF92BF92CF92DF92EF92FF9223
S11321F00F931F93CF93DF93EC012A013B01411509
S1132200510561057105B9F48A849B84AC84BD844D
S113221081149104A104B10421F18A8D9B8DAC8DAC
S1132220BD8D88169906AA06BB06F8F0812C912C60
S1132230540183941AC0FFDC6B017C016230710588
S11322408105910508F489C08A8D9B8DAC8DBD8D67
S1132250C816D906EA06FB0608F484C053014201F5
S113226004C0812C912C54018394750164018FEF77
S1132270C81AD80AE80AF80A8A8D9B8DAC8DBD8DE0
S1132280C816D906EA06FB0660F022E0821691041D
S1132290A104B10408F46BC0C12CD12C760168945C
S11322A0C1F8B701A601CE01C6DC6115710581052F
S11322B0910599F06F3F2FEF72078207920709F497
S11322C05BC0613071058105910509F45AC0C814D9
S11322D0D904EA04FB0459F659C08C2C9D2CAE2C6D
S11322E0BF2C0FEF1FEF2FEF3FE0B701A601CE0188
S11322F054DE81112BC0411451046104710451F066
S11323000C2D1D2D2E2D3F2DB301A201CE0145DE36
S113231081111CC08A869B86AC86BD868E859F856E
S1132320A889B9898F3F2FEF9207A207B20799F1C5
S11323300197A109B1098E879F87A88BB98B81E08A
S11323408D836C2D7D2D8E2D9F2D2EC0813041F1DE
S113235061E070E080E090E027C061E070E080E040
S113236090E022C06C2D7D2D8E2D9F2D1DC060E030
S113237070E080E090E018C06FEF7FEF8FEF9FEF89
S113238013C061E070E080E090E00EC060E070E0B7
S113239080E090E009C06C2D7D2D8E2D9F2D04C012
S11323A06FEF7FEF8FEF9FEFDF91CF911F910F9131
S11323B0FF90EF90DF90CF90BF90AF909F908F9061
S11323C07F906F905F904F9008958F929F92AF92FD
S11323D0BF92CF92DF92EF92FF920F931F93CF930E
S11323E0DF93DC011496CD91DC911597219609F4C5
S11323F0FEC01E968D909D90AD90BC905197811417
S11324009104A104B10409F4F4C07B018C016E01B0
S1132410BFE0CB22DD24C114D10409F0CCC0EFEF1E
S11324208E1A9E0AAE0ABE0ADC011E968D929D92F9
S1132430AD92BC9251971A964D915D916D917C919C
S11324401D97411551056105710549F4ED91FC9104
S113245080859185C817D90708F0CDC0ACC0DC01D0
S1132460ED91FC91228130E021503109CE01929509
S113247082958F7089279F70892728233923232BDE
S113248009F099C0CF01D7DB4B015C0162307105C3
S11324908105910508F4B1C06F3F7F4F8F4F9F4F67
S11324A009F4ADC0D801ED91FC91828D938DA48D7A
S11324B0B58D88169906AA06BB0608F46BC0EF28EA
S11324C009F49FC0D8011A964D915D916D917C914C
S11324D01D97CF0181DE4B015C01611571058105FA
S11324E0910509F490C0613071058105910509F4E5
S11324F08CC06F3F7F4F8F4F9F4F09F488C0D80126
S11325008D919C910E94A008811183C0F801808163
S11325109181FC01F6968A5C9D4F1192E817F907A8
S1132520E1F7D801ED90FC90B501A401C70155DB9A
S1132530F70162AB73AB84AB95ABF12CEE24E3945F
S113254017C0E482D8018D919C910E94A00881114A
S113255062C0D801ED91FC9182A993A9A4A9B5A95F
S11325600196A11DB11D82AB93ABA4ABB5ABF394A3
S1132570D801ED91FC918281F81618F382A993A9F0
S1132580A4A9B5A98F199109A109B10982AB93AB8B
S1132590A4ABB5ABF80182869386A486B586B50153
S11325A0A4018081918119DBD8011E966D937D93DE
S11325B08D939C935197F801C483D583CC0CDD1C77
S11325C0CC0CDD1CCC0CDD1CCC0CDD1CCC0CDD1CC3
S11325D0F6E3CF0ED11CD8018D919C911197C80EB2
S11325E0D91E5296CD92DC92539780E015C084E0B8
S11325F013C084E011C084E00FC082E00DC081E00C
S11326000BC084E009C087E007C082E005C081E018
S113261003C081E001C081E0DF91CF911F910F9150
S1132620FF90EF90DF90CF90BF90AF909F908F90EE
S113263008953F924F925F926F927F928F929F92F2
S1132640AF92BF92CF92DF92EF92FF920F931F93BC
S1132650CF93DF93EC014B01DB018C918F3211F0AE
S11326608C3541F4BFEF8B1A9B0A1E821F82188699
S113267019860AC0E881F98186899789A08DB18D70
S11326808E839F83A887B987F4018081803238F4D0
S113269060E070E0CE01CADB1A8A1B8A41C110E2F5
S11326A00F2EFEE27F2EF02D0F2EF5E06F2EF02D73
S11326B00F2EF3E74F2EF0E25F2EF02DD401FD0133
S11326C08D918F32E1F38C35D1F3EC88FD88D701FD
S11326D0C7010B961D93A817B907E1F780818E32C5
S11326E059F0BF01C12CD12C20E030E06894AA2419
S11326F0A3F8B12C312C1DC0D7017C9281818E327C
S113270049F411967C9282818E3209F479C023E0D7
S113271030E002C022E030E08F3209F4C4C08C35CE
S113272009F4C1C0813208F0E1C0B8C0F701838761
S1132730DFC02F5F3F4FDB010D91BD01013208F473
S1132740CBC00F3209F4CDC00C3509F4CAC00E3227
S113275009F4AEC0CA14DB0408F0C8C00CC0330CC2
S1132760330C6894CC24C3F8D12C0F2EFBE0AF2E8D
S1132770B12CF02DDECF00230CF0A0C0B32DB3603C
S11327803B2EA02FB0E0AF5FBF4D0C9197C08D9151
S1132790882309F49BC090E048175907C1F730C05B
S11327A0832D8260382E08C08FE9800F8A3120F48F
S11327B0932D9160392E0052D701AC0DBD1D0C93A1
S11327C0D60111966D01B5CFCD2809F48FC0F7015C
S11327D09081953E09F46082F8E0AF16B10411F4DB
S11327E0330C330C932D9370913009F48061932D45
S11327F09C70943009F48860D7011B968C9378C040
S113280086E08EC04E855F85688979898881998143
S11328100E940C09811179C06A897B89FB0190812E
S1132820992309F479C0938593FD0FC04C895D8980
S1132830DA019B01255F3F4F04C0E217F30709F457
S11328405FC0F1909D91F916C1F360E070E0CE0194
S1132850BCDD8823B9F259C095FF0AC01E821F82CD
S1132860188619861A8A1B8A92FF28CF80E058C0DE
S113287092FD10C085E054C0DB011B968C9184FF4F
S11328800BC0888199810E9415086E837F83888795
S1132890998714CF84E044C085E042C04F01820E82
S11328A0931E84E243CF4F01820E931E812F3ECFAD
S11328B0B8E0AB16B10409F452CFA2CF402F50E0D8
S11328C04232510509F49CCFD20161CF8FEB800FC6
S11328D08A3108F465CF68CF4F01820E931E84E0DD
S11328E073CF4F01820E931E80E06ECF86E018C036
S11328F060E070E0CE019ADA882309F483CF05C042
S1132900FA01938592FFB8CF0BC0EC89FD899385BA
S1132910843009F4A1CF04C0EC89FD8993859CCF50
S1132920DF91CF911F910F91FF90EF90DF90CF90A7
S1132930BF90AF909F908F907F906F905F904F90DB
S11329403F9008951F93CF93DF93EC0160E070E014
S11329506DDA182F81113AC04E855F8568897989AF
S1132960888199810E940C09182F81112FC0EA894E
S1132970FB898081853EF9F08823E9F061E070E00D
S1132980CE0123DD182F882339F320C0EA89FB897F
S1132990CF0180961192E817F907E1F76C897D89D8
S11329A04BE050E08A899B890E940708E881F981FD
S11329B081E084830BC04E855F856889798988812D
S11329C099810E940C09182F882301F3812FDF912C
S11329D0CF911F9108957F928F929F92AF92BF9251
S11329E0CF92DF92EF92FF920F931F93CF93DF93D7
S11329F0EC016A017B01423051056105710508F45F
S1132A004BC08A8D9B8DAC8DBD8D481759076A07C5
S1132A107B0708F043C07724739433C0B701A60141
S1132A20CE0109D94B015C01672B682B692BC1F1DD
S1132A3081E088169104A104B104A1F12FEF82165C
S1132A409206A206B20681F100E010E09801B701F7
S1132A50A601CE01A2DA811128C08E859F85A8899E
S1132A60B9898F3F2FEF9207A207B20741F0019671
S1132A70A11DB11D8E879F87A88BB98B7D8275019F
S1132A8064018A8D9B8DAC8DBD8DC816D906EA066E
S1132A90FB0620F280E009C082E007C082E005C0A6
S1132AA080E003C082E001C081E0DF91CF911F91FB
S1132AB00F91FF90EF90DF90CF90BF90AF909F90D9
S1132AC08F907F900895811112C0E0916224F0915B
S1132AD06324309709F010826115710511F0FB0130
S1132AE01082609362247093632480E008958BE0E5
S1132AF008953F924F925F926F927F928F929F922E
S1132B00AF92BF92CF92DF92EF92FF920F931F93F7
S1132B10CF93DF93CDB7DEB7A497CDBFDEBF6BA352
S1132B207CA3009709F4C7C0D42E8C01FC01108249
S1132B3011824E71BE016F5F7F4FCE0183960E945A
S1132B4069098111E2C0FD2DFF713F2ECE01479628
S1132B508D8B9E8B6BA17CA146976BDDEB88FC88EB
S1132B608111ABC0E114F10409F0B1C0ABC08430F1
S1132B7009F0BDC0CE010196E5DE232D2860322E7A
S1132B80EB88FC88882341F0AAC0F7018385817112
S1132B9009F0B8C0D2FCB8C033FEA5C09ED6F70178
S1132BA066877787808B918B1386148E158E168E8D
S1132BB0178EC980DA80B701C6010E9415082B015F
S1132BC03C01F701128E138E148A158A81E0F601F6
S1132BD08483411451046104710409F484C082A8FB
S1132BE093A8A4A8B5A8B301A201C601F4DE81117B
S1132BF076C089819A81F1E04F1A51086108710801
S1132C00FC014286538664867586B501A4010E9440
S1132C100C09882331F079C0D1FE65C080FD5CC009
S1132C2062C0F32DF0623F2EE981FA8182A993A953
S1132C30A4A9B5A9F801828F938FA48FB58FE68ECE
S1132C40F78EF8013482C980DA80B701C6010E9488
S1132C501508F80166877787808B918BF701278D9C
S1132C60868D90E0A0E0B0E0DC0199278827B22BA4
S1132C70248D822B458D50E0542F442760E070E072
S1132C80842B952BA62BB72BF80182879387A487D7
S1132C90B5871682178210861186168A178A108EB7
S1132CA0118EC082D182F60186819781F8018283D8
S1132CB0938380E02AC089E028C04D2D4C7109F02F
S1132CC056CF0DC04D2D4C7189F486E008C08D2D72
S1132CD08C7109F05ACF11C087E001C084E08823C9
S1132CE009F4AFCF12C033FC9CCF9ECF86E0F32D06
S1132CF0F8603F2EEB88FC88F2CFF701838584FDD2
S1132D00EDCF8ACF87E001C088E0A496CDBFDEBFB7
S1132D10DF91CF911F910F91FF90EF90DF90CF90B3
S1132D20BF90AF909F908F907F906F905F904F90E7
S1132D303F9008952F923F924F925F926F927F92AD
S1132D408F929F92AF92BF92CF92DF92EF92FF92B7
S1132D500F931F93CF93DF9300D01F92CDB7DEB7AD
S1132D608B839C834B016A015901D9011D921C92EA
S1132D700E9444098111B9C1EB81FC8184818823BB
S1132D800CF4B0C181FFB0C182859385A485B5855B
S1132D90AC01BD014C0D5D1D611D711D4817590726
S1132DA06A077B0708F481C1C114D10409F47DC109
S1132DB0B096E983FA83EB81FC8186819781A085B3
S1132DC0B185AC01BD01517066277727452B462B91
S1132DD0472B09F029C120813181F9011281115059
S1132DE0AC01BD01032E39E076956795579547955B
S1132DF03A95D1F7302D142309F04FC0892B8A2B33
S1132E008B2BC9F4AB81BC811E966D917D918D9104
S1132E109C9151976115710581059105E1F440E09C
S1132E2050E0BA01C901D8D9EB81FC816687778764
S1132E30808B918B0AC0AB81BC8152964D915D9180
S1132E406D917C915597C901C7D9611571058105AB
S1132E50910509F42AC1613071058105910539F4A0
S1132E60EB81FC8184818068848382E03EC16F3F72
S1132E70FFEF7F078F079F0751F4AB81BC81149646
S1132E808C911497806814968C9381E02EC1EB8109
S1132E90FC81628B738B848B958BAB81BC81149684
S1132EA08C91149786FF1EC056962D913D914D919D
S1132EB05C915997ED91FC9101E069817A8181815E
S1132EC0FED3882339F0EB81FC818481806884837C
S1132ED081E00BC1AB81BC8114968C9114978F7BDC
S1132EE014968C93EB81FC81208031804289538934
S1132EF064897589C1010E94ED0D61157105810513
S1132F00910551F4AB81BC8114968C91149780681F
S1132F1014968C9382E0E9C02B013C01410E511CB4
S1132F20611C711C7601EF2CFF24E694E114F1047A
S1132F3009F448C0F1014281242F30E0C701810F18
S1132F40911D2817390718F47901E11AF1080E2D9B
S1132F50A3019201B401D10111968C91B0D38823BD
S1132F6039F0EB81FC8184818068848381E0BDC079
S1132F70EB81FC8186899789A08DB18D841995098F
S1132F80A609B709A70160E070E084179507A607B2
S1132F90B707A0F4982F8827990FB401680F791FF9
S1132FA040E052E089819A810E940708AB81BC818C
S1132FB014968C9114978F7B14968C93FE2CEE248C
S1132FC0FF0C57C0EB81FC8186899789A08DB18D58
S1132FD084159505A605B705F9F0468157816085E6
S1132FE0718582859385A485B585481759076A0735
S1132FF07B0790F401E0A301920169817A81D101F8
S113300011968C914FD3882339F0EB81FC81848114
S11330108068848381E069C0AB81BC8156964D92FF
S11330205D926D927C925997EB81FC8186819781A8
S1133030A085B185AC01517020E032E0241B350B32
S113304076012C153D0508F479019170AA27BB2758
S11330508096A701B4012B813C81820F931F0E94AB
S11330600708AB81BC8114968C91149780641496E4
S11330708C938E0C9F1CEB81FC8186819781A085AB
S1133080B1858E0D9F1DA11DB11D86839783A087D9
S1133090B187D5018D919C9111978E0D9F1D8D93B4
S11330A09C93CE18DF0809F086CEEB81FC818681E3
S11330B09781A085B18542855385648575854817B8
S11330C059076A077B0720F482879387A487B5870B
S11330D0AB81BC8114968C911497806214968C9366
S11330E080E003C082E001C087E02496CDBFDEBF4C
S11330F0DF91CF911F910F91FF90EF90DF90CF90D0
S1133100BF90AF909F908F907F906F905F904F9003
S11331103F902F9008950F931F93CF93DF93EC016B
S11331200E944409811150C08C8185FF4AC086FFEA
S113313011C02E893F89488D598DE881F98101E0BC
S1133140BE01605E7F4F8181BAD281113CC08C8107
S11331508F7B8C834A8D5B8D6C8D7D8D888199816D
S11331600E940C09811130C00E8D1F8DF8018385DA
S1133170806283878A85848F8B85858F8C85868FF3
S11331808D85878F8E859F85A889B989828F938F36
S1133190CD01AA27BB27848B958B9FD3F801668B1F
S11331A0778B808F918F128A138A8C818F7D8C8389
S11331B0E881F98181E08483888199810E94860D68
S11331C003C080E001C081E0DF91CF911F910F9196
S11331D00895CF93DF93EC019EDF811102C0188222
S11331E01982DF91CF910895E0ECFAE080818C7F21
S11331F0826080830895E0ECFAE080818C778068B7
S1133200808308958093C30AE0ECFAE082818823E6
S1133210ECF7E0ECFAE080E882838381089588EBA0
S11332208093810682E58093C00A81E0809300291F
S11332300895FC0128E039E09081990F862F8927B1
S113324014F0908302C093279083660F2150A1F756
S11332500895CF92DF92EF92FF92CF93C4E060E0A3
S113326070E0CB01CC24D62EE72EF82E8FEFCADFE8
S1133270A7019601282BCA01B901C15099F7CF9132
S1133280FF90EF90DF90CF900895CF93DF938FEF6F
S1133290B9DFC8E8D3E18FEFB5DF8F3F41F08FE1AD
S11332A093E00197F1F700C000002197A1F781E0B6
S11332B0CD2B09F480E0DF91CF910895882329F084
S11332C088E080938606E1CF089588E080938506A0
S11332D08FEF98CF08958F929F92AF92BF92CF9223
S11332E0DF92EF92FF921F93CF93DF931F92CDB79C
S11332F0DEB7182F6A017B011982882344F440E069
S113330050E0BA0187E3E7DF823048F51F7780E0B9
S1133310D5DF81E0D3DF1064812F74DF612FCE010C
S1133320019687DF14E08F2C9924AA24BB24882DCE
S113333069DF682DCE0101967CDFFE2CED2CDC2CA0
S1133340CC24115081F78981880F816089835ADFE9
S11333501AE08FEF57DF882314F41150D1F70F9040
S1133360DF91CF911F91FF90EF90DF90CF90BF90AE
S1133370AF909F908F900895CF93C0E040E050E0CD
S1133380BA0189EAA8DF882371F02FEF89EF90E072
S1133390215080409040E1F700C00000CF5FCF3F54
S11333A069F780E011C0CF3F71F053DF40E052E095
S11333B060E070E080E18FDF1092002982E080936A
S11333C0012981E001C080E0CF910895CF9341DFCE
S11333D06A3A71408105910579F5C0E040E050E01A
S11333E060E070E489EA77DF882371F08FEF97EE6D
S11333F023E0815090402040E1F700C00000CF5FFF
S1133400CF3F61F780E01DC0CF3FC1F040E050E006
S1133410BA018AE360DF811113C01092002919DF19
S113342096FF05C084E08093012981E00AC082E010
S11334308093012981E005C080E003C080E001C0E1
S113344081E0CF910895CF93CFDE80E037DFCAE0EB
S11334508FEFD8DEC150E1F7CAE040E050E0BA0196
S113346080E039DF813019F0C150B9F702C0C111D1
S113347005C082E08093002980E01CC0CAE04AEACB
S113348051E060E070E088E026DF982F907C11F036
S1133490C150A9F7853019F46FDFC82F02C096DF39
S11334A0C82FC11103C082E08093002980EB98E00B
S11334B0A2DE8C2FCF910895EF92FF920F931F936A
S11334C0CF937C018B01C9EC8FE99FE00197F1F761
S11334D000C000008FEF96DE8F3F21F4C150A1F7AA
S11334E080E011C08E3F71F48FEF8CDEF701819381
S11334F07F0101501109C1F78FEF84DE8FEF82DE67
S113350081E001C080E0CF911F910F91FF90EF9077
S113351008950F931F93CF93DF938C01D62FB5DEBD
S1133520C82F8823B1F08D2F6DDEDD3F91F0E801C7
S11335301E5F899167DEC017D107D9F78FEF62DE6E
S11335408FEF60DE8FEF5EDE8F71C1E0853009F0B2
S1133550C0E08C2FDF91CF911F910F9108950F93AD
S11335601F93CF938C01C22F80910029811132C007
S113357080910129823049F4032E39E0440F551F0C
S1133580661F771F3A95D1F7302DC13051F481E190
S1133590A2DE811118C060E072E0C8018DDFC82787
S11335A012C082E198DE81110EC060E072E0C801B1
S11335B083DF882319F01E5FC150B9F740E050E063
S11335C0BA018CE088DE80E079DE81E0C11103C0BD
S11335D080E001C083E0CF911F910F910895CF92B5
S11335E0DF92EF92FF920F931F93CF938C016A01A6
S11335F07B01C22F8091002981113CC08091012957
S1133600823049F40B2EB9E0CC0CDD1CEE1CFF1CFF
S1133610BA95D1F7B02DC13059F4B701A60188E1AC
S11336205ADE811120C06EEFC80173DFC8271BC0AA
S11336304C2F50E060E070E087E94DDEB701A60151
S113364089E149DE81110FC06CEFC80162DF882374
S113365019F01E5FC150C1F76DEF80E090E059DFB3
S1133660811101C0C1E080E029DE81E0C11103C005
S113367080E001C083E0CF911F910F91FF90EF9004
S1133680DF90CF900895811104C0DDDE8091002980
S1133690089581E00895811103C08091002908955F
S11336A081E008950F93FB01811106C0BA01A901BD
S11336B0CF01202F54DF01C081E00F9108950F93B3
S11336C0FB01811106C0BA01A901CF01202F87DFB8
S11336D001C081E00F910895EF92FF921F93CF9361
S11336E0DF937C01162FCAE08FEF8CDD8E3F21F033
S11336F0C150D1F780E013C0CC2371F0112371F0D5
S1133700C12FD0E02197CE0DDF1D8FEF7BDD8883A5
S11337101150B1F781E003C080E001C081E0DF9186
S1133720CF911F91FF90EF9008958F929F92AF9247
S1133730BF92CF92DF92EF92FF920F931F93CF939A
S1133740DF93CDB7DEB76897CDBFDEBF8091002988
S11337508111B0C0623079F030F4662309F4ACC052
S11337606130A1F006C0633009F499C0643009F4F3
S1133770A3C084E0A2C080E092E0A0E0B0E0FA013F
S113378080839183A283B38380E097C04A0140E0A1
S113379050E0BA0189E09FDD81117FC060E1CE0174
S11337A001969ADF8889807C09F05AC08E81982F0F
S11337B0991F9927991F8F818370880F892B8E5F9A
S11337C041E050E060E070E08A019B0104C0000F1A
S11337D0111F221F331F8A95D2F740E050E0BA012F
S11337E0098B1A8B2B8B3C8B4D8B5E8B6F8B788F5D
S11337F0988592959695969593708985282F220F92
S1133800220FE22FE92B982F929596959695937017
S11338108A858370880F880FF82FF92B31969F2F94
S1133820990F990B0B850F702E2F3F2F492F592F6E
S1133830692F792F892F0E94C92EA22EB32EC42E50
S1133840D52EE62EF72E082F192F29893A894B8970
S11338505C8960E070E080E090E00E94782E13C004
S11338608F8198852985A22FAF730196A11DAF730F
S1133870282F392F4A2F50E060E070E080E090E07C
S113388003E10E94C92E09E00E94E42EF401208382
S113389031834283538380E010C083E00EC081E013
S11338A090E0A0E0B0E0FA0180839183A283B38327
S11338B080E003C083E001C080E06896CDBFDEBF36
S11338C0DF91CF911F910F91FF90EF90DF90CF90F8
S11338D0BF90AF909F908F90089560E070E0CB010F
S11338E00895CF93DF931F92CDB7DEB78093C308BB
S11338F0E0ECF8E082818823ECF78091C3088983A7
S11339000F90DF91CF9108951092C308E0ECF8E096
S113391082818823ECF78091C3080895E0E5F0E004
S1133920908191609083A8E6B0E090E412969C9315
S113393012979DE013969C9390819460908391815B
S113394092FFFDCFE0E5F0E09681987F9683E8E66C
S1133950F0E0908191609083E0E5F0E0918190FF48
S1133960FDCF98ED94BF10924000E0E5F0E0908127
S11339709F7E9083858380E18083818184FFFDCF56
S113398088ED84BF84E08093400008958695C6CF77
S113399008950895089527E02093000810920108DF
S11339A010922008109221089C01A0E0BDE70E941B
S11339B05F2EDC01CB01072E7AE0B695A79597958B
S11339C087957A95D1F7702D8093260890932708D0
S11339D082E080930608089527E02093000910925E
S11339E0010910922009109221099C01A0E0BDE771
S11339F00E945F2EDC01CB01072E7AE0B695A795D5
S1133A00979587957A95D1F7702D80932609909391
S1133A10270981E080930609089527E02093000A8E
S1133A201092010A1092200A1092210A9C01A0E02F
S1133A30BDE70E945F2EDC01CB01072E7AE0B6952C
S1133A40A795979587957A95D1F7702D8093260A37
S1133A509093270A82E08093060A089527E0209332
S1133A60000B1092010B1092200B1092210B813D40
S1133A7027E0920710F080ED97E09C01A0E0BDE7FD
S1133A800E945F2EDC01CB01072E7AE0B695A79544
S1133A90979587957A95D1F7702D8093260B9093FF
S1133AA0270B82E08093060B0895E0E4F2E091E0B6
S1133AB09083118281818860818381818061818387
S1133AC080EC838380E4828327E024838FE180A3D6
S1133AD021A380A72FE021A780AB27E121AB80AFF2
S1133AE081AF92AF0895E0E6F6E084E0868388E053
S1133AF085838183E0EAF9E083E0858387E1868337
S1133B0084EA878383818C6183838481886184834D
S1133B1008950F931F93CF93DF93A0E2B6E080EF55
S1133B2012968C93129788E154968C9354975596D9
S1133B308C93559756968C93569757968C93579784
S1133B40E0EAF6E08FE38183868380E481838683E1
S1133B50E0E6F6E081E081838683C0E8D6E087E092
S1133B6089838E83C0EED7E083E089838E8320E04F
S1133B7036E090ECE90199839E8306E616E094E032
S1133B80E801988361E676E048E0EB01488340E28F
S1133B904883E801488340E456E0EA01888380933F
S1133BA04406E9018E838FE016968C9380E381832B
S1133BB0868382E081838683FA0191839683DF91F1
S1133BC0CF911F910F910895E0E8F4E080E38183A1
S1133BD091E09283858381818860818394830895B1
S1133BE0E0E4F6E080E1818380EA818380E48283FB
S1133BF080EE858381E58093C00808954F925F929B
S1133C006F927F92AF92BF92CF92DF92EF92FF9228
S1133C100F931F93CF93DF93CDB7DEB72C97CDBF10
S1133C20DEBF8C0119821A821B821C82DC011C9665
S1133C30ED91FC911D9780A191A1A2A1B3A18D83C7
S1133C409E83AF83B8878D819E81AF81B885BB2366
S1133C507CF48D819E81AF81B885B095A0959095B7
S1133C6081959F4FAF4FBF4F8D839E83AF83B8879E
S1133C70F801A680B780C980DA80EB80FC80B701A8
S1133C80A6014F5F5F4F6F4F7F4F49835A836B830A
S1133C907C836D817E818F819885AC0CBD1C20E86E
S1133CA036E948E950E00E94432E0F2EFAE0CF2E69
S1133CB0D12CE12CF12CF02DCA01B901A7019601F8
S1133CC00E94432E605DD5016C93F801A680B780F5
S1133CD049805A806B807C80B301A2014F5F5F4FA3
S1133CE06F4F7F4F49835A836B837C836D817E81C1
S1133CF08F819885A40CB51C20E432E44FE050E099
S1133D000E94432ECA01B901A70196010E94432EC5
S1133D10605DD5016C93F801A680B78049805A8014
S1133D206B807C80B301A2014F5F5F4F6F4F7F4F69
S1133D3049835A836B837C836D817E818F819885CF
S1133D40A40CB51C20EA36E841E050E00E94432E62
S1133D50CA01B901A70196010E94432E605DD501F5
S1133D606C93F801A680B78049805A806B807C8070
S1133D70B301A2014F5F5F4F6F4F7F4F49835A8357
S1133D806B837C836D817E818F819885A40CB51CA7
S1133D9020E137E240E050E00E94432ECA01B9011D
S1133DA0A70196010E94432E605DD5016C93F80132
S1133DB0A680B78049805A806B807C80B301A201C1
S1133DC04F5F5F4F6F4F7F4F49835A836B837C8371
S1133DD06D817E818F819885A40CB51C28EE33E01B
S1133DE040E050E00E94432ECA01B901A7019601A8
S1133DF00E94432E605DD5016C93F801A680B780C4
S1133E0049805A806B807C80B301A2014F5F5F4F71
S1133E106F4F7F4F49835A836B837C836D817E818F
S1133E208F819885A40CB51C24E630E040E050E076
S1133E300E94432ECA01B901A70196010E94432E94
S1133E40605DD5016C93F801A680B78049805A80E3
S1133E506B807C80B301A2014F5F5F4F6F4F7F4F38
S1133E6049835A836B837C836D817E818F8198859E
S1133E70A40CB51CA70196010E94432ECA01B901E6
S1133E80A70196010E94432E605DD5016C93F80151
S1133E90A680B78049805A806B807C80B301A201E0
S1133EA04F5F5F4F6F4F7F4F49835A836B837C8390
S1133EB06D817E818F819885A40CB51CA701960124
S1133EC00E94432E605DD5016C93F80126813781F1
S1133ED089819A81AB81BC81AC01BD014F5F5F4F89
S1133EE06F4F7F4F49835A836B837C83F901E80FBB
S1133EF0F91F29E02083D8011C96ED91FC911D97B0
S1133F0080A991A9A2A9B3A98D839E83AF83B88701
S1133F108D819E81AF81B885BB237CF48D819E8188
S1133F20AF81B885B095A095909581959F4FAF4F7F
S1133F30BF4F8D839E83AF83B887F801A680B78077
S1133F40C980DA80EB80FC80B701A6014F5F5F4F28
S1133F506F4F7F4F49835A836B837C836D817E814E
S1133F608F819885AC0CBD1C20E836E948E950E007
S1133F700E94432E0F2EFAE0CF2ED12CE12CF12CEF
S1133F80F02DCA01B901A70196010E94432E605D7C
S1133F90D5016C93F801A680B78049805A806B8064
S1133FA07C80B301A2014F5F5F4F6F4F7F4F498306
S1133FB05A836B837C836D817E818F819885A40C69
S1133FC0B51C20E432E44FE050E00E94432ECA01C5
S1133FD0B901A70196010E94432E605DD5016C933F
S1133FE0F801A680B78049805A806B807C80B30139
S1133FF0A2014F5F5F4F6F4F7F4F49835A836B839B
S11340007C836D817E818F819885A40CB51C20EA08
S113401036E841E050E00E94432ECA01B901A701ED
S113402096010E94432E605DD5016C93F801A68031
S1134030B78049805A806B807C80B301A2014F5FB6
S11340405F4F6F4F7F4F49835A836B837C836D81AE
S11340507E818F819885A40CB51C20E137E240E075
S113406050E00E94432ECA01B901A70196010E94A3
S1134070432E605DD5016C93F801A680B78049801A
S11340805A806B807C80B301A2014F5F5F4F6F4FFA
S11340907F4F49835A836B837C836D817E818F81BB
S11340A09885A40CB51C28EE33E040E050E00E9453
S11340B0432ECA01B901A70196010E94432E605DF7
S11340C0D5016C93F801A680B78049805A806B8033
S11340D07C80B301A2014F5F5F4F6F4F7F4F4983D5
S11340E05A836B837C836D817E818F819885A40C38
S11340F0B51C24E630E040E050E00E94432ECA01A3
S1134100B901A70196010E94432E605DD5016C930D
S1134110F801A680B78049805A806B807C80B30107
S1134120A2014F5F5F4F6F4F7F4F49835A836B8369
S11341307C836D817E818F819885A40CB51CA70139
S113414096010E94432ECA01B901A70196010E945B
S1134150432E605DD5016C93F801A680B780498039
S11341605A806B807C80B301A2014F5F5F4F6F4F19
S11341707F4F49835A836B837C836D817E818F81DA
S11341809885A40CB51CA70196010E94432E605D7E
S1134190D5016C93F8012681378189819A81AB819D
S11341A0BC81AC01BD014F5F5F4F6F4F7F4F4983AF
S11341B05A836B837C83F901E80FF91F29E020837C
S11341C0D8011C96ED91FC911D9784A995A9A6A9E7
S11341D0B7A98D839E83AF83B8878D819E81AF817C
S11341E0B885BB2334F089859A85AB85BC85BB2310
S11341F07CF48D819E81AF81B885B095A095909512
S113420081959F4FAF4FBF4F8D839E83AF83B887F8
S1134210F801A680B780C980DA80EB80FC80B70102
S1134220A6014F5F5F4F6F4F7F4F49835A836B8364
S11342307C836D817E818F819885AC0CBD1C20E8C8
S113424036E948E950E00E94432E0F2EFAE0CF2EC3
S1134250D12CE12CF12CF02DCA01B901A701960152
S11342600E94432E605DD5016C93F801A680B7804F
S113427049805A806B807C80B301A2014F5F5F4FFD
S11342806F4F7F4F49835A836B837C836D817E811B
S11342908F819885A40CB51C20E432E44FE050E0F3
S11342A00E94432ECA01B901A70196010E94432E20
S11342B0605DD5016C93F801A680B78049805A806F
S11342C06B807C80B301A2014F5F5F4F6F4F7F4FC4
S11342D049835A836B837C836D817E818F8198852A
S11342E0A40CB51C20EA36E841E050E00E94432EBD
S11342F0CA01B901A70196010E94432E605DD50150
S11343006C93F801A680B78049805A806B807C80CA
S1134310B301A2014F5F5F4F6F4F7F4F49835A83B1
S11343206B837C836D817E818F819885A40CB51C01
S113433020E137E240E050E00E94432ECA01B90177
S1134340A70196010E94432E605DD5016C93F8018C
S1134350A680B78049805A806B807C80B301A2011B
S11343604F5F5F4F6F4F7F4F49835A836B837C83CB
S11343706D817E818F819885A40CB51C28EE33E075
S113438040E050E00E94432ECA01B901A701960102
S11343900E94432E605DD5016C93F801A680B7801E
S11343A049805A806B807C80B301A2014F5F5F4FCC
S11343B06F4F7F4F49835A836B837C836D817E81EA
S11343C08F819885A40CB51C24E630E040E050E0D1
S11343D00E94432ECA01B901A70196010E94432EEF
S11343E0605DD5016C93F801A680B78049805A803E
S11343F06B807C80B301A2014F5F5F4F6F4F7F4F93
S113440049835A836B837C836D817E818F819885F8
S1134410A40CB51CA70196010E94432ECA01B90140
S1134420A70196010E94432E605DD5016C93F801AB
S1134430A680B78049805A806B807C80B301A2013A
S11344404F5F5F4F6F4F7F4F49835A836B837C83EA
S11344506D817E818F819885A40CB51CA70196017E
S11344600E94432E605DD5016C93F801268137814B
S113447089819A81AB81BC81AC01BD014F5F5F4FE3
S11344806F4F7F4F49835A836B837C83F901E80F15
S1134490F91F29E02083D801ED91FC918481958155
S11344A0092E000CAA0BBB0B8D839E83AF83B887A8
S11344B08D819E81AF81B885BB232CF58D819E8132
S11344C0AF81B885B095A095909581959F4FAF4FDA
S11344D0BF4F8D839E83AF83B887F80126813781D0
S11344E089819A81AB81BC81AC01BD014F5F5F4F73
S11344F06F4F7F4F49835A836B837C83F901E80FA5
S1134500F91F2DE22083D8011696AD90BC90179721
S1134510C980DA80EB80FC80B701A6014F5F5F4F52
S11345206F4F7F4F49835A836B837C836D817E8178
S11345308F819885AC0CBD1C28EE33E040E050E040
S11345400E94432E0F2EFAE0CF2ED12CE12CF12C19
S1134550F02DCA01B901A70196010E94432E605DA6
S1134560F5016083D8011696AD90BC9017974980E9
S11345705A806B807C80B301A2014F5F5F4F6F4F05
S11345807F4F49835A836B837C836D817E818F81C6
S11345909885A40CB51C24E630E040E050E00E946D
S11345A0432ECA01B901A70196010E94432E605D02
S11345B0F5016083D8011696AD90BC901797498099
S11345C05A806B807C80B301A2014F5F5F4F6F4FB5
S11345D07F4F49835A836B837C836D817E818F8176
S11345E09885A40CB51CA70196010E94432ECA010C
S11345F0B901A70196010E94432E605DF501608315
S1134600D8011696AD90BC90179749805A806B805C
S11346107C80B301A2014F5F5F4F6F4F7F4F49838F
S11346205A836B837C836D817E818F819885A40CF2
S1134630B51CA70196010E94432E605DF5016083BD
S1134640D80116962D913C91179789819A81AB8157
S1134650BC81AC01BD014F5F5F4F6F4F7F4F4983FA
S11346605A836B837C83F901E80FF91F29E02083C7
S1134670D801ED91FC9126813781C901880F991FDA
S1134680220F331F220F331F220F331F820F931F5A
S1134690092E000CAA0BBB0B8D839E83AF83B887B6
S11346A08D819E81AF81B885BB232CF58D819E8140
S11346B0AF81B885B095A095909581959F4FAF4FE8
S11346C0BF4F8D839E83AF83B887F80126813781DE
S11346D089819A81AB81BC81AC01BD014F5F5F4F81
S11346E06F4F7F4F49835A836B837C83F901E80FB3
S11346F0F91F2DE22083D8011696AD90BC90179730
S1134700C980DA80EB80FC80B701A6014F5F5F4F60
S11347106F4F7F4F49835A836B837C836D817E8186
S11347208F819885AC0CBD1C28EE33E040E050E04E
S11347300E94432E0F2EFAE0CF2ED12CE12CF12C27
S1134740F02DCA01B901A70196010E94432E605DB4
S1134750F5016083D8011696AD90BC9017974980F7
S11347605A806B807C80B301A2014F5F5F4F6F4F13
S11347707F4F49835A836B837C836D817E818F81D4
S11347809885A40CB51C24E630E040E050E00E947B
S1134790432ECA01B901A70196010E94432E605D10
S11347A0F5016083D8011696AD90BC9017974980A7
S11347B05A806B807C80B301A2014F5F5F4F6F4FC3
S11347C07F4F49835A836B837C836D817E818F8184
S11347D09885A40CB51CA70196010E94432ECA011A
S11347E0B901A70196010E94432E605DF501608323
S11347F0D8011696AD90BC90179749805A806B806B
S11348007C80B301A2014F5F5F4F6F4F7F4F49839D
S11348105A836B837C836D817E818F819885A40C00
S1134820B51CA70196010E94432E605DF5016083CB
S1134830D80116962D913C91179789819A81AB8165
S1134840BC81AC01BD014F5F5F4F6F4F7F4F498308
S11348505A836B837C83F901E80FF91F29E02083D5
S1134860D801ED91FC9120853185C901880F991FEC
S1134870220F331F220F331F220F331F820F931F68
S1134880092E000CAA0BBB0B8D839E83AF83B887C4
S11348908D819E81AF81B885BB232CF58D819E814E
S11348A0AF81B885B095A095909581959F4FAF4FF6
S11348B0BF4F8D839E83AF83B887F80126813781EC
S11348C089819A81AB81BC81AC01BD014F5F5F4F8F
S11348D06F4F7F4F49835A836B837C83F901E80FC1
S11348E0F91F2DE22083D8011696AD90BC9017973E
S11348F0C980DA80EB80FC80B701A6014F5F5F4F6F
S11349006F4F7F4F49835A836B837C836D817E8194
S11349108F819885AC0CBD1C28EE33E040E050E05C
S11349200E94432E0F2EFAE0CF2ED12CE12CF12C35
S1134930F02DCA01B901A70196010E94432E605DC2
S1134940F5016083D8011696AD90BC901797498005
S11349505A806B807C80B301A2014F5F5F4F6F4F21
S11349607F4F49835A836B837C836D817E818F81E2
S11349709885A40CB51C24E630E040E050E00E9489
S1134980432ECA01B901A70196010E94432E605D1E
S1134990F5016083D8011696AD90BC9017974980B5
S11349A05A806B807C80B301A2014F5F5F4F6F4FD1
S11349B07F4F49835A836B837C836D817E818F8192
S11349C09885A40CB51CA70196010E94432ECA0128
S11349D0B901A70196010E94432E605DF501608331
S11349E0D8011696AD90BC90179749805A806B8079
S11349F07C80B301A2014F5F5F4F6F4F7F4F4983AC
S1134A005A836B837C836D817E818F819885A40C0E
S1134A10B51CA70196010E94432E605DF5016083D9
S1134A20D80116962D913C91179789819A81AB8173
S1134A30BC81AC01BD014F5F5F4F6F4F7F4F498316
S1134A405A836B837C83F901E80FF91F29E02083E3
S1134A50D801ED91FC9122853385C901880F991FF6
S1134A60220F331F220F331F220F331F820F931F76
S1134A70092E000CAA0BBB0B8D839E83AF83B887D2
S1134A808D819E81AF81B885BB232CF58D819E815C
S1134A90AF81B885B095A095909581959F4FAF4F04
S1134AA0BF4F8D839E83AF83B887F80126813781FA
S1134AB089819A81AB81BC81AC01BD014F5F5F4F9D
S1134AC06F4F7F4F49835A836B837C83F901E80FCF
S1134AD0F91F2DE22083D8011696AD90BC9017974C
S1134AE0C980DA80EB80FC80B701A6014F5F5F4F7D
S1134AF06F4F7F4F49835A836B837C836D817E81A3
S1134B008F819885AC0CBD1C28EE33E040E050E06A
S1134B100E94432E0F2EFAE0CF2ED12CE12CF12C43
S1134B20F02DCA01B901A70196010E94432E605DD0
S1134B30F5016083D8011696AD90BC901797498013
S1134B405A806B807C80B301A2014F5F5F4F6F4F2F
S1134B507F4F49835A836B837C836D817E818F81F0
S1134B609885A40CB51C24E630E040E050E00E9497
S1134B70432ECA01B901A70196010E94432E605D2C
S1134B80F5016083D8011696AD90BC9017974980C3
S1134B905A806B807C80B301A2014F5F5F4F6F4FDF
S1134BA07F4F49835A836B837C836D817E818F81A0
S1134BB09885A40CB51CA70196010E94432ECA0136
S1134BC0B901A70196010E94432E605DF50160833F
S1134BD0D8011696AD90BC90179749805A806B8087
S1134BE07C80B301A2014F5F5F4F6F4F7F4F4983BA
S1134BF05A836B837C836D817E818F819885A40C1D
S1134C00B51CA70196010E94432E605DF5016083E7
S1134C10D80116962D913C91179789819A81AB8181
S1134C20BC81AC01BD014F5F5F4F6F4F7F4F498324
S1134C305A836B837C83F901E80FF91F29E02083F1
S1134C40D8011C96ED91FC911D9780AD91ADA2AD5C
S1134C50B3AD8D839E83AF83B8878D819E81AF81F1
S1134C60B885BB237CF48D819E81AF81B885B095D6
S1134C70A095909581959F4FAF4FBF4F8D839E8395
S1134C80AF83B887F801A680B780C980DA80EB804B
S1134C90FC80B701A6014F5F5F4F6F4F7F4F498381
S1134CA05A836B837C836D817E818F819885AC0C64
S1134CB0BD1C20E836E948E950E0E5D70F2EFAE0BC
S1134CC0CF2ED12CE12CF12CF02DCA01B901A70172
S1134CD09601D9D7605DD5016C93F801A680B780A1
S1134CE049805A806B807C80B301A2014F5F5F4F83
S1134CF06F4F7F4F49835A836B837C836D817E81A1
S1134D008F819885A40CB51C20E432E44FE050E078
S1134D10BAD7CA01B901A7019601B5D7605DD5011B
S1134D206C93F801A680B78049805A806B807C80A0
S1134D30B301A2014F5F5F4F6F4F7F4F49835A8387
S1134D406B837C836D817E818F819885A40CB51CD7
S1134D5020EA36E841E050E096D7CA01B901A7013C
S1134D60960191D7605DD5016C93F801A680B78058
S1134D7049805A806B807C80B301A2014F5F5F4FF2
S1134D806F4F7F4F49835A836B837C836D817E8110
S1134D908F819885A40CB51C20E137E240E050E0F7
S1134DA072D7CA01B901A70196016DD7605DD5011B
S1134DB06C93F801A680B78049805A806B807C8010
S1134DC0B301A2014F5F5F4F6F4F7F4F49835A83F7
S1134DD06B837C836D817E818F819885A40CB51C47
S1134DE028EE33E040E050E04ED7CA01B901A701F4
S1134DF0960149D7605DD5016C93F801A680B78010
S1134E0049805A806B807C80B301A2014F5F5F4F61
S1134E106F4F7F4F49835A836B837C836D817E817F
S1134E208F819885A40CB51C24E630E040E050E066
S1134E302AD7CA01B901A701960125D7605DD5011A
S1134E406C93F801A680B78049805A806B807C807F
S1134E50B301A2014F5F5F4F6F4F7F4F49835A8366
S1134E606B837C836D817E818F819885A40CB51CB6
S1134E70A701960108D7CA01B901A701960103D772
S1134E80605DD5016C93F801A680B78049805A8093
S1134E906B807C80B301A2014F5F5F4F6F4F7F4FE8
S1134EA049835A836B837C836D817E818F8198854E
S1134EB0A40CB51CA7019601E6D6605DD5016C93E0
S1134EC0F8012681378189819A81AB81BC81AC014B
S1134ED0BD014F5F5F4F6F4F7F4F49835A836B8391
S1134EE07C83F901E80FF91F29E02083D8011C967F
S1134EF0ED91FC911D9784AD95ADA6ADB7AD8D83B5
S1134F009E83AF83B8878D819E81AF81B885BB2393
S1134F107CF48D819E81AF81B885B095A0959095E4
S1134F2081959F4FAF4FBF4F8D839E83AF83B887CB
S1134F30F801A680B780C980DA80EB80FC80B701D5
S1134F40A6014F5F5F4F6F4F7F4F49835A836B8337
S1134F507C836D817E818F819885AC0CBD1C20E89B
S1134F6036E948E950E08FD60F2EFAE0CF2ED12C47
S1134F70E12CF12CF02DCA01B901A701960183D6C9
S1134F80605DD5016C93F801A680B78049805A8092
S1134F906B807C80B301A2014F5F5F4F6F4F7F4FE7
S1134FA049835A836B837C836D817E818F8198854D
S1134FB0A40CB51C20E432E44FE050E064D6CA01EE
S1134FC0B901A70196015FD6605DD5016C93F80124
S1134FD0A680B78049805A806B807C80B301A2018F
S1134FE04F5F5F4F6F4F7F4F49835A836B837C833F
S1134FF06D817E818F819885A40CB51C20EA36E8EA
S113500041E050E040D6CA01B901A70196013BD660
S1135010605DD5016C93F801A680B78049805A8001
S11350206B807C80B301A2014F5F5F4F6F4F7F4F56
S113503049835A836B837C836D817E818F819885BC
S1135040A40CB51C20E137E240E050E01CD6CA01B4
S1135050B901A701960117D6605DD5016C93F801DB
S1135060A680B78049805A806B807C80B301A201FE
S11350704F5F5F4F6F4F7F4F49835A836B837C83AE
S11350806D817E818F819885A40CB51C28EE33E058
S113509040E050E0F8D5CA01B901A7019601F3D563
S11350A0605DD5016C93F801A680B78049805A8071
S11350B06B807C80B301A2014F5F5F4F6F4F7F4FC6
S11350C049835A836B837C836D817E818F8198852C
S11350D0A40CB51C24E630E040E050E0D4D5CA016D
S11350E0B901A7019601CFD5605DD5016C93F80194
S11350F0A680B78049805A806B807C80B301A2016E
S11351004F5F5F4F6F4F7F4F49835A836B837C831D
S11351106D817E818F819885A40CB51CA7019601B1
S1135120B2D5CA01B901A7019601ADD5605DD5011B
S11351306C93F801A680B78049805A806B807C808C
S1135140B301A2014F5F5F4F6F4F7F4F49835A8373
S11351506B837C836D817E818F819885A40CB51CC3
S1135160A701960190D5605DD5016C93F801268165
S1135170378189819A81AB81BC81AC01BD014F5FCC
S11351805F4F6F4F7F4F49835A836B837C83F90151
S1135190E80FF91F29E02083D8011896ED91FC91BE
S11351A0199780859185A285B3858D839E83AF836E
S11351B0B887F801A680B78049805A806B807C80CC
S11351C0B301A2014F5F5F4F6F4F7F4F49835A83F3
S11351D06B837C836D817E818F819885A40CB51C43
S11351E020E836E948E950E04ED5CA01B901A701E3
S11351F0960149D5605DD5016C93F801A680B7800E
S113520049805A806B807C80B301A2014F5F5F4F5D
S11352106F4F7F4F49835A836B837C836D817E817B
S11352208F819885A40CB51C20E432E44FE050E053
S11352302AD5CA01B901A701960125D5605DD5011A
S11352406C93F801A680B78049805A806B807C807B
S1135250B301A2014F5F5F4F6F4F7F4F49835A8362
S11352606B837C836D817E818F819885A40CB51CB2
S113527020EA36E841E050E006D5CA01B901A701A9
S1135280960101D5605DD5016C93F801A680B780C5
S113529049805A806B807C80B301A2014F5F5F4FCD
S11352A06F4F7F4F49835A836B837C836D817E81EB
S11352B08F819885A40CB51C20E137E240E050E0D2
S11352C0E2D4CA01B901A7019601DDD4605DD5011C
S11352D06C93F801A680B78049805A806B807C80EB
S11352E0B301A2014F5F5F4F6F4F7F4F49835A83D2
S11352F06B837C836D817E818F819885A40CB51C22
S113530028EE33E040E050E0BED4CA01B901A70161
S11353109601B9D4605DD5016C93F801A680B7807D
S113532049805A806B807C80B301A2014F5F5F4F3C
S11353306F4F7F4F49835A836B837C836D817E815A
S11353408F819885A40CB51C24E630E040E050E041
S11353509AD4CA01B901A701960195D4605DD5011B
S11353606C93F801A680B78049805A806B807C805A
S1135370B301A2014F5F5F4F6F4F7F4F49835A8341
S11353806B837C836D817E818F819885A40CB51C91
S1135390A701960178D4CA01B901A701960173D473
S11353A0605DD5016C93F801A680B78049805A806E
S11353B06B807C80B301A2014F5F5F4F6F4F7F4FC3
S11353C049835A836B837C836D817E818F81988529
S11353D0A40CB51CA701960156D4605DD5016C934D
S11353E0F8012681378189819A81AB81BC81AC0126
S11353F0BD014F5F5F4F6F4F7F4F49835A836B836C
S11354007C83F901E80FF91F2DE02083D80116965B
S11354102D913C91179789819A81AB81BC81AC0114
S1135420BD014F5F5F4F6F4F7F4F49835A836B833B
S11354307C83F901E80FF91F2AE02083F801268113
S1135440378189819A81AB81BC81AC01BD014F5FF9
S11354505F4F6F4F7F4F49835A836B837C83F9017E
S1135460E80FF91F1082D80116962D913C911797D9
S113547089819A81AB81BC81AC01BD014F5F5F4FD3
S11354806F4F7F4F49835A836B837C83F901E80F05
S1135490F91F28E520832C96CDBFDEBFDF91CF9185
S11354A01F910F91FF90EF90DF90CF90BF90AF903E
S11354B07F906F905F904F90089584E0809385066D
S11354C0089584E080938606089582E0809385069B
S11354D0089582E080938606089581E0809385068E
S11354E0089581E080938606089581E08093E5071E
S11354F0089581E08093E607089582E08093E507AC
S1135500089582E08093E6070895E0E6F6E080E1FE
S1135510858380E286830895E0E6F6E080E1868371
S113552080E28583089581E080936506089581E093
S113553080936606089580E880930506089580E8C0
S1135540809306060895CF93DF93FC01A0E8B6E0AC
S113555018968C9118978170868718968C91189755
S1135560869581708587C0EED7E088858170808BB1
S1135570888586958170878718968C9182FB882709
S113558080F9818BA0E6B6E018968C91189785FB7C
S1135590882780F9828B18968C9182958170838BF1
S11355A0DF91CF910895CF93DF9300D01F92CDB7B1
S11355B0DEB719821A821B821C82EB81FC81E60F02
S11355C0F71F2081222369F02B813C812F5F3F4FFD
S11355D02B833C83EB81FC81E60FF71F2081211193
S11355E0F3CFE981FA81E80FF91F20812223E1F04A
S11355F02B813C81A9014F5F5F4F4B835C834981C1
S11356005A81FA013196E983FA83FC01E40FF51F0C
S11356104081FB01E20FF31F4083E981FA81E80F27
S1135620F91F20812111E4CF8B819C819C012F5F84
S11356303F4F2B833C83FB01E80FF91F10828B81C2
S11356409C812496CDBFDEBFDF91CF9108954F9208
S11356505F926F927F928F929F92AF92BF92CF92FE
S1135660DF92EF92FF92CF93DF93EC016C817D8107
S1135670072E000C880B990BF5D14B015C0120E03F
S113568030E040E05AE37AD26B017C0120E13FEE46
S11356904FE054E4C501B40171D220E030E040E0B1
S11356A05AE36CD220E030E040E450E467D24B018E
S11356B05C0120E030E040E450E4C701B6015ED272
S11356C09B01AC0160E070E080EA90E4FCD09B01B7
S11356D0AC01C501B4015CD125EB35E142E853E4EA
S11356E0F2D06C8B7D8B8E8B9F8B6E817F81072E8E
S11356F0000C880B990BB6D14B015C0120E13FEE05
S11357004FE054E43BD220E030E040E05AE336D2AC
S113571020E030E040E450E431D22B013C0120E0B1
S113572030E040E05AE3C501B40128D220E030E083
S113573040E450E423D29B01AC0160E070E080EAD5
S113574090E4C1D09B01AC01C301B20121D125EB8E
S113575035E142E853E4B7D0688F798F8A8F9B8F05
S113576068857985072E000C880B990B7BD14B013A
S11357705C0120E13FEE4FE054E400D220E030E051
S113578040E05AE3FBD120E030E040E450E4F6D1BD
S11357902B013C0120E030E040E05AE3C501B401B4
S11357A0EDD120E030E040E450E4E8D19B01AC01CD
S11357B060E070E080EA90E486D09B01AC01C30114
S11357C0B201E6D025EB35E142E853E47CD06C8F9E
S11357D07D8F8E8F9F8F8A859B85BC01990F880B47
S11357E0990B40D14B015C0120E13FEE4FE054E4C2
S11357F0C5D120E030E040E05AE3C0D120E030E001
S113580040E450E4BBD12B013C0120E030E040E017
S11358105AE3C501B401B2D120E030E040E450E4E1
S1135820ADD19B01AC0160E070E080EA90E44BD024
S11358309B01AC01C301B201ABD025EB35E142E8D9
S113584053E441D068A379A38AA39BA323E333E35E
S113585043E550E4C701B60191D16B017C0120E01E
S113586030E04DE553E48AD14B015C01A701960178
S113587060E070E080EA90E426D09B01AC01C501B1
S1135880B40186D06CAB7DAB8EAB9FAB68AF79AF08
S11358908AAF9BAF6CAF7DAF8EAF9FAFC05CDF4F65
S11358A0688379838A839B83DF91CF91FF90EF9004
S11358B0DF90CF90BF90AF909F908F907F906F902C
S11358C05F904F9008955058BB27AA270ED01CC153
S11358D00DD130F012D120F031F49F3F11F41EF4B9
S11358E002C10EF4E095E7FBF8C0E92F1ED180F366
S11358F0BA17620773078407950718F071F49EF5C9
S113590036C10EF4E0950B2EBA2FA02D0B01B90170
S113591090010C01CA01A0011124FF27591B99F021
S1135920593F50F4503E68F11A16F040A22F232F2D
S1135930342F4427585FF3CF469537952795A7957D
S1135940F0405395C9F77EF41F16BA0B620B730B24
S1135950840BBAF09150A1F0FF0FBB1F661F771F95
S1135960881FC2F70EC0BA0F621F731F841F48F44A
S1135970879577956795B795F7959E3F08F0B3CFD0
S11359809395880F08F09927EE0F979587950895BA
S11359900CD0BAC0B2D040F0A9D030F021F45F3FAF
S11359A019F09BC05111E4C09EC0BFD098F3992355
S11359B0C9F35523B1F3951B550BBB27AA276217CF
S11359C07307840738F09F5F5F4F220F331F441F14
S11359D0AA1FA9F333D00E2E3AF0E0E830D091504C
S11359E05040E695001CCAF729D0FE2F27D0660F39
S11359F0771F881FBB1F261737074807AB07B0E878
S1135A0009F0BB0B802DBF01FF2793585F4F2AF08D
S1135A109E3F510568F061C0ABC05F3FECF3983E18
S1135A20DCF3869577956795B795F7959F5FC9F7EA
S1135A30880F911D9695879597F90895E1E0660F73
S1135A40771F881FBB1F621773078407BA0720F0EC
S1135A50621B730B840BBA0BEE1F88F7E095089555
S1135A60E89409C097FB3EF49095809570956195F4
S1135A707F4F8F4F9F4F9923A9F0F92F96E9BB27AA
S1135A809395F695879577956795B795F111F8CF26
S1135A90FAF4BB0F11F460FF1BC06F5F7F4F8F4F91
S1135AA09F4F16C0882311F096E911C0772321F087
S1135AB09EE8872F762F05C0662371F096E8862F1F
S1135AC070E060E02AF09A95660F771F881FDAF776
S1135AD0880F9695879597F9089597F99F6780E8B9
S1135AE070E060E008959FEF80EC089500240A942C
S1135AF01616170618060906089500240A941216A5
S1135B001306140605060895092E0394000C11F4D7
S1135B10882352F0BB0F40F4BF2B11F460FF04C084
S1135B206F5F7F4F8F4F9F4F089557FD9058440FDD
S1135B30551F59F05F3F71F04795880F97FB991FE8
S1135B4061F09F3F79F087950895121613061406A5
S1135B50551FF2CF4695F1DF08C016161706180632
S1135B60991FF1CF86957105610508940895E8940D
S1135B70BB2766277727CB0197F908950BD0C4CFAD
S1135B80B5DF28F0BADF18F0952309F0A6CFABCF24
S1135B901124EECFCADFA0F3959FD1F3950F50E007
S1135BA0551F629FF001729FBB27F00DB11D639FCB
S1135BB0AA27F00DB11DAA1F649F6627B00DA11D71
S1135BC0661F829F2227B00DA11D621F739FB00D17
S1135BD0A11D621F839FA00D611D221F749F332787
S1135BE0A00D611D231F849F600D211D822F762F20
S1135BF06A2F11249F5750408AF0E1F088234AF01D
S1135C00EE0FFF1FBB1F661F771F881F9150504068
S1135C10A9F79E3F510570F060CFAACF5F3FECF328
S1135C20983EDCF3869577956795B795F795E79554
S1135C309F5FC1F7FE2B880F911D9695879597F965
S1135C400895A1E21A2EAA1BBB1BFD010DC0AA1FB9
S1135C50BB1FEE1FFF1FA217B307E407F50720F0D1
S1135C60A21BB30BE40BF50B661F771F881F991F4C
S1135C701A9469F760957095809590959B01AC0195
S1135C80BD01CF010895052E97FB16F400940FD0A3
S1135C9057FD05D0D6DF07FC02D046F408C0509566
S1135CA04095309521953F4F4F4F5F4F0895909504
S1135CB08095709561957F4F8F4F9F4F0895A29F58
S1135CC0B001B39FC001A39F700D811D1124911DCC
S1135CD0B29F700D811D1124911D0895F0DFA59FC1
S1135CE0900DB49F900DA49F800D911D11240895D3
