:10000000FDC000001BC1000019C1000017C10000A5
:1000100015C1000013C1000011C100000FC1000094
:100020000DC100000BC1000009C1000007C10000A4
:1000300005C1000003C1000044C50000FFC000006E
:10004000FDC00000FBC00000F9C00000F7C00000C8
:10005000F5C00000F3C00000F1C00000EFC00000D8
:10006000EDC00000EBC00000E9C00000E7C00000E8
:10007000E5C00000E3C00000E1C00000DFC00000F8
:10008000DDC00000DBC00000D9C00000D7C0000008
:10009000D5C00000D3C00000D1C00000CFC0000018
:1000A000CDC00000CBC0000011C30000C7C00000DD
:1000B000C5C00000C3C00000C1C0000054C500009E
:1000C000BDC00000BBC00000B9C00000B7C0000048
:1000D000B5C00000B3C00000B1C00000AFC0000058
:1000E000ADC00000ABC00000A9C00000A7C0000068
:1000F000A5C00000A3C00000A1C000009FC0000078
:100100009DC000009BC0000099C0000097C0000087
:1001100095C0000093C0000091C000008FC0000097
:100120008DC000008BC0000089C0000087C00000A7
:1001300085C00000D0C4000081C000007FC0000066
:100140007DC000007BC0000079C0000077C00000C7
:1001500075C0000073C0000071C000006FC00000D7
:100160002BC300006BC00000E7C2000067C00000A6
:1001700065C0000063C0000061C000005FC00000F7
:100180005DC000005BC0000059C0000057C0000007
:1001900055C0000053C0000051C000004FC0000017
:1001A0004DC000004BC0000049C0000047C0000027
:1001B00003C5000043C0000041C000003FC0000074
:1001C0003DC000003BC0000039C0000037C0000047
:1001D00035C0000033C0000031C000002FC0000057
:1001E0002DC000002BC0000029C0000027C0000067
:1001F00025C0000023C0000021C0000011241FBE44
:10020000CFEFCDBFDFE3DEBF00E00CBF10E2A0E028
:10021000B0E2E2E5F0E500E00BBF02C007900D920E
:10022000AC3DB107D9F72BE2ACEDB0E201C01D92B5
:10023000AA33B207E1F79FD50C94272838C2811161
:1002400006C0611110C088E0809345060895813092
:1002500069F4611104C080E180934506089580E14E
:1002600080934606089588E0809346060895CF93CC
:10027000C82F61E0E4DF80E10E94EF1D80E00E9472
:10028000EF1D80EF0E94EF1D8EE10E94EF1D60E0E8
:100290008C2FD5DF2FEF89EF90E0215080409040E8
:1002A000E1F700C0000061E08C2FC9DF88E00E9408
:1002B000EF1D84E10E94EF1D80E00E94EF1D81E0B0
:1002C0000E94EF1D60E08C2FBADFCF910895E0E629
:1002D000F6E082E086832FEF33EC99E02150304046
:1002E0009040E1F700C0000085830895CF93C82FA8
:1002F00061E0A5DF81E00E94EF1D8FEF0E94EF1DFE
:100300008FEF0E94EF1D8FEF0E94EF1D8FEF0E9475
:10031000EF1D8FEF0E94EF1D8FEF0E94EF1D8FEFFB
:100320000E94EF1D8FEF0E94EF1D8FEF0E94EF1DC7
:100330008FEF0E94EF1D8FEF0E94EF1D8FEF0E9445
:10034000EF1D60E08C2F7BDFCF910895CF92DF927D
:10035000EF92FF920F931F93CF93DF936C018B016A
:100360007A01E90161E080E06ADF88E50E94EF1D23
:100370000E94021E90E0A0E0B0E0DC0199278827EF
:10038000F70180839183A283B3830E94021EF70149
:100390004081518162817381582B408351836283F4
:1003A00073830E94021EF701408151816281738133
:1003B000482B40835183628373830E94021E8F7097
:1003C000F601808360E080E03ADF61E081E037DFC2
:1003D00088E50E94EF1D0E94021E90E0A0E0B0E0C0
:1003E000DC019927882788839983AA83BB830E948D
:1003F000021E488159816A817B81582B4883598329
:100400006A837B830E94021E488159816A817B81B5
:10041000482B488359836A837B830E94021E8F7016
:10042000F801808360E081E00ADFDF91CF911F91C6
:100430000F91FF90EF90DF90CF900895CF93DF93CF
:10044000C82F61E0FCDE80E40E94EF1D0E94021EC6
:10045000D82F60E08C2FF3DE8D2F881F8827881F10
:10046000DF91CF9108950F931F93CF93DF93CDB773
:10047000DEB72A97CDBFDEBF8C019E01295F3F4FBB
:10048000AE014D5F5F4FBE016E5F7F4FCE010196A3
:100490005DDF99819530B9F018F4943031F03CC0AB
:1004A0009630F9F0973059F137C0D8011C96ED918C
:1004B000FC911D978B819C81AD81BE8180A391A30E
:1004C000A2A3B3A329C0D8011C96ED91FC911D975E
:1004D0008B819C81AD81BE8184A395A3A6A3B7A384
:1004E0001BC0D8011C96ED91FC911D978B819C81BE
:1004F000AD81BE8180A791A7A2A7B3A70DC0D801E7
:100500001C96ED91FC911D978B819C81AD81BE81E4
:1005100084A795A7A6A7B7A79A819530B9F018F434
:10052000943031F03CC09630F9F0973059F137C033
:10053000D8011C96ED91FC911D978F819885A98516
:10054000BA8580AB91ABA2ABB3AB29C0D8011C96E6
:10055000ED91FC911D978F819885A985BA8584AB13
:1005600095ABA6ABB7AB1BC0D8011C96ED91FC9127
:100570001D978F819885A985BA8580AF91AFA2AF6D
:10058000B3AF0DC0D8011C96ED91FC911D978F81E2
:100590009885A985BA8584AF95AFA6AFB7AF2A96DF
:1005A000CDBFDEBFDF91CF911F910F910895CF9303
:1005B000DF93EC01188219821A821B821C821D8231
:1005C0001E821F82188619861A861B866CA57DA539
:1005D0008EA59FA50E94B62320EC3AE042E05BE4A2
:1005E0000E94E92220E035E94BEA57E40E944E23BD
:1005F0006C877D878E879F8768A979A98AA99BA91F
:100600000E94B62320EC3AE042E05BE40E94E9223B
:1006100020E035E94BEA57E40E944E23688B798B42
:100620008A8B9B8B6CA97DA98EA99FA90E94B6235A
:1006300028E839EE43E05BE40E94E92220E03BE356
:1006400048E058E40E944E236C8B7D8B8E8B9F8BF1
:1006500068AD79AD8AAD9BAD0E94B62320EC3AE03F
:1006600042E05BE40E94E92220E035E94BEA57E4EE
:100670000E944E23688F798F8A8F9B8F6CAD7DADE2
:100680008EAD9FAD0E94B62328E839EE43E05BE4CF
:100690000E94E92220E03BE348E058E40E944E2318
:1006A0006C8F7D8F8E8F9F8FDF91CF9108951F92DA
:1006B0000F920FB60F9211248F9381E08093A706BB
:1006C0008F910F900FBE0F901F9018951F920F9251
:1006D0000FB60F9211240BB60F928F939F93AF9387
:1006E000BF93EF93FF93A0E4B2E050968D919C915D
:1006F0005197E1ECF8E28483958352968D919C9119
:1007000053978683978354968D919C9155978087B4
:10071000918756968D919C91579782879387FF91E9
:10072000EF91BF91AF919F918F910F900BBE0F9062
:100730000FBE0F901F9018951F920F920FB60F9239
:1007400011240BB60F928F939F93EF93FF93E09139
:100750001E26F0911F26E257FB4D80818823F9F079
:100760008332E9F091E090932026853221F48AE0EB
:100770008093A00902C08093A00980911E269091C9
:100780001F268739910530F4019680931E26909399
:100790001F2607C0FC01E257FB4D108202C01092D9
:1007A0002026FF91EF919F918F910F900BBE0F909C
:1007B0000FBE0F901F9018951F920F920FB60F92B9
:1007C00011240BB60F922F933F934F935F936F9328
:1007D0007F938F939F93AF93BF93EF93FF93CF93A9
:1007E000DF93CDB7DEB72997CDBFDEBF8091A009DB
:1007F00089838981843221F481E08093242649C150
:100800008981823581F480912426882309F40CC1E2
:100810008FB7F8941092242698ED94BF91E09093AE
:1008200079008FBF36C189818133A9F48091242654
:10083000882309F4FFC00E948E202FEF87EA91E6FB
:10084000215080409040E1F700C000000E949220BB
:10085000109224261EC189818233A9F48091242616
:10086000882309F4EDC00E9486202FEF87EA91E6E5
:10087000215080409040E1F700C000000E948A2093
:100880001092242606C189818333A9F480912426FD
:10089000882309F4DBC00E9496202FEF87EA91E6B7
:1008A000215080409040E1F700C000000E949A2053
:1008B00010922426EEC089818433A9F480912426E5
:1008C000882309F4C9C00E949E202FEF87EA91E691
:1008D000215080409040E1F700C000000E94A2201B
:1008E00010922426D6C08981863389F480912426EB
:1008F000882309F4B7C0E2E2F6E286E990E0A0E0DE
:10090000B0E081879287A387B4871282C2C08981B1
:10091000873389F480912426882309F4A9C0E2E270
:10092000F6E288EC90E0A0E0B0E081879287A387B0
:10093000B4871282AEC08981883389F480912426DD
:10094000882309F49BC0E2E2F6E28EE591E0A0E0A4
:10095000B0E081879287A387B48712829AC0898189
:10096000893389F480912426882309F48DC0E2E23A
:10097000F6E28AE892E0A0E0B0E081879287A38760
:10098000B487128286C08981813469F480912426DB
:10099000882309F47CC0E2E2F6E281E087831682D4
:1009A0001582128276C08981803511F580912426C6
:1009B0008823F1F0E2E2F6E281E085831282CE0143
:1009C00002960E9484224AE0BE016E5F7F4F8DE94D
:1009D00096E20E94DF1581115CC02FEB38E24FE6F2
:1009E00050E060E070E28DE996E20E94C21751C0CB
:1009F00089818335B1F480912B2690912C26A0918A
:100A00002D26B0912E26892B8A2B8B2B51F080918D
:100A10002426882331F0E2E2F6E281E08683128226
:100A200038C01092242635C089818981823309F02B
:100A30002ACF06C089818981833309F03CCF06C063
:100A400089818981843309F04ECF06C089818981EB
:100A5000863309F05CCF06C089818981873309F02C
:100A60006ACF06C089818981883309F078CF06C0B2
:100A700089818981893309F086CF06C0898189817E
:100A8000813409F090CF03C089818981B1CF8981F8
:100A9000AFCF2996CDBFDEBFDF91CF91FF91EF9110
:100AA000BF91AF919F918F917F916F915F914F9186
:100AB0003F912F910F900BBE0F900FBE0F901F9084
:100AC00018951F920F920FB60F9211240F900FBE20
:100AD0000F901F9018951F920F920FB60F9211242E
:100AE0000BB60F928F939F93EF93FF938091E42027
:100AF000882349F18091E520813079F028F0823017
:100B0000D1F08330E1F024C0E4EEF0E210821382F1
:100B1000128280E48093A6061BC08091E720873074
:100B200018F01092E52014C090E49093A7068F5F10
:100B30008093E7200DC080E48093A70609C080E47D
:100B40008093A50605C01092E52080E48093A60658
:100B5000FF91EF919F918F910F900BBE0F900FBE61
:100B60000F901F9018951F920F920FB60F9211249D
:100B70000BB60F928F939F93AF93BF93EF93FF9317
:100B800010922426E6E3F6E280819181A281B3816E
:100B90000196A11DB11D80839183A283B383FF9130
:100BA000EF91BF91AF919F918F910F900BBE0F90DE
:100BB0000FBE0F901F9018951F920F920FB60F92B5
:100BC00011240BB60F922F933F934F935F936F9324
:100BD0007F938F939F93AF93BF93EF93FF9388E09F
:100BE0008093A7061092212680912526882341F123
:100BF00080913A2690913B26A0913C26B0913D26CB
:100C00008F3926E8920721E0A207B10560F401962A
:100C1000A11DB11D80933A2690933B26A0933C26BC
:100C2000B0933D2608C010923A2610923B261092AF
:100C30003C2610923D2610928A2410928B247CDD53
:100C4000FF91EF91BF91AF919F918F917F916F91A4
:100C50005F914F913F912F910F900BBE0F900FBE60
:100C60000F901F90189510921E2610921F26A2E238
:100C7000B6E21C9211961C921197E2E8F6E281EC22
:100C800098E280839183A283B3838EE894E2848385
:100C900095838AEF92E28683978386E396E2808744
:100CA000918780E996E28287938782E496E284873F
:100CB0009587089580E20E94441E0E94471E0E946C
:100CC000481E0E94CF1E0E94ED1E0E94021F88E255
:100CD00090E00E94491E8AEF90E00E94691E8AE01F
:100CE00090E00E94891E8AEF90E00E94A91E0E9457
:100CF000601AB9DF0E945D1F0E94691F80E0F6DA6A
:100D000080E0B5DA81E0F2DA81E0B1DAE0DA0E947F
:100D1000981A0E94AC1B87E08093A2000895E0EA35
:100D2000F6E084E085832FEF37E893E121503040EF
:100D30009040E1F700C0000086832FEF33EC99E08C
:100D4000215030409040E1F700C0000085832FEF34
:100D500037E893E1215030409040E1F700C00000B7
:100D600086832FEF33EC89E0215030408040E1F75B
:100D700000C000000895E2E2F6E2148281E083837D
:100D80001092212697DF7894CADF41E060E070E09E
:100D900085E099E20E9491150E94BC20F12C412C23
:100DA000512C320100EA16E06894CC24C4F80F2ECE
:100DB000F0E28F2EF6E29F2EF02D6894332435F862
:100DC000C2E2D6E20F2EF6E3AF2EF6E2BF2EF02DF2
:100DD0006894222421F86894EE24E2F8DD24D39468
:100DE0002AE02A95F1F700C080E028DB811159C084
:100DF000F801C78281EC98E20E94482182E896E2DD
:100E000032DBF2E0FF1508F04BC082E496E2CFDB64
:100E100082E896E20E94771FF401808181110AC066
:100E2000EAEFF2E2AEE8B4E284E991E001900D92DB
:100E30000197E1F7F80135828D81882349F1F501A9
:100E400080859185A285B3850196A11DB11D8087FE
:100E50009187A287B38768EE70E28AEF92E20E94E0
:100E6000F420823C9140C0F0F801258288EE90E2A7
:100E70000E94D5222FEB38E2AC0168EE70E28DE9DA
:100E800096E20E94C2171092E820F801268204C060
:100E90008DE996E20E940B1AF8013682F12C01C00E
:100EA000F394CE010E94C4208F818823B1F00E9468
:100EB000AD200E94A2200E948A200E9492200E94BF
:100EC00096200E94B4200E94C02019861A861B8694
:100ED0001C86F801D582E68283CF8D81882309F4B0
:100EE0007FCF8E81811103C00E949E2079CF89859A
:100EF0009A85AB85BC85892B8A2B8B2B09F470CF07
:100F0000F50180819181A281B38184159505A605A3
:100F1000B70508F465CF88858F5F8887823021F117
:100F200028F4882359F0813069F064C0843009F4D2
:100F300040C048F1853009F449C05CC0F801E58241
:100F4000D8864ECF0E94B4200E94AD200E94C020BF
:100F5000F5014080518062807380F8EE4F0EF3E01F
:100F60005F1E611C711C3CCF0E94B8200E947E2035
:100F7000F5014080518062807380F8EC4F0E511C67
:100F8000611C711C2DCF0E9482200E9486200E942D
:100F90008E200E94A62049845A846B847C84F501AB
:100FA00080819181A281B381480E591E6A1E7B1EE9
:100FB00017CF0E949220F50140805180628073809B
:100FC000FAE04F0E511C611C711C0ACF0E948A204E
:100FD0000E94A2200E94AD200E949620F501408030
:100FE000518062807380F8EE4F0EF3E05F1E611C4B
:100FF000711CF6CE0E949A200E94BC201E821D8287
:1010000019861A861B861C861886F801E682E8CEA9
:10101000FC016381862F90E0A0E0B0E0BA2FA92FF9
:10102000982F88272281822BBA2FA92F982F8827C3
:101030002181822BBA2FA92F982F88272081BC01CC
:10104000CD01622B0895FC01408351836283738339
:1010500008954115510551F0A62FB72FFC01480FF7
:10106000591F9D919193E417F507D9F70895CF92F1
:10107000DF92EF92FF92FC019A01AB0122503109FD
:1010800041095109C788D08CE18CF28C82E0C81AE2
:10109000D108E108F1082C153D054E055F0568F4FF
:1010A000A185B2850E94D824C3A4D4A4E5A4F6A443
:1010B0006C0D7D1D8E1D9F1D03C060E070E0CB0197
:1010C000FF90EF90DF90CF9008950F931F93CF93F1
:1010D000DF93EC01FB0111868E899F89A88DB98D64
:1010E000892B8A2B8B2B09F441C0E0E0F0E020E053
:1010F00030E01EE285EEA9014F5F5F4FAA8DBB8DE8
:10110000A20FB31F9C91903291F0953009F4982F63
:101110004930510531F4DB01AE0FBF1F19961C9306
:101120003196DB01AE0FBF1F19969C9331969A0141
:101130004B30510501F78B01E60FF71F1186EA8D41
:10114000FB8D8385FB0180878A8D9B8D4C9660DFAC
:10115000F80160837183828393838A8D9B8D469689
:1011600057DFF8016683778384839583DF91CF917E
:101170001F910F910895CF93DF93EC01A881B9815E
:101180001097F9F04C91413258F04A3331F1FD019A
:1011900031969F019191913228F09A33D1F704C092
:1011A000942F9D019A3381F4CD01019628173907B8
:1011B00071F4403379F41296A883B98380E090E00B
:1011C0000EC08FEF9FEF0BC080E090E008C08FEF64
:1011D0009FEF05C08FEF9FEF02C09D01E5CFDF912C
:1011E000CF9108950F931F93CF93DF93EC018B0161
:1011F000892B99F0E881F981309779F080818823F3
:1012000061F0258136818A819B812817390729F46D
:1012100081810E94D21C80FF05C0F80110821182DA
:1012200089E006C088819981F8018083918380E0FC
:10123000DF91CF911F910F9108958F929F92AF925E
:10124000BF92CF92DF92EF92FF920F931F93CF93B3
:10125000DF93FC012381222309F446C0EC01C7A4DB
:10126000D0A8E1A8F2A85C01F3E3AF0EB11C01E045
:1012700010E0A7019601B50189810E94E61C811149
:1012800035C01B828BA19CA1ADA1BEA1B701A60157
:10129000481B590B6A0B7B0B8B8D9C8DAD8DBE8DC6
:1012A000481759076A077B0718F58A80912C82E056
:1012B00088169104F8F08B8D9C8DAD8DBE8DC80E77
:1012C000D91EEA1EFB1E01E010E0A7019601B50140
:1012D00089810E94E61CE1E08E1A9108F1E08F16E8
:1012E000910449F780E007C080E005C081E003C0B9
:1012F00080E001C080E0DF91CF911F910F91FF90BE
:10130000EF90DF90CF90BF90AF909F908F90089517
:101310008F929F92AF92BF92FF920F931F93CF93A2
:10132000DF93EC014A015B018FA598A9A9A9BAA98D
:1013300084179507A607B707E1F0CE017EDFF82EE8
:10134000811118C001E010E0A5019401BE016D5C9F
:101350007F4F89810E94D91C882331F0FF24F394A8
:1013600088248A94982C54018FA698AAA9AABAAA6C
:1013700001C0F12C8F2DDF91CF911F910F91FF9024
:10138000BF90AF909F908F900895EF92FF920F9330
:101390001F93CF93DF93EC0150DF982F811159C039
:1013A0008881833009F04BC08C81813009F047C0BF
:1013B0007E0183E3E80EF11CF7019E012D5C3D4F99
:1013C0001192E217F307E1F785E5FE01EF5CFD4FAF
:1013D00080838AEA3196808342E552E561E671E4D2
:1013E000C70131DE42E752E761E471E6CE01895E72
:1013F0009D4F29DE4F85588969897A89CE01855E9E
:101400009D4F21DE4B855C856D857E85CE01815E9D
:101410009D4F19DE8F8D98A1A9A1BAA19C01AD01A4
:101420002F5F3F4F4F4F5F4F2FA738AB49AB5AABA2
:1014300001E010E0B70189810E94E61C1C8240E0B7
:1014400050E060E089810E941C1D91E0811101C083
:1014500090E0892FDF91CF911F910F91FF90EF9036
:1014600008954F925F926F927F928F929F92AF9268
:10147000BF92CF92DF92EF92FF920F931F93CF9381
:10148000DF93EC016A017B012801390142305105EB
:101490006105710508F4CAC08F89988DA98DBA8D30
:1014A000481759076A077B0708F0C2C08881823055
:1014B00009F462C0833009F481C0813009F0BAC0F8
:1014C0005A01B694A794A40EB51EC501892F992779
:1014D00086954BA15CA16DA17EA1480F591F611D8E
:1014E000711DCE0115DF182F8111C2C045018FEF8C
:1014F000881A980A31E0B322C0FE20C0FE01EA0D2E
:10150000FB1D83A9282F2F7030E1439EC0011124B9
:10151000822B83AB81E08B834BA15CA16DA17EA16B
:10152000C401892F99278695480F591F611D711D88
:10153000CE01EEDE882309F483C07EC0FE01EA0DF1
:10154000FB1D43AA81E08B834BA15CA16DA17EA111
:10155000C401892F99278695480F591F611D711D58
:10156000CE01D6DE882309F476C068C0EC0FFD1FDB
:1015700043AA81E08B837CC0452F562F672F7727A6
:101580008BA19CA1ADA1BEA1480F591F6A1F7B1F53
:10159000CE01BEDE182F81116BC0CC0CDD1CE8948F
:1015A000C0F881E0D822FE01EC0DFD1D43AAFE012A
:1015B000EC0DFD1D54AA81E08B835AC08BA19CA128
:1015C000ADA1BEA1689416F8769567955795479595
:1015D0001694D1F7480F591F6A1F7B1FCE0198DE62
:1015E000182F811145C03FE07322CC0CDD1CCC0CC0
:1015F000DD1C76018CEFE82281E0F82233E3E30E74
:10160000F11CEC0EFD1EC70103DDDC01CB018827B8
:101610009927AA27B07FAC01BD0144295529662925
:101620007729C70110DD81E08B8322C012E020C042
:1016300012E01EC012E01CC0182F1AC0182F18C0CC
:10164000F401F170689413F8769467945794479472
:101650001694D1F78BCFF401F170DE01AE0FBF1FEE
:10166000D3969C91907F852D8F70492E482A7ECFEE
:10167000812FDF91CF911F910F91FF90EF90DF901D
:10168000CF90BF90AF909F908F907F906F905F9022
:101690004F900895FB01228F338FDC018C918330B2
:1016A00029F4CA01AA27BB27848B958B0895AF9292
:1016B000BF92CF92DF92EF92FF920F931F93CF933F
:1016C000DF936A017B01FC01C081D1814230510569
:1016D0006105710508F49EC08F89988DA98DBA8D1A
:1016E000481759076A077B0708F099C0888182303C
:1016F00009F44BC0833009F46AC0813009F094C00A
:101700008A0116950795040F151FC801892F99277F
:1017100086954BA15CA16DA17EA1480F591F611D4B
:10172000711DCE01F5DD811184C058018FEFA81A1B
:10173000B80A1170FE01E00FF11F13A9C501892F2E
:10174000992786954BA15CA16DA17EA1480F591FD9
:10175000611D711DCE01DCDD81116FC0E1E0BE2293
:10176000CA0DDB1D8BA9612F70E0782BC0FE09C06C
:10177000729562956F7067277F70672780E090E0B1
:1017800067C07F7080E090E063C0452F562F672FC1
:1017900077278BA19CA1ADA1BEA1480F591F6A1F3D
:1017A0007B1FCE01B5DD81114CC0CC0CDD1CE89453
:1017B000C0F8F1E0DF22FE01EC0DFD1D64A970E030
:1017C000762F662783A9682B80E090E041C08BA12B
:1017D0009CA1ADA1BEA1689416F876956795579522
:1017E00047951694D1F7480F591F6A1F7B1FCE01EA
:1017F0008FDD81112AC0CC0CDD1CCC0CDD1C8CEFE4
:10180000C82281E0D822C601C3968C0F9D1F00DC40
:101810009F701EC061E070E080E090E019C061E060
:1018200070E080E090E014C061E070E080E090E063
:101830000FC06FEF7FEFCB010BC06FEF7FEFCB01DE
:1018400007C06FEF7FEFCB0103C06FEF7FEFCB01DE
:10185000DF91CF911F910F91FF90EF90DF90CF908C
:10186000BF90AF9008954F925F926F927F928F9248
:101870009F92AF92BF92CF92DF92EF92FF920F931F
:101880001F93CF93DF93EC016A017B0108811981DB
:101890004115510580E26807710508F0B0C0DB0111
:1018A000CA018F719927AA27BB27892B8A2B8B2BDB
:1018B00009F0A7C04E875F87688B798B8E809F80E9
:1018C000A884B98481149104A104B10461F5F801DC
:1018D0008081833040F087A190A5A1A5B2A5009793
:1018E000A105B105F1F4F80187819085A0E0B0E091
:1018F000B701A601689414F87695679557954795B2
:101900001694D1F7481759076A077B0708F07BC080
:1019100087A190A5A1A5B2A58E8B9F8BA88FB98F0B
:1019200044C04C015D01F80141845284612C712C4A
:10193000032E39E0440C551C661C771C3A95D1F7F0
:10194000302DC414D504E604F70438F1B501A40120
:10195000CE01ADDE4B015C016F3F7F4F8F4F9F4F3C
:1019600009F453C082E088169104A104B10408F47C
:101970004EC0F8018789908DA18DB28D8816990689
:10198000AA06BB0608F045C0C418D508E608F70843
:10199000C414D504E604F704C8F6B501A401C801CF
:1019A00066DB6E8B7F8B888F998F8A8A9B8AAC8A45
:1019B000BD8A8E899F89A88DB98D0097A105B10533
:1019C00051F1B701A601032E39E076956795579539
:1019D00047953A95D1F7302D840F951FA61FB71F55
:1019E0008E8B9F8BA88FB98FF1E0DF2283E3C80E27
:1019F000D11C0C0D1D1D0A8F1B8F80E00DC082E0D5
:101A00000BC082E009C082E007C081E005C082E02F
:101A100003C082E001C082E0DF91CF911F910F915E
:101A2000FF90EF90DF90CF90BF90AF909F908F90FE
:101A30007F906F905F904F9008954F925F926F925A
:101A40007F928F929F92AF92BF92CF92DF92EF924E
:101A5000FF920F931F93CF93DF938C012A013B01D9
:101A6000FC01C081D1814115510561057105B9F4B1
:101A70008B849C84AD84BE8481149104A104B10440
:101A800051F18F89988DA98DBA8D88169906AA066D
:101A9000BB0628F1812C912C5401839420C007DED1
:101AA0006B017C01623071058105910508F495C0D8
:101AB0006F3F7F4F8F4F9F4F09F494C08F89988D50
:101AC000A98DBA8DC816D906EA06FB0608F48FC0A0
:101AD0005301420104C0812C912C5401839475015F
:101AE00064018FEFC81AD80AE80AF80A8F89988D1E
:101AF000A98DBA8DC816D906EA06FB0660F0E2E0A9
:101B00008E169104A104B10408F476C0C12CD12C26
:101B100076016894C1F8B701A601C801C8DD611556
:101B200071058105910591F061307105810591057F
:101B300009F467C06F3F7F4F8F4F9F4F09F466C016
:101B4000C814D904EA04FB0461F665C08C2C9D2CF2
:101B5000AE2CBF2C0FEF1FEF9801B701A601CE01ED
:101B600080DC811133C0411451046104710451F0CF
:101B70000C2D1D2D2E2D3F2DB301A201CE0171DCA8
:101B8000811124C08B869C86AD86BE864F85588980
:101B900069897A898F89988DA98DBA8D0297A10953
:101BA000B109481759076A077B0740F441505109AA
:101BB000610971094F87588B698B7A8B8C818160A1
:101BC0008C836C2D7D2D8E2D9F2D2EC0813041F16B
:101BD00061E070E080E090E027C061E070E080E0CC
:101BE00090E022C06FEF7FEF8FEF9FEF1DC06C2D55
:101BF0007D2D8E2D9F2D18C060E070E080E090E07C
:101C000013C061E070E080E090E00EC06FEF7FEF06
:101C10008FEF9FEF09C060E070E080E090E004C0CB
:101C20006FEF7FEF8FEF9FEFDF91CF911F910F91BC
:101C3000FF90EF90DF90CF90BF90AF909F908F90EC
:101C40007F906F905F904F9008954F925F926F9248
:101C50007F92AF92BF92CF92DF92EF92FF920F935B
:101C60001F93CF93DF935C016A017B01B901A80147
:101C7000FC01C081D181F2E0CF16D104E104F1046E
:101C800008F45DC08F89988DA98DBA8DC816D906C4
:101C9000EA06FB0608F055C0012B022B032B39F096
:101CA0000FEF1FEF9801CE01DCDB811151C0B701AE
:101CB000A601C501FCDC2B013C0161157105810504
:101CC000910509F440C06130710581059105E9F184
:101CD0008FEF4816580668067806C9F100E010E054
:101CE0009801B701A601CE01BCDB811131C08F85FF
:101CF0009889A989BA894F89588D698D7A8D6A0129
:101D00007B01E2E0CE1AD108E108F1088C159D05AF
:101D1000AE05BF0550F40196A11DB11D8F87988BAC
:101D2000A98BBA8B8C8181608C837301620144160C
:101D300055066606770608F4BACF80E009C082E04F
:101D400007C082E005C080E003C082E001C081E0FE
:101D5000DF91CF911F910F91FF90EF90DF90CF9087
:101D6000BF90AF907F906F905F904F9008954F928B
:101D70005F926F927F929F92AF92BF92CF92DF92CB
:101D8000EF92FF920F931F93CF93DF93EC01A88004
:101D9000B980CE84DF84E888F9888E899F89A88DF0
:101DA000B98D0097A105B10509F4F5C020E2C20E76
:101DB000D11CE11CF11CC114D104E0E2EE06F104D7
:101DC00008F0EBC08B01B701A60151706627772799
:101DD000452B462B472B09F0CFC00196A11DB11D05
:101DE0008E8B9F8BA88FB98F4A895B896C897D897F
:101DF0004115510561057105D9F4F501878190857B
:101E0000A0E0B0E0B701A601689414F87695679554
:101E1000579547951694D1F7481759076A077B07D6
:101E200008F4AAC01E8A1F8A188E198E84E0C4C0C6
:101E3000F501818592850197A0E0B0E02601370188
:101E4000032E39E076946794579447943A95D1F7E6
:101E5000302D84219521A621B721892B8A2B8B2B0C
:101E600009F08AC0CE0123DC2B013C0162307105F0
:101E70008105910508F493C06F3F7F4F8F4F9F4FAF
:101E800009F48FC0F5018789908DA18DB28D481618
:101E900059066A067B0608F463C0012B31F41E8ADA
:101EA0001F8A188E198E84E087C04A895B896C89E5
:101EB0007D89CE01C2DD2B013C01611571058105D3
:101EC000910509F470C0613071058105910509F42F
:101ED0006CC06F3F7F4F8F4F9F4F09F468C0C501A3
:101EE000ACD9811166C0F501F396C5018D5C9D4F9B
:101EF0001192E817F907E1F7B301A201C501B7D8BC
:101F0000F50167A770AB81AB92AB00E010E09924BC
:101F1000939414C0F5019382C5018FD981114BC0F0
:101F20000F5F1F4FF50187A590A9A1A9B2A901963E
:101F3000A11DB11D87A790ABA1ABB2ABF501818507
:101F400092850817190730F387A590A9A1A9B2A90E
:101F5000801B910BA109B10987A790ABA1ABB2ABD4
:101F60004A8A5B8A6C8A7D8AB301A201C5017FD847
:101F70006E8B7F8B888F998FCE86DF86E88AF98A71
:101F8000F1E0DF2223E3C20ED11CAC0CBD1CAA8EF3
:101F9000BB8E80E011C084E00FC084E00DC082E001
:101FA0000BC081E009C087E007C082E005C081E086
:101FB00003C081E001C081E0DF91CF911F910F91BB
:101FC000FF90EF90DF90CF90BF90AF909F907F9069
:101FD0006F905F904F900895EF92FF920F931F9331
:101FE000CF938C01DC01ED90FC9040E050E0BA0111
:101FF0003ADCC82F811140C0F80146895789608DAD
:10200000718DC70185D9C82F811136C0D8015A9664
:10201000ED91FC915B979081953E51F0992341F0B1
:1020200061E070E0C801A3DEC82F882329F324C033
:10203000F80146895789608D718DC70169D9C82F0C
:1020400081111DC0D8015A96ED91FC915B97CF018B
:1020500080961192E817F907E1F7B801645E7F4FA7
:102060004BE050E0F801828D938D0E94290881E0B9
:10207000D70113968C9303C0C43009F4C7E08C2FAA
:10208000CF911F910F91FF90EF900895CF93DF9321
:10209000EC011B828FEF9FEFDC018FA798ABA9AB00
:1020A000BAABCE0135D981112EC0FE01EE5CFD4FD9
:1020B000808190E0982F882731972081822B853569
:1020C0009A4A19F58BA9893E29F08B3E01F58DA915
:1020D0008039F9F4CE0187599F4F0E940808DC012E
:1020E000CB01BB2786349144A445B105A1F0CE01B4
:1020F0008B579F4F0E940808663471448445934370
:1021000061F480E00BC084E009C083E007C082E096
:1021100005C082E003C080E001C082E0DF91CF9182
:1021200008952F923F924F925F926F927F928F927B
:102130009F92AF92BF92CF92DF92EF92FF920F9356
:102140001F93CF93DF93CDB7DEB76E97CDBFDEBFC2
:102150006B01B42EDB011D921C920DD87C019923DA
:102160000CF439C2FC01EE0FFF1FE556F94D00815A
:1021700011810115110509F430C2F60100831183A4
:10218000FB2DFE7FBF2ED8018C91882369F011961C
:102190008C910E94D21C80FD07C0BB2009F41FC295
:1021A00082FF1FC28AE0DEC2F8011082E1828E2D1A
:1021B0000E94CA1C80FD17C2BB2009F43AC282FDEE
:1021C00014C237C2F70134978081882321F0C701F8
:1021D0000E94080803C060E070E0CB01D6016D9357
:1021E0007D938D939D936D01B0E1EB0EF11CC814AE
:1021F000D90441F7F501C190D190E190F1905F01D0
:10220000C114D104E104F10439F0B701A601C801F9
:102210003DDF823010F423C283E0A814B90451F7E3
:1022200003C0C12CD12C7601843009F4E0C1823086
:1022300008F0DFC1D801DF968C91DF9790E0982FEE
:102240008827DE962C91822B8115924009F0D3C10C
:10225000F801E65BFF4F4080512C542C4424319709
:102260008081482A612C712C41145104610471044D
:1022700039F4C801895A9F4F0E9408082B013C017C
:10228000F801438E548E658E768EED5BFF4F208174
:10229000298BD80112962C93822F8150823008F01E
:1022A000ACC13397B081BE8F8B2F90E0F80181874E
:1022B0009287009709F4A3C19C0121503109822320
:1022C0009323892B09F09DC1EB5BFF4F808190E048
:1022D000982F8827319720811C01222AD801179630
:1022E0002D923C921897C1018F709927892B09F084
:1022F0008AC133968080912C982C882431978081D4
:10230000882AA12CB12C81149104A104B10439F4C0
:10231000C8018D5A9F4F0E9408084B015C01F801CB
:10232000EE5BFF4FE081F0E0FE2FEE27D801AF5BC0
:10233000BF4F8C91E82B309709F467C12989A22FF0
:10234000B0E0A30192010E94D8246E8B7F8B888F0E
:10235000998FCF01A0E0B0E08A8F9B8FAC8FBD8FAB
:10236000C101929582958F7089279F7089272A8D48
:102370003B8D4C8D5D8D280F391F411D511DDA019C
:10238000C9012E893F89488D598D280F391F4A1F51
:102390005B1F2A8B3B8B4C8B5D8B82169306A406AE
:1023A000B50608F434C1C501B401621B730B840B7C
:1023B000950BAE8D2A2F30E040E050E00E94A7241C
:1023C000DA01C901211531054105510509F421C181
:1023D000263FEFEF3E074105510518F4F2E0F98B77
:1023E00002C063E0698B863F9F40A105B10508F4F8
:1023F0003AC149015A01F2E08F0E911CA11CB11C97
:10240000D80157968D929D92AD92BC925A97F80141
:10241000C78ED0A2E1A2F2A28A8D9B8DAC8DBD8D1C
:102420008C0D9D1DAE1DBF1D83A394A3A5A3B6A3B4
:102430004A895B896C897D894C0D5D1D6E1D7F1DF0
:1024400043A754A765A776A7F989F330D1F5F8011A
:10245000E25AFF4F808190E0982F882731972081A2
:10246000822B892B09F0D7C0232809F0D6C0C801D8
:10247000815A9F4F0E940808D80197966D937D93CB
:102480008D939C939A97880C991CAA1CBB1C880C52
:10249000991CAA1CBB1CBFEF8B0EB1E09B1EA11C9C
:1024A000B11C072E79E0B694A794979487947A95F7
:1024B000D1F7702D481459046A047B0408F4AFC0A6
:1024C00026C1232809F4ADC02E893F89488D598D36
:1024D000820F931FA41FB51FF80187A390A7A1A780
:1024E000B2A7F989F23029F4880C991CAA1CBB1CEC
:1024F000F8C0A3E0B0E0A50194010E94D824DC015B
:10250000CB01B695A7959795879521E082229924CE
:10251000AA24BB24880E991EAA1EBB1EE2C0B701C6
:10252000A6014F5F5F4F6F4F7F4FC8010E94880920
:10253000811139C0D80114961C92F801EE5CFD4F50
:10254000808190E0982F882731972081822B8535D4
:102550009A4A49F5C801C3960E9408086235724537
:102560008146914401F5C801895E9D4F0E9408088B
:102570006237724781449146B1F4C801855E9D4F30
:102580000E940808D8011F966D937D938D939C93AC
:102590005297C801815E9D4F0E940808F801638729
:1025A000748785879687E989D801EC93809199266D
:1025B00090919A2601968093992690939A26159643
:1025C0008D939C93169753961D921D921D921C926B
:1025D000569780E0C7C08BE0C5C08CE0C3C080E0E8
:1025E000C1C080E0BFC083E0BDC08AE0BBC081E065
:1025F000B9C08DE0B7C08DE0B5C08DE0B3C08DE04F
:10260000B1C08DE0AFC08DE0ADC08DE0ABC08DE05E
:10261000A9C08DE0A7C08DE0A5C08DE0A3C08DE06E
:10262000A1C08DE09FC081E09DC08DE09BC08DE08A
:1026300099C040E050E0BA01C80128DD823009F0BD
:10264000F0CDFE0131965F017801F7E0EF1AFEEF61
:10265000FF0A4E0121E1820E911C6501B3CD843049
:1026600009F0E8CDE0CF49015A0162E0860E911CE5
:10267000A11CB11CD80157968D929D92AD92BC922F
:102680005A97F801C78ED0A2E1A2F2A28A8D9B8D43
:10269000AC8DBD8D8C0D9D1DAE1DBF1D83A394A360
:1026A000A5A3B6A32A893B894C895D89C20ED31E96
:1026B000E41EF51EC3A6D4A6E5A6F6A6232809F4B3
:1026C000B4CF40C08FEF9FEFDC01F8018787908B7C
:1026D000A18BB28B83879487A587B68780E8848394
:1026E00062CFFFEF8F0EF1E09F1EA11CB11C072EE1
:1026F00079E0B694A794979487947A95D1F7702D42
:10270000481459046A047B0408F491CFDBCF8FEF9F
:102710009FEFDC01F8018787908BA18BB28B8387B9
:102720009487A587B68780E88483EC59FF4F808122
:1027300090E0982F882731972081822B019709F00C
:1027400032CFEDCE2E893F89488D598D820F931F50
:10275000A41FB51FF80187A390A7A1A7B2A7F1E016
:10276000F98BC7CE6E96CDBFDEBFDF91CF911F91A3
:102770000F91FF90EF90DF90CF90BF90AF909F9020
:102780008F907F906F905F904F903F902F90089523
:102790000F931F93DC01FB01938D692F70E0762F5F
:1027A0006627828D682B80E090E02C91233079F4AD
:1027B000058910E0102F00272489022B20E030E04B
:1027C000980111270027602B712B822B932B1F91CF
:1027D0000F9108952F923F924F925F926F927F9246
:1027E0008F929F92AF92BF92CF92DF92EF92FF9221
:1027F0000F931F93CF93DF9300D01F92CDB7DEB717
:102800008C015B01DC016D907C90FB0180818F323B
:1028100011F4F5010DC08C35E1F3F301838994893E
:10282000A589B689F80186839783A087B1870DC0F3
:102830005F0181918F32E1F38C35D1F3D801169687
:102840001D921D921D921C921997F5018081803274
:1028500050F480E8D80197968C9340E050E0BA019C
:10286000C80101D848C11801BCE12B0E311C2982D6
:102870003A826801E7E2CE0ED11C6894FF24F5F895
:102880000F2EFEE2EF2EF02D4801FDE18F0E911C80
:10289000CB82DC82E981FA818B819C81F192E817FD
:1028A000F907E1F78B839C83D5018C918E3249F037
:1028B000C12CD12C40E050E06894442443F8512CC2
:1028C00021C0D8015C96EC925C97F50181818E3233
:1028D00049F45D96EC9282818E3209F466C023E061
:1028E00030E002C022E030E08F3209F4BEC08C3507
:1028F00009F4BBC0813208F0DFC0B3C0D80197969D
:102900008C93CCC04F5F5F4F6D916132B8F16F32E5
:1029100011F06C3581F4F501E40FF51F2B813C813A
:1029200002C04F5F5F4F81918F32D9F38C35C9F36D
:102930002B833C8323C06E3209F49BC0C414D5049E
:1029400008F0BAC066230CF4B7C0262F30E022325C
:10295000310559F1E1E7F0E28191882309F498C04B
:1029600090E028173907C1F720C06052F101EC0D43
:10297000FD1D6083F60131966F01C4CFCD2809F4A7
:102980009BC0D8015C968C915C97853E19F4E5E07C
:102990005C96EC93613210F080E001C084E0A40EFC
:1029A000B51ED80197968C9379C086E0A4C0F80133
:1029B00046895789608D718DC6010E9488098111F1
:1029C00084C0F801A28DB38D9C91992309F486C02F
:1029D0001B969C911B979F7394831B969C911B97AE
:1029E00093FF81C00EC02D91919130E0291B3109D8
:1029F000E415F50519F0232BB1F303C0232B09F4DB
:102A00005DC060E070E0C801B2D9882381F24B82DA
:102A10005C825DC095FF08C092FF3CCF80E8D80182
:102A200097968C9380E067C092FD17C085E063C0E5
:102A3000F801848184FF13C06685778571706D5CB1
:102A40007F4F660D771DC301A3DED80116966D93E7
:102A50007D938D939C9319971DCF84E04CC085E0A6
:102A60004AC0A20EB31E84E249CFA20EB31E8F2D20
:102A700045CFEBE04E16510409F497CF6894CC246F
:102A8000C3F8D12C0F2EFBE04F2E512CF02D3ACF56
:102A90008FE9860F8A3108F468CF68CFD801CD90CE
:102AA000DC9040E050E0BA01C8010E94330C811173
:102AB0000EC04B805C807BCF86E01DC04B825C8269
:102AC000F80197A192FFB4CF16C04B825C82D80167
:102AD00097969C91843009F49DCF0DC04B825C8207
:102AE000F80197A197CF2D9130E0F801948D291B23
:102AF0003109F40180CF2496CDBFDEBFDF91CF91A5
:102B00001F910F91FF90EF90DF90CF90BF90AF900B
:102B10009F908F907F906F905F904F903F902F90FD
:102B200008951F93CF93DF9300D000D0CDB7DEB7C9
:102B30008B839C836D837E83142F69837A83CE017C
:102B400001960E94BB0899232CF1FC01EE0FFF1F98
:102B5000E556F94D0190F081E02D309709F0108293
:102B6000EB81FC813097E1F010822B813C81880F52
:102B7000991FFC01E556F94D20833183232B61F029
:102B8000113061F440E0BE016D5F7F4FCE010596CC
:102B9000C8DA0EC08BE00CC080E00AC080E008C03C
:102BA000880F991FFC01E556F94D1082118280E0D3
:102BB0002696CDBFDEBFDF91CF911F9108954F9232
:102BC0005F926F927F928F929F92AF92BF92CF92BD
:102BD000DF92EF92FF920F931F93CF93DF93CDB7C6
:102BE000DEB7E097CDBFDEBF6BA77CA7009709F4E7
:102BF00049C1142F7C01242F2F73D22E422FBE01E6
:102C0000675D7F4FCE018B968CDA811137C189A524
:102C10009AA589839A836BA57CA5CE010196DADDFE
:102C2000811132C188A588230CF036C131C18430AE
:102C300009F062C1CE010196CFD93D2D3860D32E67
:102C4000882339F031C18D81817109F083C112FD72
:102C500083C1D3FE2CC1BED72B013C018B8D9C8D33
:102C6000B301A2010E960E9423088B8D9C8DB301A7
:102C7000A20146960E942308EB8DFC8D80E283879B
:102C8000AB8CBC8C09A51AA5B501C80181DD2B014F
:102C90003C0120E030E0A901B501C8010E944A0BC7
:102CA0008B8D9C8D40E050E0BA014C960E94230829
:102CB000E9A5FAA581E083834114510461047104FC
:102CC00009F4F5C087A490A8A1A8B2A800E010E07C
:102CD0009801B301A201CE0101960E94250E811137
:102CE000E3C0B501A40189A59AA50E948809E9A5B8
:102CF000FAA541E0441A51086108710843865486D8
:102D000065867686882331F0B9C011FFD0C080FD7A
:102D1000C8C0CDC05D2D5064D52EE9A5FAA587A504
:102D200090A9A1A9B2A9F701848F958FA68FB78F1B
:102D30008B8D9C8D80A391A3AB8CBC8C09A51AA50F
:102D4000B501C80125DDD70116966D937D938D934E
:102D50009C931997C5014C960E940808F701628759
:102D600073878487958700831183D80115968D9189
:102D70009C91169782839383D6861786108E118E28
:102D8000128E138E108A118A128A138A5701B2E2A8
:102D9000AB0EB11CF501C7018E5D9D4F1192E81776
:102DA000F907E1F7D5FEA1C0F7014284538464849A
:102DB0007584411451046104710409F496C0408A79
:102DC000518A628A738AF80181859285A0E0B0E019
:102DD0009C01AD01012E19E0220F331F441F551F26
:102DE0001A95D1F7102D2DA73EA74FA758ABD701A5
:102DF00016964D915D916D917C9119978DA59EA52B
:102E0000AFA5B8A984159505A605B70508F05CC05F
:102E1000C7010E94570BAB01BC014230510561054F
:102E2000710508F080C08FC0C9A4DAA4C6010E9451
:102E30003708611571058105910509F458C0032E05
:102E400039E076946794579447943A95D1F7302DAA
:102E50009B01AC01240D351D461D571DD701589609
:102E60002D933D934D935C935B9701E010E0B5018A
:102E7000F60181819ED581113CC037C0D7011D92DA
:102E80001C926CC089E06AC01C7109F0D0CE0CC0E5
:102E90001C7189F586E008C0812F8C7109F0D3CEB2
:102EA0002FC087E001C084E08111E8CF45CFD3FC7B
:102EB00031CF33CF8FEF9FEFDC01F701848B958B00
:102EC000A68BB78B81E0DACFD70154964D935D93F3
:102ED0006D937C935797D301C2019170AA27BB27AA
:102EE000892B8A2B8B2B09F09FCF80E037C082E0A3
:102EF000C5CF81E0C3CF86E0BD2DB860DB2ED4CF37
:102F00008D8184FDD0CF01CF8DA59EA5AFA5B8A999
:102F1000481A590A6A0A7B0A84159505A605B70559
:102F200008F476CFD1CF4F3F9FEF59076907790754
:102F300059F7C0CFD70154964D935D936D937C9311
:102F4000579782E09BCF4F3FBFEF5B076B077B0735
:102F500089F7B0CF87E092CF88E090CFE096CDBFE1
:102F6000DEBFDF91CF911F910F91FF90EF90DF9027
:102F7000CF90BF90AF909F908F907F906F905F9019
:102F80004F9008952F923F924F925F926F927F924F
:102F90008F929F92AF92BF92CF92DF92EF92FF9269
:102FA0000F931F93CF93DF93CDB7DEB72A97CDBF93
:102FB000DEBF7C014B016A015901F90110821182C7
:102FC0008F83F886BE016F5F7F4F0E94F2088111E8
:102FD00090C1F701878581118CC1868581FF88C1E9
:102FE00080899189A289B389AC01BD014C0D5D1D19
:102FF000611D711D481759076A077B0718F46C019A
:10300000C094D094C114D10409F46CC197012E5D11
:103010003F4F29873A87F70180899189A289B3892F
:10302000AC01BD01517066277727452B462B472BF6
:1030300009F012C1E981FA8161847284F1E06F1AAA
:103040007108AC01BD01032E39E07695679557955F
:1030500047953A95D1F7302D642275226114710499
:1030600009F049C0892B8A2B8B2B91F4F7016681DB
:103070007781808591856115710581059105B9F488
:1030800040E050E0BA018F8198850E941D0D09C073
:10309000F70144895589668977898F8198850E94CF
:1030A0001D0D611571058105910509F41BC1613084
:1030B00071058105910521F482E0F701878719C127
:1030C0006F3FFFEF7F078F079F0721F481E0F70134
:1030D00087870FC1F701648B758B868B978B068171
:1030E000178120853185012B022B032B21F4668368
:1030F000778380879187F70186858823B4F4208DB4
:10310000318D428D538DE981FA8101E010E06985AE
:103110007A8581815BD4882321F081E0F70187875C
:10312000E8C0F70186858F77868729813A812D83CC
:103130003E83F7014489558966897789C9010E94D0
:103140003708611571058105910521F482E0F701C9
:103150008787CFC01B012C01260C371C411C511C3A
:103160009601232F332726952B833C832115310588
:1031700009F446C0ED81FE8181859285260D371DBB
:103180008217930728F49C01261937092B833C8367
:103190000B811C81A2019101B401ED81FE8181812D
:1031A00015D4882321F081E0F7018787A2C0F701B9
:1031B000808D918DA28DB38D82199309A409B509D3
:1031C0002B813C81A90160E070E084179507A60778
:1031D000B70780F4982F8827990FB401680F791FDB
:1031E00040E052E089859A850E942908F70186858A
:1031F0008F7786876B807C80762C6624770C48C01E
:10320000F701808D918DA28DB38D82159305A40554
:10321000B505E9F040895189628973898285938572
:10322000A485B585481759076A077B0780F401E034
:1032300010E0A201910169857A85ED81FE8181818D
:10324000B8D3882321F081E0F701878752C0F701C6
:10325000208E318E428E538EF70180899189A2890A
:10326000B389AC01517020E032E0241B350B3601EC
:103270002C153D0508F4390191708296A301B40123
:103280008E0D9F1D0E942908F7018685806886871C
:10329000860C971CF70180899189A289B389860DD4
:1032A000971DA11DB11D808B918BA28BB38B428585
:1032B00053856485758584179507A607B70710F4AD
:1032C000DB01CA01F70182879387A487B587F501DF
:1032D00080819181860D971D80839183C618D708C0
:1032E00009F099CEF70186858064868780E001C069
:1032F00087E02A96CDBFDEBFDF91CF911F910F915E
:10330000FF90EF90DF90CF90BF90AF909F908F9005
:103310007F906F905F904F903F902F9008958F9285
:103320009F92AF92BF92EF92FF920F931F93CF9312
:10333000DF931F921F92CDB7DEB77C01BE016F5F96
:103340007F4F0E94F208811159C0F701868586FFE0
:1033500052C088239CF4208D318D428D538DE9819C
:10336000FA8101E010E0B7016E5D7F4F81812ED3BD
:10337000811143C0F70186858F7786872BD44B0157
:103380005C01F701448D558D668D778D89819A8119
:103390000E948809811132C0F70100A111A1F80132
:1033A000838580628387F701268137814085518537
:1033B000B801808191810E944A0BF70142855385B3
:1033C00064857585C8014C960E942308B501A40147
:1033D000C80146960E942308F801128A138A89813F
:1033E0009A8121E0FC0123830E94C509F70196859B
:1033F0009F7B968703C080E001C081E00F900F9013
:10340000DF91CF911F910F91FF90EF90BF90AF9000
:103410009F908F9008950F931F93CF93DF931F92E8
:103420001F92CDB7DEB78C017ADF81110BC0BE01D0
:103430006F5F7F4FC8010E94F208811103C0F8013D
:10344000108211820F900F90DF91CF911F910F91F9
:103450000895EF92FF921F93CF93DF93CDB7DEB71E
:10346000AA97CDBFDEBF89A79AA77B0140E0BE0126
:103470006F5F7F4FCE0189960E949110182F8111A6
:1034800015C069A57AA5CE010196A4D9182F81117E
:103490000DC088A588234CF0E114F10439F0B70180
:1034A000CE0101960E94650801C016E0812FAA9600
:1034B000CDBFDEBFDF91CF911F91FF90EF900895B8
:1034C00088EC8093800110928101E0E4F9E088E0CB
:1034D000808380E1818399E3938310A211A22FEF6F
:1034E0003FE726A337A3E0E4F8E010A211A281830E
:1034F00089E2838385E080830895E0ECFAE08081AF
:103500008C77826080830895E0ECFAE080818C778C
:103510008068808308958093C30AE0ECFAE082819A
:103520008823ECF7E0ECFAE080E882838381089559
:1035300088EB8093810682E58093C00A81E08093C6
:10354000382B0895FC0128E039E09081990F862FEF
:10355000892714F0908302C093279083660F21502F
:10356000A1F70895CF92DF92EF92FF92CF93C4E03C
:1035700060E070E0CB01CC24D62EE72EF82E8FEF42
:10358000CADFA7019601282BCA01B901C15099F7DA
:10359000CF91FF90EF90DF90CF900895CF93DF937E
:1035A0008FEFB9DFC8E8D3E18FEFB5DF8F3F41F090
:1035B0008FE193E00197F1F700C000002197A1F798
:1035C00081E0CD2B09F480E0DF91CF91089588232D
:1035D00029F088E080938606E1CF089588E0809303
:1035E00085068FEF98CF08958F929F92AF92BF92EA
:1035F000CF92DF92EF92FF921F93CF93DF931F92B0
:10360000CDB7DEB7182F6A017B011982882344F4F5
:1036100040E050E0BA0187E3E7DF823048F51F77EA
:1036200080E0D5DF81E0D3DF1064812F74DF612F6C
:10363000CE01019687DF14E08F2C9924AA24BB24A5
:10364000882D69DF682DCE0101967CDFFE2CED2CE4
:10365000DC2CCC24115081F78981880F816089830B
:103660005ADF1AE08FEF57DF882314F41150D1F797
:103670000F90DF91CF911F91FF90EF90DF90CF904F
:10368000BF90AF909F908F900895CF93C0E040E09F
:1036900050E0BA0189EAA8DF882371F02FEF89EFA3
:1036A00090E0215080409040E1F700C00000CF5FE3
:1036B000CF3F69F780E011C0CF3F71F053DF40E0AA
:1036C00052E060E070E080E18FDF1092382B82E002
:1036D0008093392B81E001C080E0CF910895CF9392
:1036E00041DF6A3A71408105910579F5C0E040E01B
:1036F00050E060E070E489EA77DF882371F08FEFB3
:1037000097EE23E0815090402040E1F700C0000098
:10371000CF5FCF3F61F780E01DC0CF3FC1F040E0F9
:1037200050E0BA018AE360DF811113C01092382B98
:1037300019DF96FF05C084E08093392B81E00AC031
:1037400082E08093392B81E005C080E003C080E0F7
:1037500001C081E0CF910895CF93CFDE80E037DFC5
:10376000CAE08FEFD8DEC150E1F7CAE040E050E098
:10377000BA0180E039DF813019F0C150B9F702C0D9
:10378000C11105C082E08093382B80E01AC0CAE0E6
:103790004AEA51E060E070E088E026DF982F907CF4
:1037A00011F0C150A9F7853019F46FDFC82F02C09E
:1037B00096DFC82FC11103C082E08093382BA4DEAE
:1037C0008C2FCF910895EF92FF920F931F93CF9379
:1037D0007C018B01C9EC8FE99FE00197F1F700C0F4
:1037E00000008FEF98DE8F3F21F4C150A1F780E0F9
:1037F00011C08E3F71F48FEF8EDEF70181937F0150
:1038000001501109C1F78FEF86DE8FEF84DE81E072
:1038100001C080E0CF911F910F91FF90EF9008952C
:103820000F931F93CF93DF938C01D62FB7DEC82F52
:103830008823B1F08D2F6FDEDD3F91F0E8011E5F30
:10384000899169DEC017D107D9F78FEF64DE8FEF5A
:1038500062DE8FEF60DE8F71C1E0853009F0C0E07D
:103860008C2FDF91CF911F910F9108950F931F938C
:10387000CF938C01C22F8091382B811132C080915F
:10388000392B823049F4032E39E0440F551F661F4F
:10389000771F3A95D1F7302DC13051F481E1A4DE84
:1038A000811118C060E072E0C8018DDFC82712C026
:1038B00082E19ADE81110EC060E072E0C80183DF10
:1038C000882319F01E5FC150B9F740E050E0BA01FB
:1038D0008CE08ADE80E07BDE81E0C11103C080E005
:1038E00001C083E0CF911F910F910895CF92DF9295
:1038F000EF92FF920F931F93CF938C016A017B018C
:10390000C22F8091382B81113CC08091392B82309D
:1039100049F40B2EB9E0CC0CDD1CEE1CFF1CBA9553
:10392000D1F7B02DC13059F4B701A60188E15CDEB2
:10393000811120C06EEFC80173DFC8271BC04C2F58
:1039400050E060E070E087E94FDEB701A60189E151
:103950004BDE81110FC06CEFC80162DF882319F0C4
:103960001E5FC150C1F76DEF80E090E059DF81111B
:1039700001C0C1E080E02BDE81E0C11103C080E026
:1039800001C083E0CF911F910F91FF90EF90DF90E6
:10399000CF900895811104C0DFDE8091382B089507
:1039A00081E00895811103C08091382B089581E052
:1039B00008950F93FB01811106C0BA01A901CF013F
:1039C000202F54DF01C081E00F9108950F93FB0178
:1039D000811106C0BA01A901CF01202F87DF01C0E4
:1039E00081E00F910895EF92FF921F93CF93DF93A1
:1039F0007C01162FCAE08FEF8EDD8E3F21F0C15083
:103A0000D1F780E013C0CC2371F0112371F0C12FE6
:103A1000D0E02197CE0DDF1D8FEF7DDD8883115023
:103A2000B1F781E003C080E001C081E0DF91CF9178
:103A30001F91FF90EF9008958F929F92AF92BF9247
:103A4000CF92DF92EF92FF920F931F93CF93DF936A
:103A5000CDB7DEB76897CDBFDEBF8091382B81111F
:103A6000A6C06130A1F008F4A4C0623029F0633030
:103A700009F492C084E09EC080E092E0A0E0B0E053
:103A8000FA0180839183A283B38380E093C04A01CB
:103A900040E050E0BA0189E0A7DD81117BC060E120
:103AA000CE010196A0DF8889807C09F058C08E8104
:103AB000982F991F9927991F8F818370880F892BC1
:103AC0008E5F41E050E060E070E08A019B0104C03D
:103AD000000F111F221F331F8A95D2F740E050E0DC
:103AE000BA01098B1A8B2B8B3C8B4D8B5E8B6F8BAA
:103AF000788F988592959695969593708985282FBD
:103B0000220F220FE22FE92B982F929596959695EA
:103B100093708A858370880F880FF82FF92B319660
:103B20009F2F990F990B0B850F702E2F3F2F492F29
:103B3000592F692F792F892F96D7A22EB32EC42EF5
:103B4000D52EE62EF72E082F192F29893A894B8971
:103B50005C8960E070E080E090E034D712C08F8133
:103B600098852985A22FAF730196A11DAF73282FC9
:103B7000392F4A2F50E060E070E080E090E003E1F0
:103B800072D709E08BD7F4012083318342835383BA
:103B900080E010C083E00EC081E090E0A0E0B0E0E3
:103BA000FA0180839183A283B38380E003C083E022
:103BB00001C080E06896CDBFDEBFDF91CF911F913D
:103BC0000F91FF90EF90DF90CF90BF90AF909F90BC
:103BD0008F90089560E070E08BE294E40895CF93B5
:103BE000DF931F92CDB7DEB78093C308E0ECF8E017
:103BF00082818823ECF78091C30889830F90DF913D
:103C0000CF9108951092C308E0ECF8E082818823F8
:103C1000ECF78091C3080895E0E5F0E090819160B1
:103C20009083A8E6B0E090E412969C9312979DE0F2
:103C300013969C93908194609083918192FFFDCF25
:103C4000E0E5F0E09681987F9683E8E6F0E09081E9
:103C500091609083E0E5F0E0918190FFFDCF98EDD9
:103C600094BF10924000E0E5F0E090819F7E908349
:103C7000858380E18083818184FFFDCF88ED84BFCF
:103C800084E08093400008958695C6CF08950895F6
:103C9000089527E020930008109201081092200850
:103CA000109221089C01A0E0BDE773D6DC01CB0196
:103CB000072E7AE0B695A795979587957A95D1F7CF
:103CC000702D809326089093270882E08093060841
:103CD000089527E02093000910920109109220090D
:103CE000109221099C01A0E0BDE753D6DC01CB0175
:103CF000072E7AE0B695A795979587957A95D1F78F
:103D0000702D809326099093270981E080930609FE
:103D1000089527E02093000A1092010A1092200AC9
:103D20001092210A9C01A0E0BDE733D6DC01CB0153
:103D3000072E7AE0B695A795979587957A95D1F74E
:103D4000702D8093260A9093270A82E08093060ABA
:103D5000089527E02093000B1092010B1092200B86
:103D60001092210B813D27E0920710F080ED97E043
:103D70009C01A0E0BDE70DD6DC01CB01072E7AE067
:103D8000B695A795979587957A95D1F7702D8093DD
:103D9000260B9093270B82E08093060B0895E0E4B6
:103DA000F2E091E09083118281818860818381813A
:103DB0008061818380EC838380E4828327E0248395
:103DC0008FE180A321A380A72FE021A780AB27E16B
:103DD00021AB80AF81AF92AF0895E0E6F6E084E0DA
:103DE000868388E085838183E0EAF9E083E0858348
:103DF00087E1868384EA878383818C61838388E17A
:103E0000848308950F931F93CF93DF93A0E2B6E0CE
:103E100080EF12968C93129788E154968C93549766
:103E200055968C93559756968C93569757968C9398
:103E30005797E0EAF6E08FE38183868380E481830D
:103E40008683E0E6F6E081E081838683C0E8D6E001
:103E500087E089838E83C0EED7E083E089838E83F9
:103E600020E036E090ECE90199839E8306E616E0B7
:103E700094E0E801988361E676E048E0EB0148834E
:103E800040E24883E801488340E456E0EA01888341
:103E900080934406E9018E838FE016968C9380E32D
:103EA0008183868382E081838583FA01918396836F
:103EB000DF91CF911F910F910895E0E8F4E080E346
:103EC000818391E09283858381818860818394835B
:103ED0000895E0E4F6E088E1818380EA818380E46C
:103EE000828380EE858382ED8093C00808950F93CE
:103EF0001F93CF93DF93DC010D911C9111971C96BA
:103F0000ED91FC911D9718968D919C911997EC015C
:103F10002B852F932A852F9329852F9388858F931F
:103F2000E8014A855B85052E000C660B770B77232D
:103F30003CF470956095509541955F4F6F4F7F4F62
:103F40007F936F935F934F93E80148855985052EC2
:103F5000000C660B770B77233CF4709560955095B9
:103F600041955F4F6F4F7F4F7F936F935F934F9359
:103F7000E8014E815F81052E000C660B770B7723DD
:103F80003CF470956095509541955F4F6F4F7F4F12
:103F90007F936F935F934F93E8014C815D81052E72
:103FA000000C660B770B77233CF470956095509569
:103FB00041955F4F6F4F7F4F7F936F935F934F9309
:103FC00044AD55AD66AD77AD77233CF47095609503
:103FD000509541955F4F6F4F7F4F7F936F935F93E6
:103FE0004F9340AD51AD62AD73AD77233CF4709506
:103FF0006095509541955F4F6F4F7F4F7F936F93C3
:104000005F934F9344A955A966A977A977233CF4F8
:1040100070956095509541955F4F6F4F7F4F7F939F
:104020006F935F934F9340A951A962A973A9772316
:104030003CF470956095509541955F4F6F4F7F4F61
:104040007F936F935F934F9344A555A566A577A57E
:1040500077233CF470956095509541955F4F6F4F75
:104060007F4F7F936F935F934F9340A551A562A5B8
:1040700073A577233CF470956095509541955F4FFB
:104080006F4F7F4F7F936F935F934F9344A155A1E1
:1040900066A177A177233CF4709560955095419582
:1040A0005F4F6F4F7F4F7F936F935F934F9340A10D
:1040B00051A162A173A177233CF47095609550954E
:1040C00041955F4F6F4F7F4F7F936F935F934F93F8
:1040D0008FE790E29F938F9317968C9117978F930A
:1040E00016968C918F93F6D48DB79EB7C8968DBFD8
:1040F0009EBFDF91CF911F910F91089584E080932F
:104100008506089584E080938606089582E0809372
:104110008506089582E080938606089581E0809365
:104120008506089581E080938606089581E0809356
:10413000E507089581E08093E607089582E0809383
:10414000E507089582E08093E6070895E0E6F6E04B
:1041500080E1858380E286830895E0E6F6E080E1F1
:10416000868380E28583089581E0809365060895C3
:1041700081E080936606089580E88093050608959F
:1041800080E8809306060895CF93DF93FC01A0E8B2
:10419000B6E018968C9118978170868718968C9146
:1041A0001897869581708587C0EED7E088858170E5
:1041B000808B888586958170878718968C9182FB85
:1041C000882780F9818BA0E6B6E018968C91189725
:1041D00085FB882780F9828B18968C918295817057
:1041E000838BDF91CF910895CF93DF9300D01F92FF
:1041F000CDB7DEB719821A821B821C82EB81FC814B
:10420000E60FF71F2081222369F02B813C812F5F6D
:104210003F4F2B833C83EB81FC81E60FF71F20810E
:104220002111F3CFE981FA81E80FF91F20812223C0
:10423000E1F02B813C81A9014F5F5F4F4B835C8391
:1042400049815A81FA013196E983FA83FC01E40F2E
:10425000F51F4081FB01E20FF31F4083E981FA81E2
:10426000E80FF91F20812111E4CF8B819C819C01F3
:104270002F5F3F4F2B833C83FB01E80FF91F108218
:104280008B819C812496CDBFDEBFDF91CF910895B5
:104290004F925F926F927F928F929F92AF92BF9256
:1042A000CF92DF92EF92FF92CF93DF93EC016C817C
:1042B0007D81072E000C880B990B5AD24B015C01B3
:1042C00020E030E040E05AE3DFD26B017C0120E1E6
:1042D0003FEE4FE054E4C501B401D6D220E030E017
:1042E00040E05AE3D1D220E030E040E450E4CCD2C8
:1042F0004B015C0120E030E040E450E4C701B6012E
:10430000C3D29B01AC0160E070E080EA90E461D12F
:104310009B01AC01C501B401C1D125EB35E142E8F7
:1043200053E457D16C8B7D8B8E8B9F8B6E817F81FD
:10433000072E000C880B990B1BD24B015C0120E16E
:104340003FEE4FE054E4A0D220E030E040E05AE3FA
:104350009BD220E030E040E450E496D22B013C01B7
:1043600020E030E040E05AE3C501B4018DD220E006
:1043700030E040E450E488D29B01AC0160E070E0A2
:1043800080EA90E426D19B01AC01C301B20186D141
:1043900025EB35E142E853E41CD1688F798F8A8F91
:1043A0009B8F68857985072E000C880B990BE0D1CF
:1043B0004B015C0120E13FEE4FE054E465D220E088
:1043C00030E040E05AE360D220E030E040E450E4E6
:1043D0005BD22B013C0120E030E040E05AE3C50114
:1043E000B40152D220E030E040E450E44DD29B01D1
:1043F000AC0160E070E080EA90E4EBD09B01AC019E
:10440000C301B2014BD125EB35E142E853E4E1D0E1
:104410006C8F7D8F8E8F9F8F8A859B85BC01990FB6
:10442000880B990BA5D14B015C0120E13FEE4FE0D9
:1044300054E42AD220E030E040E05AE325D220E0E4
:1044400030E040E450E420D22B013C0120E030E099
:1044500040E05AE3C501B40117D220E030E040E467
:1044600050E412D29B01AC0160E070E080EA90E47D
:10447000B0D09B01AC01C301B20110D125EB35E1F5
:1044800042E853E4A6D068A379A38AA39BA323E3BD
:1044900033E343E550E4C701B601F6D16B017C017B
:1044A00020E030E04DE553E4EFD14B015C01A70182
:1044B000960160E070E080EA90E48BD09B01AC0153
:1044C000C501B401EBD06CAB7DAB8EAB9FAB68AFDD
:1044D00079AF8AAF9BAF6CAF7DAF8EAF9FAFC05C43
:1044E000DF4F688379838A839B83DF91CF91FF902D
:1044F000EF90DF90CF90BF90AF909F908F907F9084
:104500006F905F904F900895AF92BF92CF92DF92DD
:10451000EF92FF921F93CF93DF93CDB7DEB76F97E4
:10452000CDBFDEBF5C0110E00F2EF3EDCF2EF0E229
:10453000DF2EF02D7E0187E1E80EF11C1F5F1F9238
:104540001F93DF92CF92FF92EF92C4D2BE016F5FB2
:104550007F4FC7010E94291A0F900F900F900F9064
:104560000F900F90882351F38F89F5018083888DF8
:104570008183898D82838A8D83838B8D84838C8DC7
:1045800085838D8D86838E8D87838F8D8087812F08
:104590006F96CDBFDEBFDF91CF911F91FF90EF905F
:1045A000DF90CF90BF90AF900895FC013196DC0171
:1045B0008C91882359F080E090E00196219122238C
:1045C00039F08115B2E09B07C1F7089580E090E0D3
:1045D00008955058BB27AA270ED01CC10DD130F02A
:1045E00012D120F031F49F3F11F41EF402C10EF4F9
:1045F000E095E7FBF8C0E92F1ED180F3BA176207F8
:1046000073078407950718F071F49EF536C10EF410
:10461000E0950B2EBA2FA02D0B01B90190010C01D2
:10462000CA01A0011124FF27591B99F0593F50F4EA
:10463000503E68F11A16F040A22F232F342F442742
:10464000585FF3CF469537952795A795F04053953A
:10465000C9F77EF41F16BA0B620B730B840BBAF00A
:104660009150A1F0FF0FBB1F661F771F881FC2F775
:104670000EC0BA0F621F731F841F48F48795779589
:104680006795B795F7959E3F08F0B3CF9395880F40
:1046900008F09927EE0F9795879508950CD0BAC02A
:1046A000B2D040F0A9D030F021F45F3F19F09BC0A8
:1046B0005111E4C09EC0BFD098F39923C9F355238C
:1046C000B1F3951B550BBB27AA2762177307840705
:1046D00038F09F5F5F4F220F331F441FAA1FA9F3BB
:1046E00033D00E2E3AF0E0E830D091505040E695AD
:1046F000001CCAF729D0FE2F27D0660F771F881F0E
:10470000BB1F261737074807AB07B0E809F0BB0BFC
:10471000802DBF01FF2793585F4F2AF09E3F510520
:1047200068F061C0ABC05F3FECF3983EDCF3869568
:1047300077956795B795F7959F5FC9F7880F911D96
:104740009695879597F90895E1E0660F771F881F82
:10475000BB1F621773078407BA0720F0621B730B35
:10476000840BBA0BEE1F88F7E0950895E89409C012
:1047700097FB3EF490958095709561957F4F8F4F94
:104780009F4F9923A9F0F92F96E9BB279395F695AA
:10479000879577956795B795F111F8CFFAF4BB0F28
:1047A00011F460FF1BC06F5F7F4F8F4F9F4F16C08C
:1047B000882311F096E911C0772321F09EE8872F16
:1047C000762F05C0662371F096E8862F70E060E0D2
:1047D0002AF09A95660F771F881FDAF7880F96954B
:1047E000879597F9089597F99F6780E870E060E0F2
:1047F00008959FEF80EC089500240A94161617067A
:1048000018060906089500240A94121613061406C1
:1048100005060895092E0394000C11F4882352F024
:10482000BB0F40F4BF2B11F460FF04C06F5F7F4FDC
:104830008F4F9F4F089557FD9058440F551F59F0C3
:104840005F3F71F04795880F97FB991F61F09F3F7D
:1048500079F087950895121613061406551FF2CFA6
:104860004695F1DF08C0161617061806991FF1CFF6
:1048700086957105610508940895E894BB2766271D
:104880007727CB0197F908950BD0C4CFB5DF28F077
:10489000BADF18F0952309F0A6CFABCF1124EECFE5
:1048A000CADFA0F3959FD1F3950F50E0551F629F8B
:1048B000F001729FBB27F00DB11D639FAA27F00D79
:1048C000B11DAA1F649F6627B00DA11D661F829FA0
:1048D0002227B00DA11D621F739FB00DA11D621F85
:1048E000839FA00D611D221F749F3327A00D611DA2
:1048F000231F849F600D211D822F762F6A2F112484
:104900009F5750408AF0E1F088234AF0EE0FFF1FD6
:10491000BB1F661F771F881F91505040A9F79E3F0D
:10492000510570F060CFAACF5F3FECF3983EDCF307
:10493000869577956795B795F795E7959F5FC1F74A
:10494000FE2B880F911D9695879597F90895A1E202
:104950001A2EAA1BBB1BFD010DC0AA1FBB1FEE1FF9
:10496000FF1FA217B307E407F50720F0A21BB30B44
:10497000E40BF50B661F771F881F991F1A9469F7C0
:1049800060957095809590959B01AC01BD01CF011C
:104990000895A29FB001B39FC001A39F700D811D18
:1049A0001124911DB29F700D811D1124911D089538
:1049B000F0DFA59F900DB49F900DA49F800D911DD9
:1049C00011240895DF93CF931F930F939A9DF02D99
:1049D000219FF00D8B9DF00D8A9DE02DF10D039F21
:1049E000F00D029FE00DF11D4E9DE00DF11D5E9D4D
:1049F000F00D4F9DF00D7F936F93BF92AF925F9339
:104A00004F93D501C6DF8B01AC01D701C2DFEB01AB
:104A1000E80FF91FD6011FD02F913F91D601B9DFC2
:104A2000C60FD71FE81FF91FAF91BF9114D02F9168
:104A30003F91AFDFC60FD71FE81FF91FD601A9DFCF
:104A4000E60FF71F9801BE01CF0111240F911F91AE
:104A5000CF91DF9108959DDF460F571FC81FD91FC3
:104A600008F4319608950F93083090F0982F872F0F
:104A7000762F652F542F432F322F22270850F4CF43
:104A8000220F331F441F551F661F771F881F991F52
:104A90000A95B2F70F91089597FB10F81694000845
:104AA0000F93083098F00850232F342F452F562F9E
:104AB000672F782F892F902DF4CF059497958795A0
:104AC0007795679557954795379527950A95AAF74E
:104AD0000F9108950F931F93CF93DF93CDB7DEB758
:104AE0002E97CDBFDEBF0E891F8986E08C83098398
:104AF0001A838FEF9FE78D839E83AE01465E5F4FE3
:104B0000688D798DCE0101960ED02F813885F80100
:104B1000E20FF31F10822E96CDBFDEBFDF91CF9143
:104B20001F910F9108952F923F924F925F926F9233
:104B30007F928F929F92AF92BF92CF92DF92EF922D
:104B4000FF920F931F93CF93DF93CDB7DEB72C97D0
:104B5000CDBFDEBF7C016B018A01FC01168217828A
:104B6000838181FFB0C1CE0101964C01F701938191
:104B7000F60193FD859193FF81916F01882309F4DC
:104B80009EC1853239F493FD859193FF81916F0128
:104B9000853221F4B70190E0C4D1E8CF512C312CFB
:104BA00020E02032A0F48B3269F030F4803259F0EA
:104BB000833269F420612CC08D3239F0803339F4AE
:104BC000216026C02260246023C0286021C027FD08
:104BD00027C030ED380F3A3078F426FF06C0FAE0EF
:104BE0005F9E300D1124532E13C08AE0389E300D85
:104BF0001124332E20620CC08E3221F426FD5FC1B9
:104C0000206406C08C3611F4206802C0883641F456
:104C1000F60193FD859193FF81916F018111C1CFC1
:104C2000982F9F7D9554933028F40C5F1F4FFFE31E
:104C3000F9830DC0833631F0833771F0833509F085
:104C400057C021C0F801808189830E5F1F4F442423
:104C50004394512C540114C03801F2E06F0E711CC2
:104C6000F801A080B18026FF03C0652D70E002C06E
:104C70006FEF7FEFC5012C8749D12C0183012C8573
:104C80002F77222E16C03801F2E06F0E711CF8014A
:104C9000A080B18026FF03C0652D70E002C06FEFD9
:104CA0007FEFC5012C8727D12C012C852068222E6F
:104CB000830123FC19C0832D90E048165906A0F407
:104CC000B70180E290E02DD13A94F5CFF50127FCB1
:104CD000859127FE81915F01B70190E022D13110CB
:104CE0003A94F1E04F1A51084114510479F7DEC0AB
:104CF000843611F0893631F5F80127FF07C060814D
:104D00007181828193810C5F1F4F08C06081718126
:104D1000072E000C880B990B0E5F1F4F2F76722EFB
:104D200097FF09C090958095709561957F4F8F4F43
:104D30009F4F2068722E2AE030E0A4012AD1A82ECD
:104D4000A81843C0853729F42F7EB22E2AE030E020
:104D500025C0F22FF97FBF2E8F36C1F018F48835A9
:104D600079F0ADC0803719F0883721F0A8C02F2F17
:104D70002061B22EB4FE0DC08B2D8460B82E09C008
:104D800024FF0AC09F2F9660B92E06C028E030E0AD
:104D900005C020E130E002C020E132E0F801B7FEBA
:104DA00007C060817181828193810C5F1F4F06C0B3
:104DB0006081718180E090E00E5F1F4FA401E9D017
:104DC000A82EA818FB2DFF777F2E76FE0BC0372D5F
:104DD0003E7FA51450F474FE0AC072FC08C0372D43
:104DE0003E7E05C0BA2C372D03C0BA2C01C0B52CAD
:104DF00034FF0DC0FE01EA0DF11D8081803311F4F6
:104E0000397E09C032FF06C0B394B39404C0832F27
:104E1000867809F0B39433FD12C030FF06C05A2CD7
:104E2000B31418F4530C5B18B32CB31460F4B7012B
:104E300080E290E03C8775D0B3943C85F6CFB31404
:104E400010F43B1801C0312C34FF11C0B70180E3CE
:104E500090E03C8766D03C8532FF16C031FD03C030
:104E600088E790E002C088E590E0B7010CC0832F8E
:104E7000867851F031FF02C08BE201C080E237FD3D
:104E80008DE2B70190E04DD0A51430F4B70180E376
:104E900090E047D05A94F8CFAA94F401EA0DF11D9E
:104EA0008081B70190E03DD0A110F6CF332009F406
:104EB0005DCEB70180E290E034D03A94F7CFF701AD
:104EC0008681978102C08FEF9FEF2C96CDBFDEBF0A
:104ED000DF91CF911F910F91FF90EF90DF90CF90D6
:104EE000BF90AF909F908F907F906F905F904F900A
:104EF0003F902F900895FC01059061507040011083
:104F0000D8F7809590958E0F9F1F0895FC016150F2
:104F1000704001900110D8F7809590958E0F9F1FDB
:104F200008950F931F93CF93DF93FB01238121FDFE
:104F300003C08FEF9FEF28C022FF16C04681578124
:104F4000248135814217530744F4A081B1819D012A
:104F50002F5F3F4F208331838C93268137812F5FD2
:104F60003F4F2683378310C0EB01092F182F008491
:104F7000F185E02D1995892BE1F68E819F810196AF
:104F80008E839F83812F902FDF91CF911F910F915F
:104F90000895FA01AA27283051F1203181F1E894CF
:104FA0006F936E7F6E5F7F4F8F4F9F4FAF4FB1E01C
:104FB0003ED0B4E03CD0670F781F891F9A1FA11D17
:104FC000680F791F8A1F911DA11D6A0F711D811D18
:104FD000911DA11D20D009F468943F912AE0269FDD
:104FE00011243019305D3193DEF6CF010895462F3C
:104FF0004770405D4193B3E00FD0C9F7F6CF462F1D
:105000004F70405D4A3318F0495D31FD4052419385
:1050100002D0A9F7EACFB4E0A69597958795779542
:105020006795BA95C9F700976105710508959B01C9
:10503000AC010A2E06945795479537952795BA9552
:10504000C9F7620F731F841F951FA01D0895F89460
:02505000FFCF90
:10505200507265737320312C205072657373203245
:105062002C20507265737320332C20507265737339
:1050720020342C20507265737320352C20507265B9
:10508200737320362C20507265737320372C205096
:105092007265737320382C2054656D7020312C207A
:1050A20054656D7020322C2054656D70332C202C89
:1050B2002054656D7020342C20436F756E740D0082
:1050C200222A2B2C3A3B3C3D3E3F5B5D7C7F0025F8
:1050D20030386C752C2530386C752C2530386C7551
:1050E2002C2530386C752C2530386C752C253038D1
:1050F2006C752C2530386C752C2530386C752C2548
:105102002B30346C642C252B30346C642C252B30E2
:10511200346C642C252B30346C642C2530386C753F
:0C5122000D0A00253033752E63737600F3
:00000001FF
