:10000000FDC000001BC1000019C1000017C10000A5
:1000100015C1000013C1000011C100000FC1000094
:100020000DC100000BC1000009C1000007C10000A4
:1000300005C1000003C1000008C40000FFC00000AB
:10004000FDC00000FBC00000F9C00000F7C00000C8
:10005000F5C00000F3C00000F1C00000EFC00000D8
:10006000EDC00000EBC00000E9C00000E7C00000E8
:10007000E5C00000E3C00000E1C00000DFC00000F8
:10008000DDC00000DBC00000D9C00000D7C0000008
:10009000D5C00000D3C00000D1C00000CFC0000018
:1000A000CDC00000CBC000009CC10000C7C0000054
:1000B000C5C00000C3C00000C1C0000022C40000D1
:1000C000BDC00000BBC00000B9C00000B7C0000048
:1000D000B5C00000B3C00000B1C00000AFC0000058
:1000E000ADC00000ABC00000A9C00000A7C0000068
:1000F000A5C00000A3C00000A1C000009FC0000078
:100100009DC000009BC0000099C0000097C0000087
:1001100095C0000093C0000091C000008FC0000097
:100120008DC000008BC0000089C0000087C00000A7
:1001300085C0000094C3000081C000007FC00000A3
:100140007DC000007BC0000079C0000077C00000C7
:1001500075C0000073C0000071C000006FC00000D7
:10016000ACC100006BC0000072C1000067C000009D
:1001700065C0000063C0000061C000005FC00000F7
:100180005DC000005BC0000059C0000057C0000007
:1001900055C0000053C0000051C000004FC0000017
:1001A0004DC000004BC0000049C0000047C0000027
:1001B000D1C3000043C0000041C000003FC00000A8
:1001C0003DC000003BC0000039C0000037C0000047
:1001D00035C0000033C0000031C000002FC0000057
:1001E0002DC000002BC0000029C0000027C0000067
:1001F00025C0000023C0000021C0000011241FBE44
:10020000CFEFCDBFDFE3DEBF00E00CBF10E2A0E028
:10021000B0E2EAE4F6E700E00BBF02C007900D92FF
:10022000A23DB107D9F729E2A2EDB0E201C01D92CB
:10023000AE32B207E1F73BD40C94233BC3C0CF935B
:1002400081112CC0C8E0C093460680E10E946C3545
:1002500080E00E946C3580EF0E946C358EE00E9439
:100260006C35C09345062FEF89EF90E02150804018
:100270009040E1F700C00000C093460688E00E946D
:100280006C3584E10E946C3580E00E946C3581E021
:100290000E946C35C0934506CF910895813011F4CA
:1002A000C0E1D1CF80E10E946C3580E00E946C35C6
:1002B00080EF0E946C358EE00E946C352FEF89EF45
:1002C00090E0215080409040E1F700C0000088E0BD
:1002D0000E946C3584E10E946C3580E00E946C3590
:1002E00081E0CF910C946C35E0E6F6E082E0868305
:1002F0002FEF33EC99E0215030409040E1F700C0FF
:10030000000085830895CF9381112EC0C8E0C0936B
:10031000460681E00E946C358FEF0E946C358FEFAE
:100320000E946C358FEF0E946C358FEF0E946C3508
:100330008FEF0E946C358FEF0E946C358FEF0E941B
:100340006C358FEF0E946C358FEF0E946C358FEF0C
:100350000E946C358FEF0E946C358FEF0E946C35D8
:10036000C0934506CF910895813021F4C0E1C09338
:100370004606D0CF81E00E946C358FEF0E946C352D
:100380008FEF0E946C358FEF0E946C358FEF0E94CB
:100390006C358FEF0E946C358FEF0E946C358FEFBC
:1003A0000E946C358FEF0E946C358FEF0E946C3588
:1003B0008FEF0E946C358FEF0E946C358FEFCF91DD
:1003C0000C946C351F920F920FB60F9211248F93DD
:1003D00081E08093A7068F910F900FBE0F901F9022
:1003E00018951F920F920FB60F9211240BB60F9211
:1003F0008F939F93AF93BF93EF93FF93A0E4B2E0EB
:1004000050968D919C915197E5EBF6E2848395830C
:1004100052968D919C9153978683978354968D9194
:100420009C9155978087918756968D919C9157976F
:1004300082879387FF91EF91BF91AF919F918F91A9
:100440000F900BBE0F900FBE0F901F9018951F922C
:100450000F920FB60F9211240BB60F922F933F936A
:100460008F939F93EF93FF938091022490910324A5
:10047000FC01EE58FD4D2081222371F031E03093D4
:1004800004242093A00987399105A8F4019680934C
:1004900002249093032402C010920424FF91EF9150
:1004A0009F918F913F912F910F900BBE0F900FBE98
:1004B0000F901F9018951082F1CF1F920F920FB6D8
:1004C0000F9211240BB60F922F933F934F935F938C
:1004D0006F937F938F939F93AF93BF93EF93FF930C
:1004E000CF93DF93CDB7DEB72A97CDBFDEBF809124
:1004F000A0098A878A85843209F4F9C08A85823501
:1005000009F446C08A85813309F455C08A8582334F
:1005100009F45EC08A85833309F46EC08A8584330A
:1005200009F47FC08A858B3209F48CC08A858D32AC
:1005300009F4A7C08A858F3209F4DDC08A858A3222
:1005400009F4F9C08A85813409F414C18A8580359B
:1005500009F41DC18A85833509F4B1C010920824BD
:100560002A96CDBFDEBFDF91CF91FF91EF91BF9172
:10057000AF919F918F917F916F915F914F913F913B
:100580002F910F900BBE0F900FBE0F901F901895DC
:100590008091082481114EC18A858A85823309F0B1
:1005A000B9CF8A858A85843309F43FC08A858B3226
:1005B00009F0BCCF47C08091082481110BC18A8506
:1005C0008A858333E9F08A85843309F0ABCF29C06B
:1005D00080910824882329F30E94AE372FEF87EA01
:1005E00091E6215080409040E1F700C000000E9459
:1005F000B23710920824B4CF809108248111FAC038
:100600008A858A858B3209F091CF8A858A858F32D7
:1006100009F094CF8A858A85813409F097CF8A853D
:1006200099CF809108248111F5C08A858A858D3201
:1006300009F080CF8A858A858A3209F083CF8A853E
:100640008A8588CF809108248823F9F280910F242D
:1006500090911024A0911124B0911224883522E0A9
:100660009207A105B10508F079CFC296A11DB11D71
:1006700080930F2490931024A0931124B0931224FC
:100680006DCF809108248823A9F280910F24909146
:100690001024A0911124B091122486399105A1054E
:1006A000B10508F45BCFC297A109B10980930F246B
:1006B00090931024A0931124B09312244FCF8091D3
:1006C000132490911424A0911524B0911624892B01
:1006D0008A2B8B2B09F442CF80910824882309F4BC
:1006E0003DCF81E080930C241092082439CF81E023
:1006F0008093082435CF80910824882309F48ACF79
:100700008091132490911424A0911524B091162463
:10071000883E23E09207A105B10508F01FCFC296DD
:10072000A11DB11D8093132490931424A09315242C
:10073000B093162413CF80910824882309F47FCF27
:100740008091132490911424A0911524B091162423
:1007500084369105A105B10508F400CFC297A1091F
:10076000B1098093132490931424A0931524B0937B
:100770001624F4CE80910824882309F450CF81E018
:1007800080930D2410920C2410920B24E7CE8091BC
:100790000824882309F4DECE81E080930B24109294
:1007A0000824CE0101960E94CE374AE0BE016F5F59
:1007B0007F4F81E994E20E94AB258111D1CE23EBDA
:1007C00036E24FE450E060E070E281E994E20E949A
:1007D000FC27C6CE0E94B6372FEF87EA91E621505C
:1007E00080409040E1F700C000000E94BA371092AC
:1007F0000824B6CE0E94BE372FEF87EA91E621503B
:1008000080409040E1F700C000000E94C237109283
:100810000824A6CE0E94C6372FEF87EA91E6215022
:1008200080409040E1F700C000000E94CA3710925B
:10083000082496CE8FB7F8941092082498ED94BFB0
:1008400091E0909379008FBF8BCE1F920F920FB6DD
:100850000F9211240F900FBE0F901F9018951F92AA
:100860000F920FB60F9211248F939F938091DA20ED
:10087000882399F08091DB208130D9F078F18230A3
:1008800019F1833079F480E48093A5069F918F91CC
:100890000F900FBE0F901F9018951092DB2080E4F0
:1008A0008093A6069F918F910F900FBE0F901F907F
:1008B00018958091DD20873008F590E49093A70685
:1008C0008F5F8093DD20EECF80E48093A7069F9119
:1008D0008F910F900FBE0F901F9018951092DA20F5
:1008E0001092DD201092DC2080E48093A6069F9178
:1008F0008F910F900FBE0F901F9018951092DB20D4
:10090000D1CF1F920F920FB60F9211240BB60F92F8
:100910008F939F93AF93BF93EF93FF93109208240D
:10092000EEE1F4E280819181A281B3810196A11D63
:10093000B11D80839183A283B383FF91EF91BF9117
:10094000AF919F918F910F900BBE0F900FBE0F90A4
:100950001F9018951F920F920FB60F9211240BB68D
:100960000F922F933F934F935F936F937F938F9348
:100970009F93AF93BF93EF93FF9388E08093A70675
:1009800010920524809109248823E1F08091262487
:1009900090912724A0912824B09129248F3926E80A
:1009A000920721E0A207B10500F1109226241092CF
:1009B0002724109228241092292410926E2210923B
:1009C0006F2245DDFF91EF91BF91AF919F918F9184
:1009D0007F916F915F914F913F912F910F900BBE3F
:1009E0000F900FBE0F901F9018950196A11DB11D7D
:1009F0008093262490932724A0932824B09329241D
:100A0000DCCF80E20E9469360E94A4360E94A5369F
:100A10000E9406370E9424370E9439378AEF90E0FF
:100A20000E94A6368AE090E00E94C4368AEF90E0E9
:100A30000E94E2360E94DD301092022410920324BC
:100A4000A6E0B4E21C9211961C921197E6E7F4E23C
:100A500085EB96E280839183A283B38382E792E25F
:100A6000848395838EED90E2868397838EE194E272
:100A70008087918784E894E2828793878EE294E26C
:100A8000848795870E9494370E94A03780E03BDCE2
:100A900080E0D5DB81E037DC81E0D1DB25DC0E9422
:100AA000FC300E94683687E08093A2000895CF93BF
:100AB000DF93CDB7DEB7C254D240CDBFDEBF1092B8
:100AC0000A2481E080930924109205249ADF789407
:100AD00084E08093A5062FEF37E893E12150304062
:100AE0009040E1F700C000008093A6062FEF33ECA2
:100AF00099E0215030409040E1F700C00000809321
:100B0000A5062FEF37E893E1215030409040E1F700
:100B100000C000008093A6062FEF33EC89E021503F
:100B200030408040E1F700C0000084E690E0A0E0A3
:100B3000B0E080930F2490931024A0931124B093DD
:100B4000122410921324109214241092152410923F
:100B50001624C75DDD4F8881C952D2408160C75DD0
:100B6000DD4F8883C952D240C75DDD4F8881C952AD
:100B7000D2408062C75DDD4F8883C952D24082E295
:100B800090E0CB5DDD4F88839983C552D2400E94AF
:100B90007E35CF5BDD4F88839983C154D24040E0DE
:100BA00052E0BE016F5F7F4F82E090E00E94D4353B
:100BB0000E947E35CF5BDD4F88839983C154D2403C
:100BC000FFCF8F929F92AF92BF92CF92DF92EF9220
:100BD000FF920F931F93CF93DF93EC01CFA4D8A87C
:100BE000E9A8FAA85C0103E3A00EB11C01E010E043
:100BF000A7019601B50189810E945335811140C03A
:100C00001B828B8D9C8DAD8DBE8D4BA15CA16DA18A
:100C10007EA197018601041B150B260B370B0817C5
:100C200019072A073B07F0F48A80912C12E08116FD
:100C3000910428F417C08B8D9C8DAD8DBE8DC80E90
:100C4000D91EEA1EFB1E01E010E0A7019601B501C6
:100C500089810E94533521E0821A910831E0831680
:100C6000910449F780E0DF91CF911F910F91FF90A0
:100C7000EF90DF90CF90BF90AF909F908F900895AE
:100C800081E0F1CF8F929F92AF92BF92CF92DF928D
:100C9000EF92FF920F931F93CF93DF93EC016A01C2
:100CA0007B011B8288248A94982C54018FA698AAD1
:100CB000A9AABAAA4F3F2FEF52076207720781F025
:100CC00001E010E09A01AB01BC016D5C7F4F8981AE
:100CD0000E943F3581111FC0CFA6D8AAE9AAFAAA5F
:100CE000FE01EE5CFD4F808190E0982F88273197C0
:100CF0002081822B85359A4AA1F083E0DF91CF9144
:100D00001F910F91FF90EF90DF90CF90BF90AF9029
:100D10009F908F9008958FA698AAA9AABAAA84E056
:100D2000EDCF8BA9893E39F08B3E11F082E0E6CF02
:100D30008DA98039D9F7FE01E459FF4F808190E0F9
:100D4000A0E0B0E0BA2FA92F982F882731972081F3
:100D5000822BBA2FA92F982F882731972081822B99
:100D6000BA2FA92F982F882731972081822BBB2754
:100D700086349144A445B10509F17F96808190E0C5
:100D8000A0E0B0E0BA2FA92F982F882731972081B3
:100D9000822BBA2FA92F982F882731972081822B59
:100DA000BA2FA92F982F8827CB57DF4F2881822B66
:100DB00086349144A445B34309F0B8CF80E09ECF78
:100DC0004F925F926F927F928F929F92AF92BF925B
:100DD000CF92DF92EF92FF920F931F93CF93DF9307
:100DE000EC012A013B01CFA4D8A8E9A8FAA8C416AF
:100DF000D506E606F70609F46FC08B81811128C07D
:100E00008E010D5C1F4F580101E010E0A30192011B
:100E1000B50189810E943F35882329F081E044246F
:100E20004A94542C32014FA658AA69AA7AAADF9193
:100E3000CF911F910F91FF90EF90DF90CF90BF90D7
:100E4000AF909F908F907F906F905F904F9008959C
:100E50005E0113E3A10EB11C01E010E0A7019601B1
:100E6000B50189810E945335811134C01B828B8D5D
:100E70009C8DAD8DBE8D4BA15CA16DA17EA1970116
:100E80008601041B150B260B370B081719072A07B9
:100E90003B0708F0B9CF8A80912C12E081169104AB
:100EA00028F4B2CF8B8D9C8DAD8DBE8DC80ED91E12
:100EB000EA1EFB1E01E010E0A7019601B501898141
:100EC0000E94533521E0821A910831E08316910483
:100ED00049F79ACF81E0ABCF80E0A9CF2F923F9224
:100EE0004F925F926F927F928F929F92AF92BF923A
:100EF000CF92DF92EF92FF920F931F93CF93DF93E6
:100F0000CDB7DEB7A597CDBFDEBF8C01DB011D924B
:100F10001C92DC01ED91FC91309709F448C080816E
:100F2000813268F08A3309F442C0DF011196FD0175
:100F300002C09A33C9F19F0191919132D0F7E090AC
:100F40008F24F0909024E114F10499F1FB01E082E8
:100F5000F182142F1E7FF7018081882329F081817F
:100F60000E94383580FF27C0D7011C9211961C9231
:100F700080E00E94303580FF26C083E0A596CDBF7B
:100F8000DEBFDF91CF911F910F91FF90EF90DF9027
:100F9000CF90BF90AF909F908F907F906F905F9019
:100FA0004F903F902F9008952A173B0771F18BE0E7
:100FB000E5CF8CE0E3CF112321F082FF02C08AE06D
:100FC000DDCF80E0DBCF112311F082FDF8CFF701F8
:100FD000138288248A94982C540187A690AAA1AAE7
:100FE000B2AA01E010E020E030E0A901B7016D5C99
:100FF0007F4F81810E943F35882379F0F70187A6D2
:1010000090AAA1AAB2AA81E0B9CF803381F6FD01EE
:101010003196D801ED93FC9392CFD7019F961D9204
:101020001D921D921C92D2976701BEECCB1ABDEFA8
:10103000DB0AF601808190E0982F88271701FFECEA
:101040002F1AFDEF3F0AD1012C91822B85359A4A48
:1010500011F08DE093CFF70183A9893E09F4F0C028
:101060008B3E09F4E9C0F701EB50FE4F80818823E5
:1010700009F4B9C03796808190E0A0E0B0E0BA2FC3
:10108000A92F982F882731972081822BBA2FA92F3B
:10109000982F882731972081822BBA2FA92F982F3C
:1010A000882731972081822B89839A83AB83BC83E5
:1010B000F701EB5FFD4F8081882309F4B9C03796B3
:1010C000808190E0A0E0B0E0BA2FA92F982F882768
:1010D00031972081822BBA2FA92F982F88273197FB
:1010E0002081822BBA2FA92F982F88273197208112
:1010F000822B8D839E83AF83B887F701EB5EFD4F14
:101100008081882309F490C03796808190E0A0E028
:10111000B0E0BA2FA92F982F882731972081822BF2
:10112000BA2FA92F982F882731972081822BBA2F89
:10113000A92F982F882731972081822B89879A871A
:10114000AB87BC87F701EB5DFD4F808181114FC0FC
:1011500080E090E0DC018D879E87AF87B88B898027
:101160009A80AB80BC808D8E9E8EAF8EB8A281148B
:101170009104A104B10409F03CC28D809E80AF802F
:10118000B8848D8E9E8EAF8EB8A281149104A10476
:10119000B10409F03EC289849A84AB84BC848D8EEC
:1011A0009E8EAF8EB8A281149104A104B10409F0FF
:1011B00028C28D849E84AF84B8888D8E9E8EAF8E1B
:1011C000B8A281149104A104B10409F442CFB5017D
:1011D000A401C70157DD823008F47AC0843009F4D5
:1011E00012CF8DE0CBCE80E090E0DC015DCFF70147
:1011F000E45DFD4F808190E0A0E0B0E0BA2FA92F20
:10120000982F882731972081822BBA2FA92F982FCA
:10121000882731972081822BBA2FA92F982F8827D2
:1012200031972081822B97CF80E090E0DC0186CF40
:1012300080E090E0DC015DCF85A9803909F013CF13
:10124000F701E459FF4F808190E0A0E0B0E0BA2FB1
:10125000A92F982F882731972081822BBA2FA92F69
:10126000982F882731972081822BBA2FA92F982F6A
:10127000882731972081822BBB2786349144A4454F
:10128000B10511F1F701E857FF4F808190E0A0E030
:10129000B0E0BA2FA92F982F882731972081822B71
:1012A000BA2FA92F982F882731972081822BBA2F08
:1012B000A92F982F882731972081822B863491443B
:1012C000A445B34309F0CFCE1D8E1E8E1F8E18A2EB
:1012D000D701DF968C91DF9790E0982F8827DE96D4
:1012E0002C91822B8115924009F0B3CEF701E65B79
:1012F000FF4F808190E0982F882731972081822BA3
:101300002C01612C712C892BD1F471964080512CC9
:10131000612C712C762C652C542C442431978081BF
:10132000482A762C652C542C442431978081482AF5
:10133000762C652C542C442431978081482AF7015F
:10134000438E548E658E768EED5BFF4FA081F70144
:10135000A2838FEF8A0F823008F07BCEB0E0A3012A
:1013600092010E945C38698F7A8F8B8F9C8FE05C32
:10137000FF4F808089A2882D90E0D70119968D9328
:101380009C931A97009709F464CEAC01415051091F
:1013900084239523892B09F05CCE3596008110E0DB
:1013A000102F002731978081082BF70107831087C2
:1013B000C8018F709927892B09F04BCEE95BFF4F4D
:1013C000408150E0542F442731978081482B4A01B7
:1013D000A12CB12C8AA29BA2ACA2BDA2452B01F5E7
:1013E0007096808190E0A0E0B0E0BA2FA92F982FEE
:1013F000882731973081832BBA2FA92F982F8827E0
:1014000031973081832BBA2FA92F982F88273197B6
:101410003081AC01BD01432B4AA35BA36CA37DA328
:10142000F701EE5BFF4F408150E0542F4427319786
:1014300030814A01832A8114910409F40ACEA12C37
:10144000B12C9801329522952F7023273F702327C6
:10145000C501B401620F731F811D911D298D3A8D45
:101460004B8D5C8D260F371F481F591F298B3A8BD8
:101470004B8B5C8B6AA17BA18CA19DA1621773072A
:101480008407950708F4E5CD621B730B840B950B5D
:10149000A9A12A2F30E040E050E00E942B3821150E
:1014A00031054105510509F4D4CD263FBFEF3B0777
:1014B0004105510508F022C1263FEFE03E074105F6
:1014C000510508F0AEC02E5F3F4F4F4F5F4FD70121
:1014D00057962D933D934D935C935A976D8D7E8DCA
:1014E0008F8D98A15F966D937D938D939C9392972A
:1014F000680D791D8A1D9B1D6D8B7E8B8F8B988F40
:10150000F70163A374A385A396A38D8C9E8CAF8CE7
:10151000B8A069897A898B899C89860E971EA81E36
:10152000B91E9B968D929D92AD92BC929E97012B77
:1015300009F48FCD8D899E89AF89B88D898C9A8C5D
:10154000AB8CBC8C880D991DAA1DBB1DF70187A310
:1015500090A7A1A7B2A7DA01C90181709927AA278C
:10156000BB274C015D01FFEF8F0EF1E09F1EA11C18
:10157000B11CA3E0B0E00E945C38DC01CB01B69561
:10158000A79597958795880D991DAA1DBB1D49E0C4
:10159000B695A795979587954A95D1F74816590618
:1015A0006A067B0608F455CD8FEF9FEFDC01F7014B
:1015B0008787908BA18BB28B83879487A587B6870B
:1015C00080E8848381E0D7018C9380918D24909171
:1015D0008E24019680938D2490938E2415968D935E
:1015E0009C931697F701138A148A158A168A80E04D
:1015F000C5CCB501A401C70145DB823008F0BDCDE3
:1016000067CEB501A401C7013DDB823008F0D1CD22
:101610005FCEB501A401C70135DB823008F0BBCD38
:1016200057CEBA01A9014E5F5F4F6F4F7F4FD70171
:1016300057964D935D936D937C935A978D8D9E8DA8
:10164000AF8DB8A1F701878F90A3A1A3B2A3880D96
:10165000991DAA1DBB1D8D8B9E8BAF8BB88F83A34D
:1016600094A3A5A3B6A38D8C9E8CAF8CB8A08989BA
:101670009A89AB89BC89880E991EAA1EBB1E83A6B7
:1016800094A6A5A6B6A6012B09F4E3CC8D899E8964
:10169000AF89B88D898C9A8CAB8CBC8C880D991DC8
:1016A000AA1DBB1DF70187A390A7A1A7B2A7DB01C5
:1016B000CA01880F991FAA1FBB1F81509E4FAF4FB1
:1016C000BF4F69E0B695A795979587956A95D1F72D
:1016D000481659066A067B0608F4BBCC8FEF9FEFCD
:1016E000DC01F7018787908BA18BB28B838794876E
:1016F000A587B68780E8848382E065CF2E5F3F4F61
:101700004F4F5F4FF701278B308F418F528F6D8D79
:101710007E8D8F8D98A1678F70A381A392A3DC012A
:10172000CB01880D991DAA1DBB1D83A394A3A5A35E
:10173000B6A389899A89AB89BC898D8C9E8CAF8C24
:10174000B8A0880D991DAA1DBB1D83A794A7A5A7A6
:10175000B6A7E25AFF4F808190E0982F88273197F3
:101760006081862B892B09F074CC012B09F071CC98
:10177000F701EE59FF4F808190E0A0E0B0E0BA2F72
:10178000A92F982F882731976081862BBA2FA92FF0
:10179000982F882731976081862BBA2FA92F982FF1
:1017A000882731976081862BF70187A390A7A1A78F
:1017B000B2A7DA01C901880F991FAA1FBB1F880FA2
:1017C000991FAA1FBB1F81509E4FAF4FBF4F39E0DB
:1017D000B695A795979587953A95D1F748165906E6
:1017E0006A067B0608F435CC8FEF9FEFDC01F7012A
:1017F0008787908BA18BB28B83879487A587B687C9
:1018000080E88483EC59FF4F808190E0982F8827EF
:1018100031972081822B019711F083E0D4CE4D8D3A
:101820005E8D6F8D78A14F5F5F4F6F4F7F4FC70108
:10183000C7DA8111F2CFD70114961C92F60180818C
:1018400090E0982F8827D1012C91822B85359A4AD8
:1018500021F7F70186A990E0A0E0B0E0BA2FA92F08
:10186000982F882725A9822BBA2FA92F982F882750
:1018700024A9822BBA2FA92F982F882723A9822B3E
:1018800082359245A146B14441F6F701E65EFD4F2F
:10189000808190E0A0E0B0E0BA2FA92F982F882790
:1018A00031972081822BBA2FA92F982F8827319723
:1018B0002081822BBA2FA92F982F8827319720813A
:1018C000822B82379247A144B14609F0A6CF3796C2
:1018D000808190E0A0E0B0E0BA2FA92F982F882750
:1018E00031972081822BBA2FA92F982F88273197E3
:1018F0002081822BBA2FA92F982F882731972081FA
:10190000822BF7018787908BA18BB28BEE5DFD4F09
:10191000808190E0A0E0B0E0BA2FA92F982F88270F
:1019200031972081822BBA2FA92F982F88273197A2
:101930002081822BBA2FA92F982F882731972081B9
:10194000822BF70183879487A587B68766CF2F926E
:101950003F924F925F926F927F928F929F92AF923F
:10196000BF92CF92DF92EF92FF920F931F93CF938C
:10197000DF93CDB7DEB76297CDBFDEBF898B9A8B81
:101980006A017B0148015901DC018C91823009F424
:101990009EC1833009F42CC18130B9F082E0629697
:1019A000CDBFDEBFDF91CF911F910F91FF90EF90E0
:1019B000DF90CF90BF90AF909F908F907F906F906F
:1019C0005F904F903F902F900895CA01969587950C
:1019D000FC01EC0DFD1DED83FE8393968D919D9191
:1019E0000D90BC91A02D9F01232F33272695AC018C
:1019F000BD01420F531F611D711D49835A836B83C3
:101A00007C83E989FA8947A450A861A872A8441583
:101A100055056605770509F4ECC28381811159C229
:101A2000F3961F0101E010E029813A814B815C812E
:101A3000B101A989BA8911968C910E943F35811113
:101A40009FC209811A812B813C81A989BA899F96FD
:101A50000D931D932D933C93D297FD0183A194A1E7
:101A6000A5A1B6A1280139010D811E810F5F1F4F6D
:101A700009871A876D817E817170A7019601217097
:101A80003327442755272D873E874F87588BE98971
:101A9000FA89E60FF71FC0FE7EC223A9422F4F70BE
:101AA00050E1859E90011124242B23AB21E0E9898C
:101AB000FA8923839801232F332726956C017D0112
:101AC000C20ED31EE11CF11C09811A812B813C81BD
:101AD000C016D106E206F30609F48EC229893A89B6
:101AE0002D5C3F4F2D833E8301E010E029813A8138
:101AF0004B815C816D817E81A989BA8911968C9117
:101B00000E945335811145C2E989FA891382838D78
:101B1000948DA58DB68D43A154A165A176A10981AF
:101B20001A812B813C81041B150B260B370B0817E0
:101B300019072A073B0770F52281222E312C12E06B
:101B40002116310438F1C982DA82EB82FC82ED8001
:101B5000FE8006C0E989FA89838D948DA58DB68DA6
:101B6000480E591E6A1E7B1E01E010E0A30192017F
:101B7000B701A989BA8911968C910E945335B1E0B9
:101B80002B1A3108E1E02E16310421F7C980DA80E2
:101B9000EB80FC8001E010E0A70196016D817E8161
:101BA000E989FA8981810E943F358111E9C1A989BA
:101BB000BA899F96CD92DD92ED92FC92D297E985FB
:101BC000FA85F1700D851E852F853889012B022B32
:101BD000032B09F4FDC194E0B694A79497948794DD
:101BE0009A95D1F709891A89E00FF11FD801FBC135
:101BF000E989FA8943A154A165A176A1D701C6015B
:101C000017E0B695A795979587951A95D1F78C010A
:101C10009D01040F151F261F371F09831A832B836D
:101C20003C8347A450A861A872A804151505260591
:101C30003705F9F083818111F5C0F3961F0101E0AA
:101C400010E029813A814B815C81B101E989FA89EF
:101C500081810E943F35811193C109811A812B81B5
:101C60003C81A989BA899F960D931D932D933C932E
:101C7000D297FFE0BF22CC0CDD1CCC0CDD1C0CEF9E
:101C8000C02201E0D022F601F39629893A89E20FB9
:101C9000F31F838190E0A0E0B0E0B82FAA27992736
:101CA00088272C0D3D1D88279927AA27B07F882AD1
:101CB000992AAA2ABB2AD901D3968C929182A28210
:101CC000B38281E0E989FA89838380E068CEBB270B
:101CD000A72F962F852FE989FA8943A154A165A1E1
:101CE00076A18C019D01040F151F261F371F098344
:101CF0001A832B833C8347A450A861A872A80415BB
:101D000015052605370501F18381811134C0F3964D
:101D10001F0101E010E029813A814B815C81B10112
:101D2000A989BA8911968C910E943F35811128C1E9
:101D300029813A814B815C81A989BA899F962D932B
:101D40003D934D935C93D297CC0CDD1CE894C0F886
:101D5000F1E0DF22E989FA89EC0DFD1D83AAE9890A
:101D6000FA89EC0DFD1D94AA81E0A989BA89139620
:101D70008C9380E014CE29883A8813E3210E311C1D
:101D800001E010E0A3019201B101A989BA8911967D
:101D90008C910E9453358111FCC0E989FA89138224
:101DA000838D948DA58DB68D43A154A165A176A197
:101DB00093018201041B150B260B370B081719071B
:101DC0002A073B0708F0A5CF2281022F10E002303E
:101DD000110508F49ECFCD82DE82EF82F88678016D
:101DE00006C0E989FA89838D948DA58DB68D480E3C
:101DF000591E6A1E7B1E01E010E0A3019201B10191
:101E0000A989BA8911968C910E945335B1E0EB1AD9
:101E1000F108E1E0EE16F10421F7CD80DE80EF80DD
:101E2000F88477CF29883A8813E3210E311C01E02A
:101E300010E0A3019201B101A989BA8911968C9190
:101E40000E9453358111A5C0E989FA891382838DD7
:101E5000948DA58DB68D43A154A165A176A1930162
:101E60008201041B150B260B370B081719072A07CD
:101E70003B0708F0E4CE2281022F10E0023011056A
:101E800008F4DDCECD82DE82EF82F886780106C0CE
:101E9000E989FA89838D948DA58DB68D480E591EDA
:101EA0006A1E7B1E01E010E0A3019201B101A98925
:101EB000BA8911968C910E945335B1E0EB1AF10862
:101EC000E1E0EE16F10421F7CD80DE80EF80F884AA
:101ED000B6CE29883A88F3E32F0E311C01E010E0DA
:101EE000A3019201B101A989BA8911968C910E942E
:101EF000533581114EC0E989FA891382838D948DFF
:101F0000A58DB68D43A154A165A176A1930182014F
:101F1000041B150B260B370B081719072A073B075D
:101F200008F080CD2281022F10E00230110508F464
:101F300079CDC986DA86EB86FC86780106C0E98908
:101F4000FA89838D948DA58DB68D480E591E6A1E13
:101F50007B1E01E010E0A3019201B101A989BA89B9
:101F600011968C910E945335B1E0EB1AF108E1E033
:101F7000EE16F10421F7C984DA84EB84FC8452CD97
:101F80008FEF9FEFDC01E989FA8987A790ABA1ABBE
:101F9000B2AB81E004CD83AA21E0E989FA892383E9
:101FA00029853A85232F332726956C017D01C20EA2
:101FB000D31EE11CF11C09811A812B813C81C016C2
:101FC000D106E206F30609F089CDE985FA85F170BC
:101FD00029893A89E20FF31F93A9907F892D8F7089
:101FE000892E882AD90183AA81E013968C9380E0F8
:101FF000D6CC2A013B0138CDE985FA85F170EBCDCD
:102000002F923F924F925F926F927F928F929F9208
:10201000AF92BF92CF92DF92EF92FF920F931F93F6
:10202000CF93DF93CDB7DEB76097CDBFDEBF8F878D
:10203000988B6A017B01423051056105710598F06A
:10204000FC018789908DA18DB28D481759076A07C9
:102050007B0748F48081823009F4B5C0833009F4ED
:10206000EAC08130D1F061E070E080E090E06096FD
:10207000CDBFDEBFDF91CF911F910F91FF90EF9009
:10208000DF90CF90BF90AF909F908F907F906F9098
:102090005F904F903F902F900895CA019695879535
:1020A0008C01040F151F09831A8383A194A1A5A194
:1020B000B6A19801232F332726954C015D01820E8E
:1020C000931EA11CB11C47A450A861A872A8841437
:1020D0009504A604B70409F435C28381811184C133
:1020E000F3961F0101E010E0A5019401B101AF8555
:1020F000B88911968C910E943F3581118FC0AF85B0
:10210000B8899F968D929D92AD92BC92D297FD0117
:1021100083A194A1A5A1B6A18D829E82AF82B8862B
:1021200009811A810F5F1F4F09871A8729813A8118
:1021300031704F855889420F531FFA01F3A9F98373
:102140009801232F332726952C013D01420E531E63
:10215000611C711C481459046A047B04E9F0AF85C2
:10216000B88913968C9113978111F1C1D3961D01F3
:1021700001E010E0A3019201B101EF85F8898181AE
:102180000E943F3581114AC0AF85B8899F964D9214
:102190005D926D927C92D297E985FA85F1700F85F8
:1021A0001889E00FF11F83A99981692F70E0782BBE
:1021B000C0FE29C2729562956F7067277F7067278E
:1021C00080E090E054CF852E962EA72EBB24EF857D
:1021D000F88983A194A1A5A1B6A1880E991EAA1E73
:1021E000BB1E47A450A861A872A884149504A60435
:1021F000B70409F48BC0838181119FC0F3961F013E
:1022000001E010E0A5019401B101AF85B8891196F4
:102210008C910E943F35882309F472C08FEF9FEFA5
:10222000DC01EF85F88987A790ABA1ABB2AB6FEF6C
:102230007FEFCB011CCFAF85B88993968D909D9091
:10224000AD90BC909697DB01CA0157E0B695A79573
:10225000979587955A95D1F7880E991EAA1EBB1E91
:10226000EF85F88947A450A861A872A88414950442
:10227000A604B704C9F0838181110DC1F3961F0133
:1022800001E010E0A5019401B101EF85F889818199
:102290000E943F358111C2CFAF85B8899F968D923C
:1022A0009D92AD92BC92D297CC0CDD1CCC0CDD1C67
:1022B000FCEFCF22F1E0DF22F601F3960F851889BB
:1022C000E00FF11F6381862F90E0A0E0B0E0BA2F0D
:1022D000A92F982F88272281822BBA2FA92F982FD8
:1022E00088272181822BBA2FA92F982F8827F801C0
:1022F000EC0DFD1D23A9822BBC01CD019F70B7CE33
:10230000EF85F88987A690AAA1AAB2AACC0CDD1CF9
:10231000E894C0F8F1E0DF22EF85F889EC0DFD1DAF
:1023200064A970E0762F6627EF85F889EC0DFD1D16
:1023300083A9682B80E090E09ACE2F843888F3E35D
:102340002F0E311C01E010E0A3019201B101AF8515
:10235000B88911968C910E945335811168CFEF8511
:10236000F8891382838D948DA58DB68D43A154A1D8
:1023700065A176A193018201041B150B260B370B77
:10238000081719072A073B0708F03ACF2281022FC6
:1023900010E00230110508F433CFC982DA82EB82F3
:1023A000FC82780106C0EF85F889838D948DA58D18
:1023B000B68D480E591E6A1E7B1E01E010E0A30177
:1023C0009201B101AF85B88911968C910E94533565
:1023D000B1E0EB1AF108E1E0EE16F10421F7C98053
:1023E000DA80EB80FC800CCF2F84388813E3210E39
:1023F000311C01E010E0A3019201B101AF85B88961
:1024000011968C910E945335811111CFEF85F88977
:102410001382838D948DA58DB68D43A154A165A1A2
:1024200076A193018201041B150B260B370B0817AD
:1024300019072A073B0708F055CE2281022F10E02A
:102440000230110508F44ECECD82DE82EF82F8868E
:10245000780106C0EF85F889838D948DA58DB68DA2
:10246000480E591E6A1E7B1E01E010E0A301920176
:10247000B101AF85B88911968C910E945335B1E0B6
:10248000EB1AF108E1E0EE16F10421F7CD80DE80D1
:10249000EF80F88427CE2F843888F3E32F0E311C89
:1024A00001E010E0A3019201B101AF85B889119656
:1024B0008C910E9453358111BACEEF85F889138231
:1024C000838D948DA58DB68D43A154A165A176A170
:1024D00093018201041B150B260B370B08171907F4
:1024E0002A073B0708F0CCCE2281022F10E00230F1
:1024F000110508F4C5CEC982DA82EB82FC8278012C
:1025000006C0EF85F889838D948DA58DB68D480E14
:10251000591E6A1E7B1E01E010E0A3019201B10169
:10252000AF85B88911968C910E945335B1E0EB1AB2
:10253000F108E1E0EE16F10421F7C980DA80EB80C2
:10254000FC809ECE8D829E82AF82B886E9CD1D0131
:10255000FD01B3E32B0E311C01E010E0A501940155
:10256000B10181810E945335811161CEAF85B88957
:1025700013961C921397FD01838D948DA58DB68DB6
:1025800043A154A165A176A195018401041B150BFB
:10259000260B370B081719072A073B0708F0E8CD69
:1025A0002281A22EB12C12E0A116B10408F4E0CDD4
:1025B000CB86DC86ED86FE8675018D809E80AF80A1
:1025C000B88406C0EF85F889838D948DA58DB68D6E
:1025D000880E991EAA1EBB1E01E010E0A501940101
:1025E000B101AF85B88911968C910E945335B1E045
:1025F000EB1AF108E1E0EE16F10421F7CB84DC845C
:10260000ED84FE84B5CD7F7080E090E030CD2F92D8
:102610003F924F925F926F927F928F929F92AF9272
:10262000BF92CF92DF92EF92FF920F931F93CF93BF
:10263000DF93CDB7DEB76E97CDBFDEBF8D839E83B0
:102640004D875E876F87788BDC012D903C9041151C
:1026500051056105710509F03FC2F10143845484BD
:1026600065847684411451046104710409F06AC0E0
:102670008789908DA18DB28D412C512C32014394CC
:10268000530142017301620144C002E0C016D1044B
:10269000E104F10408F41BC2ED81FE810190F08198
:1026A000E02DED8FFE8F82E0882E912CA12CB12C95
:1026B000ED8DFE8D8789908DA18DB28D881699063E
:1026C000AA06BB0650F48081823009F48AC18330A7
:1026D00009F4F2C0813009F445C041E050E060E007
:1026E00070E0413051056105710509F45FC14F3F4C
:1026F000BFEF5B076B077B0709F458C18C149D047F
:10270000AE04BF0409F4E3C1F1018789908DA18D66
:10271000B28DFFEF8F1A9F0AAF0ABF0A881699067B
:10272000AA06BB0608F0B1CFAD81BE810D90BC9169
:10273000A02DAD8FBE8FB2E08B169104A104B10421
:1027400060F2B6CFF1018789908DA18DB28D4816C8
:1027500059066A067B0608F493CF412C512C3201AE
:1027600043948ECFF401F695E7958F01080D191D5E
:102770000F831887ED8DFE8D83A194A1A5A1B6A12D
:102780009801232F33272695AC01BD01420F531F1B
:10279000611D711D49835A836B837C8347A450A8B4
:1027A00061A872A8441655066606770661F1838112
:1027B000811109C20D8D1E8D0D5C1F4F09871A876F
:1027C00001E010E029813A814B815C8169857A853D
:1027D000AD8DBE8D11968C910E943F35811168C1DF
:1027E00009811A812B813C81AD8DBE8D9F960D9301
:1027F0001D932D933C93D297FD0183A194A1A5A194
:10280000B6A10F8118850F5F1F4F09871A872F8187
:10281000388531704D8D5E8D420F531FFA01F3A93B
:10282000F98B9801232F332726952C013D01420E69
:10283000531E611C711C09811A812B813C81041576
:10284000150526053705F9F0AD8DBE8D13968C91D3
:102850001397FD01811176C2F396EF83F88701E0AB
:1028600010E0A30192016F817885AD8DBE8D119628
:102870008C910E943F3581111BC1ED8DFE8D47A6C5
:1028800050AA61AA72AA89859A8591700D8D1E8DB4
:10289000800F911FDC01D3968C919989492F50E0CC
:1028A000582B80FE4BC2529542954F7045275F7062
:1028B000452760E070E06EC0ED8DFE8D43A154A110
:1028C00065A176A1D501C40117E0B695A7959795A6
:1028D00087951A95D1F78C019D01040F151F261FAE
:1028E000371F09831A832B833C8347A450A861A810
:1028F00072A8041515052605370521F1838181117C
:1029000077C1ED8DFE8DF396EF83F88701E010E03F
:1029100029813A814B815C816F817885AD8DBE8D37
:1029200011968C910E943F358111C2C009811A8194
:102930002B813C81AD8DBE8D9F960D931D932D9364
:102940003C93D297C401880F991F880F991F8C7FE1
:102950009170FC01F3960D8D1E8DE00FF11F4381E8
:1029600050E060E070E0762F652F542F44272281DD
:10297000422B762F652F542F44272181422B762F0F
:10298000652F542F4427800F911FDC01D3968C9123
:10299000482B7F70411551056105710509F478C018
:1029A000413051056105710509F0A8CE342F252F5E
:1029B000CB01632F722F6E96CDBFDEBFDF91CF911B
:1029C0001F910F91FF90EF90DF90CF90BF90AF904D
:1029D0009F908F907F906F905F904F903F902F903F
:1029E0000895BB27AB2D9A2D892DED8DFE8D43A12A
:1029F00054A165A176A18C019D01040F151F261F0E
:102A0000371F09831A832B833C8347A450A861A8EE
:102A100072A8041515052605370529F18381811152
:102A20007BC0ED8DFE8DF396EF83F88701E010E01B
:102A300029813A814B815C816F817885AD8DBE8D16
:102A400011968C910E943F35811132C009811A8103
:102A50002B813C81AD8DBE8D9F960D931D932D9343
:102A60003C93D297FD01C401880F991F8E7F91700E
:102A7000E80FF91F44A950E0542F442783A9482B9D
:102A800060E070E0411551056105710509F088CFDE
:102A9000F1018789908DA18DB28D88169906AA06BD
:102AA000BB0608F4B6C131E020E080E090E081CFC1
:102AB0000FEF1FEF9801AD8DBE8D9F960D931D9367
:102AC0002D933C93D2974FEF5FEFBA010ACE30E0DF
:102AD00020E080E090E06DCFC10192DAAB01BC0153
:102AE0004230510561057105F0F24F3FFFEF5F077E
:102AF0006F077F0709F41DC1F1018789908DA18DB2
:102B0000B28D481759076A077B0708F44FCF4D84E9
:102B10005E846F847888B4CDF396EF83F88701E004
:102B200010E0A3019201BF01AD8DBE8D11968C9175
:102B30000E945335811158C0ED8DFE8D1382838D17
:102B4000948DA58DB68D43A154A165A176A1930165
:102B50008201041B150B260B370B081719072A07D0
:102B60003B0708F063CF2281022F10E002301105ED
:102B700008F45CCFC986DA86EB86FC867801CF80C4
:102B8000D88406C0ED8DFE8D838D948DA58DB68D78
:102B9000480E591E6A1E7B1E01E010E0A30192013F
:102BA000B601AD8DBE8D11968C910E945335B1E06A
:102BB000EB1AF108E1E0EE16F10421F7C984DA849A
:102BC000EB84FC8433CFF396E987FA8701E010E0C9
:102BD000A3019201BF01AD8DBE8D11968C910E9413
:102BE0005335882309F45BC04FEF5FEFBA01DECEA7
:102BF000F396EF83F88701E010E0A3019201BF0193
:102C0000AD8DBE8D11968C910E9453358111ECCF04
:102C1000ED8DFE8D1382838D948DA58DB68D43A190
:102C200054A165A176A193018201041B150B260B0B
:102C3000370B081719072A073B0708F067CE2281D0
:102C4000022F10E00230110508F460CEC986DA8642
:102C5000EB86FC867801CF80D88406C0ED8DFE8D92
:102C6000838D948DA58DB68D480E591E6A1E7B1ED0
:102C700001E010E0A3019201B601AD8DBE8D119669
:102C80008C910E945335B1E0EB1AF108E1E0EE16A9
:102C9000F10421F7C984DA84EB84FC8437CEED8D0E
:102CA000FE8D1382838D948DA58DB68D43A154A185
:102CB00065A176A193018201041B150B260B370B2E
:102CC000081719072A073B0708F07ACD2281022F3F
:102CD00010E00230110508F473CDC98ADA8AEB8A54
:102CE000FC8A7801C984DA8406C0ED8DFE8D838D5F
:102CF000948DA58DB68D480E591E6A1E7B1E01E06F
:102D000010E0A3019201B601AD8DBE8D11968C919C
:102D10000E945335B1E0EB1AF108E1E0EE16F10440
:102D200021F7C988DA88EB88FC884ACD813009F020
:102D3000BACE3FEF2FEF8FEF9FEF3BCE5F7060E09B
:102D400070E028CED396AF83B88701E010E02981E8
:102D50003A814B815C81BD0181810E945335811193
:102D600043CFAD8DBE8D13961C921397FD01838DBD
:102D7000948DA58DB68D43A154A165A176A109813D
:102D80001A812B813C81041B150B260B370B08176E
:102D900019072A073B0708F062CD2281022F10E0B5
:102DA0000230110508F45BCDCD8ADE8AEF8AF88EF9
:102DB000498E5A8E6B8E7C8E780149805A806B804A
:102DC0007C80CF80D88406C0ED8DFE8D838D948D60
:102DD000A58DB68D480E591E6A1E7B1E01E010E0BF
:102DE000A3019201B601AD8DBE8D11968C910E940A
:102DF0005335B1E0EB1AF108E1E0EE16F10421F7EA
:102E0000CD88DE88EF88F88C498C5A8C6B8C7C8C52
:102E100026CD0FEF1FEF9801B501A401C1010E945B
:102E2000A70C811183CF0D851E852F85388901154B
:102E3000110521053105E1F00230110521053105AB
:102E400008F431CEF1018789908DA18DB28D0817DC
:102E500019072A073B0708F026CE950184014D8506
:102E60005E856F857889C1010E94A70C81115ECFB4
:102E7000D1011B968D929D92AD92BC921E971F968A
:102E80008D919D910D90BC91A02DF1014789508DA0
:102E9000618D728D4250510961097109841795073E
:102EA000A607B70740F40197A109B109F101878787
:102EB000908BA18BB28BD10114968C911497816069
:102EC00014968C93382D292DC50173CD2F923F92E6
:102ED0004F925F926F927F928F929F92AF92BF922A
:102EE000CF92DF92EF92FF920F931F93CF93DF93D6
:102EF000CDB7DEB76497CDBFDEBFFC012080318047
:102F000016861786108A118A86809780A084B184DD
:102F100081149104A104B10409F048C0D1018C913D
:102F2000833058F097964D915D916D917C919A9771
:102F30004115510561057105B9F5D10117968D91BE
:102F40009C911897892BB9F482E06496CDBFDEBFBF
:102F5000DF91CF911F910F91FF90EF90DF90CF9075
:102F6000BF90AF909F908F907F906F905F904F90A9
:102F70003F902F900895D1019796CD90DD90ED90E0
:102F8000FC909A97C68AD78AE08EF18E828A938ABD
:102F9000A48AB58ACD28CE28CF28B1F2C101C39624
:102FA000828F938F80E0D1CF4A015B01D1011996C6
:102FB0006D917C911A9780E090E061157105810513
:102FC000910509F0BDC22D823E822B8A3C8A1F01E9
:102FD000B2E08B169104A104B10408F4B5CFEB89DB
:102FE000FC898789908DA18DB28D88169906AA06D5
:102FF000BB0608F0A9CF8081823009F4AAC08330D3
:1030000009F40EC1813009F09FCF6401D694C794B2
:103010008601080D191D09831A8383A194A1A5A116
:10302000B6A19801232F332726956C017D01C20E8E
:10303000D31EE11CF11C47A450A861A872A84C142F
:103040005D046E047F0429F183818111BBC1EB898A
:10305000FC89F396EF83F88701E010E0A701960161
:103060006F817885AB89BC8911968C910E943F3520
:1030700081113DC1AB89BC899F96CD92DD92ED92C5
:10308000FC92D297FD0183A194A1A5A1B6A10981CB
:103090001A810F5F1F4F0F83188729813A81317082
:1030A0004B895C89420F531FFA01F3A9FB879801F2
:1030B000232F33272695AC01BD01420F531F611DFD
:1030C000711D49835A836B837C83C416D506E6063B
:1030D000F70629F1AB89BC8913968C91139781115E
:1030E0005CC23D01B3E36B0E711C01E010E029816D
:1030F0003A814B815C81B301EB89FC8981810E941B
:103100003F358111F4C009811A812B813C81AB8943
:10311000BC899F960D931D932D933C93D2974F801E
:103120005884F1E05F22EB89FC89E40DF51D23A9A9
:103130000B85802F90E0922B80FE7DC24C019294F3
:103140008294FFE08F2289249F228924A12CB12C14
:103150004DC0FF24EB2CDA2CC92CEB89FC8983A110
:1031600094A1A5A1B6A1C80ED91EEA1EFB1E47A4B4
:1031700050A861A872A8C414D504E604F704F9F0B5
:1031800083818111C0C00B891C890D5C1F4F09838D
:103190001A8301E010E0A701960169817A81AB8969
:1031A000BC8911968C910E943F358111A0C0AB89DA
:1031B000BC899F96CD92DD92ED92FC92D297880CBD
:1031C000991CE89480F8F1E09F22EB89FC89E80DD6
:1031D000F91D84A990E0982F8827EB89FC89E80DD8
:1031E000F91D23A94C01822AA12CB12CB2E08B1627
:1031F0009104A104B10408F4A7CEED81FE81878972
:10320000908DA18DB28D88169906AA06BB0608F08E
:103210009BCED1010D90BC91A02DAB8BBC8BD8CE99
:10322000AB89BC899396CD90DD90ED90FC909697FC
:10323000D501C40157E0B695A795979587955A95FE
:10324000D1F7C80ED91EEA1EFB1EEB89FC8947A4E4
:1032500050A861A872A8C414D504E604F704F1F0DC
:10326000838181110EC1EB89FC89F396E983FA838E
:1032700001E010E0A701960169817A81AB89BC89E0
:1032800011968C910E943F35811131C0AB89BC8968
:103290009F96CD92DD92ED92FC92D297880C991C6C
:1032A000880C991CC4018C7F9170FC01F3960B89EA
:1032B0001C89E00FF11F8380912CA12CB12CBA2C1A
:1032C000A92C982C88242281822ABA2CA92C982CEB
:1032D00088242181822ABA2CA92C982C8824F801D0
:1032E000E80FF91F83A9882A1FE0B1227FCF0B893D
:1032F0001C898FEF9FEFDC01F80187A790ABA1AB92
:10330000B2AB81E022CEF396E983FA8301E010E0CC
:10331000A3019201BF01AB89BC8911968C910E94D7
:1033200053358111EECFEB89FC891382838D948D07
:10333000A58DB68D43A154A165A176A1930182010B
:10334000041B150B260B370B081719072A073B0719
:1033500008F01FCF2281022F10E00230110508F47F
:1033600018CF8F829886A986BA86CB86DC86ED86B2
:10337000FE86780189809A8006C0EB89FC89838D5E
:10338000948DA58DB68D480E591E6A1E7B1E01E0D8
:1033900010E0A3019201B401AB89BC8911968C9114
:1033A0000E945335B1E0EB1AF108E1E0EE16F104AA
:1033B00021F78F809884A984BA84CB84DC84ED843F
:1033C000FE84E7CEF396EF83F88701E010E0A301D7
:1033D0009201BF01AB89BC8911968C910E94533533
:1033E00081118FCFEB89FC891382838D948DA58DFC
:1033F000B68D43A154A165A176A193018201041B5E
:10340000150B260B370B081719072A073B0708F07F
:1034100023CE2281022F10E00230110508F41CCEC9
:103420008B869C86AD86BE86CF86D88AE98AFA8A44
:1034300078018F80988406C0EB89FC89838D948DF8
:10344000A58DB68D480E591E6A1E7B1E01E010E048
:10345000A3019201B401AB89BC8911968C910E94A1
:103460005335B1E0EB1AF108E1E0EE16F10421F773
:103470008B849C84AD84BE84CF84D888E988FA8804
:10348000EBCDF396E983FA8301E010E0A30192010A
:10349000BF01AB89BC8911968C910E945335811173
:1034A00030CFEB89FC891382838D948DA58DB68DE9
:1034B00043A154A165A176A193018201041B150BC0
:1034C000260B370B081719072A073B0708F0D0CE41
:1034D0002281022F10E00230110508F4C9CE8F823C
:1034E0009886A986BA86CB86DC86ED86FE8678012C
:1034F00089809A8006C0EB89FC89838D948DA58D87
:10350000B68D480E591E6A1E7B1E01E010E0A30115
:103510009201B401AB89BC8911968C910E945335FC
:10352000B1E0EB1AF108E1E0EE16F10421F78F802B
:103530009884A984BA84CB84DC84ED84FE8498CEFC
:10354000A50194012250310941095109D101579631
:10355000CD90DD90ED90FC905A97B2E0CB1AD10857
:10356000E108F1082C153D054E055F0590F40E9419
:103570001C38D1019B96CD90DD90ED90FC909E97EC
:10358000C60ED71EE81EF91EC68AD78AE08EF18EB7
:10359000FDCCC12CD12C7601F7CFFD013D01B3E369
:1035A0006B0E711C01E010E0A7019601B30181814F
:1035B0000E9453358111A5CEAB89BC8913961C920C
:1035C0001397FD01838D948DA58DB68D43A154A1D4
:1035D00065A176A197018601041B150B260B370BFD
:1035E000081719072A073B0708F07FCD2281422ED2
:1035F000512C12E04116510438F477CDEB89FC8947
:10360000838D948DA58DB68DC80ED91EEA1EFB1E26
:1036100001E010E0A7019601B301AB89BC891196C6
:103620008C910E945335B1E04B1A5108E1E04E16DF
:10363000510421F75ACD4C011FE09122A12CB12C4D
:10364000D5CD2F923F924F925F926F927F928F9241
:103650009F92AF92BF92CF92DF92EF92FF920F9321
:103660001F93CF93DF93CDB7DEB76597CDBFDEBF96
:103670005C016A837B83DC010D90BC91A02DAC833F
:10368000BD83FB0180818F3209F49CC28C3509F423
:1036900099C2EC81FD8183899489A589B689F50158
:1036A00086839783A087B187EA81FB8180818032FE
:1036B00008F49FC28501045E1F4F0A871B8700E242
:1036C000F501048F058F068F078F00A301A302A3C6
:1036D00003A304A305A306A3AA81BB818C918E3208
:1036E000C9F100E010E040E050E0F8E0EF2EF12CEE
:1036F0004F5F5F4F2D91213208F4F7C22F3209F44A
:10370000D4C22C3509F4D1C22E3209F44FC00E15A3
:103710001F05A0F527FD32C0622F70E0223209F4A8
:103720004FC0E1E5F0E205C090E06817790709F4C1
:1037300047C081918111F8CF8FE9820F8A3108F457
:1037400020528A859B85800F911FFC0120830F5F8B
:103750001F4FCECFF501848F11968C9111978E3229
:1037600009F0D9C2858F12968C9123E030E08F3218
:1037700051F18C3541F1813208F48FC2B6E08B2FC4
:103780006596CDBFDEBFDF91CF911F910F91FF9066
:10379000EF90DF90CF90BF90AF909F908F907F90F1
:1037A0006F905F904F903F902F9008958BE0E816B8
:1037B000F10421F308E010E08BE0E82EF12C98CF23
:1037C000F6E08F2FDDCF4A815B81420F531F4A8382
:1037D0005B8380E2F50187A3D5012D903C90C50164
:1037E00075DB89838111A3C0F501C688D788E08C79
:1037F000F18C81010D5C1F4F26013701A88AB98A1F
:103800006801D1019F968D909D90AD90BC90D2970C
:1038100084149504A604B70411F113968C911397A0
:103820008111A6C001E010E0A3019201B601F101EF
:1038300081810E943F35882359F08FEF9FEFDC0193
:10384000F10187A790ABA1ABB2ABF1E08F2F98CF7E
:10385000D1019F964D925D926D927C92D297A889EC
:10386000B9895A96ED91FC915B978081882309F480
:10387000A5C183858F7314968C931497938593FDBC
:1038800042C020815C969C915C9729133CC02181A9
:103890005D969C915D97291336C022815E969C911E
:1038A0005E97291330C023815F969C915F972913FF
:1038B0002AC0248190969C919097291324C0258139
:1038C00091969C91919729131EC0268192969C9166
:1038D0009297291318C0278193969C919397291347
:1038E00012C0208594969C91949729130CC0218531
:1038F00095969C919597291306C0228596969C9142
:10390000291709F491C1E889F98900811181868418
:103910009784A088B18846885788608C718C411440
:1039200051046104710499F45F01F4E0F983F50135
:1039300087A1F981F43009F0F9C185FFE7C182FF61
:10394000BECE80E8F50187A31982898119CFF0E204
:103950008F0E911CA11CB11C8114910420E2A206BF
:10396000B10408F455C0A888B98804E00983DFCF02
:1039700001E010E0A5019401B60111968C910E941E
:10398000533581118AC0F1011382838D948DA58DE9
:10399000B68D43A154A165A176A195018401041BB4
:1039A000150B260B370B081719072A073B0708F0DA
:1039B00039CFE280F12C12E0E116F10408F432CFA5
:1039C000288939892E823F82190106C0EE81FF8144
:1039D000838D948DA58DB68D880E991EAA1EBB1E53
:1039E00001E010E0A5019401B601AE81BF811196FE
:1039F0008C910E945335B1E0EB1AF108E1E0EE162C
:103A0000F10421F7C1012E803F80888B998B0ACF6A
:103A1000D501C4019170AA27BB27892B8A2B8B2B38
:103A200009F0B8C03FEF431A530A630A730AA88922
:103A3000B98956964D925D926D927C9259975296A5
:103A40002D913D914D915C9155972A8B3B8B4C8BE1
:103A50005D8BF801232B242B252B11F58781908575
:103A6000A0E0B0E0B501A401E5E076956795579533
:103A70004795EA95D1F7481759076A077B0708F475
:103A800089C0A888B988D50156961D921D921D92AD
:103A90001C925997B4E0B9834ACF01E0802F70CED1
:103AA000818592859C0121503109C901A0E0B0E0D7
:103AB000A501940169E056954795379527956A9534
:103AC000D1F7282339234A235B232E833F8348875A
:103AD0005987232B242B252B09F05CC04A895B894D
:103AE0006C897D89C8010E940010623071058105D2
:103AF000910508F401C16F3F3FEF730783079307F8
:103B000009F40CC1D80157964D905D906D907C9052
:103B10005A97641575058605970508F0B2CFE889B0
:103B2000F989628B738B848B958B9B01AC0122503E
:103B3000310941095109F2E04F1A51086108710831
:103B40002415350546055705B8F419960D90BC9116
:103B5000A02D0E945C38D8019B964D905D906D9091
:103B60007C909E979B01AC01240D351D461D571D71
:103B70002E833F83488759872E813F814885598509
:103B8000A889B98956962D933D934D935C93599787
:103B900029013A01E889F98986869786A08AB18A3F
:103BA000F1E09F2223E3820E911C080D191DA889C4
:103BB000B9895A960D931C935B9723CE5D01FD0145
:103BC00087A1BBCE2A813B81F90180812F5F3F4FC6
:103BD0008F32D1F38C35C1F3EA83FB83D50116967E
:103BE0001D921D921D921C9219978081803208F0BF
:103BF00061CD80E8D50197968C93C5016596CDBFC0
:103C0000DEBFDF91CF911F910F91FF90EF90DF907A
:103C1000CF90BF90AF909F908F907F906F905F906C
:103C20004F903F902F9052C9A888B988D501979698
:103C30009C9192FD7BC084FF66C0D5011E96ED91DC
:103C4000FC911F97F170F3966C817D816E0F7F1F41
:103C5000FB01838D90E0982F8827228D822BA0E096
:103C6000B0E0EC81FD812081233031F0F5018683C5
:103C70009783A087B18723CDFB01458950E0542F5E
:103C800044272489422B60E070E0BA01552744277D
:103C9000842B952BA62BB72BE9CF0A811B81020F12
:103CA000131F0A831B8384E295CDEA81FB81E40F15
:103CB000F51F3E2F9F2F81918F32D9F38C35C9F399
:103CC0003A839B83012B09F459CDD5015C968C91E5
:103CD0005C97853E19F4E5E05C96EC93213288F020
:103CE00080E0D50197968C9377CD8A819B81840F54
:103CF000951F8A839B83E6CFA888B98812E0198331
:103D000016CE84E0EECF25E0822F3ACD82FD0BC0A7
:103D1000F5E08F2F35CD22E030E029CDA888B98895
:103D200021E0298304CE14E0812F2ACD898128CD7A
:103D30002F923F924F925F926F927F928F929F92BB
:103D4000AF92BF92CF92DF92EF92FF920F931F93A9
:103D5000CF93DF93CDB7DEB76397CDBFDEBF3C0116
:103D6000DC012D903C90B2D88983811102C2F3010D
:103D7000C688D788E08CF18C2101F3E34F0E511CEB
:103D8000288A398AC201160127016C01A889B989DC
:103D90009F968D909D90AD90BC90D2978214930485
:103DA000A404B504E1F113968C911397811198C185
:103DB00001E010E0A2019101B601A889B98911962C
:103DC0008C910E943F35882311F1288839888FEF24
:103DD0009FEFDC01F10187A790ABA1ABB2ABF1E0A3
:103DE0008F2F6396CDBFDEBFDF91CF911F910F91D3
:103DF000FF90EF90DF90CF90BF90AF909F908F900B
:103E00007F906F905F904F903F902F900895A8897A
:103E1000B9899F962D923D924D925C92D297D30193
:103E20005A96ED91FC915B978081853E11F081114E
:103E300072C028883988D30156968D909D90AD9098
:103E4000BC905997D1019F96CD90DD90ED90FC905C
:103E5000D2978C149D04AE04BF0419F113968C9173
:103E6000139781118BC181010D5C1F4F0E831F833E
:103E700001E010E0A50194016E817F81D1011196CE
:103E80008C910E943F358111A2CFD1019F968D92D6
:103E90009D92AD92BC92D297D3015A96ED91FC912E
:103EA0005B9780E2DF011D928A95E9F7D3015A966C
:103EB000ED91FC915B975C968C915C9780835D960D
:103EC0008C915D9781835E968C915E9782835F96DD
:103ED0008C915F97838390968C9190978483919631
:103EE0008C919197858392968C91929786839396E5
:103EF0008C919397878394968C91949780879596CD
:103F00008C919597818796968C91828781E0F101BB
:103F10008383898166CFED90FC9011971E968D90DA
:103F20009D90AD90BC90519756962D903D904D90A0
:103F30005C905997211431044104510419F4E7E0CD
:103F40008E2F4FCFB0E28B0E911CA11CB11C81149F
:103F50009104E0E2AE06B10490F7D501C40191707E
:103F6000AA27BB27892B8A2B8B2B09F0A7C0FFEF31
:103F70002F1A3F0A4F0A5F0AD30156962D923D929F
:103F80004D925C92599752968D919D910D90BC9156
:103F9000A02DF7010097A105B105D9F4878190857F
:103FA000A0E0B0E0B501A401E5E0769567955795EE
:103FB0004795EA95D1F7481759076A077B0708F430
:103FC0007DC0D30156961D921D921D921C92599749
:103FD000B6CF61857285615071098B0120E030E0B8
:103FE0000A831B832C833D839501840149E0369528
:103FF0002795179507954A95D1F74A815B816C8182
:104000007D8140235123622373234A835B836C8326
:104010007D83452B462B472B09F050C0AC01BD01D9
:10402000C7010E9400101B012C016230710581053F
:10403000910508F4FEC07FEF27163706470657069E
:1040400009F413C1F7018789908DA18DB28D2816CF
:1040500039064A065B0608F0EFC0A2019101225022
:10406000310941095109F301228A338A448A558A68
:104070000297A109B109281739074A075B0798F485
:10408000F701A185B2850E945C3803A514A525A57A
:1040900036A51B012C01200E311E421E531E2A8202
:1040A0003B824C825D822A803B804C805D80D301C4
:1040B00056962D923D924D925C925997F3018686C9
:1040C0009786A08AB18AF1E09F2203E3800E911CBB
:1040D000E80CF91CD3015A96ED92FC925B9756CEF0
:1040E00001E010E0A5019401B60111968C910E94A7
:1040F000533581113BC0E889F9891382838D948DF2
:10410000A58DB68D43A154A165A176A19501840129
:10411000041B150B260B370B081719072A073B073B
:1041200008F046CEE280F12C12E0E116F10438F4FA
:104130003FCEE889F989838D948DA58DB68D880E43
:10414000991EAA1EBB1E01E010E0A5019401B60154
:10415000A889B98911968C910E945335B1E0EB1A68
:10416000F108E1E0EE16F10421F722CEB1E08B2F49
:1041700038CE843009F4E3CE898133CEF101F39651
:10418000EE83FF8301E010E0A7019601BF011196C5
:104190008C910E945335811122CEF1011382838DBF
:1041A000948DA58DB68D43A154A165A176A19701EB
:1041B0008601041B150B260B370B081719072A0756
:1041C0003B0708F055CE2281422E512C12E04116B9
:1041D000510408F44DCE8A829B82AC82BD82460196
:1041E0005701EE80FF806101130105C0F601838D48
:1041F000948DA58DB68D880E991EAA1EBB1E01E05A
:1042000010E0A5019401B701D60111968C910E948E
:104210005335B1E04B1A5108E1E04E16510431F725
:104220008A809B80AC80BD8031011601EE82FF82C6
:104230001FCE62E0862FD5CDD30152964D915D9170
:104240006D917C915597C3010E9407131B012C01AE
:10425000611571058105910551F4B7E08B2FC1CD32
:10426000C7010E94E105882389F081E0BACD613061
:10427000710581059105E9F26F3F7F4F8F4F9F4F89
:10428000A1F3D70113968C918111EACFF701F39630
:10429000DF0100E012E01D9201501040E1F7A201A1
:1042A000910122503109410951092E833F834887EA
:1042B0005987D70157960D911D912D913C915A9791
:1042C0000A871B872C873D87D901C8010297A1095E
:1042D000B1090E811F8128853985081719072A071A
:1042E0003B0708F45AC0D70119960D90BC91A02D38
:1042F000AE87BF8780E090E0DC010E851F85F70167
:1043000087A790ABA1ABB2AB012B09F462C000E070
:1043100010E0E888F988AF0113C00F5F1F4FFA0162
:1043200087A590A9A1A9B2A90196A11DB11D87A732
:1043300090ABA1ABB2AB218532850217130778F49D
:10434000E1E0DA011396EC93CA014A8B5B8B0E9481
:10435000E1054A895B89882301F381E042CD9A0116
:10436000E88AF98A79012789308D418D528D2A8713
:104370003B874C875D87801B910BA109B109F70131
:1043800087A790ABA1ABB2AB8A859B85AC85BD8579
:104390002E813F814885598566CEF7010184F285DB
:1043A000E02DEE87FF87DF012E813F81488559850B
:1043B0000E945C38D7019B960D911D912D913C91E7
:1043C0009E97DC01CB01800F911FA21FB31F8F01AD
:1043D00096CF00E010E0CFCF2F923F924F925F92A6
:1043E0006F927F928F929F92AF92BF92CF92DF9205
:1043F000EF92FF920F931F93CF93DF93CDB7DEB76A
:104400006497CDBFDEBF89839A834A015B01B901FE
:10441000A801DC01CD90DC90B2E08B169104A104E0
:10442000B10450F0F6018789908DA18DB28D881668
:104430009906AA06BB06B8F082E06496CDBFDEBF3F
:10444000DF91CF911F910F91FF90EF90DF90CF9070
:10445000BF90AF909F908F907F906F905F904F90A4
:104460003F902F9008950115110521053105B9F0F0
:104470000230110521053105F8F2081719072A073E
:104480003B07D0F60FEF1FEF9801C6010E94A70C63
:104490008111D3CFA981BA812D903C9001C0160122
:1044A0002B8A3C8A39C000E010E09801B501A401D4
:1044B000C6010E94A70C8111C0CFF60187859089A3
:1044C000A189B2894789508D618D728D4A015B0146
:1044D000F2E08F1A9108A108B10888159905AA057C
:1044E000BB0558F40196A11DB11DF6018787908B7D
:1044F000A18BB28B84818160848344165506660645
:10450000770608F0D3C1A981BA810D90BC91A02D86
:10451000AB8BBC8B53014201B2E08B169104A1041A
:10452000B104A0F0EB89FC898789908DA18DB28DB3
:1045300088169906AA06BB0648F48081823009F4E1
:1045400053C1833009F4D4C0813029F1412C512C5E
:1045500032014394B1E04B1651046104710409F433
:104560006BCFEFEF4E165E066E067E0609F49CC119
:10457000F2E08F169104A104B10408F45DCFF601B6
:104580008789908DA18DB28D88169906AA06BB06E3
:1045900008F052CF88CFF401F695E7958F01080D0A
:1045A000191D0F831887AB89BC8993964D915D9136
:1045B0006D917C919697C801892F992786958A01DC
:1045C0009B01080F191F211D311D0B831C832D8397
:1045D0003E839F964D905D906D907C90D297401653
:1045E00051066206730651F113968C91139781114F
:1045F000F7C12B883C88B3E32B0E311C01E010E09F
:104600002B813C814D815E81B101EB89FC898181E7
:104610000E943F35811138C10B811C812D813E8163
:10462000AB89BC899F960D931D932D933C93D29794
:1046300093964D915D916D917C9196970F81188520
:104640000F5F1F4F09871A87EF81F885F1702B895B
:104650003C89E20FF31F93A99F83C801892F9927F3
:1046600086952A013B01480E591E611C711C0B8165
:104670001C812D813E810415150526053705F1F0B5
:10468000AB89BC8913968C9113978111F6C11D01DA
:10469000F3E32F0E311C01E010E0A3019201B10100
:1046A000AB89BC8911968C910E943F358111ECC079
:1046B000EB89FC8947A650AA61AA72AA89859A85C6
:1046C00091700B891C89800F911FDC01D3968C910E
:1046D0009F81492E512C582A80FE38C25294429410
:1046E0002FE04222452452224524612C712C6EC0B9
:1046F000EB89FC8943A154A165A176A1D501C40130
:1047000017E0B695A795979587951A95D1F78C01DF
:104710009D01040F151F261F371F0B831C832D833C
:104720003E8347A450A861A872A804151505260564
:10473000370519F18381811107C12B883C88F3E388
:104740002F0E311C01E010E02B813C814D815E81F8
:10475000B101AB89BC8911968C910E943F358111C2
:1047600093C00B811C812D813E81AB89BC899F96B2
:104770000D931D932D933C93D297C401880F991FDD
:10478000880F991F8C7F9170FC01F3960B891C890F
:10479000E00FF11F4380512C612C712C762C652C7D
:1047A000542C44242281422A762C652C542C4424F7
:1047B0002181422A762C652C542C4424800F911F91
:1047C000DC01D3968C91482ABFE07B22411451042E
:1047D0006104710409F46AC0B1E04B16510461042C
:1047E000710409F0C5CE28CEBB27AB2D9A2D892D9B
:1047F000EB89FC8943A154A165A176A18C019D019F
:10480000040F151F261F371F0B831C832D833E8328
:1048100047A450A861A872A80415150526053705F8
:1048200019F18381811144C02B883C88B3E32B0E9E
:10483000311C01E010E02B813C814D815E81B10192
:10484000EB89FC8981810E943F3581111DC00B815C
:104850001C812D813E81AB89BC899F960D931D9350
:104860002D933C93D297FD01C401880F991F8E7F31
:104870009170E80FF91F44A8512C542C442483A9AB
:10488000482A612C712CA2CF0FEF1FEF9801AB8942
:10489000BC899F960D931D932D933C93D2974424EE
:1048A0004A94542C320156CE81E0C7CD80E0C5CD6C
:1048B0001F0113E3210E311C01E010E0A30192015E
:1048C000B10181810E9453358111EECFAB89BC8942
:1048D00013961C921397FD01838D948DA58DB68D33
:1048E00043A154A165A176A193018201041B150B7C
:1048F000260B370B081719072A073B0708F099CF33
:10490000E280F12C12E0E116F10438F492CFEB8949
:10491000FC89838D948DA58DB68D480E591E6A1E17
:104920007B1E01E010E0A3019201B101AB89BC89BB
:1049300011968C910E945335B1E0EB1AF108E1E039
:10494000EE16F10421F775CF1F0113E3210E311C80
:1049500001E010E0A3019201B10181810E94533571
:104960008111A2CFAB89BC8913961C921397FD01CC
:10497000838D948DA58DB68D43A154A165A176A19B
:1049800093018201041B150B260B370B081719071F
:104990002A073B0708F0D6CEE280F12C12E0E116A0
:1049A000F10438F4CFCEEB89FC89838D948DA58DED
:1049B000B68D480E591E6A1E7B1E01E010E0A30151
:1049C0009201B101AB89BC8911968C910E9453353B
:1049D000B1E0EB1AF108E1E0EE16F10421F7B2CEF6
:1049E0001D0113E3210E311C01E010E0A30192012F
:1049F000B10111968C910E945335811155CFAB892D
:104A0000BC8913961C921397FD01838D948DA58DFF
:104A1000B68D43A154A165A176A193018201041B27
:104A2000150B260B370B081719072A073B0708F049
:104A3000E5CDE280F12C12E0E116F10438F4DECD90
:104A4000EB89FC89838D948DA58DB68D480E591EFA
:104A50006A1E7B1E01E010E0A3019201B101AB8947
:104A6000BC8911968C910E945335B1E0EB1AF10884
:104A7000E1E0EE16F10421F7C1CDFD011D01B3E324
:104A80002B0E311C01E010E02B813C814D815E81B9
:104A9000B10181810E945335811106CFAB89BC8958
:104AA00013961C921397FD01838D948DA58DB68D61
:104AB00043A154A165A176A10B811C812D813E816A
:104AC000041B150B260B370B081719072A073B0782
:104AD00008F0E1CDE280F12C12E0E116F10408F4D7
:104AE000DACD4B865C866D867E8626018F86988A17
:104AF000A98ABA8A5701CB80DC80ED80FE8006C08F
:104B0000EB89FC89838D948DA58DB68DC80ED91E39
:104B1000EA1EFB1E01E010E0A7019601B101AB897E
:104B2000BC8911968C910E945335B1E0AB1AB10843
:104B3000E1E0AE16B10421F762014B845C846D8420
:104B40007E848F849888A988BA88A5CDAFE05A2240
:104B5000612C712C3BCE2F923F924F925F926F92BD
:104B60007F928F929F92AF92BF92DF92EF92FF92CD
:104B70000F931F93CF93DF93CDB7DEB7AC97CDBF25
:104B8000DEBF6BA77CA7009739F1142F7C01242F7F
:104B90002F73D22E422FBE01675D7F4FCE018B96C1
:104BA0000E946E078823D1F0F70110821182AC9623
:104BB000CDBFDEBFDF91CF911F910F91FF90EF909E
:104BC000DF90BF90AF909F908F907F906F905F909D
:104BD0004F903F902F90089589E0E9CF89A59AA53D
:104BE00089839A836BA57CA5CE0101960E94211B27
:104BF000811119C088A587FD69C1812F8C7109F0C9
:104C00003EC18D8184FD64C111FF02C080FD49C198
:104C10001870E9A5FAA52B8D3C8D1123C1F08D2DBF
:104C20008064D82E14C01C7109F4BECF843009F002
:104C3000BBCFCE0101967CD83D2D3860D32E81119B
:104C4000B3CFD3FC47C1E9A5FAA52B8D3C8D47A571
:104C500050A961A972A9D7015C964D935D936D939C
:104C60007C935F9790962D933C939197D9015B9697
:104C70008C915B9790E0982F88275A964C915A9781
:104C8000842B4C01A12CB12C4081433009F40BC181
:104C9000D70116968D929D92AD92BC921997D9012B
:104CA0005F968C9190E0A0E0B0E08824982EA92E29
:104CB000BA2ED9015E964C91D501C401842B88246B
:104CC000982EA92EBA2ED9015D964C91D501C4011A
:104CD000842B4427582F692F7A2FD9015C962C9169
:104CE000422BD7011A964D935D936D937C931D973C
:104CF000ED93FC9311978581968112968D939C93E9
:104D000013971E96DC921E971F961C921F9758961B
:104D10001D921D921D921C925B9750961D921D92A2
:104D20001D921C9253971701B2E22B0E311C80E0AA
:104D300092E0D1019C011D9221503040E1F7D5FE57
:104D4000A5C0D7011A964D905D906D907C901D97EF
:104D5000411451046104710409F498C050964D92B5
:104D60005D926D927C92539781859285A0E0B0E030
:104D70004C015D0139E0880C991CAA1CBB1C3A95BA
:104D8000D1F7F701468157816085718584149504B8
:104D9000A604B704E8F4D7018D919C910E940010FD
:104DA000AB01BC01423051056105710508F477C0C3
:104DB0004F3FBFEF5B076B077B0709F469C04818DB
:104DC00059086A087B0884149504A604B70418F3EC
:104DD000D70154964D935D936D937C935797D30170
:104DE000C2019170AA27BB27892B8A2B8B2B09F430
:104DF0004DC0E9A5FAA59A01AB012250310941093C
:104E000051098789908DA18DB28D0297A109B109B1
:104E1000281739074A075B0708F0D3C0A185B28578
:104E20000E945C3883A494A4A5A4B6A4DC01CB01A1
:104E3000880D991DAA1DBB1D0097A105B10509F498
:104E4000C0C029E076946794579447942A95D1F787
:104E50009C01AD01240D351D461D571DD7015896E7
:104E60002D933D934D935C935B9701E010E0B1016E
:104E700081810E943F35882349F081E095CE8D8164
:104E8000817179F412FFDDCE88E08ECE80E08FCE86
:104E900081E0F701448B558B668B778B85CE82E062
:104EA000F8CF87E081CE55964C91559750E0542F1E
:104EB000442754966C91462B60E070E0BA01552768
:104EC0004427842A952AA62AB72AE2CE86E06CCE09
:104ED00084E06ACE0E946735EB8DFC8D6687872E55
:104EE000982EA92EBB2487868C0122273327008B7E
:104EF000492E552466247724418AEB8DFC8D668BE0
:104F0000878A008F418EEB8DFC8D80E283872B8D0D
:104F10003C8DE9A5FAA5D9015B964C905B97512C85
:104F2000542C44245A968C915A97482A612C712CFF
:104F30008081833009F44DC0D9015A961C925A974A
:104F40005B961C925B978081833009F43CC02B8D6B
:104F50003C8DD9015C961C925C975D961C925D9786
:104F60005E961C925E975F961C9281E0838341144B
:104F700051046104710409F452CE87A490A8A1A839
:104F8000B2A800E010E09801B301A201CE010196A1
:104F900023DA811109CEB501A40189A59AA50E9441
:104FA000E006E9A5FAA5B1E04B1A510861087108BD
:104FB00043865486658676868111F6CD2B8D3C8D91
:104FC0002ECE82E0F1CD54961C92549755961C92A9
:104FD000BECF55968C91559790E0982F8827549680
:104FE0004C91842BA0E0B0E0DC0199278827482A67
:104FF000592A6A2A7B2AA0CF2F923F924F925F9222
:105000006F927F928F929F92AF92BF92CF92DF92D8
:10501000EF92FF920F931F93CF93DF93CDB7DEB73D
:105020002897CDBFDEBF7C014B015A011901D90180
:105030001D921C92009749F0DC01ED91FC911197B3
:10504000309719F08081811117C089E02896CDBF73
:10505000DEBFDF91CF911F910F91FF90EF90DF9016
:10506000CF90BF90AF909F908F907F906F905F9008
:105070004F903F902F9008952581368112968D9103
:105080009C9113972817390701F781810E943835C1
:1050900080FDDBCFF7010190F081E02DE983FA83F9
:1050A000D7011F968C911F978111D0CF1E962C91FE
:1050B0001E9721FD02C087E0C9CF50968D919D912A
:1050C0000D90BC91A02DAC01BD014A0D5B1D611D71
:1050D000711D481759076A077B0718F45C01A094F3
:1050E000B094A114B10409F456C1F701B296EB8350
:1050F000FC8397012E5D3D4F2D833E83EF82F88622
:10510000E0C0E981FA81E184F284F1E0EF1AF1086C
:10511000AC01BD0139E076956795579547953A956D
:10512000D1F7E422F522E114F10491F5892B8A2BC1
:105130008B2B09F01CC1AF81B88516966D917D91BE
:105140008D919C911997611571058105910509F45F
:1051500042C1613071058105910509F475C16F3F48
:10516000FFEF7F078F079F0709F4FAC0EF81F885EB
:10517000648B758B868B978B468057806084718497
:1051800045284628472821F46683778380879187BE
:10519000EF81F885868587FD08C184899589A68970
:1051A000B7899C01AD012250310941095109E981BA
:1051B000FA818789908DA18DB28D0297A109B109DD
:1051C000281739074A075B0708F03EC10185128599
:1051D000D8010E945C3843A454A465A476A4460E6A
:1051E000571E681E791E411451046104710409F4AC
:1051F0002BC14E0C5F1C611C711C6501CD2CDD2484
:10520000C694C114D10409F48BC0C7018C0D9D1D37
:105210000817190718F46801CE18DF088601A301E2
:105220009201B401A981BA8111968C910E945335E3
:10523000811196C0EF81F885808D918DA28DB38DFF
:1052400084199509A609B709A60160E070E08417E2
:105250009507A607B70708F4DAC09601322F222770
:10526000330FEF81F885820E931E80899189A28980
:10527000B389820F931FA11DB11D808B918BA28BCF
:10528000B38B42855385648575857C011A2F0B2F5E
:1052900084179507A607B70728F47A01162F072F5A
:1052A000EF81F885E286F38614870587F101408156
:1052B0005181420F531F40835183A21AB30A09F44C
:1052C00065C0AC01BD01517066277727452B462B81
:1052D000472B09F416CF917020E032E0281B390BE0
:1052E000A216B30608F495018296D401EF81F885E1
:1052F000E80FF91FCF01820F931FAC016F817885F2
:105300009D919193E417F507D9F76F837887DB01B7
:105310001E968C911E9780681E968C93FB01A3CFDE
:10532000EF81F885808D918DA28DB38D84159505C3
:10533000A605B705A9F180899189A289B38942851B
:1053400053856485758584179507A607B70708F404
:1053500049C0EF81F885408E518E628E738EBBCF2F
:10536000EF80F88481E0D7011F968C936FCEEF8198
:10537000F8854489558966897789CF010E9407138A
:10538000611571058105910509F0E3CEEF80F88480
:10539000D7011E962C912064F701268780E056CE17
:1053A00080899189A289B389D4CF208D318D428D96
:1053B000538D01E010E06B817C81A981BA81119647
:1053C0008C910E9453358111CBCFEF81F885868572
:1053D0008F778687E2CE40E050E0BA01CD010E948F
:1053E0000713CECF01E010E0A30192016B817C8115
:1053F000A981BA8111968C910E943F358111B0CF5D
:10540000EF81F88580899189A289B389A2CFBF01F4
:10541000FC01FE2FEE27FF0FAF01480D591DAB8198
:10542000BC812D813E81FA018191AF018D93A2173C
:10543000B307C9F76F837887DB011E968C911E979F
:105440008F771E968C9309CFEF80F88482E0F70166
:105450008787FCCD2F923F924F925F926F927F92FF
:105460008F929F92AF92BF92CF92DF92EF92FF9274
:105470000F931F93CF93DF93CDB7DEB7CF54D109EE
:10548000CDBFDEBF6C015B0119821A82009709F45F
:1054900053C1DC019C91913278F09A3309F44CC1EC
:1054A000A6014F5F5F4FFA0103C08A3309F441C17F
:1054B0009F0181918132C8F7E0908F24F090902471
:1054C000E114F10409F43AC1E982FA82F70180811A
:1054D000882309F40DC1F70181810E94383580FDD0
:1054E00007C1B601CE0101960E94211B81110AC19C
:1054F00098A597FD25C1A114B10409F403C1D501F4
:1055000019961C924F89588D698D7A8D452B462BA3
:10551000472B09F4F7C0EB8DFC8D9081903209F494
:105520002BC2953009F441C2D50119969C9341E0F4
:1055300050E09181903209F42CC2953009F433C2C5
:105540009A012F5F3F4FD501A40FB51F19969C9369
:105550009281903209F41BC2953009F422C2A9014C
:105560004F5F5F4FD501A20FB31F19969C93938194
:10557000903209F40AC2953009F421C29A012F5FD2
:105580003F4FD501A40FB51F19969C93948190327B
:1055900009F4F9C1953009F410C2A9014F5F5F4FBA
:1055A000D501A20FB31F19969C939581903209F4EF
:1055B000E8C1953009F4FFC19A012F5F3F4FD50133
:1055C000A40FB51F19969C939681903209F4D7C108
:1055D000953009F4F8C1A9014F5F5F4FD501A20FC3
:1055E000B31F19969C939781903209F4C3C19530EB
:1055F00009F4E7C19A012F5F3F4FD501A40FB51FF2
:1056000019969C939085903289F0953009F4D1C118
:10561000D501A20FB31F4EE219964C93D9011196F2
:10562000AA0DBB1D2E5F3F4F19969C93918590321A
:1056300009F4B3C1953009F4B2C1A9014F5F5F4FBE
:10564000D501A20FB31F19969C939285903209F44D
:10565000A2C1953009F4ABC19A012F5F3F4FD5012C
:10566000A40FB51F19969C93D501A20FB31F1996CD
:105670001C929385D50118969C931897478D50E0FE
:1056800060E070E0762F652F542F4427968D492BCC
:10569000762F652F542F4427958D492B762F652F14
:1056A000542F4427948D492B4D935D936D937C9398
:1056B0001397418D50E060E070E0762F652F542FF6
:1056C0004427908D492B762F652F542F4427978997
:1056D000492B762F652F542F44279689492B1696F0
:1056E0004D935C93179714966D937C9315970AC00E
:1056F000D7011C9211961C9280E00E94303580FFE9
:1057000021C083E0C15BDF4FCDBFDEBFDF91CF9112
:105710001F910F91FF90EF90DF90CF90BF90AF90CF
:105720009F908F907F906F905F904F903F902F90C1
:1057300008952417350741F18BE0E4CF8CE0E2CFE8
:1057400086E0E0CFD70113961C9244244A94542C4F
:105750003201F70147A650AA61AA72AA01E010E03F
:1057600020E030E0A901B7016D5C7F4F81810E948C
:105770003F35882381F0D7019F964D925D926D92BF
:105780007C92D29781E0BECF9033B1F66A01BFEF31
:10579000CB1ADB0A91CEF70117A610AA11AA12AAFA
:1057A0004701FEEC8F1AFDEF9F0AD4018C9190E027
:1057B000982F88271701BFEC2B1ABDEF3B0AF10188
:1057C0002081822B85359A4A11F08DE09BCFD7013D
:1057D000D3968C91D397893E09F425C18B3E09F469
:1057E0001DC1F701EB50FE4F8081882309F412C1DF
:1057F0003796808190E0A0E0B0E0BA2FA92F982FD3
:10580000882731972081822BBA2FA92F982F88279C
:1058100031972081822BBA2FA92F982F8827319773
:105820002081822B89A79AA7ABA7BCA7F701EB5FC2
:10583000FD4F8081882309F4E9C03796808190E08C
:10584000A0E0B0E0BA2FA92F982F882731972081A8
:10585000822BBA2FA92F982F882731972081822B4E
:10586000BA2FA92F982F882731972081822B8DA7B7
:105870009EA7AFA7B8ABF701EB5EFD4F80818823F1
:1058800009F4C0C03796808190E0A0E0B0E0BA2F64
:10589000A92F982F882731972081822BBA2FA92FE3
:1058A000982F882731972081822BBA2FA92F982FE4
:1058B000882731972081822B89AB9AABABABBCABED
:1058C000F701EB5DFD4F808181117FC080E090E0AA
:1058D000DC018DAB9EABAFABB8AF49A45AA46BA4AF
:1058E0007CA42D964CAE5DAE6EAE7FAE2D9741146E
:1058F00051046104710409F0A3C24DA45EA46FA415
:1059000078A82D964CAE5DAE6EAE7FAE2D9741144D
:1059100051046104710409F08AC249A85AA86BA80D
:105920007CA82D964CAE5DAE6EAE7FAE2D97411429
:1059300051046104710409F071C24DA85EA86FA8FA
:1059400078AC2D964CAE5DAE6EAE7FAE2D97411409
:1059500051046104710409F438CFB301A201C701F5
:105960000E944206823008F4A8C0843009F02DCF8E
:1059700081E0C8CE9A0146CE40E050E0DACDA901E0
:1059800032CE9A0121CEA90110CE9A01FFCDA901F4
:10599000EECD9A01DDCD9A0167CEA90156CE95EEE6
:1059A0004CCE95EEDCCD95EECBCD95EEBDCD95EE06
:1059B00053CE95EE2DCE95EEFFCD95EEEECD95EE38
:1059C000DDCD95EE17CE95EE06CEF701E45DFD4FE9
:1059D000808190E0A0E0B0E0BA2FA92F982F88270F
:1059E00031972081822BBA2FA92F982F88273197A2
:1059F0002081822BBA2FA92F982F882731972081B9
:105A0000822B67CF80E090E0DC0156CF80E090E011
:105A1000DC012DCF80E090E0DC0104CFD5968C91A5
:105A2000803909F0DECEF701E459FF4F808190E024
:105A3000A0E0B0E0BA2FA92F982F882731972081B6
:105A4000822BBA2FA92F982F882731972081822B5C
:105A5000BA2FA92F982F882731972081822BBB2717
:105A600086349144A445B10511F1F701E857FF4F81
:105A7000808190E0A0E0B0E0BA2FA92F982F88276E
:105A800031972081822BBA2FA92F982F8827319701
:105A90002081822BBA2FA92F982F88273197208118
:105AA000822B86349144A445B34309F09ACE2D96B7
:105AB0001CAE1DAE1EAE1FAE2D97D701DF968C918A
:105AC000DF9790E0982F8827DE962C91822B811506
:105AD000924009F07ACEF701E65BFF4F808190E0BB
